:020000040800F2
:10580000982C00200159000899B900088DAF0008B4
:1058100095B9000835630008410601080000000042
:10582000000000000000000000000000D9D60008C1
:1058300043650008000000009FCA000811D9000855
:105840001B5900081B5900081B5900081B59000868
:105850001B5900081B5900081B5900081B59000858
:105860001B5900081B5900081B5900081B59000848
:105870001B5900081B5900081B5900081B59000838
:105880001B5900081B5900081B5900081B59000828
:10589000890501081B5900081B59000865650008A7
:1058A0001B5900081B5900081B5900081B59000808
:1058B0001B590008CDD900081B5900081B590008C6
:1058C0001B5900081B5900081B5900081B590008E8
:1058D0001B590008E1DD0008F5DD00081B59000830
:1058E0001B5900081B5900081B590008DFF80CD091
:1058F00000F00AFB00480047BD120108982C002068
:105900000648804706480047FEE7FEE7FEE7FEE759
:10591000FEE7FEE7FEE7FEE7FEE7FEE7BDD900088B
:10592000ED580008202A04DB203A21FA02F0002179
:10593000704721FA02F3D040C2F12002914008439F
:105940001946704740EA01039B0703D009E008C9E4
:10595000121F08C0042AFAD203E011F8013B00F834
:10596000013B521EF9D27047D2B201E000F8012B80
:10597000491EFBD270470022F6E710B513460A46CF
:1059800004461946FFF7F0FF204610BD421C10F8F0
:10599000011B0029FBD1801A704700000FB400B52D
:1059A0008DB010A909900B9000914FF0FF300A9034
:1059B00000200C9005480690054807906A4609A803
:1059C0000F9900F057F90DB05DF814FB915C0008D9
:1059D000AF5C00082DE9FF5F1D464FF0FF3BD5E9A6
:1059E000014691465F464FF00008A9697F1C019867
:1059F0008847296A824688470028F6D1BAF1FF3FD6
:105A00000CD024F4C064002E19DD600614D5BAF160
:105A10002B0F09D0BAF12D0F0ED103E0584604B078
:105A2000BDE8F09F44F48064A9697F1C0198884711
:105A3000761E8246002E02DDBAF1300F03D0B9F196
:105A4000000F26D032E0A969761E44F400747F1C52
:105A5000019888478246002E05DDBAF1780F06D0FE
:105A6000BAF1580F03D0B9F1000F10D01EE0B9F110
:105A7000000F02D0B9F1100F18D1A969761E24F4D5
:105A800000747F1C019888478246102002E008209D
:105A900000E00A20814609E008FB0908A969761E92
:105AA00044F400747F1C019888478246002E05DD6F
:105AB0004946504600F0CAF80028EDDAE969019835
:105AC0008847A00502D46FF00100A8E7E00725D1C0
:105AD000600613D5600502D5C8F1000000E040461D
:105AE00029680A1D2A600968220501D5087015E099
:105AF000220701D5088011E008600FE02868011D29
:105B000029600068210502D580F8008006E02107A1
:105B100002D5A0F8008001E0C0F8008038467EE79A
:105B20002DE9F04D81EA030404F0004B21F000451B
:105B300014464FF0000A23F0004150EA050220D03D
:105B400054EA01021DD0C5F30A570246C5F31303F8
:105B5000C1F31300C1F30A5640F4801543F48013D7
:105B6000A7EB0608101BD64608F2FD3873EB0500BC
:105B700002D308F1010801E092185B41B8F1000F6F
:105B800003DA00200146BDE8F08D00204FF48011BB
:105B9000064684460EE0171B73EB050705D3121B60
:105BA00063EB050306434CEA010C49084FEA300059
:105BB00092185B4150EA0107EDD152EA030012D07E
:105BC00082EA040083EA0501084305D0101BAB41BB
:105BD00006D20122002306E000224FF0004302E03B
:105BE0006FF0010253101AEB06004CEB085110EB5A
:105BF0000A0041EB0B01BDE8F04D00F069B80EB5AD
:105C0000C10F80EAE0700844CA07002140F2334324
:105C10008DE80E000A460B4600F069F803B000BD9F
:105C200030B50B46014600202022012409E021FA6C
:105C300002F59D4205D303FA02F5491B04FA02F569
:105C40002844151EA2F10102F1DC30BD3A2800D231
:105C5000303820F02002412A01D3A2F137008842D7
:105C600001D34FF0FF307047026811441378016090
:105C700018467047D16004495161044911620021FE
:105C80001161114600F078B9695C00086F5F000887
:105C9000426842B1016811F8013B23B1521EC0E9CC
:105CA0000012184670470121C160881E7047426883
:105CB0005AB1C368016843B983688B4205D0491E55
:105CC000521CC0E90012002070474FF0FF307047AF
:105CD00010B5141E73F1000408DA401C41F10001F4
:105CE00092185B411A4301D120F0010010BD2DE94B
:105CF000F04D92469B4611B1B1FA81F202E0B0FA42
:105D000080F22032904600F011F904460F4640EA36
:105D10000A0041EA0B0153465A46084313D0114684
:105D200053EA010019D0C8F140025046FFF7FAFDCE
:105D300005460E4650465946424600F0F7F80843DD
:105D400005D0012004E020463946BDE8F08D002052
:105D5000054346EAE0762C4337430A986305E40A94
:105D6000A0EB08000022FD0A44EA47540A3002D59D
:105D700000200146E9E7010510196941DDE9084500
:105D800000196941BDE8F04DA2E72DE9FE4F8046BC
:105D900081EA0300C00F0C46009021F0004123F07F
:105DA0000045B8EB0200A94105D240462146904685
:105DB0001C460B46024623F00040104347D0270DF7
:105DC000C7F30A00C3F30A510290401A0190402819
:105DD0006BDAC3F3130040F4801B0098924620B1A5
:105DE0000023D2EB030A63EB0B0B01985946C0F179
:105DF0004002504600F09AF806460D465046594675
:105E0000019A00F0A2F810EB08006141002487EA33
:105E1000115284EAE7731A4340D0009A62B3019AA0
:105E2000012A4FEA075215DC001B61EB02014FF01B
:105E3000004202EA0752CDE90042001C41F5801100
:105E400032462B46FFF753FF03B0BDE8F08F4046C4
:105E50002146F9E7001B61EB0201001C41F58013AC
:105E600000185B412018A2F5001747EB030140EA38
:105E7000D570B6196D4111E06D084FEA360645EA56
:105E8000C0754FEA0752001B61EB0201001C41F58F
:105E9000801149084FEA30000019514132462B4623
:105EA00003B0BDE8F04FFFF713BF00980122400098
:105EB0000023D0EB020263EBE073009821464FEA27
:105EC000E074B8EB000061EB0401E9E783F0004304
:105ED0005BE781F0004158E730B5041E71F1000422
:105EE00004DB4FF00044404264EB0101141E73F1E7
:105EF000000405DB1C464FF00043524263EB0403F1
:105F0000994208BF904230BD064C074D06E0E0685C
:105F100040F0010394E8070098471034AC42F6D3F0
:105F2000FFF7E8FCE02D0108002E0108202A04DB21
:105F3000203A00FA02F1002070479140C2F120039C
:105F400020FA03F3194390407047202A06DBCB1751
:105F5000203A41FA02F043EAE07306E041FA02F324
:105F6000D040C2F120029140084319467047C0B2A8
:105F70004FF4F05100F096B92DE9F34F8BB04FF08C
:105F8000000801F10C000C464FF0010B46460DF1E4
:105F9000080A01906269012101989047051E2DD0E1
:105FA000252D2CD0216A8847C0B162690121019852
:105FB0009047216A88470028F7D1411E62690198FD
:105FC000904700E0761CA1690B988847216A8847B2
:105FD0000028F7D1E1690B988847DBE7A1690B98A6
:105FE00088470746A84201D1761CD3E7E1690B98A0
:105FF00088477F1C02D1B8F1000F6FD046E100271F
:1060000062693D463946019890472A2804D1626961
:106010000121019890470125DFF8849262690121EE
:1060200001989047A0F130010A290AD24F45E5DCDA
:1060300007EB870100EB4107303FDFD445F0100547
:10604000ECE7E90601D46FF000476C280AD04C2831
:1060500014D0682815D06A280DD074281CD07A284E
:106060001AD01DE062690121019890476C2802D086
:1060700045F0040514E045F002050DE045F020056B
:106080000AE06269012101989047682802D045F032
:10609000080505E045F40065626901210198904713
:1060A000C4E9015765283DD019DC58287AD00CDCAA
:1060B000452837D004DC252826D0412831D131E0CD
:1060C00046282FD047282CD12CE05B2877D0612898
:1060D00028D063287CD0642823D15AE0D0E06F28F0
:1060E00048D008DC66281DD067281BD0692821D03D
:1060F0006E2816D127E0702845D0732868D07528FF
:1061000047D078280DD14DE0A1690B988847054606
:1061100025283FF469AFE1690B9888476D1C3FF46F
:106120006AAFB3E023466A466FF001000B99AFF304
:1061300000809EE045F040006060A80723464FF0D5
:10614000000236D43EE0E8077FF447AF2068011D27
:1061500021600068290501D506701BE7290701D5D4
:10616000068017E7A90703D5F117C0E9006111E719
:1061700006600FE745F040006060A80723464FF037
:10618000080216D41EE040F60E0125EA0100606008
:1061900016E045F040006060A80723464FF00A0271
:1061A00007D40FE045F040006060A80708D52346FB
:1061B00010226FF001000B99AFF3008059E007E067
:1061C000234610226FF001000B99FFF703FC50E00B
:1061D0004FF000094F464B46632802D05B2806D09B
:1061E00040E0E80601D40120A06001273AE062699E
:1061F0000121019890475E2805D14FF0010962699D
:10620000494601989047216939B900210A46534609
:1062100043F82120491C0829FADBB0B3216969B988
:10622000C11700EBD16253110AEB830122F01F0268
:10623000821A01200B68904003430B6062690121C0
:10624000019890475D28E8D1B9F1000F09D00020EE
:10625000514651F82020D24341F82020401C082804
:10626000F7DB02AB224600976FF001000B99AFF30A
:10627000008000280CDA401C08D1BBF1000F05D0CB
:106280004FF0FF300DB0BDE8F08FFFE74046F9E773
:10629000E90701D108F1010806444FF0000B79E647
:1062A000CCCCCC0C7F2801D9002208E0064A02EBB6
:1062B0005002C007127800D1120902F00F0201202B
:1062C0009040084070470000082D010870B58C18F8
:1062D00010F8015B15F0070301D110F8013B2A11FA
:1062E00006D110F8012B03E010F8016B01F8016BE7
:1062F0005B1EF9D12B0705D40023521E0DD401F8E3
:10630000013BFAE710F8013BCB1A921C03E013F8AB
:10631000015B01F8015B521EF9D5A142D8D30020E0
:1063200070BD10B5142007F03BF90321142007F0CD
:10633000D4F910BD00BFFEE730B50346042B15D0DD
:1063400007DC7BB1012B0ED0022B0DD0032B30D1FB
:106350000BE0202B0BD0212B18D0222B22D0232B6B
:1063600027D125E026E025E024E023E022E00020FC
:1063700003E00C5C114D2C54401C0728F9DB002075
:106380000F4C207001200F4C207013E0002003E020
:106390000A4C245C0C54401C0728F9DB0020084CF4
:1063A000207007E006480078401C054C207001E092
:1063B00000E000BF00BF002030BD0000E80000206A
:1063C000000000200100002000207047002003E0B2
:1063D0000021064A1154401CB0F5167FF8D3002066
:1063E000034908800349088070470000F804002032
:1063F0000C0000200E00002010B5002204490548C2
:1064000007F069FE0449034807F05EFE002010BD56
:10641000F0120020440A0020080F00202DE9F0416E
:1064200005460E461449306808602946134807F0AF
:106430004BFE377812480488002113E0685C114A4B
:106440001055601C80B24FF4167290FBF2F302FB01
:10645000130084B20C480088844202D10220BDE8B7
:10646000F081491CB942E9D305480480034807F08C
:1064700007FE0020F3E7000034000020440A00205B
:106480000C000020F80400200E0000202DE9F0414F
:1064900004460D4600260A48D0F8B872D7F8140210
:1064A00010B10120BDE8F0812A462146044807F0DA
:1064B00012FE034807F093FE06463046F2E700005E
:1064C000440A00202DE9F04107468846154604217C
:1064D000052000F029F880210A2007F0FEF80024AA
:1064E00005E0395D09200AF0ADF8601CC4B24445EE
:1064F000F7DB032101200AF0A5F8FF2400BF0520E7
:1065000007F04EF80646601EC4B21CB106F0040047
:106510000028F4D0222007F043F82870212007F04B
:106520003FF86870BDE8F08170B505460C46284616
:1065300007F036F8064626EA040128460AF082F8F3
:1065400070BD704710B500F0D5FA002003490870FF
:106550004FF416710248FFF70EFA10BD110000202B
:10656000F804002010B5202001F0ACFD10BD01465C
:10657000002048608860C8618861086248730873B9
:10658000086108754875002205E0002301F1240028
:106590008354501CC2B2102AF7DB002205E000230E
:1065A00001F134008354501CC2B2102AF7DB0022E0
:1065B00003E000208854501CC2B2042AF9DB0020FA
:1065C000704772B603E01E2164200AF055FEFAE718
:1065D0000021074AD1610749096941F00401054AD0
:1065E00011611146096941F04001116170470000D5
:1065F000E81B0020002002400021074AD161074922
:10660000096941F00201054A1161114648610969B1
:1066100041F0400111617047E81B0020002002405A
:106620000022054BDA61054A126942F00102034B70
:106630001A61018070470000E81B00200020024022
:1066400000201E49C96801F0100139B11C49C9690F
:1066500041F002011A4AD16140F010001749C9689F
:1066600001F0040139B11649C96941F00101144A28
:10667000D16140F004001149C96901F0010169B11B
:106680000F49C96941F004010D4AD16100BF0B49AE
:10669000C96921F00101094AD16100BF00BF40F280
:1066A0000111884206D10549C96921F00101034A57
:1066B000D16101E00149C86000BF7047002002407D
:1066C000E81B002070B5044601F0A8FE054609E06D
:1066D000601C38B124B101F0A1FE401BA04201D9D9
:1066E000032070BD1248C06800F001000028EFD1FF
:1066F0000F48C06800F0200020B100BF20200C49E6
:10670000C86000BF0A48C06800F0100048B90848D7
:10671000C06900F0010020B90548C06800F004001D
:1067200018B1FFF78DFF0120DBE70020D9E700005B
:10673000002002402DE9F0419AB00746642101A8EB
:10674000FFF719F94FF0000800209F490860002466
:106750009E480578002600F0B5F9642001F086FB1C
:10676000F8B28DF80400380A8DF8050001AA02215C
:1067700040F2031000F072FC642001F077FB9448B3
:106780000078AA287ED1924840785528FAD19048BE
:1067900080790028F6D1DBE08D48017A407A01EB60
:1067A00000244FF6F17084422ED18A4800784328A5
:1067B0000DD100F087F985480570012001F056FBE6
:1067C00085A00BF00DFF00201AB0BDE8F08100207D
:1067D0007E49087022468DA101A809F05BFF01A83F
:1067E0000BF0FEFE642101A8FFF7C5F84FF47A70A4
:1067F00001F03CFB701CC6B24AF6AA209349096816
:1068000008600020704908604FF6F27084422CD175
:106810007048007843280BD100F054F96B4805709C
:10682000012001F023FB6CA00BF0DAFE0020CBE787
:10683000002066490870224674A101A809F02AFFC9
:1068400001A80BF0CDFE642101A8FFF794F84FF4E6
:106850007A7001F00BFB00205B490860701CC6B227
:106860004AF6AA207949096808604FF6F370844215
:106870002ED15848007843280DD100F023F9534811
:10688000057000E068E0012001F0F0FA52A00BF082
:10689000A7FE002098E700204C49087022465BA123
:1068A00001A809F0F7FE01A80BF09AFE642101A8E7
:1068B000FFF761F84FF47A7001F0D8FA00204249EE
:1068C0000860701CC6B24AF6AA20604909680860D0
:1068D0004FF6F47084421BD1002600203B4908701B
:1068E00022464AA101A809F0D5FE01A80BF078FEC6
:1068F000642101A8FFF73FF84FF47A7001F0B6FA6F
:106900000020314908603248017A407A01EB0024C6
:106910004FF6F37084420CD0401E844209D0401ED2
:10692000844206D0C01C844203D014B14FF0010849
:1069300000263C2E0CD100264FF416712448FFF798
:106940001AF82248057042A00BF04AFE00203BE7EF
:10695000B8F1000F3FF420AF1D488079E0B11C482A
:10696000017A407A01EB0024642101A8FFF703F8C3
:10697000224641A101A809F08DFE01A80BF030FECE
:10698000002011490860114805704FF41671104835
:10699000FEF7F1FF002017E7B8F1010F02D140A088
:1069A0000BF01EFE4FF47A7001F060FA4FF416718E
:1069B0000748FEF7E0FF0020034908600120034973
:1069C0000870002000E700003C00002011000020BB
:1069D000A0020020F80400207B22526563656976DE
:1069E00065223A7B22537461747573223A32367D84
:1069F0002C2246223A7B2254797065223A22436146
:106A00006E73656C227D7D0A000000007B2252655A
:106A10006365697665223A7B2253746174757322CB
:106A20003A32367D2C2246223A7B225479706522F6
:106A30003A22456E726F6C6C222C2253746174750D
:106A400073223A25647D7D0A00000000B80800200A
:106A50007B2246223A7B2254797065223A22456E87
:106A6000726F6C6C222C22537461747573223A31EC
:106A7000387D7D0A000000007B2246223A7B2254AA
:106A8000797065223A22456E726F6C6C222C22530B
:106A90007461747573223A25647D7D0A00000000DC
:106AA0007B2246223A7B2254797065223A22456E37
:106AB000726F6C6C222C22537461747573223A309D
:106AC0007D7D0A0000B58DB034216846FEF753FF86
:106AD0006A4600214FF4987000F0C0FA642001F07B
:106AE000C5F94FF416710248FEF745FF0DB000BD21
:106AF000A002002010B59AB0642101A8FEF73BFF68
:106B00000024FFF7DFFF642001F0B0F901AA0021A3
:106B10004FF4837000F0A2FA0948827909A101A814
:106B200009F0B8FD01A80BF05BFDC82001F09EF94B
:106B30004FF416710248FEF71EFF00201AB010BD78
:106B4000A00200207B2252656365697665223A7B4C
:106B500022537461747573223A32367D2C22462298
:106B60003A7B2254797065223A2244656C657465DB
:106B7000414C4C222C22537461747573223A256463
:106B80007D7D0A0030B599B0044600201B4908609D
:106B9000FFF798FF642001F069F9E0B28DF800007A
:106BA000200A8DF801006A46022140F2051000F02B
:106BB00055FA642001F05AF91148807930B910482B
:106BC000827910A1684609F065FD09E00C48017A58
:106BD000407A01EB00252A460AA1684609F05AFDD1
:106BE00068460BF0FDFCC82001F040F94FF4167127
:106BF0000348FEF7C0FE002019B030BD3C00002065
:106C0000A00200207B2252656365697665223A7B8B
:106C100022537461747573223A32367D2C224622D7
:106C20003A7B2254797065223A2244656C6574651A
:106C3000222C22537461747573223A25647D7D0A77
:106C40000000000010B59AB0002018490860FFF756
:106C500039FF642001F00AF901AA002140F207106F
:106C600000F0FCF9962001F001F91148017A407A10
:106C700001EB00240E48807928B922460DA101A815
:106C800009F008FD04E022461A4901A809F002FDB6
:106C900001A80BF0A5FC642001F0E8F84FF4167190
:106CA0000348FEF768FE00201AB010BD3C0000202B
:106CB000A00200207B2252656365697665223A7BDB
:106CC00022537461747573223A32367D2C22462227
:106CD0003A7B2254797065223A22476574456D707B
:106CE00074794944222C224944223A25647D7D0A44
:106CF000000000009C2D01082DE9F043ADF5297D31
:106D00000646002500204C4908704C490860FFF7F2
:106D1000D9FE642001F0AAF80020484908604FF429
:106D200016714748FEF727FE642001F09FF8F0B285
:106D30008DF84002300A8DF84102642001F096F887
:106D400090AA02214FF4857000F088F9642001F0C8
:106D50008DF8002413E03A48005DA5280ED138498B
:106D6000601C085C5A2809D1A01C085C0A2805D1BF
:106D7000E01C085C012801D1254603E0641CB4F541
:106D8000167FE8D300BF2E49281D095C2C4A681DD8
:106D9000105C01EB0020071F114605F10800095C9B
:106DA000401C105C01EB00294FF40F7101A8FEF7A5
:106DB000E2FD4FF47A7001F059F8002407E005F184
:106DC0000A0020441E49085C01A90855641CBC4205
:106DD000F5D301201849087019488079B0B93B46AD
:106DE000324618A190A809F055FC90A80BF0F8FBCA
:106DF0000A2001F03BF8394601A8FFF747FB0A20BB
:106E000001F034F81EA00BF0EBFB0CE00C48017A0B
:106E1000407A01EB002842461BA190A809F03AFCF9
:106E200090A80BF0DDFB4FF416710548FEF7A3FDAB
:106E30000DF5297DBDE8F083100000203C00002006
:106E4000A00200207B2246223A7B225479706522E0
:106E50003A225265616454656D706C617465222CD0
:106E6000224944223A25642C224461746153697A90
:106E700065223A25642C2244617461223A22000082
:106E8000227D7D0A000000007B2246223A7B2254AC
:106E9000797065223A225265616454656D706C6147
:106EA0007465222C22537461747573223A25647DB3
:106EB0007D0A000010B59AB0642101A8FEF75BFDC1
:106EC00000204E49086001AA00214FF4817000F0B3
:106ED000C5F8052000F0CAFF4948017A407A01EB65
:106EE000002447480078AA2819D145488079B8B9C4
:106EF0004FF6F47084427AD0002C78D0224641A11B
:106F000001A809F0C7FB01A80BF06AFB642101A8E6
:106F1000FEF731FD4FF416713948FEF72CFD66E09F
:106F20002046232C53D006DC122828D015280FD059
:106F300021285AD152E041283BD0A0F510502F38DB
:106F400000282FD0A0F55B40C53800284DD137E090
:106F5000224637A101A809F09DFB01A80BF040FBD8
:106F600000203D4908704FF416712548FEF703FDD7
:106F7000642101A8FEF7FFFC00201AB010BD221DFD
:106F80002BA101A809F086FB01A80BF029FB4FF407
:106F900016711B48FEF7EFFC642101A8FEF7EBFC1D
:106FA0000020EAE74FF416711548FEF7E4FC0020D4
:106FB000E3E74FF416711248FEF7DDFC0020DCE732
:106FC0004FF416710E48FEF7D6FC0020D5E74FF4BB
:106FD00016710B48FEF7CFFC0020CEE74FF4167178
:106FE0000748FEF7C8FC0020C7E700BF00BF4FF40A
:106FF00016710348FEF7BFFC0020BEE73C000020EE
:10700000A00200207B2246223A7B2254797065221E
:107010003A224964656E74696679222C2254656D42
:10702000706C617465223A25647D7D0A0000000061
:107030007B2246223A7B2254797065223A224964A7
:10704000656E74696679222C22537461747573229B
:107050003A25647D7D0A0000110000202DE9F041F1
:107060008EB005460C469046002655208DF804004B
:1070700001A800F019FA5536AA208DF805000DF187
:10708000050000F011FAAA362846E91705EB116150
:107090000912A5EB0121C9B28DF806100DF1060009
:1070A00000F002FA2846E91705EB11610912A5EB79
:1070B000012131448EB2E91705EB1161090A8DF8FF
:1070C00007100DF1070000F0EFF92846E91705EB6E
:1070D000116106EB21218EB22046E11704EB11610C
:1070E0000912A4EB0121C9B28DF8081002A800F022
:1070F000DBF92046E11704EB11610912A4EB012131
:1071000031448EB2E11704EB1161090A8DF80910C0
:107110000DF1090000F0C8F92046E11704EB1161F8
:1071200006EB21218EB200270EE018F80710B81DDB
:1071300001AA115408EB070000F0B6F918F807008F
:10714000304486B2781CC7B2A742EEDB09E00021CA
:10715000B81D01AA1154B91D881800F0A5F9781CB2
:10716000C7B2102FF3DB3046F11706EB116109129D
:10717000A6EB0121C9B28DF81A100DF11A0000F02A
:1071800093F93046F11706EB1161090A8DF81B10CF
:107190000DF11B0000F088F900270EB0BDE8F0816A
:1071A0002DE9F0438DB004460E461746994600255A
:1071B00000BF5A208DF80000684600F075F95A3576
:1071C000A5208DF801000DF1010000F06DF9A53545
:1071D0002046E11704EB11610912A4EB0121C9B2A9
:1071E0008DF802100DF1020000F05EF92046E11763
:1071F00004EB11610912A4EB01210D44E11704EB2A
:107200001161090A8DF803100DF1030000F04CF92B
:107210002046E11704EB116105EB2125B01CC0B23B
:107220008DF8040001A800F03FF9B01CC0B205447D
:10723000B01C000A8DF805000DF1050000F034F9CE
:10724000B01C05EB1025F8B28DF806000DF1060014
:1072500000F02AF9F8B20544380A8DF807000DF15C
:10726000070000F021F905EB17254FF000080BE0AF
:1072700009EB080000F018F919F80800054405208A
:1072800000F0F4FD08F10108B045F1D3E8B28DF843
:107290002F000DF12F0000F007F9280A8DF83000BB
:1072A0000CA800F001F94FF000080DB0BDE8F08324
:1072B000F0B5ADF5297D07460D4614464FF40F7124
:1072C00001A8FEF758FBA178607801EB002721792F
:1072D000E07801EB0025062004E0225C811F01AB71
:1072E0005A54401CA91D8842F7D3FFF7EBFB6420DA
:1072F00000F0BCFD4FF416713548FEF73CFB002052
:1073000034490860002603E0002090A98855761CC7
:10731000642EF9D3642000F0A9FDE8B28DF8400294
:10732000280A8DF841024AF6AA202B49096808600C
:1073300090AA022140F20B10FFF790FE642000F0AB
:1073400095FD01AB3A46294640F20B10FFF728FFA6
:107350004AF6AA202049096808604FF47A7000F0C4
:1073600085FD1B480078A52829D119488079002877
:1073700017D1A178607801EB00221548017A407A94
:1073800001EB0020824208D13A4614A190A809F0EE
:1073900081F990A80BF024F911E020A00BF020F95E
:1073A0000DE00B48007A602802D128A00BF018F9F4
:1073B0000748007A702802D12FA00BF011F94FF482
:1073C00016710348FEF7D7FA01200DF5297DF0BDAF
:1073D000A00200203C000020B80800207B224622AA
:1073E0003A7B2254797065223A2257726974655447
:1073F000656D706C617465222C22577269746554D6
:10740000656D706C6174654944223A25642C225381
:107410007461747573223A307D7D0A007B224622A6
:107420003A7B2254797065223A2257726974655406
:10743000656D706C617465222C2253746174757370
:10744000223A3130307D7D0A000000007B22462246
:107450003A7B2254797065223A22577269746554D6
:10746000656D706C617465222C2253746174757340
:10747000223A39367D7D0A007B2246223A7B22540D
:10748000797065223A22577269746554656D706C23
:10749000617465222C22537461747573223A313100
:1074A000327D7D0A0000000010B5044601231A4613
:1074B0002146024803F0FFFC10BD0000BC0900207B
:1074C0002DE9F04F8BB006464FF0000B00203060E6
:1074D000DD480078012811D0022802D0032827D1E6
:1074E00019E00520D94908701520D94908703720BE
:1074F000D84908702020D849087026E00420D349D4
:1075000008701020D24908703920D2490870002034
:10751000D149087019E00520CC4908701520CC49E4
:1075200008703720CB4908704020CB4908700CE028
:107530000520C64908701420C54908703720C54980
:1075400008700020C449087000BF00BF09A803F0FC
:10755000F1FD38B109A803F0EDFD18B101200BB021
:10756000BDE8F08F002405E009A8005DBB4908557F
:10757000601CC4B2042CF7DB1021002003F01EFDB8
:1075800008B10120EBE701A9012003F071FD08B16A
:107590000120E4E79DF80500B0498860084680684E
:1075A00000028860084680689DF804100844AB49D2
:1075B00088609DF8090048600846406800024860FD
:1075C000084640689DF808100844A44948600846E9
:1075D000406800024860084640689DF8071008446B
:1075E0009E49486008464068000248600846406876
:1075F0009DF806100844994948600846008900F43F
:107600000040B0F5004F12D108460089C0F30E00CB
:1076100088600846806846F6292148408F4988607E
:10762000084640684BF2A62148408C4948608B4888
:1076300040688B490860874801788448007803F0E7
:10764000BDFC08B10A208AE701A98148007803F04F
:107650000FFD08B1142082E7002406E001A8015DB7
:107660007E4824300155601CC4B2102CF6DB4FF06C
:10767000010A00240BE001A8015D01AA04F1080041
:10768000105C814201D04FF0000A601CC4B2042C8F
:10769000F1DB00240BE001A9201D085C095D81F0ED
:1076A000FF01884201D04FF0000A601CC4B2042CD4
:1076B000F1DB9DF8100050B99DF81100FF2806D1AC
:1076C0009DF8120018B99DF81300FF2801D04FF063
:1076D000000ABAF1000F3AD09DF807005F49C8616F
:1076E0000846C0690002C8610846C0699DF80610D6
:1076F00008445A49C8610846C0690002C861084682
:10770000C0699DF8051008445449C8610846C0691D
:107710000002C8610846C0699DF8041008444F493A
:10772000C8611421062003F049FC08B10C2016E7BB
:107730006946182003F0A4FC08B10D200FE7474963
:10774000009808730846C0693060002007E74FF0D2
:107750004B08002406E041482430005D80EA080818
:10776000601CC4B20F2CF6DB3C4890F83300404557
:1077700001D00320F3E6394890F827003749C86163
:107780000846C0690002C8610846C16990F8260031
:1077900008443249C8610846C0690002C861084609
:1077A000C16990F8250008442C49C8610846C069A1
:1077B0000002C8610846C06991F8241008442749AE
:1077C000C861084690F82D703F0290F82C000744DD
:1077D000084690F82B502D0290F82A0005442D02FF
:1077E000084690F8290005442D02084690F8280024
:1077F0000544084690F82E90B9F1010F03D0B9F175
:10780000020F12D108E005EB070B1448C069584578
:1078100001D00520A3E60AE0A5EB070B0F48C069DD
:10782000584501D006209AE601E0072097E600BF00
:107830000A4890F82F0000F01F0008490873084616
:10784000C069306000208AE648020020440200201F
:10785000450200204602002047020020881C00202C
:107860004C0200202DE9F04F8DB0074689460025D7
:1078700000203860C9F80000FB480078012811D0CA
:10788000022802D0032827D119E00520F749087003
:107890001520F74908703720F64908702020F6496E
:1078A000087026E00420F14908701020F0490870A3
:1078B0003920F04908700020EF49087019E00520D0
:1078C000EA4908701520EA4908703720E94908702C
:1078D0004020E94908700CE00520E44908701420B4
:1078E000E34908703720E34908700020E249087036
:1078F00000BF00BF0BA803F01DFC38B10BA803F0BC
:1079000019FC18B101200DB0BDE8F08F002405E08E
:107910000BA8005DD9490855601CC4B2042CF7DBE4
:107920001021002003F04AFB08B10120EBE703A976
:10793000012003F09DFB08B10120E4E79DF80D0054
:10794000CE498860084680680002886008468068E2
:107950009DF80C100844C94988609DF811004860E2
:107960000846406800024860084640689DF81010CC
:107970000844C2494860084640680002486008461A
:1079800040689DF80F100844BC49486008464068AC
:1079900000024860084640689DF80E100844B74948
:1079A00048600846008900F40040B0F5004F12D14D
:1079B00008460089C0F30E0088600846806846F6D5
:1079C00029214840AD498860084640684BF2A6210D
:1079D0004840AA494860A9484068A9490860A548A4
:1079E0000178A248007803F0E9FA08B10A208AE792
:1079F0009D480078012835D103A9122003F038FBF7
:107A000008B114207FE79DF81000AB2812D19DF833
:107A10001100CD280ED19DF80F502D029DF80E00BB
:107A200005442D029DF80D0005442D029DF80C0023
:107A3000054400E000259DF80C00FF280CD19DF8BE
:107A40000D00FF2808D19DF80E00FF2804D19DF8F5
:107A50000F00FF2800D100258A48854200D100256B
:107A6000C9F8005003A98248007803F001FB08B16F
:107A7000142048E7002406E003A8015D7F48243075
:107A80000155601CC4B2102CF6DB012002900024CA
:107A90000BE003A8015D03AA04F10800105C814219
:107AA00001D000200290601CC4B2042CF1DB002441
:107AB0000BE003A9201D085C095D81F0FF018842ED
:107AC00001D000200290601CC4B2042CF1DB9DF8B0
:107AD000180050B99DF81900FF2806D19DF81A002A
:107AE00018B99DF81B00FF2801D0002002900298D1
:107AF00090B39DF80F006149C8610846C069000253
:107B0000C8610846C0699DF80E1008445B49C86109
:107B10000846C0690002C8610846C0699DF80D109A
:107B200008445649C8610846C0690002C861084651
:107B3000C0699DF80C1008445049C8611421062002
:107B400003F03CFA08B10C20DDE601A9182003F08F
:107B500097FA10B10D20D6E607E04849019808735E
:107B60000846C06938600020CDE64FF04B0A00247B
:107B700006E042482430005D80EA0A0A601CC4B274
:107B80000F2CF6DB3D4890F83300504501D0032020
:107B9000B9E63A4890F827003849C8610846C069F4
:107BA0000002C8610846C16990F8260008443349BC
:107BB000C8610846C0690002C8610846C16990F8FA
:107BC000250008442D49C8610846C0690002C86103
:107BD0000846C06991F8241008442849C86108463D
:107BE00090F82D804FEA082890F82C008044084631
:107BF00090F82B60360290F82A00064436020846B8
:107C000090F8290006443602084690F828000644F9
:107C1000084690F82EB0BBF1010F03D0BBF1020F64
:107C200012D108E006EB08051448C069A84201D04B
:107C3000052068E60AE0A6EB08051048C069A842DE
:107C400001D006205FE601E007205CE600BF0B489C
:107C500090F82F0000F01F00084908730846C0691B
:107C6000386000204FE60000480200204402002057
:107C7000450200204602002047020020881C002008
:107C80004C02002017FCFF0001460E2924D2DFE839
:107C900001F007090B0D0F11131517191B1D1F21DB
:107CA000192070471A20FCE71C20FAE71D20F8E78E
:107CB0001E20F6E72020F4E72120F2E72220F0E75B
:107CC0002420EEE72520ECE72620EAE72820E8E755
:107CD0002920E6E72A20E4E70020E2E701460E2912
:107CE00024D2DFE801F007090B0D0F111315171946
:107CF0001B1D1F21192070471A20FCE71C20FAE7E2
:107D00001D20F8E71E20F6E72020F4E72120F2E707
:107D10002220F0E72420EEE72520ECE72620EAE702
:107D20002820E8E72920E6E72A20E4E70020E2E728
:107D300070B50A480468001D0568001D06683444D3
:107D400054B108220649204603F091FA042204495E
:107D50001031284603F08BFA70BD0000E8F7FF1FD2
:107D6000CE0000200146002291F82100022808D010
:107D70000420886300BF002081F8200000BF01209C
:107D800070470868006820F00E000B6818600868EB
:107D9000006820F001000B68186091F84030012065
:107DA0009840CB6B5860012081F8210000BF002073
:107DB00081F8200000BF1046E2E7000070B50446DD
:107DC000002594F82100022803D00420A063012597
:107DD00048E02068006820F00E00216808602068F4
:107DE000006820F00100216808601F49206888426F
:107DF00001D1012026E01C4914312068884201D1BC
:107E000010201FE0184928312068884201D18015D0
:107E100018E015493C312068884201D1801411E0F6
:107E2000114950312068884202D14FF4803009E076
:107E30000D4964312068884202D14FF4801001E07E
:107E40004FF08070084908394860012084F821000B
:107E500000BF002084F8200000BF606B10B12046F6
:107E6000616B8847284670BD0800024070B5044623
:107E700000F0D4FA06462546681C10B10448007884
:107E8000054400BF00F0CAFA801BA842FAD370BDB7
:107E9000080100202DE9F04104460E460127002587
:107EA00000BF2648007E012802D10220BDE8F081F3
:107EB00001202249087600BF2068022813D14CF225
:107EC0005030FEF7FFFB90BB0120FEF781FB4CF228
:107ED0005030FEF7F7FB07461948006920F0040010
:107EE0001749086123E04CF25030FEF7EBFBF0B984
:107EF0004FF0FF303060A56812E02846FEF77CFBAB
:107F00004CF25030FEF7DEFB07460D48006920F0CA
:107F100002000B4908610FB1356007E005F5806587
:107F2000D4E9021001EB8020A842E6D800BF00BFD0
:107F300000200249087600BF3846B7E7E81B00205A
:107F4000002002400348006940F0800001490861B8
:107F500000207047002002402DE9FE4F05468B4669
:107F600017469846012600240020029000BF2448AE
:107F7000007E012802D10220BDE8FE8F01202049A9
:107F8000087600BF4CF25030FEF79CFB064686BBDD
:107F9000012D02D10120029006E0022D02D1022023
:107FA000029001E00420029000241EE02201B94664
:107FB000C24648465146FDF7B5FC80B2019002200A
:107FC00000FB04B000900199FEF72AFB4CF2503000
:107FD000FEF778FB06460B48006920F001000949CE
:107FE000086106B104E0601CC4B202988442DDDB83
:107FF00000BF00BF00200249087600BF3046BBE743
:10800000E81B00200020024000200849096901F017
:10801000800151B10649054A516006495160114637
:10802000096901F0800101B1012070470020024080
:1080300023016745AB89EFCD70B5044600F0EEF93A
:108040000546202C22D12021114800F0D9F958B939
:1080500010A00AF0C5FA00BF00F0E0F9401B40F69E
:10806000B8318842F8D870BD2021094800F0C8F91D
:1080700001280BD10DA00AF0B3FA00BF00F0CEF931
:10808000401B40F6B8318842F8D8ECE700BFEAE779
:10809000000C01407B22446F6F72223A7B225374A2
:1080A000617465223A317D7D0A0000007B22446FB5
:1080B0006F72223A7B225374617465223A307D7D5F
:1080C0000A00000010B5044604480068204020B1B2
:1080D000024804602046FFF7AFFF10BD14040140C2
:1080E0002DE9F8470346002294466EE14FF001085F
:1080F00008FA02F4D1F8008008EA0400A0427DD119
:10810000DFF8DCA2D1F80480A8EB0A09D0453AD008
:1081100014DCB8F1030F50D009DCB8F1000F31D0F6
:10812000B8F1010F1CD0B8F1020F49D120E0B8F12D
:10813000110F18D0B8F1120F42D11EE0B9F5881F07
:1081400025D006DCB9F5803F20D0B9F5801F37D1A6
:108150001AE0B9F5001F18D0B9F5041F30D117E0A7
:10816000D1F80CC02DE0D1F80C8008F1040C28E007
:10817000D1F80C8008F1080C23E0D1F80C8008F14C
:108180000C0C1EE000BF00BF00BF00BF00BF00BF5F
:10819000D1F80880B8F1000F02D14FF0040C0BE0C9
:1081A000D1F80880B8F1010F03D14FF0080C1C6121
:1081B00002E04FF0080C5C6103E04FF0000C00E0BF
:1081C00000BF00BFFF2801D8984601E003F1040872
:1081D0004646FF2802D84FEA820803E0A2F10808C9
:1081E0004FEA88084746D6F800804FF00F0909FA91
:1081F00007F928EA09080CFA07F900E088E048EADC
:108200000908C6F80080D1F8048008F08058B8F159
:10821000805F7DD100BFDFF8CC81D8F8188048F0AE
:108220000108DFF8C091C9F81880C846D8F818804E
:1082300008F00108CDF8008000BF00BF4FEAB93850
:108240004FEA920958F829504FEA82784FEA187994
:108250004FF00F0808FA09F825EA0805DFF88881C9
:10826000434502D14FF0000816E0DFF88081434516
:1082700002D14FF001080FE0DFF87481434502D1CD
:108280004FF0020808E0DFF86C81434502D14FF05F
:10829000030801E04FF004084FEA82794FEA1979A8
:1082A00008FA09F848EA0505DFF84C814FEA920917
:1082B00048F82950D1F8048008F48038B8F5803F98
:1082C0000AD1DFF83881D8F8008048EA0008DFF8E2
:1082D0002C91C9F8008009E0DFF82081D8F80080EF
:1082E00028EA0008DFF81491C9F80080D1F804806A
:1082F00008F40038B8F5003F10D1DFF8008108F12C
:108300000408D8F8008048EA0008DFF8F09000E0A0
:108310005AE009F10409C9F800800DE0DFF8DC80BB
:1083200008F10408D8F8008028EA0008DFF8CC90AB
:1083300009F10409C9F80080D1F8048008F4801814
:10834000B8F5801F0ED1DFF8B48008F10808D8F81E
:10835000008048EA0008DFF8A49009F10809C9F88C
:1083600000800DE0DFF8948008F10808D8F800805C
:1083700028EA0008DFF8849009F10809C9F80080AC
:10838000D1F8048008F40018B8F5001F0ED1DFF80A
:108390006C8008F10C08D8F8008048EA0008DFF883
:1083A0005C9009F10C09C9F800800DE0DFF84C8001
:1083B00008F10C08D8F8008028EA0008DFF83C90A3
:1083C00009F10C09C9F80080521CD1F8008028FA84
:1083D00002F8B8F1000F7FF489AEBDE8F88700001D
:1083E000000011100010024000080140000C014084
:1083F0000010014000140140080001400004014049
:10840000024693680B400BB1012000E0002070474A
:108410000AB1016101E00B04036170470148006883
:10842000704700000001002070B504460CB901201F
:1084300070BD4CF6CC402168086045F2555021686B
:108440000860D4E9001048602168A0688860FFF7E0
:10845000E5FF05460BE0FFF7E1FF401B272806D9A3
:108460002068C06800F0030008B10320E0E720683E
:10847000C06800F003000028EDD14AF6AA20216868
:1084800008600020D4E70000034800680349097829
:1084900008440149086070470001002008010020DD
:1084A00010B50848006840F0100006490860032035
:1084B00000F0A8F8002000F007F800F02BF80020EA
:1084C00010BD00000020024070B504460E48007840
:1084D0004FF47A71B1FBF0F00C490968B1FBF0F58B
:1084E000284602F068F808B1012070BD102C07D2B0
:1084F00000222146501E00F047F80548046001E0C4
:108500000120F2E70020F0E7080100201C01002014
:108510000401002008B500BF1148806940F0010047
:108520000F4988610846806900F00100009000BF93
:1085300000BF00BF0846C06940F08050C8610846CF
:10854000C06900F08050009000BF00BF00BF054927
:10855000486820F0E06040F00070486000BF08BD4F
:10856000001002400000014001460846002809DBD7
:1085700000F01F0301229A4043099B0003F1E0230E
:10858000C3F8002100BF70472DE9F05F80460D461B
:108590001646002708F092F8074639462A46334621
:1085A00001F00700C0F1070ABAF1040F02D94FF039
:1085B000040A01E0C0F1070AD14600F1040ABAF149
:1085C000070F02D24FF0000A01E0A0F1030AD446DF
:1085D0004FF0010A0AFA09FAAAF1010A0AEA020AA4
:1085E0000AFA0CFA4FF0010B0BFA0CFBABF1010B82
:1085F0000BEA030B4AEA0B042146404608F066F8F2
:10860000BDE8F09F00BF00F00702064B19684FF667
:10861000FF031940044B0B4343EA0221014B19604D
:1086200000BF70470CED00E00000FA0570B505468C
:108630000C4604F08000802808D104F0070000EB0D
:10864000800605F1280000EBC60105E004EB840676
:1086500005F5B47000EBC6011AB900200873CB8091
:1086600004E0012008730B81180C4881002070BDC4
:10867000704770B504460D4605EB850304F12801EB
:1086800001EBC3014A692946D4F8E80206F0AEF8C6
:1086900070BD70B504460D4605EB850304F5B47155
:1086A00001EBC3014A692946D4F8E80206F01EF935
:1086B00070BD70B504460E4606F0800080280AD1D1
:1086C00006F0070000EB800104F1280000EBC10573
:1086D0000120687009E006F0070000EB800104F556
:1086E000B47000EBC1050020687006F00700287028
:1086F00000BF94F8A802012801D1022070BD01201A
:1087000084F8A80200BF2946206806F077FF00BF62
:10871000002084F8A80200BF00BFEFE770B5044650
:108720000E4606F00F006168884201D9012070BD35
:1087300006F0800080280AD106F0070000EB8001D7
:1087400004F1280000EBC1050120687009E006F083
:10875000070000EB800104F5B47000EBC1050020B8
:1087600068700020A87006F00700287000BF94F819
:10877000A802012801D10220D9E7012084F8A8022B
:1087800000BF2946206807F095F800BF002084F854
:10879000A80200BF00BFCAE72DE9F04105460C461C
:1087A000174607F48040002850D02868B0F85010D1
:1087B000207801EBC000801C296801F5806131F848
:1087C0001000C0F30906A069B04203D3A069801B62
:1087D000A06101E00020A061A069A8B900BF2278D3
:1087E0005200296831F812104BF68F7201EA02002C
:1087F00080F4005040F4004141F0800123785B0098
:108800002A6822F8131000BF07F04000A8B100BF8B
:1088100000BF22785200296831F8121048F68F7292
:1088200001EA020040F4004141F0C00123785B00FE
:108830002A6822F8131000BF00BF002E55D02289ED
:1088400061693346286807F0ABFE4EE02868B0F84F
:108850005010207801EBC000801D296801F580616F
:1088600031F81000C0F30906A069B04203D3A06933
:10887000801BA06101E00020A061A069A8B900BF31
:1088800022785200296831F812104BF68F7201EAF3
:10889000020080F4005040F4004141F08001237850
:1088A0005B002A6822F8131000BF07F04000A8B947
:1088B00000BF00BF22785200296831F8121048F634
:1088C0008F7201EA020040F4004141F0C0012378B8
:1088D0005B002A6822F8131000BF00BF2EB1628926
:1088E00061693346286807F05BFE3046BDE8F081D9
:1088F0002DE9F04705460C46904608F04000002858
:1089000071D02868B0F85010207801EBC000801CAE
:10891000296801F5806131F81000C0F30907A069EA
:10892000B84203D9A069C01BA06101E00020A0618A
:10893000A06900287ED100BF6078C8B900BF29684F
:108940002A68B2F8502011442278022303EBC202B5
:1089500001F5806303EB420000BF028848F2FF3359
:108960001A400280028842F40042028000BF13E0F5
:108970006078012810D100BF28682A68B2F850201A
:1089800010442278022303EBC20200F5806303EB5C
:10899000420100220A8000BF00BF00BF2968607842
:1089A00010BB00BF2B68D5F800C0BCF850C06344B2
:1089B00094F800C04FF0060909EBCC0C03F5806970
:1089C00009EB4C0000BFB0F800C048F2FF390CEAD8
:1089D000090CA0F800C0B0F800C04CF4004CA0F89E
:1089E00000C000BF11E0C0E0607801280DD1286808
:1089F000B0F8500001442078062303EBC00001F5D5
:108A0000806303EB40020020108000BF21782846DD
:108A1000FFF72FFE08F48040002816D000BF00BFEB
:108A200022785200296831F8121048F68F7201EA54
:108A3000020000E00AE040F4004141F48141237863
:108A40005B002A6822F8131000BFCAE108F48040D6
:108A5000A8B100BF00BF22785200296831F8121077
:108A600048F68F7201EA020040F4004141F481426D
:108A700023785B00296821F8132000BF00BF94F819
:108A800024000128E1D1606938446061E06938441C
:108A9000E0612169206A884204D32669206A801B2C
:108AA00020620BE0206A20B93E46002084F82400B2
:108AB00004E0002084F82400266A206200BF607869
:108AC000B8BB00BF2A682968B1F850100A44217861
:108AD000022303EBC10102F5806303EB4101084669
:108AE00000BF56B9038848F2FF3C03EA0C03038039
:108AF000038843F40043038019E03E2E0BD800BFE7
:108B0000710806F0010303B1491C4FF6FF7303EA35
:108B1000812303800BE000BF710906F01F0303B936
:108B2000491E4FF4004343EA8123038000BF00BF86
:108B300013E0FFE7607801280FD100BF28682A689A
:108B4000B2F8502010442278022303EBC20200F551
:108B5000806303EB42010E8000BF00BFB3B22289E5
:108B60006169286807F04BFD3BE12868B0F85010B8
:108B7000207801EBC000801D296801F5806131F883
:108B80001000C0F30907A069B84203D3A069C01B55
:108B9000A06101E00020A061A06900287DD100BF94
:108BA0006078C8B900BF29682A68B2F8502011441B
:108BB0002278022303EBC20201F5806303EB42003B
:108BC00000BF028848F2FF331A400280028842F454
:108BD0000042028000BF13E06078012810D100BF7E
:108BE00028682A68B2F8502010442278022303EB48
:108BF000C20200F5806303EB420100220A8000BF3D
:108C000000BF00BF2968607808BB00BF2B68D5F89B
:108C100000C0BCF850C0634494F800C04FF006098F
:108C200009EBCC0C03F5806909EB4C0000BFB0F8F0
:108C300000C048F2FF390CEA090CA0F800C0B0F8F7
:108C400000C04CF4004CA0F800C000BF10E06078F9
:108C500001280DD12868B0F850000144207806237F
:108C600003EBC00001F5806303EB4002002010809D
:108C700000BF21782846FFF7FCFC08F4804000285C
:108C800016D100BF00BF22785200296831F81210B7
:108C900048F68F7201EA020000E00AE040F4004169
:108CA00041F4814123785B002A6822F8131000BF49
:108CB00097E008F48040A8B900BF00BF22785200B6
:108CC000296831F8121048F68F7201EA020040F468
:108CD000004141F4814123785B002A6822F8131097
:108CE00000BF00BF94F8240001287AD1606938449D
:108CF0006061E0693844E0612169206A884204D3F8
:108D00002669206A801B20620BE0206A20B93E465B
:108D1000002084F8240004E0266A0020206284F801
:108D2000240000BF2A68607890BB00BFD5F800C05F
:108D30002968B1F850108C4421784FF0060909EBEE
:108D4000C1010CF5806909EB4101084600BF76B905
:108D5000B0F8009048F2FF3A09EA0A09A0F800903A
:108D6000B0F8009049F40049A0F8009020E03E2EB1
:108D70000FD800BF710806F00109B9F1000F00D04B
:108D8000491C4FF6FF7909EA8129A0F800900FE00D
:108D900010E000BF710906F01F09B9F1000F00D102
:108DA000491E4FF4004949EA8129A0F8009000BF0C
:108DB00000BF0FE0607801280CD12868B0F850009F
:108DC00002442078062101EBC00002F5806101EB2E
:108DD00040031E8000BFB3B262896169286807F052
:108DE0000EFC00BF22785200296831F8121048F6B4
:108DF000BF7201EA020080F0100080F0200040F411
:108E0000004141F0800123785B002A6822F81310AA
:108E100000BF0020BDE8F087024601F0070000EB2C
:108E2000800302F5B47000EBC300C06970472DE900
:108E3000F04705460E4690461F464FF0000906F0E3
:108E4000800080280AD106F0070000EB800105F1C0
:108E5000280000EBC1040120607009E006F0070063
:108E600000EB800105F5B47000EBC10400206070D8
:108E700006F007002070C4F81080E770607808B131
:108E80002078E081022F01D10020207100BF95F8E9
:108E9000A802012802D10220BDE8F087012085F850
:108EA000A80200BF2146286806F07EF900BF002016
:108EB00085F8A80200BF4846EEE72DE9F0410546D7
:108EC0000E461746984606F0070000EB800105F5B0
:108ED000B47000EBC1046761C4F818800020E06141
:108EE000607006F00700207006F0070020B92146E8
:108EF000286806F07AFD03E02146286806F075FD33
:108F00000020BDE8F08170B504460D4605F007006D
:108F10006168884201D9012070BD05F08000802879
:108F20000AD105F0070000EB800104F1280000EBF6
:108F3000C1060120707007E005EB850104F5B470EF
:108F400000EBC106002070700120B07005F0070032
:108F5000307000BF94F8A802012801D10220DBE79D
:108F6000012084F8A80200BF3146206806F00FFDFA
:108F700005F0070020B904F52C71206806F097FC75
:108F800000BF002084F8A80200BF00BFC4E72DE99D
:108F9000F04105460E4690461F4606F0070000EBDE
:108FA000800105F1280000EBC104C4F81480A7611A
:108FB000012084F8240027620020E0610120607015
:108FC00006F00700207006F0070020B92146286847
:108FD00006F00BFD03E02146286806F006FD0020A0
:108FE000BDE8F0817FB50446206807F0D5FA00F4AB
:108FF0000040B0F5004F02D1204603F057FB206837
:1090000007F0CAFA00F48060B0F5806F0FD12068D5
:10901000B0F844004FF6FF3108402168A1F8440041
:10902000204600F09FF90021204600F0BBF920689F
:1090300007F0B2FA00F48040B0F5804F08D1206804
:10904000B0F844004BF6FF7108402168A1F84400D5
:10905000206807F0A1FA00F40050B0F5005F08D1D5
:109060002068B0F844004DF6FF7108402168A1F86F
:109070004400206807F090FA00F48050B0F5805F5B
:109080001DD12068B0F840004FF6FB710840216800
:10909000A1F840002068B0F840004FF6F771084092
:1090A0002168A1F84000204600F06EF92068B0F871
:1090B00044004EF6FF7108402168A1F84400206882
:1090C00007F06AFA00F40060B0F5006F55D1002592
:1090D00007E06900206830F811002DF81500681CC1
:1090E000C5B2082DF5D32068B0F8400040F001006B
:1090F0002168A1F840002068B0F840004FF6FE71EA
:1091000008402168A1F8400000BF2068B0F8440082
:1091100000F480600028F8D02068B0F844004FF6D2
:10912000FF3108402168A1F84400002507E03DF820
:1091300015006A00216821F81200681CC5B2082DCC
:10914000F5D32068B0F8400040F008002168A1F88D
:1091500040002068B0F844004FF2FF7108402168D9
:10916000A1F844002068B0F8400040F004002168F5
:10917000A1F84000204600F057F9206807F00CFAEB
:1091800000F40070B0F5007F0BD12068B0F8440007
:109190004FF6FF5108402168A1F84400204600F036
:1091A000FAF8206807F0F8F900F48070B0F5807FD5
:1091B00008D12068B0F844004FF6FF6108402168EC
:1091C000A1F844007FBD30B585B0044614B9012034
:1091D00005B030BD94F8A90228B9002084F8A8028F
:1091E000204600F09DF8032084F8A902206806F0CC
:1091F00054FB142204F110016846FCF7A3FB94E829
:109200000F0006F0F7F920B1022084F8A90201202E
:10921000DEE70021206807F0E8F9002531E00121B0
:1092200005EB850204F1280000EBC200417005EB5C
:10923000850104F1280000F8315005EB850100EBB1
:10924000C100C581002105EB850204F1280000EB77
:10925000C200C17005EB850204F1280000EBC200DA
:10926000016105EB850204F1280000EBC2004161B9
:1092700005EB850204F1280000EBC2008161681C47
:10928000C5B26068A842CAD800252AE0002105EBD3
:10929000850204F5B47000EBC200417005EB850156
:1092A00004F5B47000F83150002105EB850200EBA5
:1092B000C200C17005EB850204F5B47000EBC2007A
:1092C000016105EB850204F5B47000EBC200416159
:1092D00005EB850204F5B47000EBC2008161681CE7
:1092E000C5B26068A842D1D8142204F110016846C2
:1092F000FCF728FB94E80F0006F0C4FA20B1022026
:1093000084F8A902012063E7002084F824000120EA
:1093100084F8A902206806F0B2FA002058E700009D
:1093200038B504460D492068884215D100BF0C4865
:10933000C06940F400000A49C8610846C06900F4E9
:109340000000009000BF00BF002211461420FFF76C
:109350001BF91420FFF708F938BD0000005C00403D
:109360000010024070B504460125A068022801D013
:10937000FDF727F92946D4F8E80205F0EBFBD4F80D
:10938000E80205F09DFB70BD10B50446D4F8E80274
:1093900005F0C4FB10BD10B50446D4F8E80205F092
:1093A000C8FB10BD70B504460D4600BF94F8A80276
:1093B000012801D1022070BD012084F8A80200BF5D
:1093C00084F824502946206807F012F900BF0020D5
:1093D00084F8A80200BF00BFEDE710B5044604F50D
:1093E0002C71D4F8E80205F0CCFB10BD10B5044692
:1093F00000BF94F8A802012801D1022010BD01206D
:1094000084F8A80200BF206807F0B4F801212046C4
:10941000FFF72EF9206806F02FFA00BF002084F82D
:10942000A80200BF00BFE9E710B50446D4F8E8027F
:1094300005F000FCA06928B10348006840F0060070
:109440000149086010BD000010ED00E00120014955
:109450000862704700000E422DE9F04385B00646D1
:109460003BA30FCB01AC0FC43DA0006800904FF0B0
:109470000008002500270024A146012E30D0022E2E
:1094800055D0102E5ED137484468006800F08070D7
:1094900000B301A8C4F38341475C04F4803070B189
:1094A00030484068C0F340401DF8008004F480302C
:1094B00040B12D48B0FBF8F000FB07F502E02B4867
:1094C00007FB00F52748406800F48000B0F5800FE6
:1094D00001D1A94603E068000321B0FBF1F932E0B5
:1094E0002048046A04F44070B0F5807F05D104F090
:1094F000020010B14FF4004918E004F44070B0F5D8
:10950000007F07D11748406A00F0020010B149F609
:1095100040490BE004F44070B0F5407F06D111489B
:10952000006800F4003008B14FF224490BE000F06D
:109530009BF90C494968C1F38131491C4900B0FBD2
:10954000F1F900E000BF00BF484605B0BDE8F08378
:1095500002030405060708090A0B0C0D0E0F101074
:10956000010200000010024000127A0000093D00D4
:10957000F8B5044600260025207800F001000028F8
:109580006BD000274348C06900F0805070B900BF1D
:109590004048C06940F080503E49C8610846C069F3
:1095A00000F08050009000BF00BF01273A480068DB
:1095B00000F48070B0B93848006840F480703649D3
:1095C0000860FEF72BFF064606E0FEF727FF801B2C
:1095D000642801D90320F8BD2F48006800F480708A
:1095E0000028F2D02B48006A00F440752DB3A08803
:1095F00000F44070A84220D02648006A20F440754C
:10960000012026490860002008602248056205F014
:10961000010090B1FEF702FF064608E0FEF7FEFEED
:10962000801B41F28831884201D90320D3E71948D1
:10963000006A00F002000028F0D01648006A20F40A
:1096400040706168084313490862012F04D108463D
:10965000C06920F08050C86100BF207800F002008F
:10966000022807D10B48406820F44040A168084315
:1096700008494860207800F01000102807D10548FC
:10968000406820F48000E1680843024948600020F7
:10969000A1E7000000100240007000404004424278
:1096A0007047000070B504460D460CB9012070BD2E
:1096B0005A48006800F00700A8420ED257480068D8
:1096C00020F007002843554908600846006800F06C
:1096D0000700A84201D00120E9E7207800F002004D
:1096E00002281DD1207800F00400042805D14C4840
:1096F000406840F4E0604A494860207800F0080083
:10970000082805D14648406840F460504449486004
:109710004348406820F0F000A16808434049486091
:10972000207800F0010078B36068012806D13C4839
:10973000006800F4003090B90120B8E760680228A2
:1097400006D13748006800F0007040B90120AEE74C
:109750003348006800F0020008B90120A7E730484C
:10976000406820F00300616808432D494860FEF717
:1097700055FE064609E0FEF751FE801B41F2883196
:10978000884202D9032092E707E02548406800F0AC
:109790000C006168B0EB810FEDD12048006800F04B
:1097A0000700A8420ED91D48006820F00700284392
:1097B0001A4908600846006800F00700A84201D076
:1097C000012074E7207800F00400042807D1144831
:1097D000406820F4E060E16808431149486020785F
:1097E00000F00800082808D10D48406820F46050B7
:1097F000216940EAC1000A49486000F045F808497B
:109800004968C1F30311074A515CC8400649086022
:1098100006480068FEF758FE002048E70020024096
:1098200000100240802C01081C01002004010020CF
:1098300001200149C86470470000424201480068A5
:10984000704700001C01002000B5FFF7F7FF044936
:109850004968C1F30221034A515CC84000BD0000C1
:1098600000100240902C010800B5FFF7E7FF044903
:109870004968C1F3C221034A515CC84000BD0000E1
:1098800000100240902C0108F0B585B00FF26C0C6E
:109890009CE8E01001A8A0E8E0101CA52D68009548
:1098A00000210022002300240020194D696801F0E6
:1098B0000C05F5B1042D02D0082D19D101E0154891
:1098C00019E001ADC1F38346AC5D01F4803555B1BB
:1098D0000F4D6D68C5F340451DF805200D4D6543DE
:1098E000B5FBF2F302E00C4D04FB05F3184602E071
:1098F00000BF084800BF00BF05B0F0BD020304056B
:10990000060708090A0B0C0D0E0F101001020000CB
:109910000010024000127A0000093D0010B5064810
:10992000806800F08000802804D1FFF7B9FE802015
:109930000149887210BD000000100240F8B50446CD
:109940000CB90120F8BD207800F00100002878D083
:10995000F848406800F00C0004280CD0F548406836
:1099600000F00C00082811D1F248406800F4803063
:10997000B0F5803F0AD1EF48006800F400300028BD
:109980005FD0606800285CD10120DBE700BF606821
:10999000B0F5803F06D1E748006840F48030E549E3
:1099A000086028E0606858B9E248006820F4803018
:1099B000E04908600846006820F4802008601AE04A
:1099C0006068B0F5A02F0BD1DA48006840F4802021
:1099D000D84908600846006840F4803008600AE012
:1099E000D448006820F48030D249086008460068F6
:1099F00020F48020086000BF606888B1FEF70EFD8B
:109A0000054606E0FEF70AFD401B642801D9032045
:109A100098E7C848006800F400300028F2D010E051
:109A2000FEF7FCFC054606E0FEF7F8FC401B642848
:109A300001D9032086E7BF48006800F40030002801
:109A4000F2D1207800F00200022857D1B9484068CE
:109A500000F00C0050B1B748406800F00C00082836
:109A600018D1B448406800F4803098B9B148006813
:109A700000F0020020B12069012801D0012061E737
:109A8000AC48006820F0F800616940EAC100A949CB
:109A9000086033E02069E8B10120A7490860FEF7BB
:109AA000BDFC054606E0FEF7B9FC401B022801D9C3
:109AB000032047E79F48006800F002000028F2D02A
:109AC0009C48006820F0F800616940EAC1009949AB
:109AD000086013E0002098490860FEF79FFC0546E7
:109AE00006E0FEF79BFC401B022801D9032029E772
:109AF0009048006800F002000028F2D1207800F0C1
:109B0000080008282DD1A069B8B101208B49086050
:109B1000FEF784FC054606E0FEF780FC401B0228A9
:109B200001D903200EE78348406A00F002000028B4
:109B3000F2D0012003F0A6F913E000207F4908606D
:109B4000FEF76CFC054606E0FEF768FC401B0228A9
:109B500001D90320F6E67748406A00F002000028A9
:109B6000F2D1207800F00400042873D10027714856
:109B7000C06900F0805070B900BF6E48C06940F005
:109B800080506C49C8610846C06900F08050009060
:109B900000BF00BF01276A48006800F48070B0B9B8
:109BA0006748006840F4807065490860FEF736FC3D
:109BB000054606E0FEF732FC401B642801D903206D
:109BC000C0E65F48006800F480700028F2D000BF53
:109BD000E068012806D15748006A40F00100554965
:109BE000086227E0E06858B95248006A20F0010096
:109BF000504908620846006A20F00400086219E033
:109C0000E06805280BD14B48006A40F00400494940
:109C100008620846006A40F0010008620AE0454810
:109C2000006A20F00100434908620846006A20F0FB
:109C30000400086200BFE068A0B1FEF7EFFB054634
:109C400009E0FEF7EBFB401B41F28831884202D964
:109C5000032077E622E03748006A00F0020000287F
:109C6000EFD012E0FEF7DAFB054608E0FEF7D6FB80
:109C7000401B41F28831884201D9032062E62D4819
:109C8000006A00F002000028F0D1012F05D1294818
:109C9000C06920F080502749C86100BFE069C8B39F
:109CA0002448406800F00C00082860D0E0690228D1
:109CB00048D1002020490866FEF7B0FB054606E0C3
:109CC000FEF7ACFB401B022801D903203AE61948F5
:109CD000006800F000700028F2D1206AB0F5803FE3
:109CE00007D11448406820F40030A16808431149A6
:109CF0004860D4E9080108430E49496821F4741109
:109D000008430C49486001200B490866FEF786FBB2
:109D1000054607E03DE0FEF781FB401B022801D924
:109D200003200FE60348006800F000700028F2D01E
:109D30002FE0000000100240000042428004424236
:109D400000700040002014490866FEF767FB0546D6
:109D500006E0FEF763FB401B022801D90320F1E572
:109D60000E48006800F000700028F2D111E0E069B0
:109D7000012800D1E6E50948466806F48031206AEA
:109D8000814204D106F47011606A814201D0012041
:109D9000D8E50020D6E50000000042420010024055
:109DA0002DE9F04780460E46924600250027002404
:109DB000A146404603F0BFF881462548B9FBF0F4C0
:109DC00024480068A04240D02248046040F2B275A6
:109DD0000EE0284606F0ACFE012806D1B4F5B77FA8
:109DE00002D3A4F5B77402E005E0A4F26D146D1C73
:109DF000B4F5B67FEDD800BF2F46A5F5FA60F07038
:109E0000002515E0012D09D1384606F091FE012804
:109E100004D11D2C01D31D3C09E00BE00E48405D30
:109E2000A04203D80C48405D241A00E002E06D1CFB
:109E30001C2CE7D200BF681C7070601CB070B27838
:109E40007178F07803F091F830700020BDE8F08769
:109E50008051010018010020742C01082DE9F04701
:109E600007460C4691460026B046002538684068F3
:109E7000C0F3800010B10120BDE8F087384603F040
:109E80005AF806464FF46160B6FBF0F5B6FBF0F108
:109E900000FB11603C21B0FBF1F060704FF4616099
:109EA000B6FBF0F100FB11603C21B0FBF1F201FBCD
:109EB0001200A0701820B5FBF0F100FB11502070CB
:109EC000182D08D31820B5FBF0F8B5FBF0F100FB16
:109ED0001150207000E025700020CDE770B50446D9
:109EE00000250CB9012070BD607C20B900202074D1
:109EF000204600F05BF802206074204600F085F9EF
:109F000018B1042060740120EDE7204602F0D9FF6B
:109F100018B1042060740120E5E72068406820F053
:109F2000070021684860A06828B11F48006820F039
:109F300001001D4908601C48001F006820F4607083
:109F4000A16808431849091F08606068401C08B1EF
:109F5000656809E00120FFF77FFA05461DB9042076
:109F600060740120BFE76D1E2068806820F00F003C
:109F700040EA1540216888602068C06865F30F00DA
:109F80002168C860204602F0B9FF18B1042060744F
:109F90000120A8E70021E17301216173A173012071
:109FA000607400209FE70000306C004038B5044624
:109FB0000B492068884212D1FFF748FA00BF0948D0
:109FC000C06940F000600749C8610846C06900F0F8
:109FD0000060009000BF00BF01200349086038BD49
:109FE00000280040001002403C0442422DE9F04F9E
:109FF00087B006460F464FF00009002006908046C5
:10A000000024059004900390824600BF48A207CA2E
:10A010008DE80700304602F08EFF81464FF4616004
:10A02000B9FBF0F006904FF46160B9FBF0F100FB72
:10A0300011903C21B0FBF1F0C0B204904FF461608C
:10A04000B9FBF0F100FB11903C21B0FBF1F201FBF8
:10A050001200039018210698B0FBF1F201FB1200E8
:10A060000590F87800F5FA6840F63300804500D98D
:10A07000804640F2B270804500D2804640F2B27510
:10A080000AE0284606F054FD012802D12B4804447A
:10A0900001E02B4804446D1C4545F2D397F801A01C
:10A0A000404606F045FD012804D1BAF1020F01D95E
:10A0B00024480444AAF1010A002507E01DF8050020
:10A0C00040F2A321484304EBC0146D1C5545F5D361
:10A0D00097F802B0ABF1010040F2A321484304EB32
:10A0E000C0140598C0EB4011C1EB002004EB001434
:10A0F0000498C0EB001004EB80040398044400BFF4
:10A10000307C012803D1022007B0BDE8F08F012088
:10A11000307400BF022070742146304602F067FFA1
:10A120000120707400BF0020307400BF00BFEBE757
:10A130001F1C1F1E1F1E1F1F1E1F1E1F0085E2014A
:10A140008033E101805101002DE9F05F04460D46A6
:10A15000904600260027B146B246204602F0EBFEAC
:10A1600007464FF46160B7FBF0F9B9F1180F0AD355
:10A170001820B9FBF0FA0AEB4A00C0004FF4616105
:10A1800000FB01F700E0002700BF207C012802D17E
:10A190000220BDE8F09F0120207400BF02206074FF
:10A1A000B8F1000F0BD128784FF46161484369780A
:10A1B000C1EB011100EB8100A978461812E0287864
:10A1C00002F074FE4FF4616100FB01FB687802F05D
:10A1D0006DFEC0EB00100BEB800BA87802F066FE62
:10A1E0000BEB00063E443146204602F000FF20689B
:10A1F000406820F00500216848600120607400BFBD
:10A200000020207400BF00BFC3E770B504460025DE
:10A210000CB9012070BD2068406820F0080021685A
:10A220004860FEF7FBF8054607E0FEF7F7F8401B2D
:10A23000B0F57A7F01D90320ECE72068406800F090
:10A2400008000028F1D00020E4E710B504460CB95E
:10A25000012010BD606A38B96068B0F5827F00D116
:10A2600005E00021E16102E000212161616100213E
:10A27000A16294F8510028B9002084F850002046CB
:10A2800000F042F8022084F851002068006820F0B5
:10A29000400021680860A08800F48270218901F4E0
:10A2A00004410843A18901F400610843217C01F0C5
:10A2B00002010843217D01F001010843218B01F4D3
:10A2C00000710843217F01F0380108432021095D16
:10A2D00001F080010843218D01F4005108432168F9
:10A2E00008600421A06901EA1040216848602068E4
:10A2F000C06920F400602168C86100206065012009
:10A3000084F851000020A4E710B586B00446002070
:10A3100002900390049005901949206888422DD13D
:10A3200000BF1848806940F480501649886108468B
:10A33000806900F48050019000BF00BF00BF084654
:10A34000806940F0040088610846806900F00400DC
:10A35000019000BF00BFA0200290022003900320C4
:10A36000059002A90848FDF7BBFE4020029000209E
:10A370000390049002A90448FDF7B2FE06B010BD98
:10A380000030014000100240000801402DE9FF5F4D
:10A390000446884691461D460E9E012002900020EC
:10A3A000019000BF94F85000012803D1022004B0AE
:10A3B000BDE8F09F012084F8500000BFFEF72EF8A2
:10A3C000074694F851B060680390AA46BBF1010FAC
:10A3D0000BD00398B0F5827F04D1A06810B9BBF10F
:10A3E000040F02D002200190DBE0B8F1000F03D08F
:10A3F000B9F1000F00D015B901200190D1E094F817
:10A400005100042802D0052084F851000020606526
:10A41000C4F83890E587A587C4F83080E586A5861E
:10A42000206460642068006800F04000402805D087
:10A430002068006840F0400021680860E068B0F5DE
:10A44000006F4AD1606810B1BAF1010F09D1206BD9
:10A4500000882168C860206B801C2063E08E401E4D
:10A46000E08633E02068806800F00200022810D106
:10A47000E08E70B1029801280BD1206B0088216812
:10A48000C860206B801C2063E08E401EE0860020A8
:10A4900002902068806800F0010068B1E08F58B138
:10A4A0002068C068A16B0880A06B801CA063E08F4F
:10A4B000401EE08701200290FDF7B0FFC01BB042B4
:10A4C00004D3701C10B1032001906AE0E08E0028D4
:10A4D000C8D1E08F0028C5D14AE0606810B1BAF158
:10A4E000010F09D1206B007821680873206B401C94
:10A4F0002063E08E401EE08634E02068806800F033
:10A500000200022810D1E08E70B1029801280BD110
:10A51000206B007821680873206B401C2063E08E5C
:10A52000401EE086002002902068806800F0010054
:10A5300068B1E08F58B12068C068A16B0870A06B4B
:10A54000401CA063E08F401EE08701200290FDF7D1
:10A5500065FFC01BB04201D3701C00B916B90320BF
:10A5600001901EE0E08E0028C7D1E08F0028C4D102
:10A570003A463146204603F02FF820B101200190E1
:10A58000202060650DE0A06850B900BF0020009059
:10A590002068C068009020688068009000BF00BFFD
:10A5A00000BF012084F8510000BF002084F8500053
:10A5B00000BF0198FBE670B504462546681EB0F161
:10A5C000807F01D301200FE0681E4FF0E021486139
:10A5D0000F214FF0FF3006F079F800204FF0E02116
:10A5E000886107200861002070BD70477047000037
:10A5F00030B502460B4600BF92F83C00012801D15D
:10A60000022030BD012082F83C0000BF022082F809
:10A610003D00106844681068816824F07004186870
:10A62000044310684460104D1068A8420BD01068B5
:10A63000B0F1804F07D00D4D1068A84203D00C4DEB
:10A640001068A84205D121F08001586801431068C4
:10A650008160012082F83D0000BF002082F83C00AC
:10A6600000BF00BFCDE70000002C01400004004007
:10A670000008004010B504460CB9012010BD94F844
:10A680003D0028B9002084F83C00204600F026F860
:10A69000022084F83D00211D206803F0A1F901206B
:10A6A00084F8460000BF84F83E0001213F20015598
:10A6B000402001554120015500BF00BF012084F812
:10A6C000420043200155442001554520015500BF5B
:10A6D000012084F83D000020D0E7000038B5044692
:10A6E0000D492068884215D100BF0C48C06940F070
:10A6F00002000A49C8610846C06900F002000090E3
:10A7000000BF00BF002211461D20FDF73DFF1D20A8
:10A71000FDF72AFF38BD0000000400400010024091
:10A72000014691F83D00012801D001207047022028
:10A7300081F83D00124B086898420BD00868B0F1D0
:10A74000804F07D00F4B0868984203D00E4B086823
:10A7500098420CD10868806800F00702062A0CD0E5
:10A760000868006840F001000B68186005E00868A0
:10A77000006840F001000B6818600020D6E7000078
:10A78000002C014000040040000800402DE9F04189
:10A7900004460D4600BF94F83C00012802D1022077
:10A7A000BDE8F081012084F83C0000BF022084F85D
:10A7B0003D002068866826F0770626F47F462068EC
:10A7C00086602868502833D00CDC202850D004DC68
:10A7D00000284BD0102851D149E0302849D04028DA
:10A7E0004CD139E060282DD0702807D0B0F5805FBB
:10A7F00003D0B0F5005F41D10DE040E0D5E9021390
:10A800006A68206803F026F92068866846F07706B3
:10A810002068866033E0D5E902136A68206803F097
:10A8200019F92068806840F480402168886026E03B
:10A83000EA686968206803F021F95021206803F074
:10A8400014F91CE0EA686968206803F02AF96021BD
:10A85000206803F00AF912E0EA686968206803F0EA
:10A860000DF94021206803F000F908E000BF00BFA7
:10A8700000BF2968206803F0F8F800E000BF00BFBF
:10A88000012084F83D0000BF002084F83C0000BF98
:10A8900000BF85E7704710B5044620680069C0F323
:10A8A0004000D8B12068C068C0F34000B0B16FF07C
:10A8B000020021680861012020772068806900F08B
:10A8C000030018B12046FFF7E5FF05E0204600F041
:10A8D000ADF8204600F0ABF8002020772068006932
:10A8E000C0F38000D8B12068C068C0F38000B0B168
:10A8F0006FF00400216808610220207720688069D9
:10A9000000F4407018B12046FFF7C4FF05E0204670
:10A9100000F08CF8204600F08AF8002020772068AC
:10A920000069C0F3C000D8B12068C068C0F3C0009F
:10A93000B0B16FF00800216808610420207720681A
:10A94000C06900F0030018B12046FFF7A3FF05E03F
:10A95000204600F06BF8204600F069F800202077D0
:10A9600020680069C0F30010D8B12068C068C0F347
:10A970000010B0B16FF01000216808610820207746
:10A980002068C06900F4407018B12046FFF782FFCC
:10A9900005E0204600F04AF8204600F048F8002084
:10A9A00020772068006900F0010058B12068C06875
:10A9B00000F0010030B16FF001002168086120460D
:10A9C00000F036F820680069C0F3C01058B1206864
:10A9D000C068C0F3C01030B16FF08000216808611A
:10A9E0002046FFF702FE20680069C0F3801058B1CE
:10A9F0002068C068C0F3801030B16FF0400021685B
:10AA00000861204600F020F820680069C0F340107B
:10AA100058B12068C068C0F3401030B16FF020001A
:10AA2000216808612046FFF7E1FD10BD70477047BF
:10AA300010B5044603492068884201D102F06CFE3B
:10AA400010BD0000000400407047704770470000D0
:10AA50002DE9F84F0446206805682068C66820681C
:10AA600047694FF00009CA4605F00F09B9F1000F18
:10AA70000AD105F0200038B106F0200020B12046B0
:10AA800003F058F8BDE8F88FB9F1000F71D007F066
:10AA9000010018B906F4907000286AD005F0010092
:10AAA00030B106F4807018B1206C40F001002064D1
:10AAB00005F0040030B107F0010018B1206C40F03F
:10AAC0000200206405F0020030B107F0010018B167
:10AAD000206C40F00400206405F0080048B106F046
:10AAE000200010B907F0010018B1206C40F00800F8
:10AAF0002064206C68B305F0200028B106F0200027
:10AB000010B1204603F016F820684069C0F3801A9F
:10AB1000206C00F0080010B9BAF1000F22D02046D6
:10AB200002F0DDFF2068406900F04000B0B120680D
:10AB3000406920F0400021684861A06B50B1564840
:10AB4000A16B4863A06BFDF739F910B1A06B416BA5
:10AB500088470CE02046FFF779FF08E02046FFF722
:10AB600075FF04E02046FFF771FF0020206489E7AD
:10AB7000FFE7206B012878D105F01000002874D081
:10AB800006F01000002870D000BF00200090206860
:10AB90000068009020684068009000BF00BF2068F7
:10ABA000406900F04000C0B3A06B006840681FFA25
:10ABB00080F8B8F1000F2FD0A08D40452CDDA4F80F
:10ABC0002E80A06B806920281FD02068C06820F4E8
:10ABD00080702168C8602068406920F00100216809
:10ABE00048612068406920F04000216848612020C9
:10ABF00084F83E00002020632068C06820F0100028
:10AC00002168C860A06BFDF7ADF8A08DE28D801AB9
:10AC100081B22046FFF719FF34E7FFE7A08DE18DF1
:10AC2000401A1FFA80F8E08DE8B1B8F1000F1AD091
:10AC30002068C06820F490702168C860206840696E
:10AC400020F0010021684861202084F83E000020A7
:10AC500020632068C06820F010002168C860414669
:10AC60002046FFF7F2FE0DE7FFE705F0800030B168
:10AC700006F0800018B1204603F04CF802E705F01A
:10AC8000400030B106F0400018B1204602F042FF0B
:10AC9000F8E600BFF6E60000CBDA000810B504467F
:10ACA0000CB9012010BDA06900B100E000BF94F80C
:10ACB0003D0028B9002084F83C00204600F028F828
:10ACC000242084F83D002068C06820F400502168EA
:10ACD000C860204602F0A0FF2068006920F4904080
:10ACE000216808612068406920F02A0021684861D5
:10ACF0002068C06840F400502168C86000202064CB
:10AD0000202084F83D0084F83E000020CAE70000BF
:10AD100010B586B004460020029003900490059080
:10AD20005D49206888423FD100BF5C48806940F49B
:10AD300080405A4988610846806900F4804001904B
:10AD400000BF00BF00BF0846806940F0080088616E
:10AD50000846806900F00800019000BF00BF402055
:10AD60000290022003900320059002A94C48FDF7B1
:10AD7000B7F98020029000200390049002A948486F
:10AD8000FDF7AEF900BF4749486840F0E06040F089
:10AD90000400486000BF002211462520FDF7F4FBA7
:10ADA0002520FDF7E1FB75E03F492068884236D158
:10ADB00000BF3A48C06940F400303849C8610846CD
:10ADC000C06900F40030019000BF00BF00BF08461A
:10ADD000806940F0040088610846806900F0040042
:10ADE000019000BF00BF04200290022003900320C6
:10ADF000059002A92D48FDF773F908200290002064
:10AE00000390049002A92948FDF76AF9002211462F
:10AE10002620FDF7B9FB2620FDF7A6FB3AE02449E2
:10AE20002068884236D100BF1C48C06940F48020A9
:10AE30001A49C8610846C06900F48020019000BF2B
:10AE400000BF00BF0846806940F0080088610846DE
:10AE5000806900F00800019000BF00BF0815029053
:10AE6000022003900320059002A90D48FDF738F950
:10AE70004FF40060029000200390049002A908485B
:10AE8000FDF72EF9002211462720FDF77DFB272034
:10AE9000FDF76AFB06B010BD00380140001002400B
:10AEA000000C014000000140004400400008014047
:10AEB0000048004070472DE9F84F04460E461746FB
:10AEC00099464FF0000A94F83D0020285AD106B167
:10AED00017B90120BDE8F88F00BF94F83C000128A5
:10AEE00001D10220F6E7012084F83C0000BF0020D9
:10AEF0002064212084F83D00FDF790FA8246A78463
:10AF0000E784A068B0F5805F04D1206910B90025FE
:10AF1000B04602E035464FF0000800BF002084F83C
:10AF20003C0000BF1BE05346002280212046CDF8A4
:10AF3000009002F01FFF08B10320CBE745B9B8F835
:10AF40000000C0F308002168486008F1020803E02F
:10AF50002878216848606D1CE08C401EE084E08CFD
:10AF60000028E0D15346002240212046CDF8009031
:10AF700002F000FF08B10320ACE7202084F83D0078
:10AF80000020A7E70220A5E77047000006E004A024
:10AF900007F026FBFE210A2006F06EF9F7E7000015
:10AFA0007B22526563697665223A7B225374617411
:10AFB0007573223A37307D7D0A00000030B59DB0B0
:10AFC00004460D467022284901A8FAF7BBFC332D30
:10AFD00037D006DC102D0BD0122D3AD0142D40D1D5
:10AFE00017E0352D1DD0372D0BD0392D39D120E06C
:10AFF000A006010E1D4B01AA602000F07CF91DB0D7
:10B0000030BDA006010E194B05AA612000F073F9AE
:10B01000F5E7A006010E154B09AA602000F06BF9B8
:10B02000EDE7A006010E114B0DAA612000F063F9B7
:10B03000E5E7A006010E0D4B11AA612000F05BF9B7
:10B04000DDE7A006010E094B15AA612000F053F9B7
:10B05000D5E7A006010E054B19AA602000F04BF9B8
:10B06000CDE70120CBE70000982C010888200020C4
:10B0700070B504460D462946204600F0BDF970BD66
:10B080007FB506460C466946304600F0B5F910B16A
:10B09000012004B070BD00250BE01DF8051005F17E
:10B0A00008001DF80000814201D00120F1E7681C72
:10B0B000C5B2042DF1DB00250CE0281D1DF80000B1
:10B0C0001DF8051081F0FF01884201D00120E0E762
:10B0D000681CC5B2042DF0DB9DF80C0050B99DF83A
:10B0E0000D00FF2806D19DF80E0018B99DF80F003D
:10B0F000FF2801D00120CCE79DF8030020602068E4
:10B10000000220609DF8021020680844206020683A
:10B11000000220609DF8011020680844206020682B
:10B12000000220609DF80010206808442060002084
:10B13000AFE7000070B505460026002404E00020BB
:10B140000E490855601CC4B20A2CF8DB0B4800F00D
:10B1500009F908B14E2070BD084800F086F908B919
:10B160004E20F8E7002404E00448005D2855601CE8
:10B17000C4B2042CF8DB0020EDE70000882000209A
:10B1800070B504460D462946204600F02CFA70BDE5
:10B1900030B585B005460C462CA000680490E0B29E
:10B1A0008DF81000200A8DF81100200C8DF8120087
:10B1B000200E8DF813009DF810008DF800009DF80A
:10B1C00011008DF801009DF812008DF802009DF825
:10B1D00013008DF803009DF8100080F0FF008DF83B
:10B1E00004009DF8110080F0FF008DF805009DF827
:10B1F000120080F0FF008DF806009DF8130080F02B
:10B20000FF008DF807009DF810008DF808009DF8EC
:10B2100011008DF809009DF812008DF80A009DF8C4
:10B2200013008DF80B0000208DF80C00FF208DF826
:10B230000D0000208DF80E00FF208DF80F006946EC
:10B24000284600F0D0F905B030BD00000100000034
:10B25000002001E0411CC8B20128FBDB70470870E8
:10B26000020A4A70020C8A70020ECA70704730B52A
:10B270000B46002100BF16E00A24B4EB107F05D96D
:10B28000302404EB107403F8114005E0412404EB72
:10B2900010740A3C03F81140000100254C00641CA6
:10B2A0001D554C1CE1B29142E6DB30BD2DE9FC415D
:10B2B0000446002700210D2005F0C4F993202070DA
:10B2C0002020607001A823460222214600900C2015
:10B2D00000F0F8F806465EB9002503E0605D4740DF
