:020000040800F2
:10580000D82200200159000809A20008299900089F
:1058100005A20008555A000869DE000800000000D3
:10582000000000000000000000000000D1AE0008F1
:10583000BB5F00080000000003A6000809B10008D3
:105840001B5900081B5900081B5900081B59000868
:105850001B5900081B5900081B5900081B59000858
:105860001B5900081B5900081B5900081B59000848
:105870001B5900081B5900081B5900081B59000838
:105880001B5900081B5900081B5900081B59000828
:10589000B1DD00081B5900081B5900081B590008FE
:1058A0001B5900081B5900081B5900081B59000808
:1058B0001B590008C5B100081B5900081B590008F6
:1058C0001B5900081B5900081B5900081B590008E8
:1058D0001B590008D9B50008E9B5000835B600081D
:1058E0001B5900081B5900081B590008DFF80CD091
:1058F00000F06AF800480047B1E90008D82200200B
:105900000648804706480047FEE7FEE7FEE7FEE759
:10591000FEE7FEE7FEE7FEE7FEE7FEE7B5B10008BB
:10592000ED580008202A04DB203A21FA02F0002179
:10593000704721FA02F3D040C2F12002914008439F
:105940001946704740EA01039B0703D009E008C9E4
:10595000121F08C0042AFAD203E011F8013B00F834
:10596000013B521EF9D27047D2B201E000F8012B80
:10597000491EFBD270470022F6E710B513460A46CF
:1059800004461946FFF7F0FF204610BD421C10F8F0
:10599000011B0029FBD1801A704730B50B46014628
:1059A00000202022012409E021FA02F59D4205D3BE
:1059B00003FA02F5491B04FA02F52844151EA2F168
:1059C0000102F1DC30BD0000064C074D06E0E06846
:1059D00040F0010394E8070098471034AC42F6D336
:1059E000FFF788FF6CF900088CF9000870B58C1877
:1059F00010F8015B15F0070301D110F8013B2A11E3
:105A000006D110F8012B03E010F8016B01F8016BCF
:105A10005B1EF9D12B0705D40023521E0DD401F8CB
:105A2000013BFAE710F8013BCB1A921C03E013F894
:105A3000015B01F8015B521EF9D5A142D8D30020C9
:105A400070BD10B5142005F093F90321142005F062
:105A500040FA10BD00BFFEE730B50346042B15D059
:105A600007DC7BB1012B0ED0022B0DD0032B30D1E4
:105A70000BE0202B0BD0212B18D0222B22D0232B54
:105A800027D125E026E025E024E023E022E00020E5
:105A900003E00C5C114D2C54401C0728F9DB00205E
:105AA0000F4C207001200F4C207013E0002003E009
:105AB0000A4C245C0C54401C0728F9DB0020084CDD
:105AC000207007E006480078401C054C207001E07B
:105AD00000E000BF00BF002030BD0000D800002063
:105AE00000000020010000200020704710B50022B7
:105AF0000449054805F003FF0449034805F0F8FE92
:105B0000002010BD40130020940A0020580F0020F0
:105B100070B504460D460B4928680860002003E074
:105B2000215C094A1154401C064909688842F7D390
:105B30002146064805F0DCFE044805F0B5FE0020CD
:105B400070BD00002400002080040020940A002082
:105B50002DE9F04104460D4600260A48D0F8B872F7
:105B6000D7F8140210B10120BDE8F0812A46214681
:105B7000044805F0C4FE034805F045FF06463046DC
:105B8000F2E70000940A00202DE9F041074688461C
:105B900015460421052000F003FA80210A2005F0B3
:105BA00098F9002405E0395D092008F09DFA601C91
:105BB000C4B24445F7DB0321012008F095FAFF2425
:105BC00000BF052005F0D4F80646601EC4B21CB123
:105BD00006F004000028F4D0222005F0C9F828704F
:105BE000212005F0C5F86870BDE8F0817CB510A1F2
:105BF00003C9CDE90001002400256423072269467A
:105C00000D4803F026FE0A2000F052FE09F0BEFD0A
:105C10000446062C01D079207CBD4FF4FA7000F0C8
:105C200047FE3021322009F0D9FDC0B2F4E7000070
:105C30000200023230030100500A002010B5134860
:105C4000007800B910BD12A009F064FB052000F037
:105C50002FFEFFF7CBFF45280DD04E2807D0572841
:105C60000DD059280FD111A009F054FB0BE015A05D
:105C700009F050FB07E019A009F04CFB03E01DA060
:105C800009F048FB00BF00BF00BFDBE704000020B5
:105C90007B2252656365697665223A7B2253746183
:105CA000747573223A32367D7D0A00007B224143AF
:105CB00043223A7B22537461747573223A38397DDA
:105CC0007D0A00007B22414343223A7B22537461C8
:105CD000747573223A37387D7D0A00007B22414378
:105CE00043223A7B22537461747573223A36397DAC
:105CF0007D0A00007B22414343223A7B2253746198
:105D0000747573223A38377D7D0A00007CB510A186
:105D100003C9CDE900010024002564230722694658
:105D20000D4803F096FD0A2000F0C2FD09F02EFD9B
:105D30000446062C01D079207CBD4FF4FA7000F0A7
:105D4000B7FD3321322009F049FDC0B2F4E700006D
:105D50000200023233030200500A002010B513483B
:105D6000007800B910BD12A009F0D4FA052000F0A7
:105D70009FFDFFF7CBFF45280DD04E2807D05728B1
:105D80000DD059280FD111A009F0C4FA0BE015A0CD
:105D900009F0C0FA07E019A009F0BCFA03E01DA061
:105DA00009F0B8FA00BF00BF00BFDBE70400002025
:105DB0007B2252656365697665223A7B2253746162
:105DC000747573223A32367D7D0A00007B2241438E
:105DD00043223A7B22537461747573223A38397DB9
:105DE0007D0A00007B22414343223A7B22537461A7
:105DF000747573223A37387D7D0A00007B22414357
:105E000043223A7B22537461747573223A36397D8A
:105E10007D0A00007B22414343223A7B2253746176
:105E2000747573223A38377D7D0A000010B51E481C
:105E3000007800B910BD1DA009F06CFA052000F033
:105E400037FD00F005FC463809282AD2DFE800F0CB
:105E500005090D1115191D2125001BA009F05AFA7D
:105E60001FE01FA009F056FA1BE023A009F052FA28
:105E700017E027A009F04EFA13E02BA009F04AFA28
:105E80000FE02FA009F046FA0BE033A009F042FA28
:105E900007E037A009F03EFA03E03BA009F03AFA28
:105EA00000BF00BF00BFC5E7040000207B22526591
:105EB0006365697665223A7B225374617475732237
:105EC0003A32367D7D0A00007B22414343223A7BF1
:105ED00022537461747573223A37307D7D0A000055
:105EE0007B22414343223A7B2253746174757322AF
:105EF0003A37317D7D0A00007B22414343223A7BC1
:105F000022537461747573223A37327D7D0A000022
:105F10007B22414343223A7B22537461747573227E
:105F20003A37337D7D0A00007B22414343223A7B8E
:105F300022537461747573223A37347D7D0A0000F0
:105F40007B22414343223A7B22537461747573224E
:105F50003A37357D7D0A00007B22414343223A7B5C
:105F600022537461747573223A37367D7D0A0000BE
:105F70007B22414343223A7B22537461747573221E
:105F80003A37377D7D0A00007B22414343223A7B2A
:105F900022537461747573223A37387D7D0A00008C
:105FA00070B505460C46284604F0E2FE064626EA91
:105FB0000401284608F098F870BD704710B50446F3
:105FC000012C03DD0CA009F0A5F90FE018480470BE
:105FD0001020184908700846447084F0100088703A
:105FE000032009F03BF90120134908704FF41671A2
:105FF0001248FFF7C0FC10BD7B22526563656976CD
:1060000065223A7B22537461747573223A31397D6B
:106010002C2243223A7B2254797065223A2244652D
:10602000766963654D6F6465227D7D0A000000001E
:106030000400002012000020150000208004002031
:1060400010B50E480078012800D110BD0CA009F051
:1060500061F9052000F02CFC00F0C4F8642802D09F
:10606000692808D103E00DA009F054F903E011A05C
:1060700009F050F900BF00BF00BFE6E704000020B0
:106080007B2252656365697665223A7B225374618F
:10609000747573223A32367D7D0A00007B224449B2
:1060A00053223A7B22537461747573223A31303033
:1060B0007D7D0A007B22444953223A7B225374613E
:1060C000747573223A3130357D7D0A0010B50E4863
:1060D0000078012800D110BD0CA009F01BF90520A3
:1060E00000F0E6FB00F0BCF8642802D0692808D173
:1060F00003E00DA009F00EF903E011A009F00AF980
:1061000000BF00BF00BFE6E7040000207B2252650D
:106110006365697665223A7B2253746174757322D4
:106120003A32367D7D0A00007B22444953223A7B75
:1061300022537461747573223A3130307D7D0A00C8
:106140007B22444953223A7B225374617475732233
:106150003A3130357D7D0A0010B50E4800780128AF
:1061600000D110BD0CA009F0D5F8052000F0A0FB6F
:1061700000F098F8642802D0692808D103E00DA047
:1061800009F0C8F803E011A009F0C4F800BF00BF8F
:1061900000BFE6E7040000207B2252656365697654
:1061A00065223A7B22537461747573223A32367DCC
:1061B0007D0A00007B22444953223A7B22537461BA
:1061C000747573223A3130307D7D0A007B22444958
:1061D00053223A7B22537461747573223A313035FD
:1061E0007D7D0A007CB50026002419A103C9CDE9F4
:1061F0000001642305226946174803F02AFB00F0DA
:106200004DFA0546002004461DE0002013490870A1
:106210000A2000F04DFB6423052269460E4803F076
:1062200018FB07F023FE0546062D02D0152D04D1DC
:1062300001E064207CBD6920FCE7062D00D104E06C
:10624000601CC0B20446022CDFDB00BF00BFF1E7D8
:106250000245530317000000500A0020640000208C
:106260001CB50DA103C9CDE9000108F079F964233B
:10627000052269460A4803F0ECFA07F0F7FD0446E8
:10628000062C02D0152C04D101E064201CBD69202D
:10629000FCE76920FAE70000024448030D00000013
:1062A000500A00207CB500250BA103C9CDE90001EF
:1062B00008F056F900F080FD054664230522694682
:1062C000074803F0C6FA07F0D1FD0446062C01D1B9
:1062D00064207CBD6920FCE70243500312000000EB
:1062E000500A002072B603E01E21642008F03EFB35
:1062F000FAE700000021074AD1610749096941F026
:106300000401054A11611146096941F0400111611A
:1063100070470000381C0020002002400021074A7E
:10632000D1610749096941F00201054A116111462D
:106330004861096941F0400111617047381C002033
:10634000002002400022054BDA61054A126942F042
:106350000102034B1A61018070470000381C0020C5
:106360000020024000201E49C96801F0100139B127
:106370001C49C96941F002011A4AD16140F010007C
:106380001749C96801F0040139B11649C96941F0DA
:106390000101144AD16140F004001149C96901F0BA
:1063A000010169B10F49C96941F004010D4AD16188
:1063B00000BF0B49C96921F00101094AD16100BF41
:1063C00000BF40F20111884206D10549C96921F098
:1063D0000101034AD16101E00149C86000BF704773
:1063E00000200240381C002070B5044600F0E4FC98
:1063F000054609E0601C38B124B100F0DDFC401B0B
:10640000A04201D9032070BD1248C06800F001000D
:106410000028EFD10F48C06800F0200020B100BF75
:1064200020200C49C86000BF0A48C06800F0100076
:1064300048B90848C06900F0010020B90548C068A3
:1064400000F0040018B1FFF78DFF0120DBE700200A
:10645000D9E700000020024010B527480078012845
:1064600000D110BD25A008F055FF052000F020FA4E
:1064700000F014F964380C2837D2DFE800F0060E7B
:1064800012161A1E22262A2E320A23A008F042FFD4
:106490002FE027A008F03EFF2BE02BA008F03AFFEA
:1064A00027E02FA008F036FF23E033A008F032FFEA
:1064B0001FE037A008F02EFF1BE03BA008F02AFFEA
:1064C00017E03FA008F026FF13E043A008F022FFEA
:1064D0000FE047A008F01EFF0BE04BA008F01AFFEA
:1064E00007E04FA008F016FF03E053A008F012FFEA
:1064F00000BF00BF00BFB4E7040000207B2252654C
:106500006365697665223A7B2253746174757322E0
:106510003A32367D7D0A00007B22444953223A7B81
:1065200022537461747573223A3130307D7D0A00D4
:106530007B22444953223A7B22537461747573223F
:106540003A3131317D7D0A007B22444953223A7B26
:1065500022537461747573223A3130317D7D0A00A3
:106560007B22444953223A7B22537461747573220F
:106570003A3130327D7D0A007B22444953223A7BF6
:1065800022537461747573223A3130337D7D0A0071
:106590007B22444953223A7B2253746174757322DF
:1065A0003A3130347D7D0A007B22444953223A7BC4
:1065B00022537461747573223A3130357D7D0A003F
:1065C0007B22444953223A7B2253746174757322AF
:1065D0003A3130367D7D0A007B22444953223A7B92
:1065E00022537461747573223A3130377D7D0A000D
:1065F0007B22444953223A7B22537461747573227F
:106600003A3130387D7D0A007B22444953223A7B5F
:1066100022537461747573223A3130397D7D0A00DA
:106620007B22444953223A7B22537461747573224E
:106630003A3131307D7D0A007B22444953223A7B36
:1066400022537461747573223A3131327D7D0A00B0
:106650007CB50FA103C9CDE9000100240025642306
:10666000072269460C4803F0F4F80A2000F020F9EC
:1066700009F08CF80446062C01D079207CBD14204A
:1066800000F016F93021312009F0A8F8C0B2F5E782
:106690000200023130030200500A00207CB52EA116
:1066A00003C9CDE900016423052269462C4803F0A3
:1066B000D0F807F0DBFB0546062D01D079207CBD24
:1066C00007F0FCFB04462749601A8C4236D012DCE6
:1066D0002549A4EB01008C422AD007DC2348204442
:1066E000F0B1012828D0022834D123E004281DD09D
:1066F000FC282FD116E0B0F5FF3F23D009DCB0F520
:10670000007F23D0B0F5C06F22D0B0F57E4F21D1ED
:106710000AE017490844B8B1B0F5802F1AD10FE04C
:106720006420CCE76E20CAE76F20C8E76520C6E783
:106730006620C4E76720C2E76820C0E76A20BEE79A
:106740006B20BCE76C20BAE76D20B8E76E20B6E797
:106750006F20B4E77820B2E702524603150000002C
:10676000500A00203032300034303000D0CFCFFF1C
:106770000002FCFF70B50A480468001D0568001D92
:106780000668344454B108220649204603F074F9DF
:10679000042204491031284603F06EF970BD000050
:1067A000E8F7FF1FBE0000200146002291F82100FB
:1067B000022808D00420886300BF002081F8200050
:1067C00000BF012070470868006820F00E000B68C9
:1067D00018600868006820F001000B68186091F8E4
:1067E000403001209840CB6B5860012081F8210097
:1067F00000BF002081F8200000BF1046E2E7000043
:1068000070B50446002594F82100022803D0042026
:10681000A063012548E02068006820F00E00216890
:1068200008602068006820F00100216808601F49A6
:106830002068884201D1012026E01C4914312068DB
:10684000884201D110201FE0184928312068884271
:1068500001D1801518E015493C312068884201D1EA
:10686000801411E0114950312068884202D14FF460
:10687000803009E00D4964312068884202D14FF42C
:10688000801001E04FF0807008490839486001200D
:1068900084F8210000BF002084F8200000BF606B56
:1068A00010B12046616B8847284670BD0800024041
:1068B00070B5044600F080FA06462546681C10B103
:1068C00004480078054400BF00F076FA801BA84217
:1068D000FAD370BDF80000202DE9F04104460E46C1
:1068E0000127002500BF2648007E012802D1022092
:1068F000BDE8F08101202249087600BF2068022807
:1069000013D14CF25030FFF76FFD90BB0120FFF721
:10691000F1FC4CF25030FFF767FD0746194800695B
:1069200020F004001749086123E04CF25030FFF7D3
:106930005BFDF0B94FF0FF303060A56812E02846EB
:10694000FFF7ECFC4CF25030FFF74EFD07460D48C8
:10695000006920F002000B4908610FB1356007E0C3
:1069600005F58065D4E9021001EB8020A842E6D845
:1069700000BF00BF00200249087600BF3846B7E7D5
:10698000381C0020002002400348006940F08000CD
:106990000149086100207047002002402DE9FE4FA8
:1069A00005468B4617469846012600240020029093
:1069B00000BF2448007E012802D10220BDE8FE8FDE
:1069C00001202049087600BF4CF25030FFF70CFD43
:1069D000064686BB012D02D10120029006E0022D61
:1069E00002D10220029001E00420029000241EE067
:1069F0002201B946C24648465146FEF793FF80B28F
:106A00000190022000FB04B000900199FFF79AFC6E
:106A10004CF25030FFF7E8FC06460B48006920F0C6
:106A200001000949086106B104E0601CC4B2029883
:106A30008442DDDB00BF00BF00200249087600BFB2
:106A40003046BBE7381C00200020024000200849E7
:106A5000096901F0800151B10649054A51600649B2
:106A600051601146096901F0800101B101207047B0
:106A70000020024023016745AB89EFCD2DE9F8479F
:106A80000346002294466EE14FF0010808FA02F432
:106A9000D1F8008008EA0400A0427DD1DFF8DCA232
:106AA000D1F80480A8EB0A09D0453AD014DCB8F13B
:106AB000030F50D009DCB8F1000F31D0B8F1010F4D
:106AC0001CD0B8F1020F49D120E0B8F1110F18D055
:106AD000B8F1120F42D11EE0B9F5881F25D006DCAF
:106AE000B9F5803F20D0B9F5801F37D11AE0B9F54C
:106AF000001F18D0B9F5041F30D117E0D1F80CC031
:106B00002DE0D1F80C8008F1040C28E0D1F80C80BD
:106B100008F1080C23E0D1F80C8008F10C0C1EE001
:106B200000BF00BF00BF00BF00BF00BFD1F808809A
:106B3000B8F1000F02D14FF0040C0BE0D1F808803F
:106B4000B8F1010F03D14FF0080C1C6102E04FF0C7
:106B5000080C5C6103E04FF0000C00E000BF00BFD8
:106B6000FF2801D8984601E003F104084646FF28B3
:106B700002D84FEA820803E0A2F108084FEA880829
:106B80004746D6F800804FF00F0909FA07F928EABE
:106B900009080CFA07F900E088E048EA0908C6F895
:106BA0000080D1F8048008F08058B8F1805F7DD172
:106BB00000BFDFF8CC81D8F8188048F00108DFF872
:106BC000C091C9F81880C846D8F8188008F00108A4
:106BD000CDF8008000BF00BF4FEAB9384FEA9209F4
:106BE00058F829504FEA82784FEA18794FF00F0889
:106BF00008FA09F825EA0805DFF88881434502D13B
:106C00004FF0000816E0DFF88081434502D14FF0D5
:106C100001080FE0DFF87481434502D14FF002080C
:106C200008E0DFF86C81434502D14FF0030801E032
:106C30004FF004084FEA82794FEA197908FA09F807
:106C400048EA0505DFF84C814FEA920948F82950D7
:106C5000D1F8048008F48038B8F5803F0AD1DFF815
:106C60003881D8F8008048EA0008DFF82C91C9F88C
:106C7000008009E0DFF82081D8F8008028EA0008C9
:106C8000DFF81491C9F80080D1F8048008F40038C6
:106C9000B8F5003F10D1DFF8008108F10408D8F8FA
:106CA000008048EA0008DFF8F09000E05AE009F1BF
:106CB0000409C9F800800DE0DFF8DC8008F1040861
:106CC000D8F8008028EA0008DFF8CC9009F1040920
:106CD000C9F80080D1F8048008F48018B8F5801F46
:106CE0000ED1DFF8B48008F10808D8F8008048EA2F
:106CF0000008DFF8A49009F10809C9F800800DE048
:106D0000DFF8948008F10808D8F8008028EA000825
:106D1000DFF8849009F10809C9F80080D1F80480EF
:106D200008F40018B8F5001F0ED1DFF86C8008F1E8
:106D30000C08D8F8008048EA0008DFF85C9009F1F8
:106D40000C09C9F800800DE0DFF84C8008F10C0850
:106D5000D8F8008028EA0008DFF83C9009F10C0917
:106D6000C9F80080521CD1F8008028FA02F8B8F166
:106D7000000F7FF489AEBDE8F88700000000111015
:106D80000010024000080140000C014000100140CA
:106D900000140140080001400004014002469368CD
:106DA0000B400BB1012000E0002070470AB10161E7
:106DB00001E00B0403617047014800687047000060
:106DC000F000002070B504460CB9012070BD4CF6EF
:106DD000CC402168086045F2555021680860D4E92C
:106DE000001048602168A0688860FFF7E5FF05464D
:106DF0000BE0FFF7E1FF401B272806D92068C06899
:106E000000F0030008B10320E0E72068C06800F04C
:106E100003000028EDD14AF6AA202168086000206E
:106E2000D4E7000003480068034909780844014991
:106E300008607047F0000020F800002010B50848F6
:106E4000006840F0100006490860032000F0A8F830
:106E5000002000F007F800F02BF8002010BD000023
:106E60000020024070B504460E4800784FF47A7155
:106E7000B1FBF0F00C490968B1FBF0F5284602F0CF
:106E800068F808B1012070BD102C07D200222146FD
:106E9000501E00F047F80548046001E00120F2E7C9
:106EA0000020F0E7F80000200C010020F400002092
:106EB00008B500BF1148806940F001000F498861A2
:106EC0000846806900F00100009000BF00BF00BFCD
:106ED0000846C06940F08050C8610846C06900F0AB
:106EE0008050009000BF00BF00BF0549486820F0F7
:106EF000E06040F00070486000BF08BD0010024034
:106F00000000014001460846002809DB00F01F038D
:106F100001229A4043099B0003F1E023C3F80021BA
:106F200000BF70472DE9F05F80460D4616460027EA
:106F300007F02AF9074639462A46334601F007008A
:106F4000C0F1070ABAF1040F02D94FF0040A01E0B8
:106F5000C0F1070AD14600F1040ABAF1070F02D2C4
:106F60004FF0000A01E0A0F1030AD4464FF0010AF5
:106F70000AFA09FAAAF1010A0AEA020A0AFA0CFA5A
:106F80004FF0010B0BFA0CFBABF1010B0BEA030BFF
:106F90004AEA0B042146404607F0FEF8BDE8F09FA0
:106FA00000BF00F00702064B19684FF6FF031940B7
:106FB000044B0B4343EA0221014B196000BF7047A9
:106FC0000CED00E00000FA0570B505460C4604F033
:106FD0008000802808D104F0070000EB800605F14E
:106FE000280000EBC60105E004EB840605F5B4704B
:106FF00000EBC6011AB900200873CB8004E0012021
:1070000008730B81180C4881002070BD704770B563
:1070100004460D4605EB850304F1280101EBC3018D
:107020004A692946D4F8E80204F0F4FF70BD70B54F
:1070300004460D4605EB850304F5B47101EBC3016D
:107040004A692946D4F8E80205F064F870BD70B5C5
:1070500004460E4606F0800080280AD106F007009C
:1070600000EB800104F1280000EBC10501206870ED
:1070700009E006F0070000EB800104F5B47000EBB6
:10708000C1050020687006F00700287000BF94F862
:10709000A802012801D1022070BD012084F8A802B5
:1070A00000BF2946206805F0BDFE00BF002084F81F
:1070B000A80200BF00BFEFE770B504460E4606F019
:1070C0000F006168884201D9012070BD06F0800080
:1070D00080280AD106F0070000EB800104F12800A7
:1070E00000EBC1050120687009E006F0070000EB25
:1070F000800104F5B47000EBC10500206870002029
:10710000A87006F00700287000BF94F8A8020128B4
:1071100001D10220D9E7012084F8A80200BF294646
:10712000206805F0DBFF00BF002084F8A80200BF44
:1071300000BFCAE72DE9F04105460C46174607F4A3
:107140008040002850D02868B0F85010207801EB1B
:10715000C000801C296801F5806131F81000C0F37F
:107160000906A069B04203D3A069801BA06101E0B9
:107170000020A061A069A8B900BF22785200296848
:1071800031F812104BF68F7201EA020080F40050C1
:1071900040F4004141F0800123785B002A6822F826
:1071A000131000BF07F04000A8B100BF00BF227855
:1071B0005200296831F8121048F68F7201EA020075
:1071C00040F4004141F0C00123785B002A6822F8B6
:1071D000131000BF00BF002E55D0228961693346CD
:1071E000286806F0F1FD4EE02868B0F850102078CD
:1071F00001EBC000801D296801F5806131F81000A5
:10720000C0F30906A069B04203D3A069801BA06146
:1072100001E00020A061A069A8B900BF2278520057
:10722000296831F812104BF68F7201EA020080F4DF
:10723000005040F4004141F0800123785B002A684F
:1072400022F8131000BF07F04000A8B900BF00BF2C
:1072500022785200296831F8121048F68F7201EA3C
:10726000020040F4004141F0C00123785B002A682D
:1072700022F8131000BF00BF2EB162896169334646
:10728000286806F0A1FD3046BDE8F0812DE9F04701
:1072900005460C46904608F04000002871D028684A
:1072A000B0F85010207801EBC000801C296801F56F
:1072B000806131F81000C0F30907A069B84203D912
:1072C000A069C01BA06101E00020A061A0690028A6
:1072D0007ED100BF6078C8B900BF29682A68B2F8BB
:1072E000502011442278022303EBC20201F580638F
:1072F00003EB420000BF028848F2FF331A400280CD
:10730000028842F40042028000BF13E06078012846
:1073100010D100BF28682A68B2F8502010442278A3
:10732000022303EBC20200F5806303EB420100225B
:107330000A8000BF00BF00BF2968607810BB00BF93
:107340002B68D5F800C0BCF850C0634494F800C066
:107350004FF0060909EBCC0C03F5806909EB4C00F2
:1073600000BFB0F800C048F2FF390CEA090CA0F8E1
:1073700000C0B0F800C04CF4004CA0F800C000BF42
:1073800011E0C0E0607801280DD12868B0F8500005
:1073900001442078062303EBC00001F5806303EB72
:1073A00040020020108000BF21782846FFF72FFE02
:1073B00008F48040002816D000BF00BF2278520099
:1073C000296831F8121048F68F7201EA020000E0D5
:1073D0000AE040F4004141F4814123785B002A68CF
:1073E00022F8131000BFCAE108F48040A8B100BF22
:1073F00000BF22785200296831F8121048F68F72C7
:1074000001EA020040F4004141F4814223785B002C
:10741000296821F8132000BF00BF94F82400012838
:10742000E1D1606938446061E0693844E061216914
:10743000206A884204D32669206A801B20620BE000
:10744000206A20B93E46002084F8240004E0002091
:1074500084F82400266A206200BF6078B8BB00BFB1
:107460002A682968B1F850100A442178022303EBF6
:10747000C10102F5806303EB4101084600BF56B924
:10748000038848F2FF3C03EA0C030380038843F4BB
:107490000043038019E03E2E0BD800BF710806F0B0
:1074A000010303B1491C4FF6FF7303EA81230380F4
:1074B0000BE000BF710906F01F0303B9491E4FF42A
:1074C000004343EA8123038000BF00BF13E0FFE7CE
:1074D000607801280FD100BF28682A68B2F85020D0
:1074E00010442278022303EBC20200F5806303EB11
:1074F00042010E8000BF00BFB3B2228961692868D3
:1075000006F091FC3BE12868B0F85010207801EBC0
:10751000C000801D296801F5806131F81000C0F3BA
:107520000907A069B84203D3A069C01BA06101E0AC
:107530000020A061A06900287DD100BF6078C8B993
:1075400000BF29682A68B2F850201144227802232B
:1075500003EBC20201F5806303EB420000BF028827
:1075600048F2FF331A400280028842F4004202804F
:1075700000BF13E06078012810D100BF28682A6896
:10758000B2F8502010442278022303EBC20200F527
:10759000806303EB420100220A8000BF00BF00BFEE
:1075A0002968607808BB00BF2B68D5F800C0BCF81C
:1075B00050C0634494F800C04FF0060909EBCC0CAE
:1075C00003F5806909EB4C0000BFB0F800C048F239
:1075D000FF390CEA090CA0F800C0B0F800C04CF468
:1075E000004CA0F800C000BF10E0607801280DD169
:1075F0002868B0F8500001442078062303EBC0004F
:1076000001F5806303EB40020020108000BF217869
:107610002846FFF7FCFC08F48040002816D100BF84
:1076200000BF22785200296831F8121048F68F7294
:1076300001EA020000E00AE040F4004141F4814127
:1076400023785B002A6822F8131000BF97E008F443
:107650008040A8B900BF00BF22785200296831F8E5
:10766000121048F68F7201EA020040F4004141F422
:10767000814123785B002A6822F8131000BF00BF05
:1076800094F8240001287AD1606938446061E06987
:107690003844E0612169206A884204D32669206A5F
:1076A000801B20620BE0206A20B93E46002084F84F
:1076B000240004E0266A0020206284F8240000BF31
:1076C0002A68607890BB00BFD5F800C02968B1F87F
:1076D00050108C4421784FF0060909EBC1010CF5DC
:1076E000806909EB4101084600BF76B9B0F8009007
:1076F00048F2FF3A09EA0A09A0F80090B0F80090B1
:1077000049F40049A0F8009020E03E2E0FD800BFB9
:10771000710806F00109B9F1000F00D0491C4FF6BD
:10772000FF7909EA8129A0F800900FE010E000BF7E
:10773000710906F01F09B9F1000F00D1491E4FF47D
:10774000004949EA8129A0F8009000BF00BF0FE07E
:10775000607801280CD12868B0F8500002442078E5
:10776000062101EBC00002F5806101EB40031E80A1
:1077700000BFB3B262896169286806F054FB00BF9C
:1077800022785200296831F8121048F6BF7201EAD7
:10779000020080F0100080F0200040F4004141F031
:1077A000800123785B002A6822F8131000BF0020B4
:1077B000BDE8F087024601F0070000EB800302F508
:1077C000B47000EBC300C06970472DE9F04705466F
:1077D0000E4690461F464FF0000906F080008028B4
:1077E0000AD106F0070000EB800105F1280000EB4C
:1077F000C1040120607009E006F0070000EB800181
:1078000005F5B47000EBC1040020607006F00700BD
:107810002070C4F81080E770607808B12078E081AB
:10782000022F01D10020207100BF95F8A802012885
:1078300002D10220BDE8F087012085F8A80200BF30
:107840002146286805F0C4F800BF002085F8A8028A
:1078500000BF4846EEE72DE9F04105460E461746C3
:10786000984606F0070000EB800105F5B47000EBC8
:10787000C1046761C4F818800020E061607006F000
:107880000700207006F0070020B92146286805F09F
:10789000C0FC03E02146286805F0BBFC0020BDE8E1
:1078A000F08170B504460D4605F007006168884216
:1078B00001D9012070BD05F0800080280AD105F0B3
:1078C000070000EB800104F1280000EBC106012055
:1078D000707007E005EB850104F5B47000EBC1069C
:1078E000002070700120B07005F00700307000BFFC
:1078F00094F8A802012801D10220DBE7012084F8D6
:10790000A80200BF3146206805F055FC05F00700CD
:1079100020B904F52C71206805F0DDFB00BF0020C4
:1079200084F8A80200BF00BFC4E72DE9F041054676
:107930000E4690461F4606F0070000EB800105F159
:10794000280000EBC104C4F81480A761012084F86A
:10795000240027620020E0610120607006F007002B
:10796000207006F0070020B92146286805F051FC78
:1079700003E02146286805F04CFC0020BDE8F081BA
:107980007FB50446206806F01BFA00F40040B0F50D
:10799000004F02D1204602F03BFC206806F010FAAE
:1079A00000F48060B0F5806F0FD12068B0F844001B
:1079B0004FF6FF3108402168A1F84400204600F04E
:1079C0009FF90021204600F0BBF9206806F0F8F985
:1079D00000F48040B0F5804F08D12068B0F8440032
:1079E0004BF6FF7108402168A1F84400206806F0BA
:1079F000E7F900F40050B0F5005F08D12068B0F856
:107A000044004DF6FF7108402168A1F84400206849
:107A100006F0D6F900F48050B0F5805F1DD12068E3
:107A2000B0F840004FF6FB7108402168A1F8400013
:107A30002068B0F840004FF6F77108402168A1F8BF
:107A40004000204600F06EF92068B0F844004EF681
:107A5000FF7108402168A1F84400206806F0B0F9E1
:107A600000F40060B0F5006F55D1002507E0690013
:107A7000206830F811002DF81500681CC5B2082DDB
:107A8000F5D32068B0F8400040F001002168A1F86B
:107A900040002068B0F840004FF6FE7108402168B1
:107AA000A1F8400000BF2068B0F8440000F48060F6
:107AB0000028F8D02068B0F844004FF6FF310840A5
:107AC0002168A1F84400002507E03DF815006A0090
:107AD000216821F81200681CC5B2082DF5D3206872
:107AE000B0F8400040F008002168A1F8400020688C
:107AF000B0F844004FF2FF7108402168A1F844003B
:107B00002068B0F8400040F004002168A1F840006F
:107B1000204600F057F9206806F052F900F4007092
:107B2000B0F5007F0BD12068B0F844004FF6FF514C
:107B300008402168A1F84400204600F0FAF82068C7
:107B400006F03EF900F48070B0F5807F08D120681F
:107B5000B0F844004FF6FF6108402168A1F84400E6
:107B60007FBD30B585B0044614B9012005B030BDE5
:107B700094F8A90228B9002084F8A802204600F051
:107B80009DF8032084F8A902206805F09AFA1422CF
:107B900004F110016846FDF7D5FE94E80F0005F0EA
:107BA0003DF920B1022084F8A9020120DEE700217E
:107BB000206806F02EF9002531E0012105EB850251
:107BC00004F1280000EBC200417005EB850104F1CF
:107BD000280000F8315005EB850100EBC100C5819C
:107BE000002105EB850204F1280000EBC200C17002
:107BF00005EB850204F1280000EBC200016105EBF2
:107C0000850204F1280000EBC200416105EB85020A
:107C100004F1280000EBC2008161681CC5B26068F5
:107C2000A842CAD800252AE0002105EB850204F508
:107C3000B47000EBC200417005EB850104F5B4702F
:107C400000F83150002105EB850200EBC200C17045
:107C500005EB850204F5B47000EBC200016105EB91
:107C6000850204F5B47000EBC200416105EB8502AA
:107C700004F5B47000EBC2008161681CC5B2606895
:107C8000A842D1D8142204F110016846FDF75AFE2B
:107C900094E80F0005F00AFA20B1022084F8A90246
:107CA000012063E7002084F82400012084F8A90261
:107CB000206805F0F8F9002058E7000038B50446C0
:107CC0000D492068884215D100BF0C48C06940F4B6
:107CD00000000A49C8610846C06900F4000000902D
:107CE00000BF00BF002211461420FFF71BF914202B
:107CF000FFF708F938BD0000005C004000100240AA
:107D000070B504460125A068022801D0FEF7EAFA02
:107D10002946D4F8E80204F031FBD4F8E80204F074
:107D2000E3FA70BD10B50446D4F8E80204F00AFB8B
:107D300010BD10B50446D4F8E80204F00EFB10BDE7
:107D400070B504460D4600BF94F8A802012801D181
:107D5000022070BD012084F8A80200BF84F82450DE
:107D60002946206806F058F800BF002084F8A802D1
:107D700000BF00BFEDE710B5044604F52C71D4F840
:107D8000E80204F012FB10BD10B5044600BF94F8E1
:107D9000A802012801D1022010BD012084F8A80208
:107DA00000BF206805F0FAFF01212046FFF72EF9F9
:107DB000206805F075F900BF002084F8A80200BF14
:107DC00000BFE9E710B50446D4F8E80204F046FB2A
:107DD000A06928B10348006840F006000149086026
:107DE00010BD000010ED00E001200149086270475D
:107DF00000000E422DE9F04385B006463BA30FCBB1
:107E000001AC0FC43DA0006800904FF000080025B1
:107E100000270024A146012E30D0022E55D0102E6E
:107E20005ED137484468006800F0807000B301A854
:107E3000C4F38341475C04F4803070B1304840683B
:107E4000C0F340401DF8008004F4803040B12D485C
:107E5000B0FBF8F000FB07F502E02B4807FB00F54C
:107E60002748406800F48000B0F5800F01D1A94692
:107E700003E068000321B0FBF1F932E02048046A16
:107E800004F44070B0F5807F05D104F0020010B119
:107E90004FF4004918E004F44070B0F5007F07D1BA
:107EA0001748406A00F0020010B149F640490BE063
:107EB00004F44070B0F5407F06D11148006800F42A
:107EC000003008B14FF224490BE000F09BF90C4957
:107ED0004968C1F38131491C4900B0FBF1F900E068
:107EE00000BF00BF484605B0BDE8F08302030405AB
:107EF000060708090A0B0C0D0E0F101001020000F6
:107F00000010024000127A0000093D00F8B5044656
:107F100000260025207800F0010000286BD0002703
:107F20004348C06900F0805070B900BF4048C06944
:107F300040F080503E49C8610846C06900F080505A
:107F4000009000BF00BF01273A48006800F480702D
:107F5000B0B93848006840F4807036490860FEF7D0
:107F60002BFF064606E0FEF727FF801B642801D999
:107F70000320F8BD2F48006800F480700028F2D07C
:107F80002B48006A00F440752DB3A08800F44070BF
:107F9000A84220D02648006A20F4407501202649D6
:107FA0000860002008602248056205F0010090B1D9
:107FB000FEF702FF064608E0FEF7FEFE801B41F2D8
:107FC0008831884201D90320D3E71948006A00F0BC
:107FD00002000028F0D01648006A20F44070616862
:107FE000084313490862012F04D10846C06920F0F4
:107FF0008050C86100BF207800F00200022807D13D
:108000000B48406820F44040A16808430849486094
:10801000207800F01000102807D10548406820F4AF
:108020008000E1680843024948600020A1E70000A1
:1080300000100240007000404004424270470000BF
:1080400070B504460D460CB9012070BD5A48006851
:1080500000F00700A8420ED25748006820F0070041
:108060002843554908600846006800F00700A84208
:1080700001D00120E9E7207800F0020002281DD19C
:10808000207800F00400042805D14C48406840F4F2
:10809000E0604A494860207800F00800082805D1CF
:1080A0004648406840F4605044494860434840684E
:1080B00020F0F000A168084340494860207800F0B3
:1080C000010078B36068012806D13C48006800F4DC
:1080D000003090B90120B8E76068022806D137481F
:1080E000006800F0007040B90120AEE73348006836
:1080F00000F0020008B90120A7E73048406820F0EE
:108100000300616808432D494860FEF755FE0646A6
:1081100009E0FEF751FE801B41F28831884202D906
:10812000032092E707E02548406800F00C006168F2
:10813000B0EB810FEDD12048006800F00700A842A5
:108140000ED91D48006820F0070028431A4908602E
:108150000846006800F00700A84201D0012074E73B
:10816000207800F00400042807D11448406820F467
:10817000E060E168084311494860207800F0080099
:10818000082808D10D48406820F46050216940EA71
:10819000C1000A49486000F045F808494968C1F340
:1081A0000311074A515CC840064908600648006848
:1081B000FEF758FE002048E7002002400010024071
:1081C00090F800080C010020F40000200120014973
:1081D000C8647047000042420148006870470000D0
:1081E0000C01002000B5FFF7F7FF04494968C1F30F
:1081F0000221034A515CC84000BD0000001002404B
:10820000A0F8000800B5FFF7E7FF04494968C1F38B
:10821000C221034A515CC84000BD0000001002406A
:10822000A0F80008F0B585B00FF26C0C9CE8E010E7
:1082300001A8A0E8E0101CA52D68009500210022EF
:10824000002300240020194D696801F00C05F5B1E8
:10825000042D02D0082D19D101E0154819E001AD17
:10826000C1F38346AC5D01F4803555B10F4D6D68A7
:10827000C5F340451DF805200D4D6543B5FBF2F3F0
:1082800002E00C4D04FB05F3184602E000BF08486D
:1082900000BF00BF05B0F0BD0203040506070809D2
:1082A0000A0B0C0D0E0F101001020000001002400E
:1082B00000127A0000093D0010B50648806800F001
:1082C0008000802804D1FFF7B9FE80200149887220
:1082D00010BD000000100240F8B504460CB90120A2
:1082E000F8BD207800F00100002878D0F8484068F8
:1082F00000F00C0004280CD0F548406800F00C0099
:10830000082811D1F248406800F48030B0F5803F71
:108310000AD1EF48006800F4003000285FD06068A0
:1083200000285CD10120DBE700BF6068B0F5803F2A
:1083300006D1E748006840F48030E549086028E04D
:10834000606858B9E248006820F48030E04908606D
:108350000846006820F4802008601AE06068B0F5E4
:10836000A02F0BD1DA48006840F48020D84908607B
:108370000846006840F4803008600AE0D44800688D
:1083800020F48030D24908600846006820F480203C
:10839000086000BF606888B1FEF70EFD054606E084
:1083A000FEF70AFD401B642801D9032098E7C8485E
:1083B000006800F400300028F2D010E0FEF7FCFC6A
:1083C000054606E0FEF7F8FC401B642801D90320AF
:1083D00086E7BF48006800F400300028F2D120781A
:1083E00000F00200022857D1B948406800F00C00A4
:1083F00050B1B748406800F00C00082818D1B448C4
:10840000406800F4803098B9B148006800F002007C
:1084100020B12069012801D0012061E7AC48006843
:1084200020F0F800616940EAC100A949086033E022
:108430002069E8B10120A7490860FEF7BDFC0546A8
:1084400006E0FEF7B9FC401B022801D9032047E7EC
:108450009F48006800F002000028F2D09C480068A5
:1084600020F0F800616940EAC1009949086013E012
:10847000002098490860FEF79FFC054606E0FEF7DD
:108480009BFC401B022801D9032029E79048006883
:1084900000F002000028F2D1207800F0080008283F
:1084A0002DD1A069B8B101208B490860FEF784FC8A
:1084B000054606E0FEF780FC401B022801D9032098
:1084C0000EE78348406A00F002000028F2D0012045
:1084D00002F082FB13E000207F490860FEF76CFC8D
:1084E000054606E0FEF768FC401B022801D9032080
:1084F000F6E67748406A00F002000028F2D12078C2
:1085000000F00400042873D100277148C06900F00E
:10851000805070B900BF6E48C06940F080506C490F
:10852000C8610846C06900F08050009000BF00BFDD
:1085300001276A48006800F48070B0B96748006895
:1085400040F4807065490860FEF736FC054606E099
:10855000FEF732FC401B642801D90320C0E65F48C7
:10856000006800F480700028F2D000BFE0680128A5
:1085700006D15748006A40F001005549086227E0DB
:10858000E06858B95248006A20F00100504908627A
:108590000846006A20F00400086219E0E068052837
:1085A0000BD14B48006A40F0040049490862084674
:1085B000006A40F0010008620AE04548006A20F0C5
:1085C0000100434908620846006A20F0040008627E
:1085D00000BFE068A0B1FEF7EFFB054609E0FEF73B
:1085E000EBFB401B41F28831884202D9032077E639
:1085F00022E03748006A00F002000028EFD012E0C5
:10860000FEF7DAFB054608E0FEF7D6FB401B41F219
:108610008831884201D9032062E62D48006A00F0C3
:1086200002000028F0D1012F05D12948C06920F0AF
:1086300080502749C86100BFE069C8B3244840683A
:1086400000F00C00082860D0E069022848D1002022
:1086500020490866FEF7B0FB054606E0FEF7ACFBD6
:10866000401B022801D903203AE61948006800F0AF
:1086700000700028F2D1206AB0F5803F07D114487D
:10868000406820F40030A168084311494860D4E9EB
:10869000080108430E49496821F4741108430C4944
:1086A000486001200B490866FEF786FB054607E097
:1086B0003DE0FEF781FB401B022801D903200FE6B5
:1086C0000348006800F000700028F2D02FE000009E
:1086D000001002400000424280044242007000400C
:1086E000002014490866FEF767FB054606E0FEF722
:1086F00063FB401B022801D90320F1E50E48006806
:1087000000F000700028F2D111E0E069012800D1EA
:10871000E6E50948466806F48031206A814204D1C2
:1087200006F47011606A814201D00120D8E5002072
:10873000D6E5000000004242001002402DE9F0475B
:1087400080460E469246002500270024A14640465A
:1087500002F09BFA81462548B9FBF0F424480068F2
:10876000A04240D02248046040F2B2750EE0284694
:1087700005F0DCFE012806D1B4F5B77F02D3A4F5DD
:10878000B77402E005E0A4F26D146D1CB4F5B67F79
:10879000EDD800BF2F46A5F5FA60F070002515E072
:1087A000012D09D1384605F0C1FE012804D11D2C48
:1087B00001D31D3C09E00BE00E48405DA04203D808
:1087C0000C48405D241A00E002E06D1C1C2CE7D22E
:1087D00000BF681C7070601CB070B2787178F0785F
:1087E00002F06DFA30700020BDE8F0878051010082
:1087F0000801002084F800082DE9F04707460C46E0
:1088000091460026B046002538684068C0F38000D5
:1088100010B10120BDE8F087384602F036FA06466E
:108820004FF46160B6FBF0F5B6FBF0F100FB1160B0
:108830003C21B0FBF1F060704FF46160B6FBF0F1E9
:1088400000FB11603C21B0FBF1F201FB1200A070B3
:108850001820B5FBF0F100FB11502070182D08D343
:108860001820B5FBF0F8B5FBF0F100FB11502070BB
:1088700000E025700020CDE770B5044600250CB956
:10888000012070BD607C20B900202074204600F0DB
:108890005BF802206074204600F085F918B10420CE
:1088A00060740120EDE7204602F0B5F918B104200C
:1088B00060740120E5E72068406820F00700216827
:1088C0004860A06828B11F48006820F001001D49D9
:1088D00008601C48001F006820F46070A16808430D
:1088E0001849091F08606068401C08B1656809E004
:1088F0000120FFF77FFA05461DB9042060740120AE
:10890000BFE76D1E2068806820F00F0040EA154028
:10891000216888602068C06865F30F002168C8601E
:10892000204602F095F918B1042060740120A8E7F0
:108930000021E17301216173A173012060740020A3
:108940009FE70000306C004038B504460B492068B2
:10895000884212D1FFF748FA00BF0948C06940F0C9
:1089600000600749C8610846C06900F000600090D7
:1089700000BF00BF01200349086038BD0028004047
:10898000001002403C0442422DE9F04F87B00646F9
:108990000F464FF000090020069080460024059005
:1089A00004900390824600BF48A207CA8DE80700E2
:1089B000304602F06AF981464FF46160B9FBF0F08D
:1089C00006904FF46160B9FBF0F100FB11903C217F
:1089D000B0FBF1F0C0B204904FF46160B9FBF0F16C
:1089E00000FB11903C21B0FBF1F201FB120003905F
:1089F00018210698B0FBF1F201FB12000590F878FF
:108A000000F5FA6840F63300804500D9804640F210
:108A1000B270804500D2804640F2B2750AE0284626
:108A200005F084FD012802D12B48044401E02B48C5
:108A300004446D1C4545F2D397F801A0404605F06B
:108A400075FD012804D1BAF1020F01D9244804446C
:108A5000AAF1010A002507E01DF8050040F2A32154
:108A6000484304EBC0146D1C5545F5D397F802B08C
:108A7000ABF1010040F2A321484304EBC014059878
:108A8000C0EB4011C1EB002004EB00140498C0EBD4
:108A9000001004EB80040398044400BF307C0128DC
:108AA00003D1022007B0BDE8F08F0120307400BF71
:108AB000022070742146304602F043F901207074A0
:108AC00000BF0020307400BF00BFEBE71F1C1F1E5B
:108AD0001F1E1F1F1E1F1E1F0085E2018033E101A4
:108AE000805101002DE9F05F04460D4690460026B6
:108AF0000027B146B246204602F0C7F807464FF4B9
:108B00006160B7FBF0F9B9F1180F0AD31820B9FB6F
:108B1000F0FA0AEB4A00C0004FF4616100FB01F774
:108B200000E0002700BF207C012802D10220BDE820
:108B3000F09F0120207400BF02206074B8F1000F84
:108B40000BD128784FF4616148436978C1EB01117A
:108B500000EB8100A978461812E0287802F050F85E
:108B60004FF4616100FB01FB687802F049F8C0EB4B
:108B700000100BEB800BA87802F042F80BEB00061C
:108B80003E443146204602F0DCF82068406820F080
:108B90000500216848600120607400BF0020207437
:108BA00000BF00BFC3E770B5044600250CB9012023
:108BB00070BD2068406820F0080021684860FEF71A
:108BC000FBF8054607E0FEF7F7F8401BB0F57A7FA3
:108BD00001D90320ECE72068406800F00800002875
:108BE000F1D00020E4E710B504460CB9012010BD17
:108BF000606A38B96068B0F5827F00D105E0002175
:108C0000E16102E00021216161610021A16294F82B
:108C1000510028B9002084F85000204600F042F8A6
:108C2000022084F851002068006820F0400021688C
:108C30000860A08800F48270218901F4044108438F
:108C4000A18901F400610843217C01F0020108437D
:108C5000217D01F001010843218B01F400710843DB
:108C6000217F01F0380108432021095D01F08001D6
:108C70000843218D01F40051084321680860042154
:108C8000A06901EA1040216848602068C06920F4AA
:108C900000602168C86100206065012084F85100EF
:108CA0000020A4E710B586B004460020029003908F
:108CB000049005901949206888422DD100BF1848BA
:108CC000806940F48050164988610846806900F444
:108CD0008050019000BF00BF00BF0846806940F08F
:108CE000040088610846806900F00400019000BF1C
:108CF00000BFA0200290022003900320059002A94B
:108D00000848FDF7BBFE402002900020039004902D
:108D100002A90448FDF7B2FE06B010BD00300140C4
:108D200000100240000801402DE9FF5F044688461C
:108D300091461D460E9E012002900020019000BF2A
:108D400094F85000012803D1022004B0BDE8F09F40
:108D5000012084F8500000BFFEF72EF8074694F873
:108D600051B060680390AA46BBF1010F0BD0039885
:108D7000B0F5827F04D1A06810B9BBF1040F02D016
:108D800002200190DBE0B8F1000F03D0B9F1000F31
:108D900000D015B901200190D1E094F851000428C9
:108DA00002D0052084F8510000206065C4F8389096
:108DB000E587A587C4F83080E586A58620646064D1
:108DC0002068006800F04000402805D02068006856
:108DD00040F0400021680860E068B0F5006F4AD1BB
:108DE000606810B1BAF1010F09D1206B00882168C9
:108DF000C860206B801C2063E08E401EE08633E05C
:108E00002068806800F00200022810D1E08E70B166
:108E1000029801280BD1206B00882168C860206B64
:108E2000801C2063E08E401EE086002002902068B7
:108E3000806800F0010068B1E08F58B12068C06818
:108E4000A16B0880A06B801CA063E08F401EE087B0
:108E500001200290FDF7B0FFC01BB04204D3701C8C
:108E600010B1032001906AE0E08E0028C8D1E08FA5
:108E70000028C5D14AE0606810B1BAF1010F09D1EC
:108E8000206B007821680873206B401C2063E08E03
:108E9000401EE08634E02068806800F0020002286E
:108EA00010D1E08E70B1029801280BD1206B0078B0
:108EB00021680873206B401C2063E08E401EE08612
:108EC000002002902068806800F0010068B1E08F07
:108ED00058B12068C068A16B0870A06B401CA063EB
:108EE000E08F401EE08701200290FDF765FFC01B68
:108EF000B04201D3701C00B916B9032001901EE0E6
:108F0000E08E0028C7D1E08F0028C4D13A46314610
:108F1000204601F05DFF20B1012001902020606516
:108F20000DE0A06850B900BF002000902068C06824
:108F3000009020688068009000BF00BF00BF012043
:108F400084F8510000BF002084F8500000BF019851
:108F5000FBE670B504462546681EB0F1807F01D35C
:108F600001200FE0681E4FF0E02148610F214FF013
:108F7000FF3005F011F900204FF0E0218861072053
:108F80000861002070BD70477047000030B5024690
:108F90000B4600BF92F83C00012801D1022030BDF1
:108FA000012082F83C0000BF022082F83D001068DA
:108FB00044681068816824F07004186804431068DD
:108FC0004460104D1068A8420BD01068B0F1804F7B
:108FD00007D00D4D1068A84203D00C4D1068A84270
:108FE00005D121F08001586801431068816001209B
:108FF00082F83D0000BF002082F83C0000BF00BFA7
:10900000CDE70000002C01400004004000080040B3
:1090100010B504460CB9012010BD94F83D0028B9E4
:10902000002084F83C00204600F026F8022084F856
:109030003D00211D206802F0CFF8012084F8460091
:1090400000BF84F83E0001213F200155402001551A
:109050004120015500BF00BF012084F84200432099
:109060000155442001554520015500BF012084F8D9
:109070003D000020D0E7000038B504460D492068C7
:10908000884215D100BF0C48C06940F002000A496F
:10909000C8610846C06900F00200009000BF00BF30
:1090A000002211461D20FDF73DFF1D20FDF72AFF80
:1090B00038BD00000004004000100240014691F855
:1090C0003D00012801D001207047022081F83D00B9
:1090D000124B086898420BD00868B0F1804F07D057
:1090E0000F4B0868984203D00E4B086898420CD189
:1090F0000868806800F00702062A0CD0086800683B
:1091000040F001000B68186005E00868006840F056
:1091100001000B6818600020D6E70000002C014019
:1091200000040040000800402DE9F04104460D46CF
:1091300000BF94F83C00012802D10220BDE8F08174
:10914000012084F83C0000BF022084F83D00206824
:10915000866826F0770626F47F46206886602868B1
:10916000502833D00CDC202850D004DC00284BD011
:10917000102851D149E0302849D040284CD139E05D
:1091800060282DD0702807D0B0F5805F03D0B0F5EF
:10919000005F41D10DE040E0D5E902136A68206824
:1091A00002F054F82068866846F0770620688660EA
:1091B00033E0D5E902136A68206802F047F82068B6
:1091C000806840F480402168886026E0EA68696829
:1091D000206802F04FF85021206802F042F81CE0AD
:1091E000EA686968206802F058F86021206802F097
:1091F00038F812E0EA686968206802F03BF840211C
:10920000206802F02EF808E000BF00BF00BF296808
:10921000206802F026F800E000BF00BF012084F8BB
:109220003D0000BF002084F83C0000BF00BF85E780
:10923000704710B5044620680069C0F34000D8B1FB
:109240002068C068C0F34000B0B16FF00200216830
:109250000861012020772068806900F0030018B1C0
:109260002046FFF7E5FF05E0204600F0ADF8204678
:1092700000F0ABF80020207720680069C0F3800080
:10928000D8B12068C068C0F38000B0B16FF00400AE
:1092900021680861022020772068806900F440700E
:1092A00018B12046FFF7C4FF05E0204600F08CF817
:1092B000204600F08AF80020207720680069C0F37B
:1092C000C000D8B12068C068C0F3C000B0B16FF072
:1092D000080021680861042020772068C06900F038
:1092E000030018B12046FFF7A3FF05E0204600F079
:1092F0006BF8204600F069F80020207720680069AC
:10930000C0F30010D8B12068C068C0F30010B0B13D
:109310006FF0100021680861082020772068C0697C
:1093200000F4407018B12046FFF782FF05E02046A8
:1093300000F04AF8204600F048F800202077206826
:10934000006900F0010058B12068C06800F0010019
:1093500030B16FF0010021680861204600F036F856
:1093600020680069C0F3C01058B12068C068C0F31D
:10937000C01030B16FF08000216808612046FFF70F
:1093800002FE20680069C0F3801058B12068C068F0
:10939000C0F3801030B16FF04000216808612046B2
:1093A00000F020F820680069C0F3401058B1206830
:1093B000C068C0F3401030B16FF020002168086130
:1093C0002046FFF7E1FD10BD7047704710B5044619
:1093D00003492068884201D101F09AFD10BD0000C8
:1093E0000004004070477047704700002DE9F84FB7
:1093F0000446206805682068C668206847694FF001
:109400000009CA4605F00F09B9F1000F0AD105F0AD
:10941000200038B106F0200020B1204601F086FF80
:10942000BDE8F88FB9F1000F71D007F0010018B94D
:1094300006F4907000286AD005F0010030B106F4FF
:10944000807018B1206C40F00100206405F0040029
:1094500030B107F0010018B1206C40F00200206428
:1094600005F0020030B107F0010018B1206C40F0A7
:109470000400206405F0080048B106F0200010B98F
:1094800007F0010018B1206C40F008002064206C47
:1094900068B305F0200028B106F0200010B1204686
:1094A00001F044FF20684069C0F3801A206C00F08E
:1094B000080010B9BAF1000F22D0204601F00BFFCE
:1094C0002068406900F04000B0B12068406920F099
:1094D000400021684861A06B50B15648A16B4863B9
:1094E000A06BFDF78DF910B1A06B416B88470CE0C4
:1094F0002046FFF779FF08E02046FFF775FF04E0FC
:109500002046FFF771FF0020206489E7FFE7206B0A
:10951000012878D105F01000002874D006F0100062
:10952000002870D000BF00200090206800680090E4
:1095300020684068009000BF00BF2068406900F0CC
:109540004000C0B3A06B006840681FFA80F8B8F113
:10955000000F2FD0A08D40452CDDA4F82E80A06BED
:10956000806920281FD02068C06820F4807021689E
:10957000C8602068406920F00100216848612068C7
:10958000406920F0400021684861202084F83E00B6
:10959000002020632068C06820F010002168C860A7
:1095A000A06BFDF701F9A08DE28D801A81B22046F3
:1095B000FFF719FF34E7FFE7A08DE18D401A1FFA8E
:1095C00080F8E08DE8B1B8F1000F1AD02068C068CB
:1095D00020F490702168C8602068406920F0010084
:1095E00021684861202084F83E0000202063206824
:1095F000C06820F010002168C86041462046FFF78F
:10960000F2FE0DE7FFE705F0800030B106F08000C4
:1096100018B1204601F07AFF02E705F0400030B1B2
:1096200006F0400018B1204601F070FEF8E600BFD9
:10963000F6E60000C3B2000810B504460CB90120DC
:1096400010BDA06900B100E000BF94F83D0028B94A
:10965000002084F83C00204600F028F8242084F8FC
:109660003D002068C06820F400502168C860204692
:1096700001F0CEFE2068006920F490402168086166
:109680002068406920F02A00216848612068C0688D
:1096900040F400502168C86000202064202084F835
:1096A0003D0084F83E000020CAE7000010B586B0F7
:1096B0000446002002900390049005905D492068C4
:1096C00088423FD100BF5C48806940F480405A49DD
:1096D00088610846806900F48040019000BF00BFA7
:1096E00000BF0846806940F008008861084680692C
:1096F00000F00800019000BF00BF4020029002204F
:1097000003900320059002A94C48FDF7B7F980208B
:10971000029000200390049002A94848FDF7AEF99A
:1097200000BF4749486840F0E06040F004004860EE
:1097300000BF002211462520FDF7F4FB2520FDF790
:10974000E1FB75E03F492068884236D100BF3A48C6
:10975000C06940F400303849C8610846C06900F467
:109760000030019000BF00BF00BF0846806940F094
:10977000040088610846806900F00400019000BF81
:1097800000BF04200290022003900320059002A94C
:109790002D48FDF773F908200290002003900490F3
:1097A00002A92948FDF76AF9002211462620FDF793
:1097B000B9FB2620FDF7A6FB3AE024492068884241
:1097C00036D100BF1C48C06940F480201A49C861E6
:1097D0000846C06900F48020019000BF00BF00BFB0
:1097E0000846806940F0080088610846806900F0FA
:1097F0000800019000BF00BF0815029002200390EE
:109800000320059002A90D48FDF738F94FF40060D8
:10981000029000200390049002A90848FDF72EF959
:10982000002211462720FDF77DFB2720FDF76AFB6C
:1098300006B010BD0038014000100240000C01408D
:109840000000014000440040000801400048004082
:1098500070472DE9F84F04460E46174699464FF0DB
:10986000000A94F83D0020285AD106B117B901200A
:10987000BDE8F88F00BF94F83C00012801D1022018
:10988000F6E7012084F83C0000BF0020206421207E
:1098900084F83D00FDF790FA8246A784E784A0682B
:1098A000B0F5805F04D1206910B90025B04602E010
:1098B00035464FF0000800BF002084F83C0000BF90
:1098C0001BE05346002280212046CDF8009001F095
:1098D0004DFE08B10320CBE745B9B8F80000C0F34E
:1098E00008002168486008F1020803E02878216830
:1098F00048606D1CE08C401EE084E08C0028E0D1C4
:109900005346002240212046CDF8009001F02EFE63
:1099100008B10320ACE7202084F83D000020A7E731
:109920000220A5E77047000006E004A005F0F2FC65
:10993000FE210A2005F01AF8F7E700007B225265A5
:1099400063697665223A7B22537461747573223A97
:1099500037307D7D0A00000030B59DB004460D46CD
:109960007022284901A8FBF7EDFF332D37D006DC24
:10997000102D0BD0122D3AD0142D40D117E0352DDB
:109980001DD0372D0BD0392D39D120E0A006010E86
:109990001D4B01AA602000F0CCF81DB030BDA00620
:1099A000010E194B05AA612000F0C3F8F5E7A006E7
:1099B000010E154B09AA602000F0BBF8EDE7A006E8
:1099C000010E114B0DAA612000F0B3F8E5E7A006E7
:1099D000010E0D4B11AA612000F0ABF8DDE7A006E7
:1099E000010E094B15AA612000F0A3F8D5E7A006E7
:1099F000010E054B19AA602000F09BF8CDE701206D
:109A0000CBE70000A8F80008C81C002070B5044689
:109A10000D462946204600F017F970BD70B5054681
:109A20000026002404E000200E490855601CC4B242
:109A30000A2CF8DB0B4800F0B3F808B14E2070BDDB
:109A4000084800F03AF908B94E20F8E7002404E08D
:109A50000448005D2855601CC4B2042CF8DB0020CB
:109A6000EDE70000C81C002070B504460D462946ED
:109A7000204600F0E0F970BD30B50B46002100BF74
:109A800016E00A24B4EB107F05D9302404EB1074DF
:109A900003F8114005E0412404EB10740A3C03F87C
:109AA0001140000100254C00641C1D554C1CE1B206
:109AB0009142E6DB30BD000010B503A005F02AFCA2
:109AC00000200849087010BD7B22526563656976E5
:109AD00065223A7B22537461747573223A32367D63
:109AE0007D0A00006B0000202DE9FC4104460027A0
:109AF00000210D2004F0F8FA9320207020206070DF
:109B000001A823460222214600900C2000F002F911
:109B100006465EB9002503E0605D4740681CC5B29B
:109B2000042DF9DB605DB84200D002263046BDE866
:109B3000FC812DE9F04385B006460F4690469946D4
:109B40008DF804608DF80570002406E018F8041004
:109B500001AAA01C1154601CC4B2062CF6DB002420
:109B600007E019F8041001AA04F108001154601C60
:109B7000C4B2042CF5DB04A801AB0C2201A90090AF
:109B80000E2000F0C7F805462DB9082001F0F0F8C6
:109B900000F0080000B90225284605B0BDE8F083B2
:109BA00070B5044608210846FCF7FAF92146522010
:109BB00000F065F805461DB92046FFF795FF0546FC
:109BC000284670BD10B5002201211C48FDF7EEF8B3
:109BD0000120FCF76DFE012211461848FDF7E6F85A
:109BE0000120FCF765FE1648007828B10122022109
:109BF0001448FDF7DBF804E0012210211148FDF7BD
:109C0000D5F800F054F88D212A2004F06DFA3E2199
:109C10002B2004F069FA1E212D2004F065FA0021A2
:109C20002C2004F061FA4021152004F05DFA3D215A
:109C3000112004F059FAFBF704FF10BD000C01409D
:109C40001C000020000801407CB505460C46302071
:109C500020706570A21C02212046FBF795FF01A829
:109C600023460422214600900C2000F053F80646BB
:109C700016B90198902800D0022630467CBD7CB5EC
:109C800006460C4607210D2004F02EFA267001A886
:109C900023460122214600900C2000F03BF80546A7
:109CA00015B90198102800D0022528467CBD10B5B2
:109CB0000F21012004F018FA10BDF0B585B0074659
:109CC00093208DF8040070208DF80500002405E035
:109CD000395D01AAA01C1154601CC4B2052CF7DB2D
:109CE0000DF10B02072101A8FBF74EFF04A801AB01
:109CF000092201A900900C2000F00CF805462DB9AE
:109D00000498182802D19DF8046000E0002630462F
:109D100005B0F0BD2DE9FE4F0646884691469A46AD
:109D2000DDF830B0022002900020019000900C2E4F
:109D300006D00E2E09D1122001901020009005E0CF
:109D4000772001903020009000E000BF00BF019814
:109D500040F08001022004F0C7F980210420FCF7C4
:109D60001FF980210A2001F0B4F80021012004F03D
:109D7000BBF9002505E018F80510092004F0B4F936
:109D80006D1C4D45F7D33146012004F0ADF90C2E82
:109D900003D180210D2001F09CF84FF4FA6500BF3B
:109DA000042000F0E5FF04466D1E35B104F001000B
:109DB00018B9009820400028F2D080210D20FCF72F
:109DC000EFF895B3062000F0D3FF00F01B0068BB4E
:109DD000002002900198204000F0010008B101200D
:109DE00002900C2E24D10A2000F0C2FF04460C2061
:109DF00000F0BEFF00F007072FB1601E07EBC000A8
:109E0000CBF8000002E0E000CBF8000004B9012428
:109E1000102C00DD1024002505E0092000F0A8FF2B
:109E20000AF805006D1CA542F7D301E0022002905C
:109E30000298BDE8FE8FF0B587B006460F46A02019
:109E40008DF804008DF805600DF10602022101A8CD
:109E5000FBF79AFE06A801AB042201A900900C2092
:109E6000FFF758FF054645B90698042805D19DF827
:109E7000040000F00F000A2800D002250DBB0024CA
:109E800004E0385D01A90855601CC4B2102CF8DB51
:109E900005AA102101A8FBF777FE06A801AB122244
:109EA00001A900900C20FFF735FF054645B906983B
:109EB000042805D19DF8040000F00F000A2800D006
:109EC0000225284607B0F0BD00B585B000200190FE
:109ED00002900390049000BF3A48806940F010005F
:109EE000384988610846806900F01000009000BF82
:109EF00000BF00BF0846806940F020008861084626
:109F0000806900F02000009000BF00BF00BF08463D
:109F1000806940F0040088610846806900F0040010
:109F2000009000BF00BF00BF0846806940F00800F5
:109F300088610846806900F00800009000BF00BFFB
:109F400000224FF4E2612048FCF730FF002201219B
:109F50001E48FCF72BFF4FF4E260019001200290B5
:109F6000002003900320049001A91748FCF786FD08
:109F7000012001900290002003900220049001A98A
:109F80001248FCF77BFD012202210F48FCF70EFF6F
:109F900002200190012002900020039003200490F1
:109FA00001A90948FCF76AFD2020019000200290D9
:109FB000022003900320049001A90448FCF75EFDF1
:109FC00005B000BD0010024000080140000C014037
:109FD00010B50748074908600620486040F6FF7141
:109FE00004488160FCF7EEFE08B1FCF77BF910BD78
:109FF00000300040080900201CB5002001900090AE
:10A000000748084908604FF0FF3048604FF48071FE
:10A0100004488160FEF730FC08B1FCF763F91CBD11
:10A02000002800401409002010B50F480F490860AF
:10A030004FF48270486000210C488160C16001616A
:10A0400041614FF4007181612821C16100210162E9
:10A0500041624FF4005181620921C162FEF7C3FDE4
:10A0600008B1FCF73FF910BD00300140280900207D
:10A0700000B587B0002003900490059006900190F1
:10A08000029014481449086040F2DB5048600021F7
:10A09000114881600121C160002101618161FEF7E9
:10A0A000B7FF08B1FCF71EF94FF48050039003A9E5
:10A0B0000948FFF739F808B1FCF714F900200190BE
:10A0C000029001A90448FEF761FF08B1FCF70AF904
:10A0D00007B000BD000400408009002010B5094809
:10A0E00009490860002108488160C16001610C21B4
:10A0F000416100218161C161FFF79EFA08B1FCF75F
:10A10000F1F810BD00380140C809002010B50B4817
:10A110000B4908604FF4E130486000210848816035
:10A12000C16001610C21416100218161C161FFF7C2
:10A1300083FA08B1FCF7D6F810BD000000440040D7
:10A140000C0A002010B50B480B4908604FF416505C
:10A150004860002108488160C16001610C214161B3
:10A1600000218161C161FFF767FA08B1FCF7BAF815
:10A1700010BD000000480040500A00201FB500201C
:10A1800000900190029003904FF4805000900120C5
:10A190000190022002900320039069461448FCF7C6
:10A1A0006DFC00224FF480511148FCF7FFFD642044
:10A1B000FCF77EFB00220F490F4801F0ECFE08B1CE
:10A1C000FCF790F80D490C4802F07EF908B1FCF755
:10A1D00089F80B49084801F084FB08B1FCF782F8C4
:10A1E000054802F03BFA08B1FCF77CF81FBD0000FF
:10A1F0000008014088000020940A0020200100206F
:10A20000E000002000BFFEE7FEF756F800BFFEE7C3
:10A210002DE9F0470546EAE12868B0F844A00AF0C5
:10A220000F06002E7ED10AF01000B0BB00BF2968D7
:10A23000098848F60F7201EA020040F400412A68DA
:10A24000118000BF05F128042868B0F8501020786C
:10A2500001EBC000801C296801F5806131F8100015
:10A26000C0F30900E061E1696069084460610021B0
:10A270002846FCF7CCFE95F824000028CBD0A06936
:10A280000028C8D195F8240040F080002968A1F882
:10A290004C00002085F82400A9E1FFE705F5B4741F
:10A2A0002868B0F8008008F4006030B32868B0F87F
:10A2B0005010207801EBC000801D296801F58061F5
:10A2C00031F81000C0F30900E061A18B8BB2E28885
:10A2D00005F52C71286803F077FD00BF296809880F
:10A2E00040F68F7201EA020040F080012A68118076
:10A2F00000BF2846FDF73FFD79E108F40040002843
:10A3000089D000BF2968098840F68F7201EA0200EF
:10A3100040F080012A68118000BF2868B0F8501012
:10A32000207800E06FE001EBC000801D296801F596
:10A33000806131F81000C0F30900E061E06990B17C
:10A34000606980B1B4F81CC01FFA8CF3E2886169BF
:10A35000286803F039FDE169606908446061002103
:10A360002846FCF764FE2868008800F40060002896
:10A3700092D100BF2A682968B1F850100A4402F24D
:10A380000C41084600BF236953B9038848F2FF3CDB
:10A3900003EA0C030380038843F4004303801EE0B8
:10A3A00023693E2B0DD800BF23695908237C03F095
:10A3B000010303B1491C4FF6FF7303EA81230380B5
:10A3C0000DE000BF23695909237C03F01F0303B983
:10A3D000491E4FF4004343EA8123038000BF00BFBE
:10A3E00000BF00BF296809884BF68F7201EA02009E
:10A3F00080F4805080F4005040F4004141F080012E
:10A400002A681180F3E07100286830F8118008F4A0
:10A41000004000287ED000BF7200296831F8121079
:10A4200040F68F7201EA020040F0800173002A6852
:10A4300022F8131000BF06EB860105F5B47000EB9F
:10A44000C104207BB0B92868B0F85010207801EB27
:10A45000C000801D296801F5806131F81000C0F34B
:10A460000907002F5BD0E28861693B46286803F04A
:10A47000ABFC54E0E078022806D14246214628464B
:10A48000FCF758FE07464AE000BF00BF22785200A2
:10A49000296831F8121048F68F7201EA020040F480
:10A4A000004141F0C00123785B002A6822F81310B4
:10A4B00000BF00BF21784900286830F8110000F47F
:10A4C0008040A8B12868B0F85010207801EBC00097
:10A4D000801C296801F5806131F81000C0F309077C
:10A4E000EFB1228961693B46286803F06DFC16E0F4
:10A4F0002868B0F85010207801EBC000801D296852
:10A5000001F5806131F81000C0F309073FB162899D
:10A51000616900E017E03B46286803F055FCE069FC
:10A520003844E061606938446061A06910B1206915
:10A53000B84204D921782846FCF779FD03E021468A
:10A54000286802F066FE08F08000B0B306EB8601D2
:10A5500005F1280000EBC10400BF7200296831F842
:10A56000121048F60F7201EA020040F40041730035
:10A570002A6822F8131000BFE078032807D0E0789B
:10A5800028B1E07802282DD108F4807050BB2868EB
:10A59000B0F85010207801EBC000801C296801F54C
:10A5A000806131F81000C0F30909A069484505D958
:10A5B000A069A0EB0900A06102E018E00020A06102
:10A5C000A06920B921782846FCF721FD0FE06069D9
:10A5D00048446061E0694844E0612146286802F02F
:10A5E00018FE04E0424621462846FCF74FFE286844
:10A5F000B0F8440000F4004000287FF40DAEBDE840
:10A60000F087704710B5022405E00A49081904F0E4
:10A61000F3FC601CC4B207484078401CA042F4DA46
:10A6200005A004F077FE4FF416710248FBF7A3F97A
:10A63000002010BD800400207B225265636569768E
:10A6400065223A7B22537461747573223A32362C38
:10A650002254797065223A22506F735472616E737E
:10A66000616374696F6E227D7D0A00002DE9F04FF1
:10A6700091B007464FF005084FF037094FF0160A22
:10A6800001260024A346FD48007810B101287DD1A1
:10A6900035E10022FA49FB48FEF7AEF80022FA49FC
:10A6A000F848FEF74BF8F6480078F8490870F44887
:10A6B0004078F7490870F2488078F6490870FCF74E
:10A6C0007BFB054617E10024F348007810B9C82049
:10A6D000F2490870FCF770FB401BB0F57A6F08D99F
:10A6E000EFA004F017FEFBF7DDFDFF2011B0BDE881
:10A6F000F08F4AF6AA20EF49096808603846FFF74C
:10A700008DF920B13846FFF789F900B1F3E04946E9
:10A710004046FFF721F970B13846FFF77FF920B1C5
:10A720003846FFF77BF900B1E5E049464046FFF7C0
:10A7300013F900B1DFE049464046FFF70DF9002864
:10A740007ED109A95046FFF761F9002879D14AF670
:10A75000AA20D84909680860002004E009A9095C1A
:10A760004C40411CC8B20F28F8DB9DF83300A042D2
:10A7700068D14AF6AA20CF49096808609DF83100DF
:10A7800000287CD100248DF8240000E0FAE18DF847
:10A7900025008DF826008DF82700BB48C0788DF87D
:10A7A0002800B94840788DF82900B74880788DF89E
:10A7B0002A00B34800788DF82B00B14840788DF816
:10A7C0002C00AF4880788DF82D0000208DF82E00E9
:10A7D0008DF82F008DF8300001208DF83100AF4842
:10A7E00000788DF83200002004E009A9095C4C4093
:10A7F000411CC8B20F28F8DB8DF8334009A9504638
:10A80000FFF732F9E0BB9D4803789D4880789C496A
:10A8100049789B4A1278CDE90603CDE904219A488C
:10A8200081784078984AD2789C4B1B78CDE90032E9
:10A83000CDE90201A0480368A0480268A04902E0EF
:10A840004FE044E039E09F4803F08AFC9D4804F063
:10A8500061FD9148007860B14FF47A70FCF728F8F8
:10A86000FBF7C0FC642804D06420FCF721F8FBF758
:10A87000B9FC4AF6AA208F490968086001E012E095
:10A8800007E04FF47A70FCF713F804F09BFB00200C
:10A890002CE78148007808B1FBF704FD8AA004F09A
:10A8A00039FDFF2022E77C48007808B1FBF7FAFC6D
:10A8B0008AA004F02FFDFF2018E77748007808B140
:10A8C000FBF7F0FC8AA004F025FDFF200EE772489C
:10A8D000007808B1FBF7E6FC8AA004F01BFDFF201E
:10A8E00004E76D48007808B1FBF7DCFC8AA004F0AF
:10A8F00011FDFF20FAE6002E7FF4E5AE46E1FCF7FD
:10A900005BFA05463AE10024FCF756FA401BB0F525
:10A910007A6F06D962A004F0FDFCFBF767F9FF200F
:10A92000E4E64AF6AA206349096808603846FFF75A
:10A9300075F820B13846FFF771F800B11EE14946BD
:10A940004046FFF709F870B13846FFF767F820B1C5
:10A950003846FFF763F800B110E149464046FEF77C
:10A96000FBFF00B10AE149464046FEF7F5FF00282B
:10A970007ED109A95046FFF749F8002879D14AF657
:10A98000AA204C4909680860002004E009A9095C74
:10A990004C40411CC8B20F28F8DB9DF83300A042A0
:10A9A00068D14AF6AA204349096808609DF8310039
:10A9B000012861D1002400208DF824008DF82500A5
:10A9C0008DF826008DF827009DF828002E49C870C4
:10A9D0009DF8290048709DF82A0088709DF82B008A
:10A9E000274908709DF82C0048709DF82D0088704C
:10A9F00000208DF82E008DF82F008DF830008DF896
:10AA000031009DF832B000BF04E009A9095C4C4058
:10AA1000411CC8B20F28F8DB8DF8334009A9504615
:10AA2000FFF722F838BB1548037815488078144999
:10AA30004978134A1278CDE90603CDE9042112487A
:10AA4000807811494978104AD278CDE900B2CDE931
:10AA5000021019480368194802681949194803F097
:10AA60007FFB184804F056FC0B48007828B15DE0E5
:10AA70007EE077E070E05EE063E05AE004000020F2
:10AA80007E000020140900208100002058000020D2
:10AA9000590000205A0000201C0000201D0000204A
:10AAA0007B2243223A7B22537461747573223A31BC
:10AAB0007D7D0A0008090020780000207400002035
:10AAC00018F90008780700207B2243223A7B2253A2
:10AAD0007461747573223A327D7D0A007B224322B1
:10AAE0003A7B22537461747573223A337D7D0A0078
:10AAF0007B2243223A7B22537461747573223A3469
:10AB00007D7D0A007B2243223A7B22537461747557
:10AB100073223A357D7D0A007B2243223A7B225301
:10AB20007461747573223A367D7D0A0001201949DB
:10AB300008700020DAE5AFF2700004F0EBFBFF20B4
:10AB4000D4E5AFF2680004F0E5FB1348007808B1E3
:10AB5000FBF7DCF8FF20C9E5AFF26C0004F0DAFB8C
:10AB6000FF20C3E5AFF2640004F0D4FBFF20BDE595
:10AB7000AFF25C0004F0CEFBFF20B7E5002E7FF4BF
:10AB8000C2AE03E005A004F0C5FB00BF00BF00BFDC
:10AB9000ACE500006B0000201C0000207B22436F0E
:10ABA0006E666967223A7B22537461747573223A28
:10ABB00033307D7D0A00000001B582B0642001239E
:10ABC00001AA02A900900348FEF7AEF89DF8040020
:10ABD0000EBD00002809002008B508490968C90809
:10ABE0004FF47A72B1FBF2F14143009100BF00BF14
:10ABF00000994A1E00920029F9D108BD0C010020DD
:10AC0000014600BF080900EB8000420001F00F0080
:10AC10001044C0B2704770B504460025FCF7CCF86C
:10AC2000054607E0FCF7C8F8401BB0F57A7F01D96C
:10AC3000032070BD2068406800F020000028F1D09B
:10AC40002068406840F01000216848600020F0E76C
:10AC500070B5044600252068406820F01000216887
:10AC60004860FCF7A9F8054607E0FCF7A5F8401B8B
:10AC7000B0F57A7F01D9032070BD2068406800F0EC
:10AC800020000028F1D00020F6E730B50146002270
:10AC90000023002400200D68AD69AAB20D68ED699B
:10ACA000ACB20D68AD69ABB29A4205D00D68ED69E2
:10ACB00063F31F45284601E044EA024030BDF0B589
:10ACC00004460B460021002504F5FA61032B1BD234
:10ACD000C3EBC30000EB03100926B0FBF6F01044F1
:10ACE000001D4618481E06EB90066427B0FBF7F0DF
:10ACF000361A481EBF00B0FBF7F030440726B0FB01
:10AD0000F6F706FB17051AE0C3EBC30000EB0310D0
:10AD10000926B0FBF6F01044001D084400EB91003A
:10AD20006426B1FBF6F6801B4FF4C876B1FBF6F64D
:10AD30003044801E0726B0FBF6F706FB1705E8B285
:10AD4000F0BD70B504460D4600262046FFF763FFB0
:10AD500008B101260AE0280C21688861A8B22168A0
:10AD6000C8612046FFF774FF00B10126304670BD70
:10AD700070B504461448007828B100220221134817
:10AD8000FCF714F804E0002210211048FCF70EF83C
:10AD90007E2101EA440141F08000FFF70DFF002011
:10ADA000FFF70AFF05460848007828B10122022172
:10ADB0000648FBF7FBFF04E0012210210348FBF7E4
:10ADC000F5FF284670BD00001C000020000801406F
:10ADD000F8B504460D4616462B4600228021204633
:10ADE000009600F009F828B1606D40F02000606521
:10ADF0000320F8BD0020FCE72DE9F84F04460D467E
:10AE000090461E46DDF82890FBF7D6FFA0EB090020
:10AE1000371AFBF7D1FF82462C480068C0F3CB30CD
:10AE20007843009045E0701C002842D0FBF7C4FF37
:10AE3000A0EB0A00B84200D2A7BB2068406820F00F
:10AE4000E000216848606068B0F5827F0DD1A0689D
:10AE5000B0F5004F03D0A068B0F5806F05D1206831
:10AE6000006820F0400021680860A06AB0F5005F2B
:10AE70000DD100BF2068006820F4005021680860F0
:10AE80002068006840F400502168086000BF01207D
:10AE900084F8510000BF002084F8500000BF032058
:10AEA000BDE8F88FFFE7009800B900270098401E22
:10AEB0000090206880682840A84201D1012000E06D
:10AEC00000204045AFD10020EAE700000C0100203F
:10AED000704770B505460C462846FFF749FF064601
:10AEE00046EA0401284603F0FFF870BD70B5044639
:10AEF0000D4629462046FBF751FF70BD70B504464C
:10AF00000D461646324629462046FBF74FFF70BDD8
:10AF100070B500F06FF80546002411E0164800EB0C
:10AF20004410C07F15490978884208D145FA04F2D7
:10AF300002F00101104A02EB441000F021F8641CF9
:10AF4000012CEBDB0D48007848B9002405E00A49E4
:10AF500001EB441000F091F8641C012CF7DB07486A
:10AF60000078401C0549087008460078052801DB78
:10AF70000020087070BD0000681C00202302002023
:10AF800010B58278002A33D0827962B901B110BD40
:10AF9000002242718279521C82710023C2682032E1
:10AFA0004489135524E08279092A14DAC2682032D0
:10AFB0004389D25C01F001034479A3401A43D3B220
:10AFC000C2682032448913558279521C82714279B9
:10AFD000521C42710CE08279092A09D10022827147
:10AFE000827729B142891F2A02DA4289521C4281A2
:10AFF00000BFCCE770B5002600242CE0184A02EB15
:10B000004412918B164A02EB44129069FFF76EFFCF
:10B010000546134800EB44108079B0B9104800EBA6
:10B020004410807F88B985B90E480078801C0521BE
:10B0300090FBF1F201FB1200094901EB4411C877C2
:10B040000120074901EB4411887705F00100A04079
:10B050003043C6B2641C012CD0DB304670BD00000A
:10B06000681C00202302002070B504460D46A18A0A
:10B070002A462069FFF742FF70BD10B5044660788C
:10B0800000283FD0207958B9012020700020E070BE
:10B0900000212046FFF7E8FF2079401C207131E0B5
:10B0A0002079092810DAE279E068805CE2781041C2
:10B0B00000F001012046FFF7D7FF2079401C2071E6
:10B0C000E078401CE0701DE02079092807D10121BB
:10B0D0002046FFF7C9FF2079401C207112E020793B
:10B0E0000A280FD100202071E079401CE071207AFD
:10B0F000E179884203DD01202070607002E00020C9
:10B100002070607010BD000010B5FBF78BFE034887
:10B110000068401C0149086010BD000018000020B4
:10B1200000B593B0282109A8FAF725FC142104A83A
:10B13000FAF721FC002000900190029003900D206E
:10B1400009904FF480300A9000200B9001200C9061
:10B150000D900F9002201090C10311914FF4E01157
:10B16000129109A8FDF7B8F808B1FBF7BBF80F205A
:10B17000049002200590002006904FF48060079014
:10B1800000200890022104A8FCF75AFF08B1FBF741
:10B19000A9F8112000904FF48070019000200390D6
:10B1A0006846FCF7B3FE08B1FBF79CF8FDF70EF814
:10B1B00013B000BD014802490860704700580008FC
:10B1C00008ED00E010B50348FEF700F90148FEF76E
:10B1D00030F810BD8009002010B50268184B984265
:10B1E00008D0B0F1804F05D0164B984202D0164BD4
:10B1F000984203D122F070024B681A43104B9842D8
:10B2000008D0B0F1804F05D00E4B984202D00E4BC3
:10B21000984203D122F44072CB681A4322F0800393
:10B220004C6943EA040202608B68C3620B68836264
:10B23000034B984201D10B6903630123436110BDA5
:10B24000002C0140000400400008004030B50C46CE
:10B25000816821F47F4142EA032525432943816027
:10B2600030BD0A46816821F0700142F0070319439E
:10B270008160704730B50B461446026A056A25F0B6
:10B2800001050562816921F0F00141EA041122F013
:10B290000A021A438161026230BD30B50B46144682
:10B2A000056A25F0100505628169026A21F4704182
:10B2B00041EA043122F0A00242EA031281610262F3
:10B2C00030BD70B505466C6A0020E085E0842046FC
:10B2D000FEF78AF870BD0168C96821F490710268B0
