:020000040800F2
:10580000602700200159000831AE0008C199000846
:105810002DAE0008555A0008610101080000000083
:10582000000000000000000000000000C1D10008DE
:10583000075C0008000000004FBF0008F9D3000813
:105840001B5900081B5900081B5900081B59000868
:105850001B5900081B5900081B5900081B59000858
:105860001B5900081B5900081B5900081B59000848
:105870001B5900081B5900081B5900081B59000838
:105880001B5900081B5900081B5900081B59000828
:10589000A90001081B5900081B5900081B590008E2
:1058A0001B5900081B5900081B5900081B59000808
:1058B0001B590008BDD400081B5900081B590008DB
:1058C0001B5900081B5900081B5900081B590008E8
:1058D0001B590008D1D80008E1D800082DD90008CC
:1058E0001B5900081B5900081B590008DFF80CD091
:1058F00000F06AF80048004779120108602700208C
:105900000648804706480047FEE7FEE7FEE7FEE759
:10591000FEE7FEE7FEE7FEE7FEE7FEE7ADD40008A0
:10592000ED580008202A04DB203A21FA02F0002179
:10593000704721FA02F3D040C2F12002914008439F
:105940001946704740EA01039B0703D009E008C9E4
:10595000121F08C0042AFAD203E011F8013B00F834
:10596000013B521EF9D27047D2B201E000F8012B80
:10597000491EFBD270470022F6E710B513460A46CF
:1059800004461946FFF7F0FF204610BD421C10F8F0
:10599000011B0029FBD1801A704730B50B46014628
:1059A00000202022012409E021FA02F59D4205D3BE
:1059B00003FA02F5491B04FA02F52844151EA2F168
:1059C0000102F1DC30BD0000064C074D06E0E06846
:1059D00040F0010394E8070098471034AC42F6D336
:1059E000FFF788FFF42501081426010870B58C180C
:1059F00010F8015B15F0070301D110F8013B2A11E3
:105A000006D110F8012B03E010F8016B01F8016BCF
:105A10005B1EF9D12B0705D40023521E0DD401F8CB
:105A2000013BFAE710F8013BCB1A921C03E013F894
:105A3000015B01F8015B521EF9D5A142D8D30020C9
:105A400070BD10B5142007F01FFB0321142007F0D0
:105A5000B8FB10BD00BFFEE730B50346042B15D0E0
:105A600007DC7BB1012B0ED0022B0DD0032B30D1E4
:105A70000BE0202B0BD0212B18D0222B22D0232B54
:105A800027D125E026E025E024E023E022E00020E5
:105A900003E00C5C114D2C54401C0728F9DB00205E
:105AA0000F4C207001200F4C207013E0002003E009
:105AB0000A4C245C0C54401C0728F9DB0020084CDD
:105AC000207007E006480078401C054C207001E07B
:105AD00000E000BF00BF002030BD0000D00000206B
:105AE00000000020010000200020704710B50022B7
:105AF0000449054808F07FF80449034808F074F8A1
:105B0000002010BDB81300200C0B0020D00F002087
:105B100070B504460D460B4928680860002003E074
:105B2000215C094A1154401C064909688842F7D390
:105B30002146064808F058F8044808F031F80020DB
:105B400070BD000008000020940400200C0B002011
:105B50002DE9F04104460D4600260A48D0F8B872F7
:105B6000D7F8140210B10120BDE8F0812A46214681
:105B7000044808F040F8034808F0C1F806463046EB
:105B8000F2E700000C0B00202DE9F04107468846A3
:105B900015460421052000F029F880210A2007F08D
:105BA00010FB002405E0395D09200AF0ADFE601C01
:105BB000C4B24445F7DB032101200AF0A5FEFF240F
:105BC00000BF052007F060FA0646601EC4B21CB193
:105BD00006F004000028F4D0222007F055FA2870BF
:105BE000212007F051FA6870BDE8F08170B50546D4
:105BF0000C46284607F048FA064626EA04012846DD
:105C00000AF082FE70BD70477CB50026002419A101
:105C100003C9CDE90001642305226946174803F052
:105C200064FE00F06DFD0546002004461DE00020E6
:105C3000134908700A2000F06DFE642305226946AE
:105C40000E4803F052FE0AF08DFA0546062D02D0EA
:105C5000152D04D101E064207CBD6920FCE7062DF0
:105C600000D104E0601CC0B20446022CDFDB00BFA0
:105C700000BFF1E70245530317000000C80A0020E7
:105C8000480000201CB50DA103C9CDE900010BF0AF
:105C9000B9F96423052269460A4803F026FE0AF092
:105CA00061FA0446062C02D0152C04D101E06420D0
:105CB0001CBD6920FCE76920FAE7000002444803A4
:105CC0000D000000C80A00200146002048608860DE
:105CD000C86188610862487308730861087548756F
:105CE000002205E0002301F124008354501CC2B2BD
:105CF000102AF7DB002205E0002301F13400835471
:105D0000501CC2B2102AF7DB002203E000208854A6
:105D1000501CC2B2042AF9DB0020704772B603E0BF
:105D20001E2164200BF086FAFAE700000021074AE2
:105D3000D1610749096941F00401054A1161114621
:105D4000096941F04001116170470000B01C00205A
:105D5000002002400021074AD1610749096941F04A
:105D60000201054A116111464861096941F040018B
:105D700011617047B01C0020002002400022054B3A
:105D8000DA61054A126942F00102034B1A6101808F
:105D900070470000B01C00200020024000201E4977
:105DA000C96801F0100139B11C49C96941F002010B
:105DB0001A4AD16140F010001749C96801F0040186
:105DC00039B11649C96941F00101144AD16140F065
:105DD00004001149C96901F0010169B10F49C9699C
:105DE00041F004010D4AD16100BF0B49C96921F09E
:105DF0000101094AD16100BF00BF40F20111884290
:105E000006D10549C96921F00101034AD16101E0C8
:105E10000149C86000BF704700200240B01C00204C
:105E200070B5044600F0FAFF054609E0601C38B181
:105E300024B100F0F3FF401BA04201D9032070BD44
:105E40001248C06800F001000028EFD10F48C06878
:105E500000F0200020B100BF20200C49C86000BF26
:105E60000A48C06800F0100048B90848C06900F04E
:105E7000010020B90548C06800F0040018B1FFF720
:105E80008DFF0120DBE70020D9E700000020024061
:105E90002DE9F04F8BB006464FF0000B002030602C
:105EA000DD480078012811D0022802D0032827D12C
:105EB00019E00520D94908701520D9490870372004
:105EC000D84908702020D849087026E00420D3491A
:105ED00008701020D24908703920D249087000207B
:105EE000D149087019E00520CC4908701520CC492B
:105EF00008703720CB4908704020CB4908700CE06F
:105F00000520C64908701420C54908703720C549C6
:105F100008700020C449087000BF00BF09A803F042
:105F200023FE38B109A803F01FFE18B101200BB001
:105F3000BDE8F08F002405E009A8005DBB490855C5
:105F4000601CC4B2042CF7DB1021002003F050FDCC
:105F500008B10120EBE701A9012003F0A3FD08B17E
:105F60000120E4E79DF80500B04988600846806894
:105F700000028860084680689DF804100844AB4918
:105F800088609DF809004860084640680002486043
:105F9000084640689DF808100844A449486008462F
:105FA000406800024860084640689DF807100844B1
:105FB0009E494860084640680002486008464068BC
:105FC0009DF806100844994948600846008900F485
:105FD0000040B0F5004F12D108460089C0F30E0012
:105FE00088600846806846F6292148408F498860C5
:105FF000084640684BF2A62148408C4948608B48CF
:1060000040688B490860874801788448007803F02D
:10601000EFFC08B10A208AE701A98148007803F063
:1060200041FD08B1142082E7002406E001A8015DCB
:106030007E4824300155601CC4B2102CF6DB4FF0B2
:10604000010A00240BE001A8015D01AA04F1080087
:10605000105C814201D04FF0000A601CC4B2042CD5
:10606000F1DB00240BE001A9201D085C095D81F033
:10607000FF01884201D04FF0000A601CC4B2042C1A
:10608000F1DB9DF8100050B99DF81100FF2806D1F2
:106090009DF8120018B99DF81300FF2801D04FF0A9
:1060A000000ABAF1000F3AD09DF807005F49C861B5
:1060B0000846C0690002C8610846C0699DF806101C
:1060C00008445A49C8610846C0690002C8610846C8
:1060D000C0699DF8051008445449C8610846C06964
:1060E0000002C8610846C0699DF8041008444F4981
:1060F000C8611421062003F07BFC08B10C2016E7D0
:106100006946182003F0D6FC08B10D200FE7474977
:10611000009808730846C0693060002007E74FF018
:106120004B08002406E041482430005D80EA08085E
:10613000601CC4B20F2CF6DB3C4890F8330040459D
:1061400001D00320F3E6394890F827003749C861A9
:106150000846C0690002C8610846C16990F8260077
:1061600008443249C8610846C0690002C86108464F
:10617000C16990F8250008442C49C8610846C069E7
:106180000002C8610846C06991F8241008442749F4
:10619000C861084690F82D703F0290F82C00074423
:1061A000084690F82B502D0290F82A0005442D0245
:1061B000084690F8290005442D02084690F828006A
:1061C0000544084690F82E90B9F1010F03D0B9F1BB
:1061D000020F12D108E005EB070B1448C0695845BF
:1061E00001D00520A3E60AE0A5EB070B0F48C06924
:1061F000584501D006209AE601E0072097E600BF47
:106200000A4890F82F0000F01F000849087308465C
:10621000C069306000208AE6300200202C02002095
:106220002D0200202E0200202F020020501D0020F1
:10623000340200202DE9F04F8DB007468946002535
:1062400000203860C9F80000FB480078012811D010
:10625000022802D0032827D119E00520F749087049
:106260001520F74908703720F64908702020F649B4
:10627000087026E00420F14908701020F0490870E9
:106280003920F04908700020EF49087019E0052016
:10629000EA4908701520EA4908703720E949087072
:1062A0004020E94908700CE00520E44908701420FA
:1062B000E34908703720E34908700020E24908707C
:1062C00000BF00BF0BA803F04FFC38B10BA803F0D0
:1062D0004BFC18B101200DB0BDE8F08F002405E0A3
:1062E0000BA8005DD9490855601CC4B2042CF7DB2B
:1062F0001021002003F07CFB08B10120EBE703A98B
:10630000012003F0CFFB08B10120E4E79DF80D0068
:10631000CE49886008468068000288600846806828
:106320009DF80C100844C94988609DF81100486028
:106330000846406800024860084640689DF8101012
:106340000844C24948600846406800024860084660
:1063500040689DF80F100844BC49486008464068F2
:1063600000024860084640689DF80E100844B7498E
:1063700048600846008900F40040B0F5004F12D193
:1063800008460089C0F30E0088600846806846F61B
:1063900029214840AD498860084640684BF2A62153
:1063A0004840AA494860A9484068A9490860A548EA
:1063B0000178A248007803F01BFB08B10A208AE7A5
:1063C0009D480078012835D103A9122003F06AFB0B
:1063D00008B114207FE79DF81000AB2812D19DF87A
:1063E0001100CD280ED19DF80F502D029DF80E0002
:1063F00005442D029DF80D0005442D029DF80C006A
:10640000054400E000259DF80C00FF280CD19DF804
:106410000D00FF2808D19DF80E00FF2804D19DF83B
:106420000F00FF2800D100258A48854200D10025B1
:10643000C9F8005003A98248007803F033FB08B183
:10644000142048E7002406E003A8015D7F482430BB
:106450000155601CC4B2102CF6DB01200290002410
:106460000BE003A8015D03AA04F10800105C81425F
:1064700001D000200290601CC4B2042CF1DB002487
:106480000BE003A9201D085C095D81F0FF01884233
:1064900001D000200290601CC4B2042CF1DB9DF8F6
:1064A000180050B99DF81900FF2806D19DF81A0070
:1064B00018B99DF81B00FF2801D000200290029817
:1064C00090B39DF80F006149C8610846C069000299
:1064D000C8610846C0699DF80E1008445B49C86150
:1064E0000846C0690002C8610846C0699DF80D10E1
:1064F00008445649C8610846C0690002C861084698
:10650000C0699DF80C1008445049C8611421062048
:1065100003F06EFA08B10C20DDE601A9182003F0A3
:10652000C9FA10B10D20D6E607E048490198087372
:106530000846C06938600020CDE64FF04B0A0024C1
:1065400006E042482430005D80EA0A0A601CC4B2BA
:106550000F2CF6DB3D4890F83300504501D0032066
:10656000B9E63A4890F827003849C8610846C0693A
:106570000002C8610846C16990F826000844334902
:10658000C8610846C0690002C8610846C16990F840
:10659000250008442D49C8610846C0690002C86149
:1065A0000846C06991F8241008442849C861084683
:1065B00090F82D804FEA082890F82C008044084677
:1065C00090F82B60360290F82A00064436020846FE
:1065D00090F8290006443602084690F82800064440
:1065E000084690F82EB0BBF1010F03D0BBF1020FAB
:1065F00012D108E006EB08051448C069A84201D092
:10660000052068E60AE0A6EB08051048C069A84224
:1066100001D006205FE601E007205CE600BF0B48E2
:1066200090F82F0000F01F00084908730846C06961
:10663000386000204FE60000300200202C020020CD
:106640002D0200202E0200202F020020501D0020CD
:106650003402002017FCFF0001460E2924D2DFE897
:1066600001F007090B0D0F11131517191B1D1F2121
:10667000192070471A20FCE71C20FAE71D20F8E7D4
:106680001E20F6E72020F4E72120F2E72220F0E7A1
:106690002420EEE72520ECE72620EAE72820E8E79B
:1066A0002920E6E72A20E4E70020E2E701460E2958
:1066B00024D2DFE801F007090B0D0F11131517198C
:1066C0001B1D1F21192070471A20FCE71C20FAE728
:1066D0001D20F8E71E20F6E72020F4E72120F2E74E
:1066E0002220F0E72420EEE72520ECE72620EAE749
:1066F0002820E8E72920E6E72A20E4E70020E2E76F
:106700007CB52EA103C9CDE90001642305226946A9
:106710002C4803F0EAF809F025FD0546062D01D0C6
:1067200079207CBD09F046FD04462749601A8C4259
:1067300036D012DC2549A4EB01008C422AD007DCBC
:1067400023482044F0B1012828D0022834D123E086
:1067500004281DD0FC282FD116E0B0F5FF3F23D030
:1067600009DCB0F5007F23D0B0F5C06F22D0B0F5C2
:106770007E4F21D10AE017490844B8B1B0F5802F07
:106780001AD10FE06420CCE76E20CAE76F20C8E77B
:106790006520C6E76620C4E76720C2E76820C0E737
:1067A0006A20BEE76B20BCE76C20BAE76D20B8E733
:1067B0006E20B6E76F20B4E77820B2E702524603B6
:1067C00015000000C80A002030323000343030009C
:1067D000D0CFCFFF0002FCFF70B50A480468001D4F
:1067E0000568001D0668344454B108220649204655
:1067F00003F095FF042204491031284603F08FFF6F
:1068000070BD0000E8F7FF1FB6000020014600221F
:1068100091F82100022808D00420886300BF0020DE
:1068200081F8200000BF012070470868006820F050
:106830000E000B6818600868006820F001000B6803
:10684000186091F8403001209840CB6B58600120CF
:1068500081F8210000BF002081F8200000BF104611
:10686000E2E7000070B50446002594F821000228F4
:1068700003D00420A063012548E02068006820F0D0
:106880000E00216808602068006820F0010021687F
:1068900008601F492068884201D1012026E01C4978
:1068A00014312068884201D110201FE01849283196
:1068B0002068884201D1801518E015493C312068D4
:1068C000884201D1801411E011495031206888427A
:1068D00002D14FF4803009E00D49643120688842CC
:1068E00002D14FF4801001E04FF080700849083960
:1068F0004860012084F8210000BF002084F82000B7
:1069000000BF606B10B12046616B8847284670BDA0
:106910000800024070B5044600F080FA064625469D
:10692000681C10B104480078054400BF00F076FAF6
:10693000801BA842FAD370BDF00000202DE9F04181
:1069400004460E460127002500BF2648007E012888
:1069500002D10220BDE8F08101202249087600BF63
:106960002068022813D14CF25030FFF759FA90BB3F
:106970000120FFF7DBF94CF25030FFF751FA0746E0
:106980001948006920F004001749086123E04CF21F
:106990005030FFF745FAF0B94FF0FF303060A5688E
:1069A00012E02846FFF7D6F94CF25030FFF738FADC
:1069B00007460D48006920F002000B4908610FB13D
:1069C000356007E005F58065D4E9021001EB802011
:1069D000A842E6D800BF00BF00200249087600BFE9
:1069E0003846B7E7B01C0020002002400348006989
:1069F00040F08000014908610020704700200240FB
:106A00002DE9FE4F05468B46174698460126002481
:106A10000020029000BF2448007E012802D10220FD
:106A2000BDE8FE8F01202049087600BF4CF25030AF
:106A3000FFF7F6F9064686BB012D02D10120029030
:106A400006E0022D02D10220029001E00420029013
:106A500000241EE02201B946C24648465146FEF7D0
:106A600061FF80B20190022000FB04B00090019908
:106A7000FFF784F94CF25030FFF7D2F906460B4885
:106A8000006920F001000949086106B104E0601CBA
:106A9000C4B202988442DDDB00BF00BF002002497F
:106AA000087600BF3046BBE7B01C00200020024043
:106AB00000200849096901F0800151B10649054AE1
:106AC0005160064951601146096901F0800101B128
:106AD000012070470020024023016745AB89EFCDBC
:106AE0002DE9F8470346002294466EE14FF0010875
:106AF00008FA02F4D1F8008008EA0400A0427DD12F
:106B0000DFF8DCA2D1F80480A8EB0A09D0453AD01E
:106B100014DCB8F1030F50D009DCB8F1000F31D00C
:106B2000B8F1010F1CD0B8F1020F49D120E0B8F143
:106B3000110F18D0B8F1120F42D11EE0B9F5881F1D
:106B400025D006DCB9F5803F20D0B9F5801F37D1BC
:106B50001AE0B9F5001F18D0B9F5041F30D117E0BD
:106B6000D1F80CC02DE0D1F80C8008F1040C28E01D
:106B7000D1F80C8008F1080C23E0D1F80C8008F162
:106B80000C0C1EE000BF00BF00BF00BF00BF00BF75
:106B9000D1F80880B8F1000F02D14FF0040C0BE0DF
:106BA000D1F80880B8F1010F03D14FF0080C1C6137
:106BB00002E04FF0080C5C6103E04FF0000C00E0D5
:106BC00000BF00BFFF2801D8984601E003F1040888
:106BD0004646FF2802D84FEA820803E0A2F10808DF
:106BE0004FEA88084746D6F800804FF00F0909FAA7
:106BF00007F928EA09080CFA07F900E088E048EAF2
:106C00000908C6F80080D1F8048008F08058B8F16F
:106C1000805F7DD100BFDFF8CC81D8F8188048F0C4
:106C20000108DFF8C091C9F81880C846D8F8188064
:106C300008F00108CDF8008000BF00BF4FEAB93866
:106C40004FEA920958F829504FEA82784FEA1879AA
:106C50004FF00F0808FA09F825EA0805DFF88881DF
:106C6000434502D14FF0000816E0DFF8808143452C
:106C700002D14FF001080FE0DFF87481434502D1E3
:106C80004FF0020808E0DFF86C81434502D14FF075
:106C9000030801E04FF004084FEA82794FEA1979BE
:106CA00008FA09F848EA0505DFF84C814FEA92092D
:106CB00048F82950D1F8048008F48038B8F5803FAE
:106CC0000AD1DFF83881D8F8008048EA0008DFF8F8
:106CD0002C91C9F8008009E0DFF82081D8F8008005
:106CE00028EA0008DFF81491C9F80080D1F8048080
:106CF00008F40038B8F5003F10D1DFF8008108F142
:106D00000408D8F8008048EA0008DFF8F09000E0B6
:106D10005AE009F10409C9F800800DE0DFF8DC80D1
:106D200008F10408D8F8008028EA0008DFF8CC90C1
:106D300009F10409C9F80080D1F8048008F480182A
:106D4000B8F5801F0ED1DFF8B48008F10808D8F834
:106D5000008048EA0008DFF8A49009F10809C9F8A2
:106D600000800DE0DFF8948008F10808D8F8008072
:106D700028EA0008DFF8849009F10809C9F80080C2
:106D8000D1F8048008F40018B8F5001F0ED1DFF820
:106D90006C8008F10C08D8F8008048EA0008DFF899
:106DA0005C9009F10C09C9F800800DE0DFF84C8017
:106DB00008F10C08D8F8008028EA0008DFF83C90B9
:106DC00009F10C09C9F80080521CD1F8008028FA9A
:106DD00002F8B8F1000F7FF489AEBDE8F887000033
:106DE000000011100010024000080140000C01409A
:106DF000001001400014014008000140000401405F
:106E0000024693680B400BB1012000E00020704760
:106E10000AB1016101E00B04036170470148006899
:106E200070470000E800002070B504460CB901204E
:106E300070BD4CF6CC402168086045F25550216881
:106E40000860D4E9001048602168A0688860FFF7F6
:106E5000E5FF05460BE0FFF7E1FF401B272806D9B9
:106E60002068C06800F0030008B10320E0E7206854
:106E7000C06800F003000028EDD14AF6AA2021687E
:106E800008600020D4E7000003480068034909783F
:106E90000844014908607047E8000020F000002025
:106EA00010B50848006840F010000649086003204B
:106EB00000F0A8F8002000F007F800F02BF8002000
:106EC00010BD00000020024070B504460E48007856
:106ED0004FF47A71B1FBF0F00C490968B1FBF0F5A1
:106EE000284602F068F808B1012070BD102C07D2C6
:106EF00000222146501E00F047F80548046001E0DA
:106F00000120F2E70020F0E7F0000020040100205B
:106F1000EC00002008B500BF1148806940F0010076
:106F20000F4988610846806900F00100009000BFA9
:106F300000BF00BF0846C06940F08050C8610846E5
:106F4000C06900F08050009000BF00BF00BF05493D
:106F5000486820F0E06040F00070486000BF08BD65
:106F6000001002400000014001460846002809DBED
:106F700000F01F0301229A4043099B0003F1E02324
:106F8000C3F8002100BF70472DE9F05F80460D4631
:106F90001646002709F0E4FC074639462A463346E0
:106FA00001F00700C0F1070ABAF1040F02D94FF04F
:106FB000040A01E0C0F1070AD14600F1040ABAF15F
:106FC000070F02D24FF0000A01E0A0F1030AD446F5
:106FD0004FF0010A0AFA09FAAAF1010A0AEA020ABA
:106FE0000AFA0CFA4FF0010B0BFA0CFBABF1010B98
:106FF0000BEA030B4AEA0B042146404609F0B8FCB1
:10700000BDE8F09F00BF00F00702064B19684FF67D
:10701000FF031940044B0B4343EA0221014B196063
:1070200000BF70470CED00E00000FA0570B50546A2
:107030000C4604F08000802808D104F0070000EB23
:10704000800605F1280000EBC60105E004EB84068C
:1070500005F5B47000EBC6011AB900200873CB80A7
:1070600004E0012008730B81180C4881002070BDDA
:10707000704770B504460D4605EB850304F1280101
:1070800001EBC3014A692946D4F8E80207F03EF94A
:1070900070BD70B504460D4605EB850304F5B4716B
:1070A00001EBC3014A692946D4F8E80207F0AEF9BA
:1070B00070BD70B504460E4606F0800080280AD1E7
:1070C00006F0070000EB800104F1280000EBC10589
:1070D0000120687009E006F0070000EB800104F56C
:1070E000B47000EBC1050020687006F0070028703E
:1070F00000BF94F8A802012801D1022070BD012030
:1071000084F8A80200BF2946206808F007F800BFED
:10711000002084F8A80200BF00BFEFE770B5044666
:107120000E4606F00F006168884201D9012070BD4B
:1071300006F0800080280AD106F0070000EB8001ED
:1071400004F1280000EBC1050120687009E006F099
:10715000070000EB800104F5B47000EBC1050020CE
:1071600068700020A87006F00700287000BF94F82F
:10717000A802012801D10220D9E7012084F8A80241
:1071800000BF2946206808F025F900BF002084F8D8
:10719000A80200BF00BFCAE72DE9F04105460C4632
:1071A000174607F48040002850D02868B0F85010E7
:1071B000207801EBC000801C296801F5806131F85E
:1071C0001000C0F30906A069B04203D3A069801B78
:1071D000A06101E00020A061A069A8B900BF2278E9
:1071E0005200296831F812104BF68F7201EA020042
:1071F00080F4005040F4004141F0800123785B00AE
:107200002A6822F8131000BF07F04000A8B100BFA1
:1072100000BF22785200296831F8121048F68F72A8
:1072200001EA020040F4004141F0C00123785B0014
:107230002A6822F8131000BF00BF002E55D0228903
:1072400061693346286808F03BFF4EE02868B0F8D3
:107250005010207801EBC000801D296801F5806185
:1072600031F81000C0F30906A069B04203D3A06949
:10727000801BA06101E00020A061A069A8B900BF47
:1072800022785200296831F812104BF68F7201EA09
:10729000020080F4005040F4004141F08001237866
:1072A0005B002A6822F8131000BF07F04000A8B95D
:1072B00000BF00BF22785200296831F8121048F64A
:1072C0008F7201EA020040F4004141F0C0012378CE
:1072D0005B002A6822F8131000BF00BF2EB162893C
:1072E00061693346286808F0EBFE3046BDE8F0815E
:1072F0002DE9F04705460C46904608F0400000286E
:1073000071D02868B0F85010207801EBC000801CC4
:10731000296801F5806131F81000C0F30907A06900
:10732000B84203D9A069C01BA06101E00020A061A0
:10733000A06900287ED100BF6078C8B900BF296865
:107340002A68B2F8502011442278022303EBC202CB
:1073500001F5806303EB420000BF028848F2FF336F
:107360001A400280028842F40042028000BF13E00B
:107370006078012810D100BF28682A68B2F8502030
:1073800010442278022303EBC20200F5806303EB72
:10739000420100220A8000BF00BF00BF2968607858
:1073A00010BB00BF2B68D5F800C0BCF850C06344C8
:1073B00094F800C04FF0060909EBCC0C03F5806986
:1073C00009EB4C0000BFB0F800C048F2FF390CEAEE
:1073D000090CA0F800C0B0F800C04CF4004CA0F8B4
:1073E00000C000BF11E0C0E0607801280DD128681E
:1073F000B0F8500001442078062303EBC00001F5EB
:10740000806303EB40020020108000BF21782846F3
:10741000FFF72FFE08F48040002816D000BF00BF01
:1074200022785200296831F8121048F68F7201EA6A
:10743000020000E00AE040F4004141F48141237879
:107440005B002A6822F8131000BFCAE108F48040EC
:10745000A8B100BF00BF22785200296831F812108D
:1074600048F68F7201EA020040F4004141F4814283
:1074700023785B00296821F8132000BF00BF94F82F
:1074800024000128E1D1606938446061E069384432
:10749000E0612169206A884204D32669206A801B42
:1074A00020620BE0206A20B93E46002084F82400C8
:1074B00004E0002084F82400266A206200BF60787F
:1074C000B8BB00BF2A682968B1F850100A44217877
:1074D000022303EBC10102F5806303EB410108467F
:1074E00000BF56B9038848F2FF3C03EA0C0303804F
:1074F000038843F40043038019E03E2E0BD800BFFD
:10750000710806F0010303B1491C4FF6FF7303EA4B
:10751000812303800BE000BF710906F01F0303B94C
:10752000491E4FF4004343EA8123038000BF00BF9C
:1075300013E0FFE7607801280FD100BF28682A68B0
:10754000B2F8502010442278022303EBC20200F567
:10755000806303EB42010E8000BF00BFB3B22289FB
:107560006169286808F0DBFD3BE12868B0F850103D
:10757000207801EBC000801D296801F5806131F899
:107580001000C0F30907A069B84203D3A069C01B6B
:10759000A06101E00020A061A06900287DD100BFAA
:1075A0006078C8B900BF29682A68B2F85020114431
:1075B0002278022303EBC20201F5806303EB420051
:1075C00000BF028848F2FF331A400280028842F46A
:1075D0000042028000BF13E06078012810D100BF94
:1075E00028682A68B2F8502010442278022303EB5E
:1075F000C20200F5806303EB420100220A8000BF53
:1076000000BF00BF2968607808BB00BF2B68D5F8B1
:1076100000C0BCF850C0634494F800C04FF00609A5
:1076200009EBCC0C03F5806909EB4C0000BFB0F806
:1076300000C048F2FF390CEA090CA0F800C0B0F80D
:1076400000C04CF4004CA0F800C000BF10E060780F
:1076500001280DD12868B0F8500001442078062395
:1076600003EBC00001F5806303EB400200201080B3
:1076700000BF21782846FFF7FCFC08F48040002872
:1076800016D100BF00BF22785200296831F81210CD
:1076900048F68F7201EA020000E00AE040F400417F
:1076A00041F4814123785B002A6822F8131000BF5F
:1076B00097E008F48040A8B900BF00BF22785200CC
:1076C000296831F8121048F68F7201EA020040F47E
:1076D000004141F4814123785B002A6822F81310AD
:1076E00000BF00BF94F8240001287AD160693844B3
:1076F0006061E0693844E0612169206A884204D30E
:107700002669206A801B20620BE0206A20B93E4671
:10771000002084F8240004E0266A0020206284F817
:10772000240000BF2A68607890BB00BFD5F800C075
:107730002968B1F850108C4421784FF0060909EB04
:10774000C1010CF5806909EB4101084600BF76B91B
:10775000B0F8009048F2FF3A09EA0A09A0F8009050
:10776000B0F8009049F40049A0F8009020E03E2EC7
:107770000FD800BF710806F00109B9F1000F00D061
:10778000491C4FF6FF7909EA8129A0F800900FE023
:1077900010E000BF710906F01F09B9F1000F00D118
:1077A000491E4FF4004949EA8129A0F8009000BF22
:1077B00000BF0FE0607801280CD12868B0F85000B5
:1077C00002442078062101EBC00002F5806101EB44
:1077D00040031E8000BFB3B262896169286808F067
:1077E0009EFC00BF22785200296831F8121048F63A
:1077F000BF7201EA020080F0100080F0200040F427
:10780000004141F0800123785B002A6822F81310C0
:1078100000BF0020BDE8F087024601F0070000EB42
:10782000800302F5B47000EBC300C06970472DE916
:10783000F04705460E4690461F464FF0000906F0F9
:10784000800080280AD106F0070000EB800105F1D6
:10785000280000EBC1040120607009E006F0070079
:1078600000EB800105F5B47000EBC10400206070EE
:1078700006F007002070C4F81080E770607808B147
:107880002078E081022F01D10020207100BF95F8FF
:10789000A802012802D10220BDE8F087012085F866
:1078A000A80200BF2146286807F00EFA00BF00209A
:1078B00085F8A80200BF4846EEE72DE9F0410546ED
:1078C0000E461746984606F0070000EB800105F5C6
:1078D000B47000EBC1046761C4F818800020E06157
:1078E000607006F00700207006F0070020B92146FE
:1078F000286807F00AFE03E02146286807F005FE25
:107900000020BDE8F08170B504460D4605F0070083
:107910006168884201D9012070BD05F0800080288F
:107920000AD105F0070000EB800104F1280000EB0C
:10793000C1060120707007E005EB850104F5B47005
:1079400000EBC106002070700120B07005F0070048
:10795000307000BF94F8A802012801D10220DBE7B3
:10796000012084F8A80200BF3146206807F09FFD7F
:1079700005F0070020B904F52C71206807F027FDF9
:1079800000BF002084F8A80200BF00BFC4E72DE9B3
:10799000F04105460E4690461F4606F0070000EBF4
:1079A000800105F1280000EBC104C4F81480A76130
:1079B000012084F8240027620020E061012060702B
:1079C00006F00700207006F0070020B9214628685D
:1079D00007F09BFD03E02146286807F096FD002094
:1079E000BDE8F0817FB50446206808F065FB00F42F
:1079F0000040B0F5004F02D1204604F0AFF82068F7
:107A000008F05AFB00F48060B0F5806F0FD1206859
:107A1000B0F844004FF6FF3108402168A1F8440057
:107A2000204600F09FF90021204600F0BBF92068B5
:107A300008F042FB00F48040B0F5804F08D1206888
:107A4000B0F844004BF6FF7108402168A1F84400EB
:107A5000206808F031FB00F40050B0F5005F08D159
:107A60002068B0F844004DF6FF7108402168A1F885
:107A70004400206808F020FB00F48050B0F5805FDF
:107A80001DD12068B0F840004FF6FB710840216816
:107A9000A1F840002068B0F840004FF6F7710840A8
:107AA0002168A1F84000204600F06EF92068B0F887
:107AB00044004EF6FF7108402168A1F84400206898
:107AC00008F0FAFA00F40060B0F5006F55D1002517
:107AD00007E06900206830F811002DF81500681CD7
:107AE000C5B2082DF5D32068B0F8400040F0010081
:107AF0002168A1F840002068B0F840004FF6FE7100
:107B000008402168A1F8400000BF2068B0F8440098
:107B100000F480600028F8D02068B0F844004FF6E8
:107B2000FF3108402168A1F84400002507E03DF836
:107B300015006A00216821F81200681CC5B2082DE2
:107B4000F5D32068B0F8400040F008002168A1F8A3
:107B500040002068B0F844004FF2FF7108402168EF
:107B6000A1F844002068B0F8400040F0040021680B
:107B7000A1F84000204600F057F9206808F09CFA70
:107B800000F40070B0F5007F0BD12068B0F844001D
:107B90004FF6FF5108402168A1F84400204600F04C
:107BA000FAF8206808F088FA00F48070B0F5807F59
:107BB00008D12068B0F844004FF6FF610840216802
:107BC000A1F844007FBD30B585B0044614B901204A
:107BD00005B030BD94F8A90228B9002084F8A802A5
:107BE000204600F09DF8032084F8A902206807F0E1
:107BF000E4FB142204F110016846FDF7A3FE94E8AB
:107C00000F0007F087FA20B1022084F8A9020120B2
:107C1000DEE70021206808F078FA002531E0012134
:107C200005EB850204F1280000EBC200417005EB72
:107C3000850104F1280000F8315005EB850100EBC7
:107C4000C100C581002105EB850204F1280000EB8D
:107C5000C200C17005EB850204F1280000EBC200F0
:107C6000016105EB850204F1280000EBC2004161CF
:107C700005EB850204F1280000EBC2008161681C5D
:107C8000C5B26068A842CAD800252AE0002105EBE9
:107C9000850204F5B47000EBC200417005EB85016C
:107CA00004F5B47000F83150002105EB850200EBBB
:107CB000C200C17005EB850204F5B47000EBC20090
:107CC000016105EB850204F5B47000EBC20041616F
:107CD00005EB850204F5B47000EBC2008161681CFD
:107CE000C5B26068A842D1D8142204F110016846D8
:107CF000FDF728FE94E80F0007F054FB20B10220A6
:107D000084F8A902012063E7002084F82400012000
:107D100084F8A902206807F042FB002058E7000021
:107D200038B504460D492068884215D100BF0C487B
:107D3000C06940F400000A49C8610846C06900F4FF
:107D40000000009000BF00BF002211461420FFF782
:107D50001BF91420FFF708F938BD0000005C004053
:107D60000010024070B504460125A068022801D029
:107D7000FDF7D4FF2946D4F8E80206F07BFCD4F8DE
:107D8000E80206F02DFC70BD10B50446D4F8E802F8
:107D900006F054FC10BD10B50446D4F8E80206F015
:107DA00058FC10BD70B504460D4600BF94F8A802FB
:107DB000012801D1022070BD012084F8A80200BF73
:107DC00084F824502946206808F0A2F900BF00205A
:107DD00084F8A80200BF00BFEDE710B5044604F523
:107DE0002C71D4F8E80206F05CFC10BD10B5044616
:107DF00000BF94F8A802012801D1022010BD012083
:107E000084F8A80200BF206808F044F90121204648
:107E1000FFF72EF9206807F0BFFA00BF002084F8B2
:107E2000A80200BF00BFE9E710B50446D4F8E80295
:107E300006F090FCA06928B10348006840F00600F5
:107E40000149086010BD000010ED00E0012001496B
:107E50000862704700000E422DE9F04385B00646E7
:107E60003BA30FCB01AC0FC43DA0006800904FF0C6
:107E70000008002500270024A146012E30D0022E44
:107E800055D0102E5ED137484468006800F08070ED
:107E900000B301A8C4F38341475C04F4803070B19F
:107EA00030484068C0F340401DF8008004F4803042
:107EB00040B12D48B0FBF8F000FB07F502E02B487D
:107EC00007FB00F52748406800F48000B0F5800FFC
:107ED00001D1A94603E068000321B0FBF1F932E0CB
:107EE0002048046A04F44070B0F5807F05D104F0A6
:107EF000020010B14FF4004918E004F44070B0F5EE
:107F0000007F07D11748406A00F0020010B149F61F
:107F100040490BE004F44070B0F5407F06D11148B1
:107F2000006800F4003008B14FF224490BE000F083
:107F30009BF90C494968C1F38131491C4900B0FBE8
:107F4000F1F900E000BF00BF484605B0BDE8F0838E
:107F500002030405060708090A0B0C0D0E0F10108A
:107F6000010200000010024000127A0000093D00EA
:107F7000F8B5044600260025207800F0010000280E
:107F80006BD000274348C06900F0805070B900BF33
:107F90004048C06940F080503E49C8610846C06909
:107FA00000F08050009000BF00BF01273A480068F1
:107FB00000F48070B0B93848006840F480703649E9
:107FC0000860FEF72BFF064606E0FEF727FF801B42
:107FD000642801D90320F8BD2F48006800F48070A0
:107FE0000028F2D02B48006A00F440752DB3A08819
:107FF00000F44070A84220D02648006A20F4407562
:10800000012026490860002008602248056205F02A
:10801000010090B1FEF702FF064608E0FEF7FEFE03
:10802000801B41F28831884201D90320D3E71948E7
:10803000006A00F002000028F0D01648006A20F420
:1080400040706168084313490862012F04D1084653
:10805000C06920F08050C86100BF207800F00200A5
:10806000022807D10B48406820F44040A16808432B
:1080700008494860207800F01000102807D1054812
:10808000406820F48000E16808430249486000200D
:10809000A1E700000010024000700040400442428E
:1080A0007047000070B504460D460CB9012070BD44
:1080B0005A48006800F00700A8420ED257480068EE
:1080C00020F007002843554908600846006800F082
:1080D0000700A84201D00120E9E7207800F0020063
:1080E00002281DD1207800F00400042805D14C4856
:1080F000406840F4E0604A494860207800F0080099
:10810000082805D14648406840F46050444948601A
:108110004348406820F0F000A168084340494860A7
:10812000207800F0010078B36068012806D13C484F
:10813000006800F4003090B90120B8E760680228B8
:1081400006D13748006800F0007040B90120AEE762
:108150003348006800F0020008B90120A7E7304862
:10816000406820F00300616808432D494860FEF72D
:1081700055FE064609E0FEF751FE801B41F28831AC
:10818000884202D9032092E707E02548406800F0C2
:108190000C006168B0EB810FEDD12048006800F061
:1081A0000700A8420ED91D48006820F007002843A8
:1081B0001A4908600846006800F00700A84201D08C
:1081C000012074E7207800F00400042807D1144847
:1081D000406820F4E060E168084311494860207875
:1081E00000F00800082808D10D48406820F46050CD
:1081F000216940EAC1000A49486000F045F8084991
:108200004968C1F30311074A515CC8400649086038
:1082100006480068FEF758FE002048E700200240AC
:1082200000100240C024010804010020EC000020DE
:1082300001200149C86470470000424201480068BB
:10824000704700000401002000B5FFF7F7FF044964
:108250004968C1F30221034A515CC84000BD0000D7
:1082600000100240D024010800B5FFF7E7FF0449E1
:108270004968C1F3C221034A515CC84000BD0000F7
:1082800000100240D0240108F0B585B00FF26C0C4C
:108290009CE8E01001A8A0E8E0101CA52D6800955E
:1082A00000210022002300240020194D696801F0FC
:1082B0000C05F5B1042D02D0082D19D101E01548A7
:1082C00019E001ADC1F38346AC5D01F4803555B1D1
:1082D0000F4D6D68C5F340451DF805200D4D6543F4
:1082E000B5FBF2F302E00C4D04FB05F3184602E087
:1082F00000BF084800BF00BF05B0F0BD0203040581
:10830000060708090A0B0C0D0E0F101001020000E1
:108310000010024000127A0000093D0010B5064826
:10832000806800F08000802804D1FFF7B9FE80202B
:108330000149887210BD000000100240F8B50446E3
:108340000CB90120F8BD207800F00100002878D099
:10835000F848406800F00C0004280CD0F54840684C
:1083600000F00C00082811D1F248406800F4803079
:10837000B0F5803F0AD1EF48006800F400300028D3
:108380005FD0606800285CD10120DBE700BF606837
:10839000B0F5803F06D1E748006840F48030E549F9
:1083A000086028E0606858B9E248006820F480302E
:1083B000E04908600846006820F4802008601AE060
:1083C0006068B0F5A02F0BD1DA48006840F4802037
:1083D000D84908600846006840F4803008600AE028
:1083E000D448006820F48030D2490860084600680C
:1083F00020F48020086000BF606888B1FEF70EFDA1
:10840000054606E0FEF70AFD401B642801D903205B
:1084100098E7C848006800F400300028F2D010E067
:10842000FEF7FCFC054606E0FEF7F8FC401B64285E
:1084300001D9032086E7BF48006800F40030002817
:10844000F2D1207800F00200022857D1B9484068E4
:1084500000F00C0050B1B748406800F00C0008284C
:1084600018D1B448406800F4803098B9B148006829
:1084700000F0020020B12069012801D0012061E74D
:10848000AC48006820F0F800616940EAC100A949E1
:10849000086033E02069E8B10120A7490860FEF7D1
:1084A000BDFC054606E0FEF7B9FC401B022801D9D9
:1084B000032047E79F48006800F002000028F2D040
:1084C0009C48006820F0F800616940EAC1009949C1
:1084D000086013E0002098490860FEF79FFC0546FD
:1084E00006E0FEF79BFC401B022801D9032029E788
:1084F0009048006800F002000028F2D1207800F0D7
:10850000080008282DD1A069B8B101208B49086066
:10851000FEF784FC054606E0FEF780FC401B0228BF
:1085200001D903200EE78348406A00F002000028CA
:10853000F2D0012004F0EAF913E000207F4908603E
:10854000FEF76CFC054606E0FEF768FC401B0228BF
:1085500001D90320F6E67748406A00F002000028BF
:10856000F2D1207800F00400042873D1002771486C
:10857000C06900F0805070B900BF6E48C06940F01B
:1085800080506C49C8610846C06900F08050009076
:1085900000BF00BF01276A48006800F48070B0B9CE
:1085A0006748006840F4807065490860FEF736FC53
:1085B000054606E0FEF732FC401B642801D9032083
:1085C000C0E65F48006800F480700028F2D000BF69
:1085D000E068012806D15748006A40F0010055497B
:1085E000086227E0E06858B95248006A20F00100AC
:1085F000504908620846006A20F00400086219E049
:10860000E06805280BD14B48006A40F00400494956
:1086100008620846006A40F0010008620AE0454826
:10862000006A20F00100434908620846006A20F011
:108630000400086200BFE068A0B1FEF7EFFB05464A
:1086400009E0FEF7EBFB401B41F28831884202D97A
:10865000032077E622E03748006A00F00200002895
:10866000EFD012E0FEF7DAFB054608E0FEF7D6FB96
:10867000401B41F28831884201D9032062E62D482F
:10868000006A00F002000028F0D1012F05D129482E
:10869000C06920F080502749C86100BFE069C8B3B5
:1086A0002448406800F00C00082860D0E0690228E7
:1086B00048D1002020490866FEF7B0FB054606E0D9
:1086C000FEF7ACFB401B022801D903203AE619480B
:1086D000006800F000700028F2D1206AB0F5803FF9
:1086E00007D11448406820F40030A16808431149BC
:1086F0004860D4E9080108430E49496821F474111F
:1087000008430C49486001200B490866FEF786FBC8
:10871000054607E03DE0FEF781FB401B022801D93A
:1087200003200FE60348006800F000700028F2D034
:108730002FE000000010024000004242800442424C
:1087400000700040002014490866FEF767FB0546EC
:1087500006E0FEF763FB401B022801D90320F1E588
:108760000E48006800F000700028F2D111E0E069C6
:10877000012800D1E6E50948466806F48031206A00
:10878000814204D106F47011606A814201D0012057
:10879000D8E50020D6E5000000004242001002406B
:1087A0002DE9F04780460E4692460025002700241A
:1087B000A146404604F003F981462548B9FBF0F490
:1087C00024480068A04240D02248046040F2B275BC
:1087D0000EE0284608F0FCFB012806D1B4F5B77F6F
:1087E00002D3A4F5B77402E005E0A4F26D146D1C89
:1087F000B4F5B67FEDD800BF2F46A5F5FA60F0704E
:10880000002515E0012D09D1384608F0E1FB0128CB
:1088100004D11D2C01D31D3C09E00BE00E48405D46
:10882000A04203D80C48405D241A00E002E06D1C11
:108830001C2CE7D200BF681C7070601CB070B2784E
:108840007178F07804F0D5F830700020BDE8F0873A
:108850008051010000010020B42401082DE9F047F7
:1088600007460C4691460026B04600253868406809
:10887000C0F3800010B10120BDE8F087384604F055
:108880009EF806464FF46160B6FBF0F5B6FBF0F1DA
:1088900000FB11603C21B0FBF1F060704FF46160AF
:1088A000B6FBF0F100FB11603C21B0FBF1F201FBE3
:1088B0001200A0701820B5FBF0F100FB11502070E1
:1088C000182D08D31820B5FBF0F8B5FBF0F100FB2C
:1088D0001150207000E025700020CDE770B50446EF
:1088E00000250CB9012070BD607C20B900202074E7
:1088F000204600F05BF802206074204600F085F905
:1089000018B1042060740120EDE7204604F01DF842
:1089100018B1042060740120E5E72068406820F069
:10892000070021684860A06828B11F48006820F04F
:1089300001001D4908601C48001F006820F4607099
:10894000A16808431849091F08606068401C08B105
:10895000656809E00120FFF77FFA05461DB904208C
:1089600060740120BFE76D1E2068806820F00F0052
:1089700040EA1540216888602068C06865F30F00F0
:108980002168C860204603F0FDFF18B10420607420
:108990000120A8E70021E17301216173A173012087
:1089A000607400209FE70000306C004038B504463A
:1089B0000B492068884212D1FFF748FA00BF0948E6
:1089C000C06940F000600749C8610846C06900F00E
:1089D0000060009000BF00BF01200349086038BD5F
:1089E00000280040001002403C0442422DE9F04FB4
:1089F00087B006460F464FF00009002006908046DB
:108A00000024059004900390824600BF48A207CA44
:108A10008DE80700304603F0D2FF81464FF46160D5
:108A2000B9FBF0F006904FF46160B9FBF0F100FB88
:108A300011903C21B0FBF1F0C0B204904FF46160A2
:108A4000B9FBF0F100FB11903C21B0FBF1F201FB0E
:108A50001200039018210698B0FBF1F201FB1200FE
:108A60000590F87800F5FA6840F63300804500D9A3
:108A7000804640F2B270804500D2804640F2B27526
:108A80000AE0284608F0A4FA012802D12B48044441
:108A900001E02B4804446D1C4545F2D397F801A032
:108AA000404608F095FA012804D1BAF1020F01D925
:108AB00024480444AAF1010A002507E01DF8050036
:108AC00040F2A321484304EBC0146D1C5545F5D377
:108AD00097F802B0ABF1010040F2A321484304EB48
:108AE000C0140598C0EB4011C1EB002004EB00144A
:108AF0000498C0EB001004EB80040398044400BF0A
:108B0000307C012803D1022007B0BDE8F08F01209E
:108B1000307400BF022070742146304603F0ABFF72
:108B20000120707400BF0020307400BF00BFEBE76D
:108B30001F1C1F1E1F1E1F1F1E1F1E1F0085E20160
:108B40008033E101805101002DE9F05F04460D46BC
:108B5000904600260027B146B246204603F02FFF7C
:108B600007464FF46160B7FBF0F9B9F1180F0AD36B
:108B70001820B9FBF0FA0AEB4A00C0004FF461611B
:108B800000FB01F700E0002700BF207C012802D194
:108B90000220BDE8F09F0120207400BF0220607415
:108BA000B8F1000F0BD128784FF461614843697820
:108BB000C1EB011100EB8100A978461812E028787A
:108BC00003F0B8FE4FF4616100FB01FB687803F02D
:108BD000B1FEC0EB00100BEB800BA87803F0AAFEEF
:108BE0000BEB00063E443146204603F044FF20686C
:108BF000406820F00500216848600120607400BFD3
:108C00000020207400BF00BFC3E770B504460025F4
:108C10000CB9012070BD2068406820F00800216870
:108C20004860FEF7FBF8054607E0FEF7F7F8401B43
:108C3000B0F57A7F01D90320ECE72068406800F0A6
:108C400008000028F1D00020E4E710B504460CB974
:108C5000012010BD606A38B96068B0F5827F00D12C
:108C600005E00021E16102E0002121616161002154
:108C7000A16294F8510028B9002084F850002046E1
:108C800000F042F8022084F851002068006820F0CB
:108C9000400021680860A08800F48270218901F4F6
:108CA00004410843A18901F400610843217C01F0DB
:108CB00002010843217D01F001010843218B01F4E9
:108CC00000710843217F01F0380108432021095D2C
:108CD00001F080010843218D01F40051084321680F
:108CE00008600421A06901EA1040216848602068FA
:108CF000C06920F400602168C8610020606501201F
:108D000084F851000020A4E710B586B00446002086
:108D100002900390049005901949206888422DD153
:108D200000BF1848806940F48050164988610846A1
:108D3000806900F48050019000BF00BF00BF08466A
:108D4000806940F0040088610846806900F00400F2
:108D5000019000BF00BFA0200290022003900320DA
:108D6000059002A90848FDF7BBFE402002900020B4
:108D70000390049002A90448FDF7B2FE06B010BDAE
:108D80000030014000100240000801402DE9FF5F63
:108D90000446884691461D460E9E01200290002002
:108DA000019000BF94F85000012803D1022004B0C4
:108DB000BDE8F09F012084F8500000BFFEF72EF8B8
:108DC000074694F851B060680390AA46BBF1010FC2
:108DD0000BD00398B0F5827F04D1A06810B9BBF125
:108DE000040F02D002200190DBE0B8F1000F03D0A5
:108DF000B9F1000F00D015B901200190D1E094F82D
:108E00005100042802D0052084F85100002060653C
:108E1000C4F83890E587A587C4F83080E586A58634
:108E2000206460642068006800F04000402805D09D
:108E30002068006840F0400021680860E068B0F5F4
:108E4000006F4AD1606810B1BAF1010F09D1206BEF
:108E500000882168C860206B801C2063E08E401E63
:108E6000E08633E02068806800F00200022810D11C
:108E7000E08E70B1029801280BD1206B0088216828
:108E8000C860206B801C2063E08E401EE0860020BE
:108E900002902068806800F0010068B1E08F58B14E
:108EA0002068C068A16B0880A06B801CA063E08F65
:108EB000401EE08701200290FDF7B0FFC01BB042CA
:108EC00004D3701C10B1032001906AE0E08E0028EA
:108ED000C8D1E08F0028C5D14AE0606810B1BAF16E
:108EE000010F09D1206B007821680873206B401CAA
:108EF0002063E08E401EE08634E02068806800F049
:108F00000200022810D1E08E70B1029801280BD126
:108F1000206B007821680873206B401C2063E08E72
:108F2000401EE086002002902068806800F001006A
:108F300068B1E08F58B12068C068A16B0870A06B61
:108F4000401CA063E08F401EE08701200290FDF7E7
:108F500065FFC01BB04201D3701C00B916B90320D5
:108F600001901EE0E08E0028C7D1E08F0028C4D118
:108F70003A463146204604F0A3F820B10120019082
:108F8000202060650DE0A06850B900BF002000906F
:108F90002068C068009020688068009000BF00BF13
:108FA00000BF012084F8510000BF002084F8500069
:108FB00000BF0198FBE670B504462546681EB0F177
:108FC000807F01D301200FE0681E4FF0E02148614F
:108FD0000F214FF0FF3007F0CBFC00204FF0E021D5
:108FE000886107200861002070BD7047704700004D
:108FF00030B502460B4600BF92F83C00012801D173
:10900000022030BD012082F83C0000BF022082F81F
:109010003D00106844681068816824F07004186886
:10902000044310684460104D1068A8420BD01068CB
:10903000B0F1804F07D00D4D1068A84203D00C4D01
:109040001068A84205D121F08001586801431068DA
:109050008160012082F83D0000BF002082F83C00C2
:1090600000BF00BFCDE70000002C0140000400401D
:109070000008004010B504460CB9012010BD94F85A
:109080003D0028B9002084F83C00204600F026F876
:10909000022084F83D00211D206804F019FA012007
:1090A00084F8460000BF84F83E0001213F200155AE
:1090B000402001554120015500BF00BF012084F828
:1090C000420043200155442001554520015500BF71
:1090D000012084F83D000020D0E7000038B50446A8
:1090E0001A492068884216D100BF1948C06940F06B
:1090F00002001749C8610846C06900F002000090EC
:1091000000BF00BF002211461D20FDF73DFF1D20BE
:10911000FDF72AFF19E02068B0F1804F15D100BF9C
:109120000B48C06940F001000949C8610846C069A0
:1091300000F00100009000BF00BF022211461C2079
:10914000FDF722FF1C20FDF70FFF38BD0004004093
:1091500000100240014691F83D00012801D0012095
:109160007047022081F83D00124B086898420BD0EE
:109170000868B0F1804F07D00F4B0868984203D0C1
:109180000E4B086898420CD10868806800F007020E
:10919000062A0CD00868006840F001000B681860CF
:1091A00005E00868006840F001000B6818600020C6
:1091B000D6E70000002C01400004004000080040F9
:1091C0002DE9F04104460D4600BF94F83C0001280B
:1091D00002D10220BDE8F081012084F83C0000BFEC
:1091E000022084F83D002068866826F0770626F481
:1091F0007F46206886602868502833D00CDC202801
:1092000050D004DC00284BD0102851D149E0302840
:1092100049D040284CD139E060282DD0702807D0A3
:10922000B0F5805F03D0B0F5005F41D10DE040E0C4
:10923000D5E902136A68206804F084F9206886681A
:1092400046F077062068866033E0D5E902136A6845
:10925000206804F077F92068806840F48040216835
:10926000886026E0EA686968206804F07FF9502188
:10927000206804F072F91CE0EA686968206804F06C
:1092800088F96021206804F068F912E0EA686968EA
:10929000206804F06BF94021206804F05EF908E0D2
:1092A00000BF00BF00BF2968206804F056F900E045
:1092B00000BF00BF012084F83D0000BF002084F8FB
:1092C0003C0000BF00BF85E7704710B5044620682A
:1092D0000069C0F34000D8B12068C068C0F3400006
:1092E000B0B16FF00200216808610120207720688A
:1092F000806900F0030018B12046FFF7E5FF05E0A4
:10930000204600F0ADF8204600F0ABF800202077B2
:1093100020680069C0F38000D8B12068C068C0F33D
:109320008000B0B16FF0040021680861022020774E
:109330002068806900F4407018B12046FFF7C4FF30
:1093400005E0204600F08CF8204600F08AF8002066
:10935000207720680069C0F3C000D8B12068C068D9
:10936000C0F3C000B0B16FF00800216808610420AC
:1093700020772068C06900F0030018B12046FFF78D
:10938000A3FF05E0204600F06BF8204600F069F8E6
:109390000020207720680069C0F30010D8B1206851
:1093A000C068C0F30010B0B16FF010002168086110
:1093B000082020772068C06900F4407018B120466A
:1093C000FFF782FF05E0204600F04AF8204600F053
:1093D00048F8002020772068006900F0010058B1AB
:1093E0002068C06800F0010030B16FF00100216812
:1093F0000861204600F036F820680069C0F3C0100C
:1094000058B12068C068C0F3C01030B16FF0800060
:10941000216808612046FFF7E8FD20680069C0F375
:10942000801058B12068C068C0F3801030B16FF070
:10943000400021680861204600F020F8206800699B
:10944000C0F3401058B12068C068C0F3401030B17C
:109450006FF02000216808612046FFF7C7FD10BDAE
:109460007047704710B5044603492068884201D10F
:1094700003F0C6FE10BD00000004004070477047B6
:10948000704700002DE9F84F044620680568206801
:10949000C668206847694FF00009CA4605F00F0901
:1094A000B9F1000F0AD105F0200038B106F0200014
:1094B00020B1204604F0B6F8BDE8F88FB9F1000FEE
:1094C00071D007F0010018B906F4907000286AD036
:1094D00005F0010030B106F4807018B1206C40F046
:1094E0000100206405F0040030B107F0010018B15C
:1094F000206C40F00200206405F0020030B107F05B
:10950000010018B1206C40F00400206405F0080050
:1095100048B106F0200010B907F0010018B1206C26
:1095200040F008002064206C68B305F0200028B1EA
:1095300006F0200010B1204604F074F8206840695D
:10954000C0F3801A206C00F0080010B9BAF1000FC7
:1095500022D0204604F03BF82068406900F040002B
:10956000B0B12068406920F0400021684861A06BDC
:1095700050B15648A16B4863A06BFDF773F910B169
:10958000A06B416B88470CE02046FFF779FF08E0AD
:109590002046FFF775FF04E02046FFF771FF00202B
:1095A000206489E7FFE7206B012878D105F01000DF
:1095B000002874D006F01000002870D000BF0020F2
:1095C000009020680068009020684068009000BF0C
:1095D00000BF2068406900F04000C0B3A06B006885
:1095E00040681FFA80F8B8F1000F2FD0A08D4045D9
:1095F0002CDDA4F82E80A06B806920281FD0206865
:10960000C06820F480702168C8602068406920F03C
:109610000100216848612068406920F0400021680D
:109620004861202084F83E00002020632068C06844
:1096300020F010002168C860A06BFDF7E7F8A08D4E
:10964000E28D801A81B22046FFF719FF34E7FFE769
:10965000A08DE18D401A1FFA80F8E08DE8B1B8F1D5
:10966000000F1AD02068C06820F490702168C8608C
:109670002068406920F0010021684861202084F8BA
:109680003E00002020632068C06820F010002168A0
:10969000C86041462046FFF7F2FE0DE7FFE705F000
:1096A000800030B106F0800018B1204604F0AAF81E
:1096B00002E705F0400030B106F0400018B1204646
:1096C00003F0A0FFF8E600BFF6E60000BBD50008F7
:1096D00010B504460CB9012010BDA06900B100E02E
:1096E00000BF94F83D0028B9002084F83C002046D3
:1096F00000F028F8242084F83D002068C06820F499
:1097000000502168C860204603F0FEFF2068006911
:1097100020F49040216808612068406920F02A0008
:10972000216848612068C06840F400502168C86022
:1097300000202064202084F83D0084F83E000020B2
:10974000CAE7000010B586B00446002002900390DE
:10975000049005905D49206888423FD100BF5C4875
:10976000806940F480405A4988610846806900F465
:109770008040019000BF00BF00BF0846806940F0F4
:10978000080088610846806900F00800019000BF69
:1097900000BF40200290022003900320059002A900
:1097A0004C48FDF79DF98020029000200390049022
:1097B00002A94848FDF794F900BF4749486840F0BE
:1097C000E06040F00400486000BF00221146252000
:1097D000FDF7DAFB2520FDF7C7FB75E03F49206860
:1097E000884236D100BF3A48C06940F40030384959
:1097F000C8610846C06900F40030019000BF00BF96
:1098000000BF0846806940F004008861084680690E
:1098100000F00400019000BF00BF0420029002206D
:1098200003900320059002A92D48FDF759F908205F
:10983000029000200390049002A92948FDF750F9F6
:10984000002211462620FDF79FFB2620FDF78CFB0A
:109850003AE024492068884236D100BF1C48C069DC
:1098600040F480201A49C8610846C06900F480208D
:10987000019000BF00BF00BF0846806940F00800AB
:1098800088610846806900F00800019000BF00BFB1
:1098900008150290022003900320059002A90D48AC
:1098A000FDF71EF94FF40060029000200390049031
:1098B00002A90848FDF714F9002211462720FDF7F8
:1098C00063FB2720FDF750FB06B010BD00380140B8
:1098D00000100240000C0140000001400044004024
:1098E000000801400048004070472DE9F84F044649
:1098F0000E46174699464FF0000A94F83D0020287E
:109900005AD106B117B90120BDE8F88F00BF94F80D
:109910003C00012801D10220F6E7012084F83C0038
:1099200000BF00202064212084F83D00FDF776FA76
:109930008246A784E784A068B0F5805F04D12069DF
:1099400010B90025B04602E035464FF0000800BFD0
:10995000002084F83C0000BF1BE053460022802119
:109960002046CDF8009003F07DFF08B10320CBE73F
:1099700045B9B8F80000C0F308002168486008F154
:10998000020803E02878216848606D1CE08C401EC6
:10999000E084E08C0028E0D153460022402120469C
:1099A000CDF8009003F05EFF08B10320ACE7202063
:1099B00084F83D000020A7E70220A5E770470000DB
:1099C00006E004A008F036F9FE210A2007F032FC78
:1099D000F7E700007B22526563697665223A7B22B5
:1099E000537461747573223A37307D7D0A0000002C
:1099F00030B59DB004460D467022284901A8FBF7FA
:109A0000A1FF332D37D006DC102D0BD0122D3AD00C
:109A1000142D40D117E0352D1DD0372D0BD0392D09
:109A200039D120E0A006010E1D4B01AA602000F0F4
:109A3000BAFE1DB030BDA006010E194B05AA61206B
:109A400000F0B1FEF5E7A006010E154B09AA602053
:109A500000F0A9FEEDE7A006010E114B0DAA612052
:109A600000F0A1FEE5E7A006010E0D4B11AA612052
:109A700000F099FEDDE7A006010E094B15AA612052
:109A800000F091FED5E7A006010E054B19AA602053
:109A900000F089FECDE70120CBE70000D8240108C3
:109AA0005021002070B504460D462946204600F09E
:109AB000FBFE70BD7FB506460C466946304600F099
:109AC000F3FE10B1012004B070BD00250BE01DF8BD
:109AD000051005F108001DF80000814201D00120A9
:109AE000F1E7681CC5B2042DF1DB00250CE0281D50
:109AF0001DF800001DF8051081F0FF01884201D01B
:109B00000120E0E7681CC5B2042DF0DB9DF80C00D5
:109B100050B99DF80D00FF2806D19DF80E0018B928
:109B20009DF80F00FF2801D00120CCE79DF803002D
:109B300020602068000220609DF802102068084420
:109B400020602068000220609DF801102068084411
:109B500020602068000220609DF800102068084402
:109B600020600020AFE7000070B505460026002405
:109B700004E000200E490855601CC4B20A2CF8DB32
:109B80000B4800F047FE08B14E2070BD084800F0B9
:109B9000C4FE08B94E20F8E7002404E00448005D44
:109BA0002855601CC4B2042CF8DB0020EDE700004F
:109BB0005021002070B504460D462946204600F08D
:109BC0006AFF70BD30B585B005460C462CA0006814
:109BD0000490E0B28DF81000200A8DF81100200CDE
:109BE0008DF81200200E8DF813009DF810008DF8EE
:109BF00000009DF811008DF801009DF812008DF80D
:109C000002009DF813008DF803009DF8100080F00D
:109C1000FF008DF804009DF8110080F0FF008DF822
:109C200005009DF8120080F0FF008DF806009DF8F9
:109C3000130080F0FF008DF807009DF810008DF8EC
:109C400008009DF811008DF809009DF812008DF8AC
:109C50000A009DF813008DF80B0000208DF80C0011
:109C6000FF208DF80D0000208DF80E00FF208DF8EC
:109C70000F006946284600F00EFF05B030BD000019
:109C8000010000002DE9F04FADF5257D81468B46A2
:109C9000C8240020A4909F900027959091908B90CD
:109CA0008A90899088908790002508904AF6AA208B
:109CB000FE4909680860FE48007801280BD1FD497B
:109CC0000D70280A4870280C8870280EC870AB20C8
:109CD0000871CD2048714AF6AA20F4490968086045
:109CE000FDF79CF88C9000246BE1F3480078632822
:109CF00007D1F2A007F09EFF00200DF5257DBDE8FD
:109D0000F08FFDF78BF88C99401A44F62061884259
:109D100004D90124F6A007F08DFF53E14AF6AA20EA
:109D2000E24909680860A1A8FFF71EFF20B1A1A8B9
:109D3000FFF71AFF00B144E14AF6AA20DB4909689F
:109D4000086010210020FFF753FE00B139E196A909
:109D50000120FFF7A7FE00B133E19DF85E02AB28BA
:109D600000D02EE19DF858028F909DF859028F99EE
:109D700001EB00208F909DF85A829DF85B0208EB62
:109D800000289DF85C0208EB00489DF85D0208EB96
:109D900000688F9800F40040B0F5004F0CD18F9808
:109DA000C0F30E008F9046F629218F9848408F907F
:109DB0004BF2A62088EA00084AF6AA20BB490968A7
:109DC000086037210520FFF713FE70B1A1A8FFF747
:109DD000CBFE20B1A1A8FFF7C7FE00B1F1E037210B
:109DE0000520FFF705FE00B1EBE04AF6AA20AF49D7
:109DF0000968086096A91620FFF754FEC8B13721FC
:109E00000520FFF7F5FD70B1A1A8FFF7ADFE20B169
:109E1000A1A8FFF7A9FE00B1D3E037210520FFF785
:109E2000E7FD00B1CDE096A91620FFF73BFE00B19B
:109E3000C7E04AF6AA209D49096808609DF85902C2
:109E40008E908E9800028E909DF858128E9808443D
:109E50008E904AF6AA2095490968086039210420A5
:109E6000FFF7C6FD70B1A1A8FFF77EFE20B1A1A843
:109E7000FFF77AFE00B1A4E039210420FFF7B8FD16
:109E800000B19EE04AF6AA208849096808609D480A
:109E90000078012800D039E04FF0000A96A912207E
:109EA000FFF700FE00B18CE04AF6AA207F4909685E
:109EB00008609DF85C02AB2814D19DF85D02CD28A6
:109EC00010D19DF85BA24FEA0A2A9DF85A028244FB
:109ED0004FEA0A2A9DF8590282444FEA0A2A9DF85D
:109EE000580282449DF85802FF280DD19DF859026E
:109EF000FF2809D19DF85A02FF2805D19DF85B0281
:109F0000FF2801D14FF0000A0BEB0A054AF6AA2000
:109F100066490968086096A91120FFF7C3FDC8B11A
:109F200039210420FFF764FD70B1A1A8FFF71CFEE2
:109F300020B1A1A8FFF718FE00B142E039210420AA
:109F4000FFF756FD00B13CE096A91120FFF7AAFDEE
:109F500000B136E04AF6AA2054490968086000209A
:109F600090909E9008E096A99E98085C9099484031
:109F700090909E98401C9E909E980F28F3D30020AE
:109F800091909DF867129098814219D19DF858627E
:109F90009DF8590206EB0020C6B29DF85B028DF8D1
:109FA00048029DF85C028DF849029DF85D028DF82B
:109FB0004A0201209190162E02D100254FF0000B8D
:109FC00000E092E600BF4AF6AA2038490968086016
:109FD0000CB1012091E64C48007860B935490D700C
:109FE000280A4870280C8870280EC870AB200871A9
:109FF000CD2048710DE000252E480570280A2D4916
:10A000004870280C8870280EC870AB200871CD20CD
:10A01000487104E0A1A8FFF7A7FD00B900E0F9E747
:10A0200000BF00208D903948007818B1384800688A
:10A030008F9001E08F988F90002088901E480078C4
:10A04000632804D11DA007F0F5FD002055E64AF66F
:10A05000AA2016490968086093A894A986AA89AB22
:10A06000CDE90432CDE906108AA92A4800682A4AB7
:10A0700012682A4B1B68CDE90032CDE90201224962
:10A080000978491CC8B24B468FAA8DA900F0D4FEAE
:10A090000446012C01D0092C78D193A894A986AA52
:10A0A00089ABCDE90432CDE9061039E08009002002
:10A0B0004C000020401D0020940400207B225265AB
:10A0C0006365697665223A7B2253746174757322E5
:10A0D0003A32367D2C2243223A7B22547970652213
:10A0E0003A2243616E73656C227D7D0A0000000098
:10A0F0007B2243223A7B22537461747573223A3176
:10A100007D7D0A00300200201D0200204D0000204D
:10A11000440000202800002024000020200000200F
:10A120008AA8FC490968FC4A1268FC4B1B68CDE907
:10A130000032CDE90210FA490978491CC8B24B46F1
:10A140008FAA8DA900F078FE0446012C01D0092CBD
:10A150001CD193A894A986AA89ABCDE90432CDE994
:10A1600006108AAAEB480068EB490968EB4B1B68AC
:10A17000CDE90031CDE90202E9490978491CC8B2AC
:10A180004B468FAA8DA900F057FE04464AF6AA2036
:10A19000E44909680860012C03D00D2C01D0092C7A
:10A1A0003FD193A894A986AA89ABCDE90432CDE921
:10A1B00006108AA9D7480068D74A1268D74B1B688F
:10A1C000CDE90032CDE90201D5490978491CC8B270
:10A1D0004B468FAA8DA900F02FFE0446012C03D018
:10A1E0000D2C01D0092C1CD193A894A986AA89AB67
:10A1F000CDE90432CDE906108AA9C6480068C64AEE
:10A200001268C64B1B68CDE90032CDE90201C44992
:10A210000978491CC8B24B468FAA8DA900F00CFEE4
:10A220000446C1480078C8B18998CDE903B90595BD
:10A2300002908A998D98CDE900012246BB4909A870
:10A240008F9B06F079FB09A807F0F4FC09A8FBF73F
:10A250009DFB0146079009A8FBF78DFB4AF6AA2053
:10A26000B04909680860102C01D1012045E54AF683
:10A27000AA20AC4909680860112C01D101203CE5F5
:10A28000122C01D1012038E5DDF8348201208DF84F
:10A290005802A3480078F0B1A548007858B9172EA5
:10A2A00001D0192E03D11D208DF8580233E0132060
:10A2B0008DF858022FE09E480078012803D1332002
:10A2C0008DF8580227E09A480078022823D13420DC
:10A2D0008DF858021FE0162E03D115208DF8580274
:10A2E00019E0172E06D101209249087016208DF82A
:10A2F000580210E0182E06D101208E49087018204F
:10A300008DF8580207E0192E05D1012089490870FF
:10A3100017208DF858024AF6AA2082490968086079
:10A3200008F0FF008DF859024FEA18208DF85A0204
:10A330004FEA18408DF85B020A208DF85C027E48D7
:10A340000078A0F5AF60C0B2A090A0980007000E02
:10A35000A0907A48007800F00F00A0990843A090E0
:10A36000A0988DF85D027648007800F007017548E6
:10A37000007861F35F108DF85E0271480078C0F3D9
:10A38000C1007149097840EA8100C0B28DF85F02CE
:10A390006E4800788DF86002899FF8B28DF86102EE
:10A3A000380A8DF86202380C8DF863028A9F4AF6EB
:10A3B000AA205C4909680860F8B28DF86402380A7E
:10A3C0008DF86502380C8DF8660209F0FF008DF8F3
:10A3D00067024FEA19208DF8680200208DF86902A3
:10A3E0008DF86A028DF86B024AF6AA204D49096879
:10A3F00008609CB94F48007810B94948007828B1E6
:10A400009BA942F20F7000F082F90BE042F20F714B
:10A41000A1EB09009BA900F07AF903E09BA94C4845
:10A4200000F075F90F208DF8700227208DF8710269
:10A430004AF6AA203B490968086000208DF872029C
:10A440008DF873024FEA19408DF874023148007894
:10A450008DF875022F480088000A8DF876024AF6BA
:10A46000AA20304909680860002C73D1172E03D048
:10A47000182E01D0192E6ED12948007818B1392034
:10A480008DF858021CE01C208DF85802172E06D1BA
:10A4900001202849087019208DF8580210E0182E64
:10A4A00006D10120234908701A208DF8580207E0D0
:10A4B000192E05D101201F4908701B208DF8580264
:10A4C0004AF6AA2017490968086008F0FF008DF8CD
:10A4D00059024FEA18208DF85A024FEA18408DF8B9
:10A4E0005B0298208DF85C02184800783B2807D161
:10A4F000154800783B2803D11148007817283ED032
:10A50000124800783B2827DA10480078401C0F4991
:10A51000087034E0280000202400002020000020E3
:10A520001D020020800900204D0000209425010814
:10A530001E0200201C020020400000203A000020E3
:10A540003C0000203B0000203D0000203E00002099
:10A55000FFE0F50598E089E000205E4908705E485C
:10A560000078401C5C490870084600783C2806DBEF
:10A570000020087059480078401C584908704AF675
:10A58000AA2057490968086056480078A0F5AF60CE
:10A59000C0B2A090A0980007000EA090524800788A
:10A5A00000F00F00A0990843A090A0988DF85D02DC
:10A5B0004A48007800F007014C48007861F35F10CA
:10A5C0008DF85E0245480078C0F3C1004249097821
:10A5D00040EA8100C0B28DF85F023E4800788DF8F5
:10A5E0006002089FF8B28DF86102380A8DF86202A5
:10A5F000380C8DF863022F464AF6AA2038490968BC
:10A600000860F8B28DF86402380A8DF86502380CDB
:10A610008DF866020BF0FF008DF867024FEA1B20F1
:10A620008DF8680200208DF869028DF86A028DF8B5
:10A630006B029BA942F20F7000F069F80F208DF8B1
:10A64000700227208DF8710200208DF872028DF8BB
:10A6500073024FEA1B408DF87402254800788DF88C
:10A66000750223480088000A8DF876024AF6AA206F
:10A670001B490968086000201E4908701E490870BF
:10A6800004201E49086023E0032C21D004F11E00A1
:10A69000C0B28DF8580200208DF872028DF8730256
:10A6A0008DF87402124800788DF875021048008801
:10A6B000000A8DF876024AF6AA200949096808605E
:10A6C00000200C4908700C49087004200B490860F0
:10A6D00020467FE43E0000203D0000203C0000209A
:10A6E00080090020400000203A0000203B000020AC
:10A6F000280000201C0200201D0200202002002053
:10A70000002001E0411CC8B20128FBDB7047087043
:10A71000020A4A70020C8A70020ECA70704730B585
:10A720000B46002100BF16E00A24B4EB107F05D9C8
:10A73000302404EB107403F8114005E0412404EBCD
:10A7400010740A3C03F81140000100254C00641C01
:10A750001D554C1CE1B29142E6DB30BD2DE9FC41B8
:10A760000446002700210D2006F0CEF8932020702B
:10A770002020607001A823460222214600900C2070
:10A7800000F0F8F806465EB9002503E0605D47403A
:10A79000681CC5B2042DF9DB605DB84200D002260A
:10A7A0003046BDE8FC812DE9F04385B006460F46F2
:10A7B000904699468DF804608DF80570002406E0F7
:10A7C00018F8041001AAA01C1154601CC4B2062C75
:10A7D000F6DB002407E019F8041001AA04F10800D0
:10A7E0001154601CC4B2042CF5DB04A801AB0C228C
:10A7F00001A900900E2000F0BDF805462DB90820F3
:10A8000002F042FC00F0080000B90225284605B01D
:10A81000BDE8F08370B5044608210846FBF7E6F969
:10A820002146522000F05BF805461DB92046FFF78F
:10A8300095FF0546284670BD10B501221021184825
:10A84000FCF7E6FA002201211648FCF7E1FA0120A4
:10A85000FCF760F8012211461248FCF7D9FA0120F2
:10A86000FCF758F800F053F88D212A2006F04CF838
:10A870003E212B2006F048F81E212D2006F044F83A
:10A8800000212C2006F040F84021152006F03CF86D
:10A890003D21112006F038F8FBF7D3F810BD000079
:10A8A00000080140000C01407CB505460C463020F4
:10A8B00020706570A21C02212046FBF765F901A8F3
:10A8C00023460422214600900C2000F053F806464F
:10A8D00016B90198902800D0022630467CBD7CB580
:10A8E00006460C4607210D2006F00EF8267001A83A
:10A8F00023460122214600900C2000F03BF805463B
:10A9000015B90198102800D0022528467CBD10B545
:10A910000F21012005F0F8FF10BDF0B585B0074606
:10A9200093208DF8040070208DF80500002405E0C8
:10A93000395D01AAA01C1154601CC4B2052CF7DBC0
:10A940000DF10B02072101A8FBF71EF904A801ABCA
:10A95000092201A900900C2000F00CF805462DB941
:10A960000498182802D19DF8046000E000263046C3
:10A9700005B0F0BD2DE9FE4F0646884691469A4641
:10A98000DDF830B0022002900020019000900C2EE3
:10A9900006D00E2E09D1122001901020009005E063
:10A9A000772001903020009000E000BF00BF0198A8
:10A9B00040F08001022005F0A7FF80210420FBF772
:10A9C00015F980210A2002F0FCFB0021012005F08E
:10A9D0009BFF002505E018F80510092005F094FFFD
:10A9E0006D1C4D45F7D33146012005F08DFF0C2E2F
:10A9F00003D180210D2002F0E4FB4FF4FA6500BF83
:10AA0000042002F041FB04466D1E35B104F0010044
:10AA100018B9009820400028F2D080210D20FBF7C3
:10AA2000E5F895B3062002F02FFB00F01B0068BB91
:10AA3000002002900198204000F0010008B10120A0
:10AA400002900C2E24D10A2002F01EFB04460C209A
:10AA500002F01AFB00F007072FB1601E07EBC000E1
:10AA6000CBF8000002E0E000CBF8000004B90124BC
:10AA7000102C00DD1024002505E0092002F004FB65
:10AA80000AF805006D1CA542F7D301E002200290F0
:10AA90000298BDE8FE8FF0B587B006460F46A020AD
:10AAA0008DF804008DF805600DF10602022101A861
:10AAB000FBF76AF806A801AB042201A900900C205C
:10AAC000FFF758FF054645B90698042805D19DF8BB
:10AAD000040000F00F000A2800D002250DBB00245E
:10AAE00004E0385D01A90855601CC4B2102CF8DBE5
:10AAF00005AA102101A8FBF747F806A801AB12220E
:10AB000001A900900C20FFF735FF054645B90698CE
:10AB1000042805D19DF8040000F00F000A2800D099
:10AB20000225284607B0F0BD00B585B00020019091
:10AB300002900390049000BF2C48806940F0100000
:10AB40002A4988610846806900F01000009000BF23
:10AB500000BF00BF0846806940F0200088610846B9
:10AB6000806900F02000009000BF00BF00BF0846D1
:10AB7000806940F0040088610846806900F00400A4
:10AB8000009000BF00BF00BF0846806940F0080089
:10AB900088610846806900F00800009000BF00BF8F
:10ABA00000224FF4E2611248FCF732F90022012141
:10ABB0001048FCF72DF94FF4E2600190012002905B
:10ABC000002003900320049001A90948FBF788FFA7
:10ABD000012001900290002003900220049001A91E
:10ABE0000448FBF77DFF05B000BD000000100240E7
:10ABF00000080140000C014010B5074807490860F3
:10AC00000620486040F6FF7104488160FCF70CF9AB
:10AC100008B1FBF783F810BD003000408009002028
:10AC20001CB50020019000900748084908604FF0CB
:10AC3000FF3048604FF4807104488160FDF74EFE9C
:10AC400008B1FBF76BF81CBD002800408C09002000
:10AC500010B50F480F4908604FF48270486000211A
:10AC60000C488160C160016141614FF400718161F4
:10AC70002821C1610021016241624FF400518162CB
:10AC80000921C162FDF7E1FF08B1FBF747F810BDEC
:10AC900000300140A009002000B587B000200390DB
:10ACA00004900590069001900290144814490860A1
:10ACB00040F2DB5048600021114881600121C160F1
:10ACC000002101618161FEF7D5F908B1FBF726F893
:10ACD0004FF48050039003A90948FEF771FA08B1B8
:10ACE000FBF71CF800200190029001A90448FEF730
:10ACF0007FF908B1FBF712F807B000BD000400406F
:10AD0000F809002010B509480949086000210848E1
:10AD10008160C16001610C21416100218161C161DB
:10AD2000FEF7D6FC08B1FAF7F9FF10BD0038014074
:10AD3000400A002010B50B480B4908604FF4E13081
:10AD40004860002108488160C16001610C214161B7
:10AD500000218161C161FEF7BBFC08B1FAF7DEFF9B
:10AD600010BD000000440040840A002010B50B48CC
:10AD70000B4908604FF41650486000210848816074
:10AD8000C16001610C21416100218161C161FEF757
:10AD90009FFC08B1FAF7C2FF10BD00000048004058
:10ADA000C80A00201FB50020009001900290039077
:10ADB0004FF4805000900120019002200290032067
:10ADC000039069461448FBF78BFE00224FF4805134
:10ADD0001148FCF71DF86420FBF79CFD00220F4989
:10ADE0000F4803F054FA08B1FAF798FF0D490C48E0
:10ADF00003F0E6FC08B1FAF791FF0B49084802F0AE
:10AE0000ECFE08B1FAF78AFF054803F0A3FD08B18C
:10AE1000FAF784FF1FBD00000008014080000020F9
:10AE20000C0B002018010020D800002000BFFEE716
:10AE3000FDF774FA00BFFEE72DE9FF4F91B00E4613
:10AE400098460027BB460120039000200290019005
:10AE5000FA480078012811D0022802D0032827D10F
:10AE600019E00520F64908701520F64908703720CA
:10AE7000F54908702020F549087026E00420F049C3
:10AE800008701020EF4908703920EF490870002041
:10AE9000EE49087019E00520E94908701520E949D4
:10AEA00008703720E84908704020E84908700CE035
:10AEB0000520E34908701420E24908703720E24970
:10AEC00008700020E149087000BF00BF0020E04981
:10AED0000870824600212198016022980160DCE020
:10AEE0000AF1010000F0FF0A0020039003980028F7
:10AEF0003BD10DA8FEF738FE28B10DA8FEF734FEB1
:10AF000008B17F1CC9E04AF6AA20D2490968086046
:10AF10007F1C002405E00DA8005DCF490855601C8A
:10AF2000C4B2042CF7DBCC484068306000F068FA0B
:10AF300081460198072803DDFF2015B0BDE8F08F9A
:10AF4000B9F1000F11D0C44840683060B9F1040F66
:10AF500003D0B9F10B0F07D101E00E20EDE7019806
:10AF6000401CC0B2019098E097E000200390306848
:10AF700030B1B94840683168884201D00920DCE727
:10AF8000B54840683060B4488168139800688142D1
:10AF90000BD0B148816813980160AF488068FB28E6
:10AFA00001D10B20C9E70A20C7E7AB488168139895
:10AFB0000160A5480178A2480078FEF719FD00B1AC
:10AFC0006BE005A99F480078FEF76CFD00B164E0D6
:10AFD0009DF8150004900498000204909DF8141048
:10AFE0000498084404909C48417B249801709A4836
:10AFF0000169239801609848017B259801703068A9
:10B0000000B94AE0002544E000240CE09248005DCD
:10B0100005EB0511914A02EB8101095D884200D0E0
:10B0200003E0601CC4B2042CF0DB00BF042C2EDB58
:10B0300005EB0510894901EB8000407D05EB05110A
:10B04000864A02EB8101097DC1EB011100EB810011
:10B05000C0F13C0010901098002802DA109840428D
:10B06000109010980A280ADA4FF0010B05EB051032
:10B070007A4A02EB800144227748FAF763FC05EB39
:10B080000511764A02EB8100FAF71EFE03E0681C08
:10B09000C5B2052DB8DB00BF02E00A2FFFF420AFD8
:10B0A00000BF052F01D3012047E7BBF1000F57D1A7
:10B0B0006948C169219801606748C06966490862AA
:10B0C0000846C0F8188011984873654800780875DC
:10B0D000644800784875209808610846007B0D2870
:10B0E00001DD002008731198132801D1022011906E
:10B0F000119800F00F00012802D002282BD10FE098
:10B100005548C069404402901F990298884201D96D
:10B11000032012E75048C06940444F49C8611CE011
:10B120004D48C069A0EB080002901E990298884221
:10B1300001DA032001E70298002805DD1F99029833
:10B14000884201D90320F8E64348C069A0EB080013
:10B150004149C86101E00520EFE600BF00F0EAF8D0
:10B16000BAF1010F01D14FF0000A002749E0BAF10E
:10B17000010F03D10AF1010000F0FF0ABAF1010F3B
:10B180002FDD0DA8FEF7F0FC28B10DA8FEF7ECFCB2
:10B1900008B17F1C35E09DF8340050B99DF83500AA
:10B1A00038B99DF8360020B99DF8370008B97F1CE2
:10B1B00027E0002408E02848005D0DA9095D8842C9
:10B1C00000D003E0601CC4B2042CF4DB00BF042CEC
:10B1D00007DABBF1000F01D10420AEE64FF0040BFB
:10B1E00011E0002700F02AFB8146B9F1010F01DDD3
:10B1F0004FF0010BB9F1000F00D002E04FF0000B4F
:10B2000001E0142FB3D300BF306808B94FF0010B31
:10B210001148C169219801600F48016A22980160B4
:10B22000BBF1000F38D0002420E004EB04100B49E0
:10B2300001EB80004068B8B91AE00000300200203D
:10B240002C0200202D0200202E0200202F020020C0
:10B250003802002080090020501D00201C1E002004
:10B260003C0000203D000020601CC4B2052CDCDB4B
:10B2700000BF052C00DB002404EB0411154A02EB8F
:10B28000810044221449FAF75DFBBBF1040F01D1A0
:10B29000042052E60D2050E6142F03D30BF10C00CE
:10B2A000C0B24AE6002511E00B48406805EB0511E5
:10B2B000084A02EB81014968884205D105EB051176
:10B2C00002EB8100FAF700FD681CC5B2052DEBDB2F
:10B2D000002032E61C1E0020501D002001462420C4
