:020000040800F2
:10580000082B00200159000891C600083BB8000889
:105810008DC6000801690008F1FE000800000000C4
:10582000000000000000000000000000E5CD0008BE
:105830000F6B0008000000008BCA00084BD1000865
:105840001B5900081B5900081B5900081B59000868
:105850001B5900081B5900081B5900081B59000858
:105860001B5900081B5900081B5900081B59000848
:105870001B5900081B5900081B5900081B59000838
:105880001B5900081B5900081B5900081B59000828
:1058900039FE00081B5900081B5900081B59000855
:1058A0001B5900081B5900081B5900081B59000808
:1058B0001B590008F9D100081B5900081B590008A2
:1058C0001B5900081B5900081B5900081B590008E8
:1058D0001B5900080DD6000859D60008BDD600088F
:1058E0001B5900081B5900081B590008DFF80CD091
:1058F00000F0B8FD00480047ED100108082B00201B
:105900000648804706480047FEE7FEE7FEE7FEE759
:10591000FEE7FEE7FEE7FEE7FEE7FEE7E9D1000867
:10592000ED580008202A04DB203A21FA02F0002179
:10593000704721FA02F3D040C2F12002914008439F
:105940001946704740EA01039B0703D009E008C9E4
:10595000121F08C0042AFAD203E011F8013B00F834
:10596000013B521EF9D27047D2B201E000F8012B80
:10597000491EFBD270470022F6E710B513460A46CF
:1059800004461946FFF7F0FF204610BD421C10F8F0
:10599000011B0029FBD1801A704700000FB400B52D
:1059A0008DB010A909900B9000914FF0FF300A9034
:1059B00000200C9005480690054807906A4609A803
:1059C0000F9900F053FB0DB05DF814FB89600008DF
:1059D000A76000082DE9FF5F1D464FF0FF3BD5E9AA
:1059E000014691465F464FF00008A9697F1C019867
:1059F0008847296A824688470028F6D1BAF1FF3FD6
:105A00000CD024F4C064002E19DD600614D5BAF160
:105A10002B0F09D0BAF12D0F0ED103E0584604B078
:105A2000BDE8F09F44F48064A9697F1C0198884711
:105A3000761E8246002E02DDBAF1300F03D0B9F196
:105A4000000F26D032E0A969761E44F400747F1C52
:105A5000019888478246002E05DDBAF1780F06D0FE
:105A6000BAF1580F03D0B9F1000F10D01EE0B9F110
:105A7000000F02D0B9F1100F18D1A969761E24F4D5
:105A800000747F1C019888478246102002E008209D
:105A900000E00A20814609E008FB0908A969761E92
:105AA00044F400747F1C019888478246002E05DD6F
:105AB0004946504600F0C6FA0028EDDAE969019837
:105AC0008847A00502D46FF00100A8E7E00725D1C0
:105AD000600613D5600502D5C8F1000000E040461D
:105AE00029680A1D2A600968220501D5087015E099
:105AF000220701D5088011E008600FE02868011D29
:105B000029600068210502D580F8008006E02107A1
:105B100002D5A0F8008001E0C0F8008038467EE79A
:105B20002DE9FF4F087883B09946FF2805D0491C1E
:105B30002D2804D00024002008E000200BE00124E0
:105B4000F9E700EB800003EB4000491C0B78FF2BCA
:105B5000F7D104B1404200230293147819461D4640
:105B60002D2C01D02B2C04D1521C2D2C13D0002411
:105B70000294AA461478FF2C0FD00A25A3FB0578BF
:105B800001FB05814FF0000C03FB0C11521CE319C3
:105B90004AEB0101EEE70124EAE7814453EA010000
:105BA00002D019F5C87F06DA03980021C0E9001178
:105BB00007B0BDE8F08F0025AE4E2F46DFF8B88263
:105BC000184600F0F7FBCDE90001B9F1000002DA58
:105BD000C9F1000400E004460023A74A1AEB030BB6
:105BE00042EB045A12E0E00707D02A463346384613
:105BF000414600F06DFB074688462A46334610466C
:105C0000194600F065FB05460E466410002CEAD1EB
:105C1000DDE90001B9F1000F5A46534606DA00F0FB
:105C20002FF93A46434600F02BF905E000F050FB0F
:105C30003A46434600F04CFB029A0AB181F000411B
:105C4000039AC2E90001B3E72DE9FF4F1F468DB06B
:105C5000D7E901464FF0FF382E2045464FF00009A6
:105C60000B90B9696D1C0E988847396A824688473F
:105C70000028F6D1BAF1FF3F0AD024F4D064002EF8
:105C800011DDBAF12B0F08D0BAF12D0F0BD102E0C4
:105C9000404611B08DE744F48064B9696D1C0E98DC
:105CA00088478246761E6946600501D52D2000E0B2
:105CB0002B208DF8000001F1010B0DF1200809E007
:105CC000B9696D1C0E98884782460F9844F4007499
:105CD000761E0560002E02DDBAF1300FF0D00B9970
:105CE0008A453ED144F0800406E00F99681CA9F172
:105CF000010944F400740860B9696D1C761E0E98A1
:105D0000884782463028F0D02BE00B998A4505D190
:105D1000200603D444F08004761E18E050460AF0B2
:105D200091FB08B30DF11301761E44F400748B450A
:105D300008D2AAF130000BF8010B200607D5A9F113
:105D4000010003E0200602D409F101008146A0050C
:105D500002D50F99681C0860B9696D1C0E988847B8
:105D60008246002ED1DC53E0002E51DDBAF1650FE2
:105D700002D0BAF1450F4BD1A00549D5B9696D1CC8
:105D800024F44074761E0E9888478246002E0CDD5F
:105D90002B2804D0BAF12D0F07D144F48074B969CF
:105DA0006D1C0E9888478246761EE00501D52D2190
:105DB00000E02B2108F8011BCDF82C8021E00DF12B
:105DC0002901761E44F4007488450CD2AAF13000F3
:105DD00010F0FF0088F8000002D10B99884509D91E
:105DE00008F1010806E0E00501D5244801E042F28F
:105DF0000F708146B9696D1C0E98884782460F98CE
:105E00000560002E04DD50460AF01CFB0028D6D1A8
:105E1000F9690E988847FF208BF8000088F8000089
:105E20000020069007904B466A4608A906A8FFF78F
:105E300077FEA00502D46FF001002AE714F0240FCA
:105E40000AD0E00714D1DDE906123868031D3B6073
:105E50000068C0E900120BE0DDE9060100F0E6FA97
:105E60000146E00704D13868021D3A60006801600D
:105E700028460EE7000014400000F03FF1D8FFFF75
:105E80002DE9F04D81EA030404F0004B21F00045B8
:105E900014464FF0000A23F0004150EA050220D0DA
:105EA00054EA01021DD0C5F30A570246C5F3130395
:105EB000C1F31300C1F30A5640F4801543F4801374
:105EC000A7EB0608101BD64608F2FD3873EB050059
:105ED00002D308F1010801E092185B41B8F1000F0C
:105EE00003DA00200146BDE8F08D00204FF4801158
:105EF000064684460EE0171B73EB050705D3121BFD
:105F000063EB050306434CEA010C49084FEA3000F5
:105F100092185B4150EA0107EDD152EA030012D01A
:105F200082EA040083EA0501084305D0101BAB4157
:105F300006D20122002306E000224FF0004302E0D7
:105F40006FF0010253101AEB06004CEB085110EBF6
:105F50000A0041EB0B01BDE8F04D00F0B5B8C1F30C
:105F60000A5210B5C1F3130140F2FF3341F480111E
:105F70009A4201DA002010BD40F233439A42A2F265
:105F8000334203DC5242FFF7CDFC10BD904010BD00
:105F900000F0004230F000400AD0C10D01F5607100
:105FA000C0F3160042EA0151C2084007114370478E
:105FB00000200146704730B50B46014600202022E4
:105FC000012409E021FA02F59D4205D303FA02F506
:105FD000491B04FA02F52844151EA2F10102F1DC66
:105FE00030BD2DE9F05F0546002092469B4688466D
:105FF0000646814640241BE0284641464746224645
:10600000FFF790FC53465A46C01A914110D31146EF
:106010001846224600F038FA2D1A67EB01084F4661
:1060200022460120002100F02FFA17EB00094E4113
:10603000201EA4F10104DFDC484631462A464346CF
:10604000BDE8F09F3A2800D2303820F02002412AE3
:1060500001D3A2F13700884201D34FF0FF307047DF
:10606000026811441378016018467047D1600449F2
:1060700051610449116200211161114600F02ABAF0
:1060800061600008CB640008426842B1016811F801
:10609000013B23B1521EC0E900121846704701218E
:1060A000C160881E704742685AB1C368016843B92D
:1060B00083688B4205D0491E521CC0E900120020A3
:1060C00070474FF0FF30704710B5141E73F1000495
:1060D00008DA401C41F1000192185B411A4301D1DA
:1060E00020F0010010BD2DE9F04D92469B4611B104
:1060F000B1FA81F202E0B0FA80F22032904600F06C
:10610000C3F904460F4640EA0A0041EA0B01534630
:106110005A46084313D0114653EA010019D0C8F17A
:1061200040025046FFF7FEFB05460E4650465946D4
:10613000424600F0A9F9084305D0012004E02046BA
:106140003946BDE8F08D0020054346EAE0762C4351
:1061500037430A986305E40AA0EB08000022FD0A11
:1061600044EA47540A3002D500200146E9E7010518
:1061700010196941DDE9084500196941BDE8F04D94
:10618000A2E72DE9FE4F804681EA0300C00F0C46CE
:10619000009021F0004123F00045B8EB0200A94136
:1061A00005D24046214690461C460B46024623F047
:1061B0000040104347D0270DC7F30A00C3F30A512C
:1061C0000290401A019040286BDAC3F3130040F4A8
:1061D000801B0098924620B10023D2EB030A63EBA8
:1061E0000B0B01985946C0F14002504600F04CF9A3
:1061F00006460D4650465946019A00F054F910EBF8
:1062000008006141002487EA115284EAE7731A43C7
:1062100040D0009A62B3019A012A4FEA075215DC76
:10622000001B61EB02014FF0004202EA0752CDE988
:106230000042001C41F5801132462B46FFF753FF08
:1062400003B0BDE8F08F40462146F9E7001B61EB43
:106250000201001C41F5801300185B412018A2F5D3
:10626000001747EB030140EAD570B6196D4111E004
:106270006D084FEA360645EAC0754FEA0752001B23
:1062800061EB0201001C41F5801149084FEA300022
:106290000019514132462B4603B0BDE8F04FFFF7DD
:1062A00013BF0098012240000023D0EB020263EBF1
:1062B000E073009821464FEAE074B8EB000061EB10
:1062C0000401E9E783F000435BE781F0004158E710
:1062D0002DE9FE4F81EA030404F0004421F000415F
:1062E00000944FF0000B23F0004350EA01045ED00D
:1062F00052EA03045BD0C3F30A54C1F30A552C4499
:10630000A4F2F3340194A0FB0254C1F3130141F44D
:106310008011C3F3130343F4801301FB024400FB19
:10632000034E840A970A44EA815447EA8357A4FB40
:10633000076802958D0A05FB07854FEA932C04FB3D
:106340000C542705029D4FEA065847EA1637B5EB6D
:1063500008056EEB070C870E920E47EA811742EA9A
:106360008312A7FB0201B6EB0B0164EB00042B0DBB
:1063700043EA0C335E1844EB1C50DA465146E7FB07
:106380000201C5F313044FEA0B3343EA14534FEAF7
:106390000432019C43EA0603A4F10C040294009C1D
:1063A000CDE900B4FFF79FFE03B0BDE8F08F0020F9
:1063B0000146F9E70EB540F2334202920022CDE9E0
:1063C00000221346FFF78FFE03B000BDC1F30A524F
:1063D000C1F3130140F2FF3341F480119A4202DA13
:1063E00000200146704740F233439A42A2F2334202
:1063F00002DC5242FFF796BA00F046B830B5041EF0
:1064000071F1000404DB4FF00044404264EB0101F1
:10641000141E73F1000405DB1C464FF0004352428A
:1064200063EB0403994208BF904230BD01F0004382
:1064300030B421F0004150EA010206D00A0DA2F565
:106440006072C1F31301002A02DC30BC00207047E7
:10645000440F44EAC104C100E01830BC00EBC25054
:1064600000F0CEB9064C074D06E0E06840F00103AD
:1064700094E8070098471034AC42F6D3FFF73AFA95
:10648000E825010808260108202A04DB203A00FA42
:1064900002F1002070479140C2F1200320FA03F37B
:1064A000194390407047202A06DBCB17203A41FA67
:1064B00002F043EAE07306E041FA02F3D040C2F191
:1064C00020029140084319467047C0B24FF4F05182
:1064D00000F0CEB92DE9F34F8BB04FF0000801F179
:1064E0000C000C464FF0010B46460DF1080A0190D6
:1064F0006269012101989047051E2DD0252D2CD0D1
:10650000216A8847C0B16269012101989047216AD8
:1065100088470028F7D1411E62690198904700E042
:10652000761CA1690B988847216A88470028F7D113
:10653000E1690B988847DBE7A1690B988847074614
:10654000A84201D1761CD3E7E1690B9888477F1CEC
:1065500002D1B8F1000F6FD046E1002762693D46D5
:106560003946019890472A2804D16269012101988F
:1065700090470125DFF884926269012101989047D4
:10658000A0F130010A290AD24F45E5DC07EB87016B
:1065900000EB4107303FDFD445F01005ECE7E9069A
:1065A00001D46FF000476C280AD04C2814D068281A
:1065B00015D06A280DD074281CD07A281AD01DE076
:1065C00062690121019890476C2802D045F00405CA
:1065D00014E045F002050DE045F020050AE062698F
:1065E000012101989047682802D045F0080505E090
:1065F00045F400656269012101989047C4E901579B
:1066000065283DD019DC58287AD00CDC452837D0D5
:1066100004DC252826D0412831D131E046282FD06E
:1066200047282CD12CE05B2877D0612828D063281C
:106630007CD0642823D15AE0D0E06F2848D008DC11
:1066400066281DD067281BD0692821D06E2816D156
:1066500027E0702845D0732868D0752847D078285F
:106660000DD14DE0A1690B988847054625283FF4D8
:1066700069AFE1690B9888476D1C3FF46AAFB3E0DE
:1066800023466A466FF001000B99FFF7DDFA9EE0A2
:1066900045F040006060A80723464FF0000236D462
:1066A0003EE0E8077FF447AF2068011D21600068E5
:1066B000290501D506701BE7290701D5068017E7D4
:1066C000A90703D5F117C0E9006111E706600FE7DC
:1066D00045F040006060A80723464FF0080216D43A
:1066E0001EE040F60E0125EA0100606016E045F06C
:1066F00040006060A80723464FF00A0207D40FE06D
:1067000045F040006060A80708D5234610226FF0CE
:1067100001000B99AFF3008059E007E023461022F7
:106720006FF001000B99FFF755F950E04FF00009A9
:106730004F464B46632802D05B2806D040E0E8066F
:1067400001D40120A06001273AE06269012101988B
:1067500090475E2805D14FF00109626949460198CA
:106760009047216939B900210A46534643F8212050
:10677000491C0829FADBB0B3216969B9C11700EBDC
:10678000D16253110AEB830122F01F02821A012009
:106790000B68904003430B606269012101989047A8
:1067A0005D28E8D1B9F1000F09D00020514651F819
:1067B0002020D24341F82020401C0828F7DB02AB00
:1067C000224600976FF001000B99AFF3008000287C
:1067D0000CDA401C08D1BBF1000F05D04FF0FF30A0
:1067E0000DB0BDE8F08FFFE74046F9E7E90701D1BA
:1067F00008F1010806444FF0000B79E6CCCCCC0C34
:106800000029A8BF7047401C490008BF20F00100C4
:10681000704710B4B0FA80FC00FA0CF050EA0104A2
:1068200004BF10BC704749B1CCF1200421FA04F434
:1068300011FA0CF118BF012121430843A3EB0C010D
:10684000CB1D4FEA00614FEA102042BF002010BC70
:10685000704700EBC35010440029A4BF10BC704720
:10686000401C490008BF20F0010010BC7047000028
:106870007F2801D9002208E0064A02EB5002C00737
:10688000127800D1120902F00F0201209040084056
:10689000704700002025010870B58C1810F8015BC6
:1068A00015F0070301D110F8013B2A1106D110F8A9
:1068B000012B03E010F8016B01F8016B5B1EF9D1AD
:1068C0002B0705D40023521E0DD401F8013BFAE733
:1068D00010F8013BCB1A921C03E013F8015B01F89E
:1068E000015B521EF9D5A142D8D3002070BD10B56E
:1068F000142006F0DBF90321142006F074FA10BD11
:1069000000BFFEE730B50346042B15D007DC7BB192
:10691000012B0ED0022B0DD0032B30D10BE0202BFE
:106920000BD0212B18D0222B22D0232B27D125E0CE
:1069300026E025E024E023E022E0002003E00C5CD8
:10694000114D2C54401C0728F9DB00200F4C2070FF
:1069500001200F4C207013E0002003E00A4C245C5F
:106960000C54401C0728F9DB0020084C207007E07D
:1069700006480078401C054C207001E000E000BF94
:1069800000BF002030BD00001401002000000020E6
:106990000100002000207047002003E00021064A8B
:1069A0001154401CB0F5167FF8D30020034908802D
:1069B0000349088070470000EE0400200C0000200E
:1069C0000E00002010B500220449054806F0DBFF48
:1069D0000449034806F0D0FF002010BD70150020C8
:1069E000C40C0020881100202DE9F04105460E4618
:1069F0001449306808602946134806F0BDFF37780F
:106A000012480488002113E0685C114A1055601C8C
:106A100080B24FF4167290FBF2F302FB130084B2C3
:106A20000C480088844202D10220BDE8F081491C54
:106A3000B942E9D305480480034806F079FF0020F5
:106A4000F3E7000028000020C40C00200C00002008
:106A5000EE0400200E0000202DE9F04104460D4612
:106A600000260A48D0F8B872D7F8140210B10120F5
:106A7000BDE8F0812A462146044806F084FF034819
:106A800007F005F806463046F2E70000C40C002087
:106A90002DE9F0410746884615460421052000F0FF
:106AA00029F880210A2006F09EF9002405E0395DCE
:106AB000092009F09DFB601CC4B24445F7DB0321AB
:106AC000012009F095FBFF2400BF052006F0EEF839
:106AD0000646601EC4B21CB106F004000028F4D0C3
:106AE000222006F0E3F82870212006F0DFF8687015
:106AF000BDE8F08170B505460C46284606F0D6F88C
:106B0000064626EA0401284609F072FB70BD70476C
:106B100010B500F0E9FA0020034908704FF416712F
:106B20000248FEF728FF10BD1B000020EE040020E5
:106B300072B603E01E2164200AF0B6FAFAE70000FC
:106B40000021074AD1610749096941F00401054A5A
:106B500011611146096941F040011161704700005F
:106B6000681E0020002002400021074AD161074929
:106B7000096941F00201054A11611146486109693C
:106B800041F0400111617047681E00200020024062
:106B90000022054BDA61054A126942F00102034BFB
:106BA0001A61018070470000681E0020002002402A
:106BB00000201E49C96801F0100139B11C49C9699A
:106BC00041F002011A4AD16140F010001749C9682A
:106BD00001F0040139B11649C96941F00101144AB3
:106BE000D16140F004001149C96901F0010169B1A6
:106BF0000F49C96941F004010D4AD16100BF0B4939
:106C0000C96921F00101094AD16100BF00BF40F20A
:106C10000111884206D10549C96921F00101034AE1
:106C2000D16101E00149C86000BF70470020024007
:106C3000681E002070B5044601F0AEFA054609E072
:106C4000601C38B124B101F0A7FA401BA04201D961
:106C5000032070BD1248C06800F001000028EFD189
:106C60000F48C06800F0200020B100BF20200C4970
:106C7000C86000BF0A48C06800F0100048B9084862
:106C8000C06900F0010020B90548C06800F00400A8
:106C900018B1FFF78DFF0120DBE70020D9E70000E6
:106CA000002002402DE9F04399B007466421684670
:106CB000FEF761FE4FF000080020BF490860002485
:106CC000BE4805780026A1462CE100F0F5F96420C5
:106CD00000F0DEFFF8B28DF80000380A8DF80100F0
:106CE0006A46022140F2031000F0BEFCC82000F00A
:106CF000CFFFB3480078AA287ED1B1484078552804
:106D0000FAD1AF488079002877D1F5E0AC48017A14
:106D1000407A01EB00244FF6F170844233D1A94848
:106D20000078432812D100F0C7F9A448057001206B
:106D300000F0AEFF0020A4490880A2490870A3A07B
:106D40000BF0B0F8002019B0BDE8F08300209B499B
:106D500008702246AAA1684609F072FA68460BF04C
:106D6000A1F864216846FEF706FE4FF4FA7000F0C1
:106D70008FFF701CC6B24AF6AA20B14909680860A4
:106D800000208D4908604FF6F270844231D18D4861
:106D90000078432810D100F08FF988480570012051
:106DA00000F076FF0020884908808649087087A097
:106DB0000BF078F80020C6E70020804908702246D2
:106DC0008FA1684609F03CFA68460BF06BF8642125
:106DD0006846FEF7D0FD4FF4FA7000F059FF00202E
:106DE00075490860701CC6B24AF6AA209449096821
:106DF00008604FF6F37001E083E08FE0844231D108
:106E000070480078432810D100F056F96B4805709F
:106E1000012000F03DFF00206B490880694908709F
:106E20006AA00BF03FF800208DE70020634908704E
:106E3000224673A1684609F003FA68460BF032F85F
:106E400064216846FEF797FD4FF4FA7000F020FFCA
:106E5000002059490860701CC6B24AF6AA20784939
:106E6000096808604FF6F470844221D1701CC6B2E4
:106E7000002052490870224661A1684609F0E0F9F5
:106E800068460BF00FF864216846FEF774FD4FF476
:106E90007A7000F0FDFE0020474908604848017AFA
:106EA000407A01EB00244AF6AA2065490968086087
:106EB0004FF6F37084420ED0401E84420BD0401E29
:106EC000844208D0C01C844205D024B14FF0010890
:106ED00000264FF002093C2E0ED1002600F0ECF8FF
:106EE0004FF416713648FEF746FD3448057055A03C
:106EF0000AF0D8FF002026E7B8F1000F3FF406AFF4
:106F00000CE04FF4FA7000F0C3FE4FF416712C48F9
:106F1000FEF731FD00202849086007E009F1010073
:106F200000F0FF09B9F1020FFFF6CFAE00BF244811
:106F30000078AA2828D122484078552824D1204812
:106F4000807908B31E48017A407A01EB002464215D
:106F50006846FEF710FD224644A1684609F070F924
:106F600068460AF09FFF0020134908601348057027
:106F700000F0A2F80A2000F08BFE4FF416711048C2
:106F8000FEF7F9FC0020DEE6B8F1010F02D141A0C6
:106F90000AF088FF4FF47A7000F07AFE4FF4167111
:106FA0000748FEF7E8FC0020034908600120034978
:106FB00008700020C7E60000300000201B00002001
:106FC00096020020EE0400200C0000207B22526577
:106FD0006365697665223A7B225374617475732206
:106FE0003A32367D2C2246223A7B22547970652231
:106FF0003A2243616E73656C227D7D0A00000000B9
:107000007B2252656365697665223A7B22537461FF
:10701000747573223A32367D2C2246223A7B2254F2
:10702000797065223A22456E726F6C6C222C225365
:107030007461747573223A25647D7D0A0000000036
:10704000DC0900207B2246223A7B2254797065229B
:107050003A22456E726F6C6C222C225374617475E7
:1070600073223A31387D7D0A000000007B224622DF
:107070003A7B2254797065223A22456E726F6C6CAD
:10708000222C22537461747573223A25647D7D0A23
:10709000000000007B2246223A7B22547970652250
:1070A0003A22456E726F6C6C222C22537461747597
:1070B00073223A307D7D0A0000B58DB034216846D8
:1070C000FEF759FC6A4600214FF4987000F0CCFAA4
:1070D000642000F0DDFD4FF416710248FEF74BFC12
:1070E0000DB000BD9602002010B59AB0642101A831
:1070F000FEF741FC0024FFF7DFFF642000F0C8FD2D
:1071000001AA00214FF4837000F0AEFA0948827999
:1071100009A101A809F094F801A80AF0C3FEC8204B
:1071200000F0B6FD4FF416710248FEF724FC002073
:107130001AB010BD960200207B2252656365697605
:1071400065223A7B22537461747573223A32367D1C
:107150002C2246223A7B2254797065223A224465D9
:107160006C657465414C4C222C22537461747573A8
:10717000223A25647D7D0A0030B599B0044600208E
:107180001C490860FFF798FF642000F081FDE0B221
:107190008DF80000200A8DF801006A46022140F2B5
:1071A000051000F061FA642000F072FD1248807949
:1071B00030B91148827911A1684609F041F809E017
:1071C0000D48017A407A01EB00252A460BA168465A
:1071D00009F036F868460AF065FEC82000F058FD50
:1071E000FFF76AFF4FF416710348FEF7C4FB002057
:1071F00019B030BD30000020960200207B2252657D
:107200006365697665223A7B2253746174757322D3
:107210003A32367D2C2246223A7B225479706522FE
:107220003A2244656C657465222C2253746174752E
:1072300073223A25647D7D0A0000000010B59AB0E3
:1072400000201D490860FFF737FF0A2000F020FDED
:1072500001AA002140F2071000F006FAFA2000F01F
:1072600017FD16480078AA281DD1144840785528E3
:1072700019D11248017A407A01EB00249CB10F48E1
:10728000807928B922460EA101A808F0D9FF04E0B0
:1072900022461B4901A808F0D3FF01A80AF002FE0C
:1072A0000A2000F0F5FC4FF416710448FEF763FB6A
:1072B00000201AB010BD000030000020960200200F
:1072C0007B2252656365697665223A7B225374613D
:1072D000747573223A32367D2C2246223A7B225430
:1072E000797065223A22476574456D707479494416
:1072F000222C224944223A25647D7D0A00000000A8
:10730000A42501082DE9F043ADF5297D06460025A9
:1073100000204C4908704C490860FFF7CDFE6420FE
:1073200000F0B6FC0020484908604FF41671474849
:10733000FEF721FB642000F0ABFCF0B28DF84002B8
:10734000300A8DF84102642000F0A2FC90AA0221CC
:107350004FF4857000F088F9642000F099FC002457
:1073600013E03A48005DA5280ED13849601C085C3E
:107370005A2809D1A01C085C0A2805D1E01C085C29
:10738000012801D1254603E0641CB4F5167FE8D33B
:1073900000BF2E49281D095C2C4A681D105C01EBBA
:1073A0000020071F114605F10800095C401C105C15
:1073B00001EB00294FF40F7101A8FEF7DCFA4FF43E
:1073C0007A7000F065FC002407E005F10A00204413
:1073D0001E49085C01A90855641CBC42F5D3012074
:1073E0001849087019488079B0B93B46324618A14F
:1073F00090A808F025FF90A80AF054FD0A2000F09C
:1074000047FC394601A8FFF727FB0A2000F040FCA3
:107410001EA00AF047FD0CE00C48017A407A01EB0F
:10742000002842461BA190A808F00AFF90A80AF085
:1074300039FD4FF416710548FEF79DFA0DF5297DCB
:10744000BDE8F0831A0000203000002096020020E2
:107450007B2246223A7B2254797065223A22526579
:10746000616454656D706C617465222C22494422FC
:107470003A25642C224461746153697A65223A2565
:10748000642C2244617461223A220000227D7D0A2C
:10749000000000007B2246223A7B2254797065224C
:1074A0003A225265616454656D706C617465222C7A
:1074B00022537461747573223A25647D7D0A00003D
:1074C00010B59AB0642101A8FEF755FA00204E4984
:1074D000086001AA00214FF4817000F0C5F80F2068
:1074E00000F0D6FB4948017A407A01EB0024474876
:1074F0000078AA2819D145488079B8B94FF6F470B8
:1075000084427AD0002C78D0224641A101A808F00C
:1075100097FE01A80AF0C6FC642101A8FEF72BFA29
:107520004FF416713948FEF726FA66E02046232C00
:1075300053D006DC122828D015280FD021285AD184
:1075400052E041283BD0A0F510502F3800282FD012
:10755000A0F55B40C53800284DD137E0224637A161
:1075600001A808F06DFE01A80AF09CFC00203D492E
:1075700008704FF416712548FEF7FDF9642101A843
:10758000FEF7F9F900201AB010BD221D2BA101A8A9
:1075900008F056FE01A80AF085FC4FF416711B484E
:1075A000FEF7E9F9642101A8FEF7E5F90020EAE712
:1075B0004FF416711548FEF7DEF90020E3E74FF4AB
:1075C00016711248FEF7D7F90020DCE74FF4167168
:1075D0000E48FEF7D0F90020D5E74FF416710B489E
:1075E000FEF7C9F90020CEE74FF416710748FEF701
:1075F000C2F90020C7E700BF00BF4FF4167103486F
:10760000FEF7B9F90020BEE7300000209602002006
:107610007B2246223A7B2254797065223A224964C1
:10762000656E74696679222C2254656D706C617484
:1076300065223A25647D7D0A000000007B224622F7
:107640003A7B2254797065223A224964656E7469E6
:107650006679222C22537461747573223A25647DF5
:107660007D0A00001B0000202DE9F0418EB0054688
:107670000C469046002655208DF8040001A800F025
:1076800019FA5536AA208DF805000DF1050000F015
:1076900011FAAA362846E91705EB11610912A5EB84
:1076A0000121C9B28DF806100DF1060000F002FAB2
:1076B0002846E91705EB11610912A5EB01213144B8
:1076C0008EB2E91705EB1161090A8DF807100DF16B
:1076D000070000F0EFF92846E91705EB116106EB0A
:1076E00021218EB22046E11704EB11610912A4EBAF
:1076F0000121C9B28DF8081002A800F0DBF920467C
:10770000E11704EB11610912A4EB012131448EB29F
:10771000E11704EB1161090A8DF809100DF1090058
:1077200000F0C8F92046E11704EB116106EB2121B6
:107730008EB200270EE018F80710B81D01AA1154E8
:1077400008EB070000F0B6F918F80700304486B2DD
:10775000781CC7B2A742EEDB09E00021B81D01AAE0
:107760001154B91D881800F0A5F9781CC7B2102F64
:10777000F3DB3046F11706EB11610912A6EB01218C
:10778000C9B28DF81A100DF11A0000F093F93046C5
:10779000F11706EB1161090A8DF81B100DF11B00A2
:1077A00000F088F900270EB0BDE8F0812DE9F04324
:1077B0008DB004460E4617469946002500BF5A2054
:1077C0008DF80000684600F075F95A35A5208DF84F
:1077D00001000DF1010000F06DF9A5352046E1171B
:1077E00004EB11610912A4EB0121C9B28DF802105A
:1077F0000DF1020000F05EF92046E11704EB116183
:107800000912A4EB01210D44E11704EB1161090AEF
:107810008DF803100DF1030000F04CF92046E1173C
:1078200004EB116105EB2125B01CC0B28DF80400FA
:1078300001A800F03FF9B01CC0B20544B01C000A1A
:107840008DF805000DF1050000F034F9B01C05EBD2
:107850001025F8B28DF806000DF1060000F02AF9A7
:10786000F8B20544380A8DF807000DF1070000F062
:1078700021F905EB17254FF000080BE009EB080094
:1078800000F018F919F808000544052000F000FA86
:1078900008F10108B045F1D3E8B28DF82F000DF1E1
:1078A0002F0000F007F9280A8DF830000CA800F02E
:1078B00001F94FF000080DB0BDE8F083F0B5ADF56B
:1078C000297D07460D4614464FF40F7101A8FEF7B7
:1078D00052F8A178607801EB00272179E07801EB7C
:1078E0000025062004E0225C811F01AB5A54401C95
:1078F000A91D8842F7D3FFF7DFFB642000F0C8F929
:107900004FF416713548FEF736F800203449086008
:10791000002603E0002090A98855761C642EF9D338
:10792000642000F0B5F9E8B28DF84002280A8DF81D
:1079300041024AF6AA202B490968086090AA022150
:1079400040F20B10FFF790FE642000F0A1F901ABAC
:107950003A46294640F20B10FFF728FF4AF6AA20C4
:107960002049096808604FF47A7000F091F91B48CB
:107970000078A52829D119488079002817D1A17845
:10798000607801EB00221548017A407A01EB002073
:10799000824208D13A4614A190A808F051FC90A860
:1079A0000AF080FA11E020A00AF07CFA0DE00B4802
:1079B000007A602802D128A00AF074FA0748007AF9
:1079C000702802D12FA00AF06DFA4FF41671034807
:1079D000FDF7D1FF01200DF5297DF0BD96020020B5
:1079E00030000020DC0900207B2246223A7B225412
:1079F000797065223A22577269746554656D706CAE
:107A0000617465222C22577269746554656D706CBF
:107A10006174654944223A25642C2253746174755B
:107A200073223A307D7D0A007B2246223A7B225423
:107A3000797065223A22577269746554656D706C6D
:107A4000617465222C22537461747573223A31304B
:107A5000307D7D0A000000007B2246223A7B2254C2
:107A6000797065223A22577269746554656D706C3D
:107A7000617465222C22537461747573223A39360D
:107A80007D7D0A007B2246223A7B22547970652252
:107A90003A22577269746554656D706C6174652221
:107AA0002C22537461747573223A3131327D7D0A10
:107AB0000000000010B5044601231A462146024882
:107AC00003F051FE10BD00003C0C002000B59FB03B
:107AD000642106A8FDF74FFFFFF7EEFA642000F0DF
:107AE000D7F8182212A16846FDF72CFF322319227D
:107AF0006946154803F037FE642000F0C9F81348C2
:107B00000078AA280DD111484078552809D10F488E
:107B1000437A027A0E4906A808F092FB06A80AF0FA
:107B2000C1F91E210948FDF726FF1FB000BD000066
:107B300055AA120100000000000000000000000033
:107B400000000000000012013C0C00209602002002
:107B50006025010870B50A480468001D0568001D0D
:107B60000668344454B108220649204604F00AFA53
:107B7000042204491031284604F004FA70BD0000C4
:107B8000E8F7FF1FFA0000200146002291F82100CB
:107B9000022808D00420886300BF002081F820005C
:107BA00000BF012070470868006820F00E000B68D5
:107BB00018600868006820F001000B68186091F8F0
:107BC000403001209840CB6B5860012081F82100A3
:107BD00000BF002081F8200000BF1046E2E700004F
:107BE00070B50446002594F82100022803D0042033
:107BF000A063012548E02068006820F00E0021689D
:107C000008602068006820F00100216808601F49B2
:107C10002068884201D1012026E01C4914312068E7
:107C2000884201D110201FE018492831206888427D
:107C300001D1801518E015493C312068884201D1F6
:107C4000801411E0114950312068884202D14FF46C
:107C5000803009E00D4964312068884202D14FF438
:107C6000801001E04FF08070084908394860012019
:107C700084F8210000BF002084F8200000BF606B62
:107C800010B12046616B8847284670BD080002404D
:107C900070B5044600F080FA06462546681C10B10F
:107CA00004480078054400BF00F076FA801BA84223
:107CB000FAD370BD340100202DE9F04104460E4690
:107CC0000127002500BF2648007E012802D102209E
:107CD000BDE8F08101202249087600BF2068022813
:107CE00013D14CF25030FEF7A5FF90BB0120FEF7F8
:107CF00027FF4CF25030FEF79DFF074619480069F8
:107D000020F004001749086123E04CF25030FEF7E0
:107D100091FFF0B94FF0FF303060A56812E02846BF
:107D2000FEF722FF4CF25030FEF784FF07460D4865
:107D3000006920F002000B4908610FB1356007E0CF
:107D400005F58065D4E9021001EB8020A842E6D851
:107D500000BF00BF00200249087600BF3846B7E7E1
:107D6000681E0020002002400348006940F08000A7
:107D70000149086100207047002002402DE9FE4FB4
:107D800005468B461746984601260024002002909F
:107D900000BF2448007E012802D10220BDE8FE8FEA
:107DA00001202049087600BF4CF25030FEF742FF18
:107DB000064686BB012D02D10120029006E0022D6D
:107DC00002D10220029001E00420029000241EE073
:107DD0002201B946C24648465146FDF7A3FD80B28E
:107DE0000190022000FB04B000900199FEF7D0FE44
:107DF0004CF25030FEF71EFF06460B48006920F09B
:107E000001000949086106B104E0601CC4B202988F
:107E10008442DDDB00BF00BF00200249087600BFBE
:107E20003046BBE7681E00200020024000200849C1
:107E3000096901F0800151B10649054A51600649BE
:107E400051601146096901F0800101B101207047BC
:107E50000020024023016745AB89EFCD2DE9F847AB
:107E60000346002294466EE14FF0010808FA02F43E
:107E7000D1F8008008EA0400A0427DD1DFF8DCA23E
:107E8000D1F80480A8EB0A09D0453AD014DCB8F147
:107E9000030F50D009DCB8F1000F31D0B8F1010F59
:107EA0001CD0B8F1020F49D120E0B8F1110F18D061
:107EB000B8F1120F42D11EE0B9F5881F25D006DCBB
:107EC000B9F5803F20D0B9F5801F37D11AE0B9F558
:107ED000001F18D0B9F5041F30D117E0D1F80CC03D
:107EE0002DE0D1F80C8008F1040C28E0D1F80C80CA
:107EF00008F1080C23E0D1F80C8008F10C0C1EE00E
:107F000000BF00BF00BF00BF00BF00BFD1F80880A6
:107F1000B8F1000F02D14FF0040C0BE0D1F808804B
:107F2000B8F1010F03D14FF0080C1C6102E04FF0D3
:107F3000080C5C6103E04FF0000C00E000BF00BFE4
:107F4000FF2801D8984601E003F104084646FF28BF
:107F500002D84FEA820803E0A2F108084FEA880835
:107F60004746D6F800804FF00F0909FA07F928EACA
:107F700009080CFA07F900E088E048EA0908C6F8A1
:107F80000080D1F8048008F08058B8F1805F7DD17E
:107F900000BFDFF8CC81D8F8188048F00108DFF87E
:107FA000C091C9F81880C846D8F8188008F00108B0
:107FB000CDF8008000BF00BF4FEAB9384FEA920900
:107FC00058F829504FEA82784FEA18794FF00F0895
:107FD00008FA09F825EA0805DFF88881434502D147
:107FE0004FF0000816E0DFF88081434502D14FF0E2
:107FF00001080FE0DFF87481434502D14FF0020819
:1080000008E0DFF86C81434502D14FF0030801E03E
:108010004FF004084FEA82794FEA197908FA09F813
:1080200048EA0505DFF84C814FEA920948F82950E3
:10803000D1F8048008F48038B8F5803F0AD1DFF821
:108040003881D8F8008048EA0008DFF82C91C9F898
:10805000008009E0DFF82081D8F8008028EA0008D5
:10806000DFF81491C9F80080D1F8048008F40038D2
:10807000B8F5003F10D1DFF8008108F10408D8F806
:10808000008048EA0008DFF8F09000E05AE009F1CB
:108090000409C9F800800DE0DFF8DC8008F104086D
:1080A000D8F8008028EA0008DFF8CC9009F104092C
:1080B000C9F80080D1F8048008F48018B8F5801F52
:1080C0000ED1DFF8B48008F10808D8F8008048EA3B
:1080D0000008DFF8A49009F10809C9F800800DE054
:1080E000DFF8948008F10808D8F8008028EA000832
:1080F000DFF8849009F10809C9F80080D1F80480FC
:1081000008F40018B8F5001F0ED1DFF86C8008F1F4
:108110000C08D8F8008048EA0008DFF85C9009F104
:108120000C09C9F800800DE0DFF84C8008F10C085C
:10813000D8F8008028EA0008DFF83C9009F10C0923
:10814000C9F80080521CD1F8008028FA02F8B8F172
:10815000000F7FF489AEBDE8F88700000000111021
:108160000010024000080140000C014000100140D6
:1081700000140140080001400004014002469368D9
:108180000B400BB1012000E0002070470AB10161F3
:1081900001E00B040361704701480068704700006C
:1081A0002C01002070B504460CB9012070BD94F874
:1081B0003D0028B9002084F83C00204600F0F0FC87
:1081C000242084F83D002068006820F00100216828
:1081D00008602068006840F400402168086020685A
:1081E000006820F400402168086001F02FFF054678
:1081F0005C496068884206D85B48854201D201200C
:1082000007E0002005E05948854201D2012000E046
:108210000020012800D1C9E75548B5FBF0F62068D9
:10822000406820F03F003043216848604D49606855
:10823000884201D8701C07E04FF4967070434FF4E9
:108240007A71B0FBF1F0401C2168096A21F03F010E
:1082500008432168086243496068884214D8681E50
:1082600061684900B0FBF1F0401CC0F30B0004282A
:1082700001D204203DE0681E61684900B0FBF1F0C6
:10828000401CC0F30B0034E0A06838B9681E616878
:1082900001EB4101B0FBF1F0401C0AE0681E61688F
:1082A00001EBC10202EB0111B0FBF1F0401C40F404
:1082B0008040C0F30B0008B901201AE0A06848B95B
:1082C000681E616801EB4101B0FBF1F0401CC0F396
:1082D0000B000CE0681E616801EBC10202EB0111AA
:1082E000B0FBF1F0401CC0F30B0040F4804040F4C0
:1082F00000402168C9694CF6FF7291430843216828
:10830000C861D4E9070108432168096821F0C00168
:10831000084321680860D4E903100843216889688C
:1083200048F2FF329143084321688860D4E905018F
:1083300008432168C96821F0FF0108432168C8602B
:108340002068006840F00100216808600020206477
:10835000202084F83D000020206384F83E0000BF08
:1083600024E70000A086010080841E0000093D0073
:1083700040420F002DE9FC470446894617469846BF
:108380000A9E00200190FFF707FF054694F83D0084
:1083900020286FD119230122C8492046009503F0F7
:1083A00047FC10B10220BDE8FC8700BF94F83C00F8
:1083B000012801D10220F6E7012084F83C0000BF2B
:1083C0002068006800F0010028B92068006840F0CB
:1083D0000100216808602068006820F400602168BE
:1083E0000860222084F83D00102084F83E00002020
:1083F00020646762A4F82A80608D2085B048E0621E
:108400002B4632464946204603F038FA08B101208F
:10841000C9E7208D88B900BF00200090206840691E
:10842000009020688069009000BF00BF206800684D
:1084300040F40070216808604BE0208D01281AD1BB
:108440002068006820F480602168086072B600BF70
:1084500000200090206840690090206880690090AA
:1084600000BF00BF2068006840F400702168086009
:1084700062B62EE020E1208D022819D12068006824
:1084800040F400602168086072B600BF00200090D0
:1084900020684069009020688069009000BF00BF9C
:1084A0002068006820F480602168086062B610E0EF
:1084B0002068006840F480602168086000BF0020E8
:1084C000009020684069009020688069009000BF9B
:1084D00000BFE2E0208D03287ED8208D012815D131
:1084E0002A463146204603F04DFC08B101205AE7E8
:1084F00020680069616A0870606A401C6062208DB3
:10850000401E2085608D401E6085C6E0208D0228BB
:108510002CD1334600226B492046009503F088FB9E
:1085200008B101203FE772B62068006840F400708F
:108530002168086020680069616A0870606A401CF0
:108540006062208D401E2085608D401E608562B671
:1085500020680069616A0870606A401C6062208D52
:10856000401E2085608D401E608596E033460022C7
:1085700054492046009503F05BFB08B1012012E747
:108580002068006820F480602168086072B6206866
:108590000069616A0870606A401C6062208D401E3C
:1085A0002085608D401E6085474800681921B0FB1A
:1085B000F1F04FF47A71B0FBF1F0C0EBC00000EBCA
:1085C0008000019000BF0198401E01900198A8B959
:1085D00000202063202000E038E084F83D000020E7
:1085E00084F83E00206C40F02000206462B600BF9A
:1085F000002084F83C0000BF0120D4E620684069D8
:10860000C0F380000028DED02068006840F40070CD
:108610002168086020680069616A0870606A401C0F
:108620006062208D401E2085608D401E608562B690
:1086300020680069616A0870606A401C6062208D71
:10864000401E2085608D401E608526E02A4631460A
:10865000204603F097FB08B10120A4E620680069DA
:10866000616A0870606A401C6062208D401E20852F
:10867000608D401E608520684069C0F3800060B155
:1086800020680069616A0870606A401C6062208D21
:10869000401E2085608D401E6085208D00287FF45F
:1086A00019AF202084F83D00002084F83E0000BF70
:1086B00084F83C0000BF76E6022074E60200100059
:1086C0000000FFFF04000100480100202DE9F843ED
:1086D0000446894616461F46DDF82080FFF75CFDFC
:1086E000054694F83D0020287ED1192301225149E6
:1086F0002046009503F09CFA10B10220BDE8F883F3
:1087000000BF94F83C00012801D10220F6E70120C7
:1087100084F83C0000BF2068006800F0010028B920
:108720002068006840F00100216808602068006847
:1087300020F4006021680860212084F83D001020AA
:1087400084F83E000020206466626785608D208585
:108750003948E0622B4642464946204603F02AF952
:1087600008B10120CAE700BF0020009020684069DE
:10877000009020688069009000BF00BF44E02A4656
:108780004146204603F03EFB50B1206C042805D141
:108790002068006840F40070216808600120ADE79F
:1087A000606A007821680861606A401C6062608DC0
:1087B000401E6085208D401E208520684069C0F3E2
:1087C000800070B1208D60B1606A00782168086116
:1087D000606A401C6062608D401E6085208D401E76
:1087E00020852A46414600E022E0204603F0F2F9C7
:1087F00050B1206C042805D12068006840F4007056
:1088000021680860012079E7208D0028B7D1206811
:10881000006840F4007021680860202084F83D0062
:10882000002084F83E0000BF84F83C0000BF65E7EC
:10883000022063E7020010000000FFFF2DE9FE4F59
:1088400004460F4690469946DDE90CAB0E9E00208B
:108850000290FFF7A1FC054694F83D00202872D154
:1088600019230122CA492046009503F0E1F910B10D
:108870000220BDE8FE8F00BF94F83C00012801D122
:108880000220F6E7012084F83C0000BF2068006861
:1088900000F0010028B92068006840F0010021685C
:1088A00008602068006820F40060216808602220C9
:1088B00084F83D00402084F83E0000202064C4F885
:1088C00024A0A4F82AB0608D2085B248E0624B460F
:1088D000424639462046CDE9006503F0CBF808B1A1
:1088E0000120C6E7208D88B900BF002001902068D4
:1088F0004069019020688069019000BF00BF206836
:10890000006840F40070216808604BE0208D012869
:108910001AD12068006820F480602168086072B66F
:1089200000BF0020019020684069019020688069A4
:10893000019000BF00BF2068006840F4007021680B
:10894000086062B62EE020E1208D022819D120684F
:10895000006840F400602168086072B600BF002023
:10896000019020684069019020688069019000BFF3
:1089700000BF2068006820F480602168086062B64B
:1089800010E02068006840F480602168086000BF43
:108990000020019020684069019020688069019062
:1089A00000BF00BFE2E0208D03287DD8208D012884
:1089B00015D12A463146204603F0E4F908B10120DA
:1089C00057E720680069616A0870606A401C60624D
:1089D000208D401E2085608D401E6085C6E0208D64
:1089E00002282CD1334600226B492046009503F023
:1089F0001FF908B101203CE772B62068006840F416
:108A000000702168086020680069616A0870606A07
:108A1000401C6062208D401E2085608D401E608558
:108A200062B620680069616A0870606A401C606212
:108A3000208D401E2085608D401E608596E0334667
:108A4000002255492046009503F0F2F808B10120B4
:108A50000FE72068006820F480602168086072B623
:108A600020680069616A0870606A401C6062208D3D
:108A7000401E2085608D401E608548480068192191
:108A8000B0FBF1F04FF47A71B0FBF1F0C0EBC00035
:108A900000EB8000029000BF0298401E02900298F6
:108AA000A8B90020206300E039E0202084F83D00D0
:108AB000002084F83E00206C40F02000206462B664
:108AC00000BF002084F83C0000BF0120D1E62068F0
:108AD0004069C0F380000028DED02068006840F4C0
:108AE00000702168086020680069616A0870606A27
:108AF000401C6062208D401E2085608D401E608578
:108B000062B620680069616A0870606A401C606231
:108B1000208D401E2085608D401E608526E02A46FF
:108B20003146204603F02EF908B10120A1E6206865
:108B30000069616A0870606A401C6062208D401E96
:108B40002085608D401E608520684069C0F38000EC
:108B500060B120680069616A0870606A401C6062E8
:108B6000208D401E2085608D401E6085208D002850
:108B70007FF419AF202084F83D00002084F83E00E7
:108B800000BF84F83C0000BF73E6022071E60000DD
:108B9000020010000000FFFF040001004801002057
:108BA00010B586B004460020029003900490059012
:108BB0001A49206888422FD100BF1948806940F0C7
:108BC0000800174988610846806900F00800019094
:108BD00000BF00BF4FF440700290122003900320AA
:108BE000059002A90F48FFF739F900BF0E49486800
:108BF00040F0E06040F00200486000BF00BF08485D
:108C0000C06940F400100649C8610846C06900F414
:108C10000010019000BF00BF06B010BD005400401E
:108C200000100240000C01400000014070B50446F5
:108C30000CB9012070BD4CF6CC402168086045F2AB
:108C4000555021680860D4E9001048602168A06888
:108C50008860FFF7A1FA05460BE0FFF79DFA401B7D
:108C6000272806D92068C06800F0030008B1032057
:108C7000E0E72068C06800F003000028EDD14AF664
:108C8000AA20216808600020D4E70000034800689B
:108C90000349097808440149086070472C01002005
:108CA0003401002010B50848006840F01000064963
:108CB0000860032000F0A8F8002000F007F800F09A
:108CC0002BF8002010BD00000020024070B50446C3
:108CD0000E4800784FF47A71B1FBF0F00C49096846
:108CE000B1FBF0F5284602F068F808B1012070BD2C
:108CF000102C07D200222146501E00F047F80548EC
:108D0000046001E00120F2E70020F0E734010020D8
:108D1000480100203001002008B500BF11488069DB
:108D200040F001000F4988610846806900F00100A9
:108D3000009000BF00BF00BF0846C06940F08050EF
:108D4000C8610846C06900F08050009000BF00BFB5
:108D500000BF0549486820F0E06040F000704860BE
:108D600000BF08BD00100240000001400146084657
:108D7000002809DB00F01F0301229A4043099B00F1
:108D800003F1E023C3F8002100BF70472DE9F05F35
:108D900080460D461646002707F066FA0746394614
:108DA0002A46334601F00700C0F1070ABAF1040F62
:108DB00002D94FF0040A01E0C0F1070AD14600F1E0
:108DC000040ABAF1070F02D24FF0000A01E0A0F145
:108DD000030AD4464FF0010A0AFA09FAAAF1010A75
:108DE0000AEA020A0AFA0CFA4FF0010B0BFA0CFB22
:108DF000ABF1010B0BEA030B4AEA0B042146404698
:108E000007F03AFABDE8F09F00BF00F00702064BFA
:108E100019684FF6FF031940044B0B4343EA022144
:108E2000014B196000BF70470CED00E00000FA052F
:108E300070B505460C4604F08000802808D104F087
:108E4000070000EB800605F1280000EBC60105E0F5
:108E500004EB840605F5B47000EBC6011AB90020D6
:108E60000873CB8004E0012008730B81180C488143
:108E7000002070BD704770B504460D4605EB8503B4
:108E800004F1280101EBC3014A692946D4F8E8023C
:108E900005F004F970BD70B504460D4605EB850379
:108EA00004F5B47101EBC3014A692946D4F8E8021C
:108EB00005F074F970BD70B504460E4606F08000EA
:108EC00080280AD106F0070000EB800104F1280099
:108ED00000EBC1050120687009E006F0070000EB17
:108EE000800104F5B47000EBC1050020687006F045
:108EF0000700287000BF94F8A802012801D10220C1
:108F000070BD012084F8A80200BF2946206805F042
:108F1000CDFF00BF002084F8A80200BF00BFEFE72C
:108F200070B504460E4606F00F006168884201D90C
:108F3000012070BD06F0800080280AD106F00700ED
:108F400000EB800104F1280000EBC10501206870EE
:108F500009E006F0070000EB800104F5B47000EBB7
:108F6000C105002068700020A87006F00700287076
:108F700000BF94F8A802012801D10220D9E70120FE
:108F800084F8A80200BF2946206806F0EBF800BF6D
:108F9000002084F8A80200BF00BFCAE72DE9F04115
:108FA00005460C46174607F48040002850D0286834
:108FB000B0F85010207801EBC000801C296801F542
:108FC000806131F81000C0F30906A069B04203D3F4
:108FD000A069801BA06101E00020A061A069A8B980
:108FE00000BF22785200296831F812104BF68F72B8
:108FF00001EA020080F4005040F4004141F0800199
:1090000023785B002A6822F8131000BF07F04000A5
:10901000A8B100BF00BF22785200296831F81210B1
:1090200048F68F7201EA020040F4004141F0C001AD
:1090300023785B002A6822F8131000BF00BF002EBF
:1090400055D0228961693346286806F001FF4EE059
:109050002868B0F85010207801EBC000801D296806
:1090600001F5806131F81000C0F30906A069B04233
:1090700003D3A069801BA06101E00020A061A0696A
:10908000A8B900BF22785200296831F812104BF6B7
:109090008F7201EA020080F4005040F4004141F078
:1090A000800123785B002A6822F8131000BF07F0C4
:1090B0004000A8B900BF00BF22785200296831F8EB
:1090C000121048F68F7201EA020040F4004141F0AC
:1090D000C00123785B002A6822F8131000BF00BF8C
:1090E0002EB1628961693346286806F0B1FE3046C8
:1090F000BDE8F0812DE9F04705460C46904608F0A2
:109100004000002871D02868B0F85010207801EB9A
:10911000C000801C296801F5806131F81000C0F39F
:109120000907A069B84203D9A069C01BA06101E08A
:109130000020A061A06900287ED100BF6078C8B976
:1091400000BF29682A68B2F850201144227802230F
:1091500003EBC20201F5806303EB420000BF02880B
:1091600048F2FF331A400280028842F40042028033
:1091700000BF13E06078012810D100BF28682A687A
:10918000B2F8502010442278022303EBC20200F50B
:10919000806303EB420100220A8000BF00BF00BFD2
:1091A0002968607810BB00BF2B68D5F800C0BCF8F8
:1091B00050C0634494F800C04FF0060909EBCC0C92
:1091C00003F5806909EB4C0000BFB0F800C048F21D
:1091D000FF390CEA090CA0F800C0B0F800C04CF44C
:1091E000004CA0F800C000BF11E0C0E0607801288A
:1091F0000DD12868B0F8500001442078062303EB15
:10920000C00001F5806303EB40020020108000BF26
:1092100021782846FFF72FFE08F48040002816D05A
:1092200000BF00BF22785200296831F8121048F6BA
:109230008F7201EA020000E00AE040F4004141F4CC
:10924000814123785B002A6822F8131000BFCAE12D
:1092500008F48040A8B100BF00BF227852002968FE
:1092600031F8121048F68F7201EA020040F4004112
:1092700041F4814223785B00296821F8132000BF64
:1092800000BF94F824000128E1D16069384460618E
:10929000E0693844E0612169206A884204D3266984
:1092A000206A801B20620BE0206A20B93E46002025
:1092B00084F8240004E0002084F82400266A206258
:1092C00000BF6078B8BB00BF2A682968B1F85010A9
:1092D0000A442178022303EBC10102F5806303EB0A
:1092E0004101084600BF56B9038848F2FF3C03EA33
:1092F0000C030380038843F40043038019E03E2EEF
:109300000BD800BF710806F0010303B1491C4FF6EA
:10931000FF7303EA812303800BE000BF710906F0AD
:109320001F0303B9491E4FF4004343EA812303801E
:1093300000BF00BF13E0FFE7607801280FD100BF36
:1093400028682A68B2F8502010442278022303EBE0
:10935000C20200F5806303EB42010E8000BF00BF34
:10936000B3B222896169286806F0A1FD3BE1286853
:10937000B0F85010207801EBC000801D296801F57D
:10938000806131F81000C0F30907A069B84203D327
:10939000A069C01BA06101E00020A061A0690028B5
:1093A0007DD100BF6078C8B900BF29682A68B2F8CB
:1093B000502011442278022303EBC20201F580639E
:1093C00003EB420000BF028848F2FF331A400280DC
:1093D000028842F40042028000BF13E06078012856
:1093E00010D100BF28682A68B2F8502010442278B3
:1093F000022303EBC20200F5806303EB420100226B
:109400000A8000BF00BF00BF2968607808BB00BFAA
:109410002B68D5F800C0BCF850C0634494F800C075
:109420004FF0060909EBCC0C03F5806909EB4C0001
:1094300000BFB0F800C048F2FF390CEA090CA0F8F0
:1094400000C0B0F800C04CF4004CA0F800C000BF51
:1094500010E0607801280DD12868B0F85000014470
:109460002078062303EBC00001F5806303EB400284
:109470000020108000BF21782846FFF7FCFC08F48C
:109480008040002816D100BF00BF22785200296812
:1094900031F8121048F68F7201EA020000E00AE08B
:1094A00040F4004141F4814123785B002A6822F8AE
:1094B000131000BF97E008F48040A8B900BF00BFB8
:1094C00022785200296831F8121048F68F7201EAAA
:1094D000020040F4004141F4814123785B002A6896
:1094E00022F8131000BF00BF94F8240001287AD19D
:1094F000606938446061E0693844E0612169206A4C
:10950000884204D32669206A801B20620BE0206A0F
:1095100020B93E46002084F8240004E0266A00209A
:10952000206284F8240000BF2A68607890BB00BFE6
:10953000D5F800C02968B1F850108C4421784FF05C
:10954000060909EBC1010CF5806909EB41010846E8
:1095500000BF76B9B0F8009048F2FF3A09EA0A096C
:10956000A0F80090B0F8009049F40049A0F80090ED
:1095700020E03E2E0FD800BF710806F00109B9F1B6
:10958000000F00D0491C4FF6FF7909EA8129A0F8A5
:1095900000900FE010E000BF710906F01F09B9F15B
:1095A000000F00D1491E4FF4004949EA8129A0F873
:1095B000009000BF00BF0FE0607801280CD1286840
:1095C000B0F8500002442078062101EBC00002F5FB
:1095D000806101EB40031E8000BFB3B26289616904
:1095E000286806F064FC00BF22785200296831F830
:1095F000121048F6BF7201EA020080F0100080F0FD
:10960000200040F4004141F0800123785B002A688B
:1096100022F8131000BF0020BDE8F087024601F0D9
:10962000070000EB800302F5B47000EBC300C069D3
:1096300070472DE9F04705460E4690461F464FF00D
:10964000000906F0800080280AD106F0070000EB30
:10965000800105F1280000EBC1040120607009E0E1
:1096600006F0070000EB800105F5B47000EBC104C3
:109670000020607006F007002070C4F81080E770CA
:10968000607808B12078E081022F01D1002020719C
:1096900000BF95F8A802012802D10220BDE8F0879A
:1096A000012085F8A80200BF2146286805F0D4F9FA
:1096B00000BF002085F8A80200BF4846EEE72DE96C
:1096C000F04105460E461746984606F0070000EBA7
:1096D000800105F5B47000EBC1046761C4F818801F
:1096E0000020E061607006F00700207006F00700BF
:1096F00020B92146286805F0D0FD03E021462868FE
:1097000005F0CBFD0020BDE8F08170B504460D46A4
:1097100005F007006168884201D9012070BD05F09D
:10972000800080280AD105F0070000EB800104F1D9
:10973000280000EBC1060120707007E005EB8501F1
:1097400004F5B47000EBC106002070700120B07009
:1097500005F00700307000BF94F8A802012801D17D
:109760000220DBE7012084F8A80200BF3146206810
:1097700005F065FD05F0070020B904F52C7120689F
:1097800005F0EDFC00BF002084F8A80200BF00BF78
:10979000C4E72DE9F04105460E4690461F4606F007
:1097A000070000EB800105F1280000EBC104C4F8BC
:1097B0001480A761012084F8240027620020E06162
:1097C0000120607006F00700207006F0070020B945
:1097D0002146286805F061FD03E02146286805F070
:1097E0005CFD0020BDE8F0817FB50446206806F0EE
:1097F0002BFB00F40040B0F5004F02D1204602F0F0
:109800004BFF206806F020FB00F48060B0F5806F0D
:109810000FD12068B0F844004FF6FF3108402168AE
:10982000A1F84400204600F09FF90021204600F0F6
:10983000BBF9206806F008FB00F48040B0F5804FCB
:1098400008D12068B0F844004BF6FF710840216849
:10985000A1F84400206806F0F7FA00F40050B0F5D3
:10986000005F08D12068B0F844004DF6FF71084051
:109870002168A1F84400206806F0E6FA00F4805060
:10988000B0F5805F1DD12068B0F840004FF6FB7145
:1098900008402168A1F840002068B0F840004FF669
:1098A000F77108402168A1F84000204600F06EF9E9
:1098B0002068B0F844004EF6FF7108402168A1F816
:1098C0004400206806F0C0FA00F40060B0F5006FB4
:1098D00055D1002507E06900206830F811002DF807
:1098E0001500681CC5B2082DF5D32068B0F84000FB
:1098F00040F001002168A1F840002068B0F8400065
:109900004FF6FE7108402168A1F8400000BF2068B2
:10991000B0F8440000F480600028F8D02068B0F867
:1099200044004FF6FF3108402168A1F844000025AB
:1099300007E03DF815006A00216821F81200681C54
:10994000C5B2082DF5D32068B0F8400040F00800FB
:109950002168A1F840002068B0F844004FF2FF7180
:1099600008402168A1F844002068B0F8400040F0A9
:1099700004002168A1F84000204600F057F9206853
:1099800006F062FA00F40070B0F5007F0BD1206899
:10999000B0F844004FF6FF5108402168A1F8440098
:1099A000204600F0FAF8206806F04EFA00F48070C5
:1099B000B0F5807F08D12068B0F844004FF6FF6111
:1099C00008402168A1F844007FBD30B585B0044649
:1099D00014B9012005B030BD94F8A90228B90020BF
:1099E00084F8A802204600F09DF8032084F8A9021C
:1099F000206805F0AAFB142204F110016846FBF769
:109A0000A1FF94E80F0005F04DFA20B1022084F880
:109A1000A9020120DEE70021206806F03EFA0025B9
:109A200031E0012105EB850204F1280000EBC200C2
:109A3000417005EB850104F1280000F8315005EB79
:109A4000850100EBC100C581002105EB850204F111
:109A5000280000EBC200C17005EB850204F128006C
:109A600000EBC200016105EB850204F1280000EB68
:109A7000C200416105EB850204F1280000EBC20041
:109A80008161681CC5B26068A842CAD800252AE076
:109A9000002105EB850204F5B47000EBC2004170B3
:109AA00005EB850104F5B47000F83150002105EB99
:109AB000850200EBC200C17005EB850204F5B470AD
:109AC00000EBC200016105EB850204F5B47000EB08
:109AD000C200416105EB850204F5B47000EBC200E1
:109AE0008161681CC5B26068A842D1D8142204F113
:109AF00010016846FBF726FF94E80F0005F01AFBFB
:109B000020B1022084F8A902012063E7002084F834
:109B10002400012084F8A902206805F008FB002039
:109B200058E7000038B504460D492068884215D131
:109B300000BF0C48C06940F400000A49C8610846EB
:109B4000C06900F40000009000BF00BF0022114671
:109B50001420FFF71BF91420FFF708F938BD0000A7
:109B6000005C00400010024070B504460125A0686A
:109B7000022801D0FCF7DCFF2946D4F8E80204F003
:109B800041FCD4F8E80204F0F3FB70BD10B50446C4
:109B9000D4F8E80204F01AFC10BD10B50446D4F85D
:109BA000E80204F01EFC10BD70B504460D4600BF6F
:109BB00094F8A802012801D1022070BD012084F888
:109BC000A80200BF84F824502946206806F068F9EE
:109BD00000BF002084F8A80200BF00BFEDE710B569
:109BE000044604F52C71D4F8E80204F022FC10BD00
:109BF00010B5044600BF94F8A802012801D1022044
:109C000010BD012084F8A80200BF206806F00AF900
:109C100001212046FFF72EF9206805F085FA00BFE4
:109C2000002084F8A80200BF00BFE9E710B5044691
:109C3000D4F8E80204F056FCA06928B10348006893
:109C400040F006000149086010BD000010ED00E082
:109C5000012001490862704700000E422DE9F043DF
:109C600085B006463BA30FCB01AC0FC43DA00068F6
:109C700000904FF00008002500270024A146012E87
:109C800030D0022E55D0102E5ED13748446800687F
:109C900000F0807000B301A8C4F38341475C04F472
:109CA000803070B130484068C0F340401DF80080FB
:109CB00004F4803040B12D48B0FBF8F000FB07F50C
:109CC00002E02B4807FB00F52748406800F48000BD
:109CD000B0F5800F01D1A94603E068000321B0FB75
:109CE000F1F932E02048046A04F44070B0F5807F56
:109CF00005D104F0020010B14FF4004918E004F45B
:109D00004070B0F5007F07D11748406A00F00200AC
:109D100010B149F640490BE004F44070B0F5407FC3
:109D200006D11148006800F4003008B14FF2244910
:109D30000BE000F09BF90C494968C1F38131491CE3
:109D40004900B0FBF1F900E000BF00BF484605B094
:109D5000BDE8F08302030405060708090A0B0C0D91
:109D60000E0F1010010200000010024000127A00D5
:109D700000093D00F8B5044600260025207800F0D3
:109D8000010000286BD000274348C06900F08050D4
:109D900070B900BF4048C06940F080503E49C8617A
:109DA0000846C06900F08050009000BF00BF012746
:109DB0003A48006800F48070B0B93848006840F450
:109DC000807036490860FEF7E7F9064606E0FEF7C0
:109DD000E3F9801B642801D90320F8BD2F480068EF
:109DE00000F480700028F2D02B48006A00F440751F
:109DF0002DB3A08800F44070A84220D02648006A05
:109E000020F440750120264908600020086022489F
:109E1000056205F0010090B1FEF7BEF9064608E0C4
:109E2000FEF7BAF9801B41F28831884201D903203C
:109E3000D3E71948006A00F002000028F0D0164865
:109E4000006A20F440706168084313490862012FDA
:109E500004D10846C06920F08050C86100BF207856
:109E600000F00200022807D10B48406820F440406F
:109E7000A168084308494860207800F010001028C5
:109E800007D10548406820F48000E1680843024992
:109E900048600020A1E70000001002400070004070
:109EA000400442427047000070B504460D460CB9AC
:109EB000012070BD5A48006800F00700A8420ED289
:109EC0005748006820F007002843554908600846B5
:109ED000006800F00700A84201D00120E9E72078DF
:109EE00000F0020002281DD1207800F004000428B0
:109EF00005D14C48406840F4E0604A494860207809
:109F000000F00800082805D14648406840F4605039
:109F1000444948604348406820F0F000A168084385
:109F200040494860207800F0010078B3606801285B
:109F300006D13C48006800F4003090B90120B8E731
:109F40006068022806D13748006800F0007040B908
:109F50000120AEE73348006800F0020008B9012094
:109F6000A7E73048406820F00300616808432D49A6
:109F70004860FEF711F9064609E0FEF70DF9801B6F
:109F800041F28831884202D9032092E707E0254850
:109F9000406800F00C006168B0EB810FEDD1204803
:109FA000006800F00700A8420ED91D48006820F0A4
:109FB000070028431A4908600846006800F00700B7
:109FC000A84201D0012074E7207800F004000428A2
:109FD00007D11448406820F4E060E1680843114963
:109FE0004860207800F00800082808D10D48406833
:109FF00020F46050216940EAC1000A49486000F03D
:10A0000045F808494968C1F30311074A515CC84043
:10A010000649086006480068FEF758FE002048E739
:10A02000002002400010024098240108480100204E
:10A030003001002001200149C864704700004242FD
:10A0400001480068704700004801002000B5FFF794
:10A05000F7FF04494968C1F30221034A515CC84033
:10A0600000BD000000100240A824010800B5FFF761
:10A07000E7FF04494968C1F3C221034A515CC84063
:10A0800000BD000000100240A8240108F0B585B012
:10A090000FF26C0C9CE8E01001A8A0E8E0101CA5F1
:10A0A0002D68009500210022002300240020194D76
:10A0B000696801F00C05F5B1042D02D0082D19D105
:10A0C00001E0154819E001ADC1F38346AC5D01F430
:10A0D000803555B10F4D6D68C5F340451DF805201D
:10A0E0000D4D6543B5FBF2F302E00C4D04FB05F3A7
:10A0F000184602E000BF084800BF00BF05B0F0BD31
:10A1000002030405060708090A0B0C0D0E0F1010B8
:10A11000010200000010024000127A0000093D0018
:10A1200010B50648806800F08000802804D1FFF751
:10A13000B9FE80200149887210BD00000010024065
:10A14000F8B504460CB90120F8BD207800F00100F4
:10A15000002878D0F848406800F00C0004280CD0A3
:10A16000F548406800F00C00082811D1F24840681A
:10A1700000F48030B0F5803F0AD1EF48006800F469
:10A18000003000285FD0606800285CD10120DBE748
:10A1900000BF6068B0F5803F06D1E748006840F432
:10A1A0008030E549086028E0606858B9E2480068F6
:10A1B00020F48030E04908600846006820F48020E0
:10A1C00008601AE06068B0F5A02F0BD1DA4800688B
:10A1D00040F48020D84908600846006840F4803088
:10A1E00008600AE0D448006820F48030D249086052
:10A1F0000846006820F48020086000BF606888B1CD
:10A20000FDF7CAFF054606E0FDF7C6FF401B6428C0
:10A2100001D9032098E7C848006800F400300028FE
:10A22000F2D010E0FDF7B8FF054606E0FDF7B4FFF9
:10A23000401B642801D9032086E7BF48006800F46A
:10A2400000300028F2D1207800F00200022857D117
:10A25000B948406800F00C0050B1B748406800F0C1
:10A260000C00082818D1B448406800F4803098B930
:10A27000B148006800F0020020B12069012801D037
:10A28000012061E7AC48006820F0F800616940EA0D
:10A29000C100A949086033E02069E8B10120A7495D
:10A2A0000860FDF779FF054606E0FDF775FF401BE6
:10A2B000022801D9032047E79F48006800F0020008
:10A2C0000028F2D09C48006820F0F800616940EA5C
:10A2D000C1009949086013E0002098490860FDF723
:10A2E0005BFF054606E0FDF757FF401B022801D93A
:10A2F000032029E79048006800F002000028F2D10E
:10A30000207800F0080008282DD1A069B8B10120FC
:10A310008B490860FDF740FF054606E0FDF73CFF6E
:10A32000401B022801D903200EE78348406A00F051
:10A3300002000028F2D0012002F0ECFB13E0002024
:10A340007F490860FDF728FF054606E0FDF724FF7A
:10A35000401B022801D90320F6E67748406A00F046
:10A3600002000028F2D1207800F00400042873D104
:10A3700000277148C06900F0805070B900BF6E4876
:10A38000C06940F080506C49C8610846C06900F05F
:10A390008050009000BF00BF01276A48006800F4A9
:10A3A0008070B0B96748006840F480706549086003
:10A3B000FDF7F2FE054606E0FDF7EEFE401B6428C1
:10A3C00001D90320C0E65F48006800F480700028CF
:10A3D000F2D000BFE068012806D15748006A40F07B
:10A3E00001005549086227E0E06858B95248006A00
:10A3F00020F00100504908620846006A20F004007D
:10A40000086219E0E06805280BD14B48006A40F06B
:10A410000400494908620846006A40F001000862E9
:10A420000AE04548006A20F00100434908620846F6
:10A43000006A20F00400086200BFE068A0B1FDF7E8
:10A44000ABFE054609E0FDF7A7FE401B41F288314F
:10A45000884202D9032077E622E03748006A00F0FC
:10A4600002000028EFD012E0FDF796FE054608E056
:10A47000FDF792FE401B41F28831884201D903204A
:10A4800062E62D48006A00F002000028F0D1012F9A
:10A4900005D12948C06920F080502749C86100BF14
:10A4A000E069C8B32448406800F00C00082860D078
:10A4B000E069022848D1002020490866FDF76CFEBB
:10A4C000054606E0FDF768FE401B022801D903207F
:10A4D0003AE61948006800F000700028F2D1206ABE
:10A4E000B0F5803F07D11448406820F40030A168DF
:10A4F000084311494860D4E9080108430E494968F6
:10A5000021F4741108430C49486001200B49086686
:10A51000FDF742FE054607E03DE0FDF73DFE401B2E
:10A52000022801D903200FE60348006800F00070FC
:10A530000028F2D02FE0000000100240000042424C
:10A540008004424200700040002014490866FDF774
:10A5500023FE054606E0FDF71FFE401B022801D939
:10A560000320F1E50E48006800F000700028F2D1E9
:10A5700011E0E069012800D1E6E50948466806F4E3
:10A580008031206A814204D106F47011606A8142F0
:10A5900001D00120D8E50020D6E5000000004242AD
:10A5A000001002402DE9F04780460E4692460025F5
:10A5B00000270024A146404602F005FB81462548BD
:10A5C000B9FBF0F424480068A04240D0224804605F
:10A5D00040F2B2750EE0284606F004FB012806D1D1
:10A5E000B4F5B77F02D3A4F5B77402E005E0A4F296
:10A5F0006D146D1CB4F5B67FEDD800BF2F46A5F5E0
:10A60000FA60F070002515E0012D09D1384606F0FA
:10A61000E9FA012804D11D2C01D31D3C09E00BE00F
:10A620000E48405DA04203D80C48405D241A00E06B
:10A6300002E06D1C1C2CE7D200BF681C7070601C0F
:10A64000B070B2787178F07802F0D7FA30700020EC
:10A65000BDE8F08780510100440100208C240108EE
:10A660002DE9F04707460C4691460026B0460025E6
:10A6700038684068C0F3800010B10120BDE8F08761
:10A68000384602F0A0FA06464FF46160B6FBF0F5DA
:10A69000B6FBF0F100FB11603C21B0FBF1F0607003
:10A6A0004FF46160B6FBF0F100FB11603C21B0FBA0
:10A6B000F1F201FB1200A0701820B5FBF0F100FBD5
:10A6C00011502070182D08D31820B5FBF0F8B5FBF9
:10A6D000F0F100FB1150207000E025700020CDE764
:10A6E00070B5044600250CB9012070BD607C20B90E
:10A6F00000202074204600F05BF8022060742046A1
:10A7000000F085F918B1042060740120EDE72046BF
:10A7100002F01FFA18B1042060740120E5E72068F8
:10A72000406820F0070021684860A06828B11F48F1
:10A73000006820F001001D4908601C48001F0068E7
:10A7400020F46070A16808431849091F0860606818
:10A75000401C08B1656809E00120FFF77FFA054653
:10A760001DB9042060740120BFE76D1E2068806859
:10A7700020F00F0040EA1540216888602068C0681A
:10A7800065F30F002168C860204602F0FFF918B198
:10A79000042060740120A8E70021E17301216173A6
:10A7A000A1730120607400209FE70000306C00401E
:10A7B00038B504460B492068884212D1FFF748FAA1
:10A7C00000BF0948C06940F000600749C8610846F9
:10A7D000C06900F00060009000BF00BF0120034985
:10A7E000086038BD00280040001002403C0442428E
:10A7F0002DE9F04F87B006460F464FF000090020C4
:10A80000069080460024059004900390824600BF85
:10A8100048A207CA8DE80700304602F0D4F9814605
:10A820004FF46160B9FBF0F006904FF46160B9FB42
:10A83000F0F100FB11903C21B0FBF1F0C0B20490AC
:10A840004FF46160B9FBF0F100FB11903C21B0FBCB
:10A85000F1F201FB1200039018210698B0FBF1F20F
:10A8600001FB12000590F87800F5FA6840F6330015
:10A87000804500D9804640F2B270804500D28046C3
:10A8800040F2B2750AE0284606F0ACF9012802D180
:10A890002B48044401E02B4804446D1C4545F2D389
:10A8A00097F801A0404606F09DF9012804D1BAF1BD
:10A8B000020F01D924480444AAF1010A002507E047
:10A8C0001DF8050040F2A321484304EBC0146D1CA1
:10A8D0005545F5D397F802B0ABF1010040F2A32142
:10A8E000484304EBC0140598C0EB4011C1EB0020B5
:10A8F00004EB00140498C0EB001004EB80040398F0
:10A90000044400BF307C012803D1022007B0BDE819
:10A91000F08F0120307400BF022070742146304651
:10A9200002F0ADF90120707400BF0020307400BF48
:10A9300000BFEBE71F1C1F1E1F1E1F1F1E1F1E1F19
:10A940000085E2018033E101805101002DE9F05FD3
:10A9500004460D46904600260027B146B2462046E2
:10A9600002F031F907464FF46160B7FBF0F9B9F135
:10A97000180F0AD31820B9FBF0FA0AEB4A00C000FE
:10A980004FF4616100FB01F700E0002700BF207C6D
:10A99000012802D10220BDE8F09F0120207400BFF1
:10A9A00002206074B8F1000F0BD128784FF4616178
:10A9B00048436978C1EB011100EB8100A978461882
:10A9C00012E0287802F0BAF84FF4616100FB01FB55
:10A9D000687802F0B3F8C0EB00100BEB800BA8789E
:10A9E00002F0ACF80BEB00063E443146204602F084
:10A9F00046F92068406820F0050021684860012081
:10AA0000607400BF0020207400BF00BFC3E770B5B2
:10AA1000044600250CB9012070BD2068406820F074
:10AA2000080021684860FDF7B7FB054607E0FDF721
:10AA3000B3FB401BB0F57A7F01D90320ECE7206817
:10AA4000406800F008000028F1D00020E4E710B5CD
:10AA500004460CB9012010BD606A38B96068B0F5D1
:10AA6000827F00D105E00021E16102E00021216147
:10AA700061610021A16294F8510028B9002084F896
:10AA80005000204600F042F8022084F8510020686F
:10AA9000006820F0400021680860A08800F48270FF
:10AAA000218901F404410843A18901F400610843AC
:10AAB000217C01F002010843217D01F001010843DE
:10AAC000218B01F400710843217F01F03801084314
:10AAD0002021095D01F080010843218D01F400511E
:10AAE0000843216808600421A06901EA1040216838
:10AAF00048602068C06920F400602168C8610020B7
:10AB00006065012084F851000020A4E710B586B0EC
:10AB10000446002002900390049005901949206893
:10AB200088422DD100BF1848806940F480501649F2
:10AB300088610846806900F48050019000BF00BF22
:10AB400000BF0846806940F00400886108468069BB
:10AB500000F00400019000BF00BFA020029002207E
:10AB600003900320059002A90848FDF777F94020DB
:10AB7000029000200390049002A90448FDF76EF9AA
:10AB800006B010BD00300140001002400008014036
:10AB90002DE9FF5F0446884691461D460E9E012022
:10ABA00002900020019000BF94F85000012803D1CA
:10ABB000022004B0BDE8F09F012084F8500000BFDF
:10ABC000FDF7EAFA074694F851B060680390AA4688
:10ABD000BBF1010F0BD00398B0F5827F04D1A068C0
:10ABE00010B9BBF1040F02D002200190DBE0B8F1F4
:10ABF000000F03D0B9F1000F00D015B9012001906A
:10AC0000D1E094F85100042802D0052084F85100C6
:10AC100000206065C4F83890E587A587C4F83080C7
:10AC2000E586A586206460642068006800F0400026
:10AC3000402805D02068006840F040002168086086
:10AC4000E068B0F5006F4AD1606810B1BAF1010F49
:10AC500009D1206B00882168C860206B801C2063AC
:10AC6000E08E401EE08633E02068806800F002003D
:10AC7000022810D1E08E70B1029801280BD1206B10
:10AC800000882168C860206B801C2063E08E401E15
:10AC9000E086002002902068806800F0010068B122
:10ACA000E08F58B12068C068A16B0880A06B801C41
:10ACB000A063E08F401EE08701200290FDF76CFA50
:10ACC000C01BB04204D3701C10B1032001906AE095
:10ACD000E08E0028C8D1E08F0028C5D14AE0606826
:10ACE00010B1BAF1010F09D1206B00782168087307
:10ACF000206B401C2063E08E401EE08634E020681C
:10AD0000806800F00200022810D1E08E70B1029835
:10AD100001280BD1206B007821680873206B401C40
:10AD20002063E08E401EE08600200290206880684C
:10AD300000F0010068B1E08F58B12068C068A16BD5
:10AD40000870A06B401CA063E08F401EE0870120CC
:10AD50000290FDF721FAC01BB04201D3701C00B96C
:10AD600016B9032001901EE0E08E0028C7D1E08FC5
:10AD70000028C4D13A463146204601F0B3FF20B145
:10AD800001200190202060650DE0A06850B900BF4F
:10AD9000002000902068C0680090206880680090C3
:10ADA00000BF00BF00BF012084F8510000BF002099
:10ADB00084F8500000BF0198FBE670B504462546B4
:10ADC000681EB0F1807F01D301200FE0681E4FF0B4
:10ADD000E02148610F214FF0FF3005F04DFA0020CF
:10ADE0004FF0E021886107200861002070BD7047A6
:10ADF0007047000030B502460B4600BF92F83C0099
:10AE0000012801D1022030BD012082F83C0000BFA2
:10AE1000022082F83D00106844681068816824F0C0
:10AE200070041868044310684460104D1068A8420C
:10AE30000BD01068B0F1804F07D00D4D1068A842BC
:10AE400003D00C4D1068A84205D121F0800158684C
:10AE5000014310688160012082F83D0000BF00209E
:10AE600082F83C0000BF00BFCDE70000002C01408D
:10AE7000000400400008004010B504460CB9012051
:10AE800010BD94F83D0028B9002084F83C0020460D
:10AE900000F026F8022084F83D00211D206802F011
:10AEA000B5F9012084F8460000BF84F83E00012176
:10AEB0003F200155402001554120015500BF00BFF2
:10AEC000012084F8420043200155442001554520CB
:10AED000015500BF012084F83D000020D0E70000AC
:10AEE00038B504461A492068884216D100BF19486F
:10AEF000C06940F002001749C8610846C06900F007
:10AF00000200009000BF00BF002211461D20FDF787
:10AF10003DFF1D20FDF72AFF19E02068B0F1804FAA
:10AF200015D100BF0B48C06940F001000949C86154
:10AF30000846C06900F00100009000BF00BF022277
:10AF400011461C20FDF722FF1C20FDF70FFF38BD26
:10AF50000004004000100240014691F83D00012825
:10AF600001D001207047022081F83D00124B086893
:10AF700098420BD00868B0F1804F07D00F4B08689B
:10AF8000984203D00E4B086898420CD1086880683C
:10AF900000F00702062A0CD00868006840F00100A3
:10AFA0000B68186005E00868006840F001000B6855
:10AFB00018600020D6E70000002C0140000400408B
:10AFC00000080040014691F83D00012801D0012011
:10AFD0007047022081F83D000868C06840F0010019
:10AFE0000B68D860124B086898420BD00868B0F123
:10AFF000804F07D00F4B0868984203D00E4B08686B
:10B0000098420CD10868806800F00702062A0CD02C
:10B010000868006840F001000B68186005E00868E7
:10B02000006840F001000B6818600020D0E70000C5
:10B03000002C014000040040000800402DE9F041D0
:10B0400004460D4600BF94F83C00012802D10220BE
:10B05000BDE8F081012084F83C0000BF022084F8A4
:10B060003D002068866826F0770626F47F46206833
:10B0700086602868502833D00CDC202850D004DCAF
:10B0800000284BD0102851D149E0302849D0402821
:10B090004CD139E060282DD0702807D0B0F5805F02
:10B0A00003D0B0F5005F41D10DE040E0D5E90213D7
:10B0B0006A68206802F0E4F82068866846F077063F
:10B0C0002068866033E0D5E902136A68206802F0E0
:10B0D000D7F82068806840F480402168886026E0C6
:10B0E000EA686968206802F0DFF85021206802F001
:10B0F000D2F81CE0EA686968206802F0E8F860218C
:10B10000206802F0C8F812E0EA686968206802F076
:10B11000CBF84021206802F0BEF808E000BF00BF75
:10B1200000BF2968206802F0B6F800E000BF00BF49
:10B13000012084F83D0000BF002084F83C0000BFDF
:10B1400000BF85E7704710B5044620680069C0F36A
:10B150004000D8B12068C068C0F34000B0B16FF0C3
:10B16000020021680861012020772068806900F0D2
:10B17000030018B12046FFF7E5FF05E0204600F088
:10B18000ADF8204600F0ABF8002020772068006979
:10B19000C0F38000D8B12068C068C0F38000B0B1AF
:10B1A0006FF0040021680861022020772068806920
:10B1B00000F4407018B12046FFF7C4FF05E02046B8
:10B1C00000F08CF8204600F08AF8002020772068F4
:10B1D0000069C0F3C000D8B12068C068C0F3C000E7
:10B1E000B0B16FF008002168086104202077206862
:10B1F000C06900F0030018B12046FFF7A3FF05E087
:10B20000204600F06BF8204600F069F80020207717
:10B2100020680069C0F30010D8B12068C068C0F38E
:10B220000010B0B16FF0100021680861082020778D
:10B230002068C06900F4407018B12046FFF782FF13
:10B2400005E0204600F04AF8204600F048F80020CB
:10B2500020772068006900F0010058B12068C068BC
:10B2600000F0010030B16FF0010021680861204654
:10B2700000F036F820680069C0F3C01058B12068AB
:10B28000C068C0F3C01030B16FF080002168086161
:10B290002046FFF7ACFD20680069C0F3801058B16C
:10B2A0002068C068C0F3801030B16FF040002168A2
:10B2B0000861204600F020F820680069C0F34010C3
:10B2C00058B12068C068C0F3401030B16FF0200062
:10B2D000216808612046FFF78BFD10BD704770475D
