:020000040800F2
:10580000683F002001590008A1B80008A5A30008BE
:105810009DB80008955A00085126010800000000B4
:10582000000000000000000000000000C9F50008B2
:10583000555C00080000000097CF000839F9000807
:105840001B5900081B5900081B5900081B59000868
:105850001B5900081B5900081B5900081B59000858
:105860001B5900081B5900081B5900081B59000848
:105870001B5900081B5900081B5900081B59000838
:105880001B5900081B5900081B5900081B59000828
:10589000992501081B5900081B5900081B590008CD
:1058A0001B5900081B5900081B5900081B59000808
:1058B0001B5900080DFA00081B5900081B59000865
:1058C0001B5900081B5900081B5900081B590008E8
:1058D0001B59000821FE000831FE00081B59000872
:1058E0001B5900081B5900081B590008DFF80CD091
:1058F00000F084F800480047A1390108683F002003
:105900000648804706480047FEE7FEE7FEE7FEE759
:10591000FEE7FEE7FEE7FEE7FEE7FEE7FDF900082B
:10592000ED580008202A04DB203A21FA02F0002179
:10593000704721FA02F3D040C2F12002914008439F
:105940001946704740EA01039B0703D009E008C9E4
:10595000121F08C0042AFAD203E011F8013B00F834
:10596000013B521EF9D27047D2B201E000F8012B80
:10597000491EFBD270470022F6E710B513460A46CF
:1059800004461946FFF7F0FF204610BD421C10F8F0
:10599000011B0029FBD1801A70472DE9F05F0546F5
:1059A000002092469B4688460646814640241BE0DE
:1059B0002846414647462246FFF7B4FF53465A461B
:1059C000C01A914110D311461846224600F028F81B
:1059D0002D1A67EB01084F4622460120002100F0F6
:1059E0001FF817EB00094E41201EA4F10104DFDC73
:1059F000484631462A464346BDE8F09F064C074DCF
:105A000006E0E06840F0010394E80700984710348E
:105A1000AC42F6D3FFF76EFF485D0108685D0108F0
:105A2000202A04DB203A00FA02F10020704791405E
:105A3000C2F1200320FA03F319439040704770B578
:105A40008C1810F8015B15F0070301D110F8013B29
:105A50002A1106D110F8012B03E010F8016B01F8B0
:105A6000016B5B1EF9D12B0705D40023521E0DD408
:105A700001F8013BFAE710F8013BCB1A921C03E056
:105A800013F8015B01F8015B521EF9D5A142D8D38E
:105A9000002070BD00BFFEE7CA78026002681202F3
:105AA00002608B7802681A44026002681202026087
:105AB0004B7802681A4402600268120202600B7896
:105AC00002681A440260704730B50346042B15D0B3
:105AD00007DC7BB1012B0ED0022B0DD0032B30D174
:105AE0000BE0202B0BD0212B18D0222B22D0232BE4
:105AF00027D125E026E025E024E023E022E0002075
:105B000003E00C5C114D2C54401C0728F9DB0020ED
:105B10000F4C207001200F4C207013E0002003E098
:105B20000A4C245C0C54401C0728F9DB0020084C6C
:105B3000207007E006480078401C054C207001E00A
:105B400000E000BF00BF002030BD000024010020A5
:105B5000080000200900002000207047002003E01A
:105B60000021064A1154401CB0F5167FF8D30020DE
:105B70000349088003490880704700002006002080
:105B80000C0000200E00002010B50022044905483A
:105B90000AF0A9FA044903480AF09EFA002010BD51
:105BA000C4150020180D0020DC1100202DE9F04163
:105BB00005460E46144930680860294613480AF025
:105BC0008BFA377812480488002113E0685C114A88
:105BD0001055601C80B24FF4167290FBF2F302FB7A
:105BE000130084B20C480088844202D10220BDE830
:105BF000F081491CB942E9D30548048003480AF002
:105C000047FA0020F3E7000018000020180D0020DC
:105C10000C000020200600200E0000202DE9F0419D
:105C200004460D4600260A48D0F8B872D7F8140288
:105C300010B10120BDE8F0812A46214604480AF04F
:105C400052FA03480AF0D3FA06463046F2E700005B
:105C5000180D00207047000010B5002004490860AE
:105C60000449086009F0C4FC03A00EF005FF10BD54
:105C700000000020040000207B224D656D223A7B4D
:105C800022537461747573223A307D7D0A000000DE
:105C90000146002048608860C861886108624873D6
:105CA0000873086108754875002205E0002301F1BA
:105CB00024008354501CC2B2102AF7DB002205E0F6
:105CC000002301F134008354501CC2B2102AF7DBC8
:105CD000002203E000208854501CC2B2042AF9DBE1
:105CE0000020704772B601E001F04CFDFCE70000B7
:105CF0000021074AD1610749096941F00401054AB9
:105D000011611146096941F04001116170470000BD
:105D1000B81E0020002002400021074AD161074937
:105D2000096941F00201054A11611146486109699A
:105D300041F0400111617047B81E00200020024070
:105D40000022054BDA61054A126942F00102034B59
:105D50001A61018070470000B81E00200020024038
:105D600000201E49C96801F0100139B11C49C969F8
:105D700041F002011A4AD16140F010001749C96888
:105D800001F0040139B11649C96941F00101144A11
:105D9000D16140F004001149C96901F0010169B104
:105DA0000F49C96941F004010D4AD16100BF0B4997
:105DB000C96921F00101094AD16100BF00BF40F269
:105DC0000111884206D10549C96921F00101034A40
:105DD000D16101E00149C86000BF70470020024066
:105DE000B81E002010B509F09BF8002009F0B6F8A5
:105DF000642000F09FFD10BD70B5044601F028F846
:105E0000054609E0601C38B124B101F021F8401BBF
:105E1000A04201D9032070BD1248C06800F0010003
:105E20000028EFD10F48C06800F0200020B100BF6B
:105E300020200C49C86000BF0A48C06800F010006C
:105E400048B90848C06900F0010020B90548C06899
:105E500000F0040018B1FFF783FF0120DBE700200A
:105E6000D9E700000020024070B59AB009480468E4
:105E70000848103005680748203006682B4622463F
:105E800005A101A800960CF025FF01A80EF0F4FD75
:105E90001AB070BDE8F7FF1F7B22435055494422DA
:105EA0003A7B225831223A25382E38582C22583243
:105EB000223A25382E38582C225833223A25382EAB
:105EC00038587D7D0A0000002DE9F04F8BB0064662
:105ED0004FF0000B00203060DD480078012811D021
:105EE000022802D0032827D119E00520D9490870DB
:105EF0001520D94908703720D84908702020D84982
:105F0000087026E00420D34908701020D249087098
:105F10003920D24908700020D149087019E00520C5
:105F2000CC4908701520CC4908703720CB4908703F
:105F30004020CB4908700CE00520C64908701420A9
:105F4000C54908703720C54908700020C449087049
:105F500000BF00BF09A804F095FD38B109A804F0FE
:105F600091FD18B101200BB0BDE8F08F002405E0D1
:105F700009A8005DBB490855601CC4B2042CF7DBBE
:105F80001021002004F084FC08B10120EBE701A9F6
:105F9000012004F00FFD08B10120E4E79DF80500A1
:105FA000B0498860084680680002886008468068BA
:105FB0009DF804100844AB4988609DF809004860CA
:105FC0000846406800024860084640689DF808108E
:105FD0000844A449486008464068000248600846F2
:105FE00040689DF8071008449E494860084640688C
:105FF00000024860084640689DF806100844994928
:1060000048600846008900F40040B0F5004F12D106
:1060100008460089C0F30E0088600846806846F68E
:10602000292148408F498860084640684BF2A621E4
:1060300048408C4948608B4840688B4908608748D5
:1060400001788448007804F023FC08B10A208AE72C
:1060500001A98148007804F0ADFC08B1142082E762
:10606000002406E001A8015D7E4824300155601C33
:10607000C4B2102CF6DB4FF0010A00240BE001A89B
:10608000015D01AA04F10800105C814201D04FF0CB
:10609000000A601CC4B2042CF1DB00240BE001A94F
:1060A000201D085C095D81F0FF01884201D04FF09E
:1060B000000A601CC4B2042CF1DB9DF8100050B93A
:1060C0009DF81100FF2806D19DF8120018B99DF81F
:1060D0001300FF2801D04FF0000ABAF1000F3AD0A8
:1060E0009DF807005F49C8610846C0690002C861A1
:1060F0000846C0699DF8061008445A49C861084618
:10610000C0690002C8610846C0699DF805100844CE
:106110005449C8610846C0690002C8610846C069A0
:106120009DF8041008444F49C8611421062004F06A
:10613000AFFB08B10C2016E76946182004F046FCB6
:1061400008B10D200FE74749009808730846C06959
:106150003060002007E74FF04B08002406E041487C
:106160002430005D80EA0808601CC4B20F2CF6DB06
:106170003C4890F83300404501D00320F3E639480D
:1061800090F827003749C8610846C0690002C86115
:106190000846C16990F8260008443249C86108469B
:1061A000C0690002C8610846C16990F8250008442A
:1061B0002C49C8610846C0690002C8610846C06928
:1061C00091F8241008442749C861084690F82D70BA
:1061D0003F0290F82C000744084690F82B502D02FF
:1061E00090F82A0005442D02084690F8290005443D
:1061F0002D02084690F828000544084690F82E9095
:10620000B9F1010F03D0B9F1020F12D108E005EB8B
:10621000070B1448C069584501D00520A3E60AE0E1
:10622000A5EB070B0F48C069584501D006209AE638
:1062300001E0072097E600BF0A4890F82F0000F021
:106240001F00084908730846C069306000208AE6CC
:1062500085020020810200208202002083020020AB
:1062600084020020581F0020880200202DE9F04FF2
:106270008DB007468946002500203860C9F8000027
:10628000FB480078012811D0022802D0032827D12A
:1062900019E00520F74908701520F74908703720E4
:1062A000F64908702020F649087026E00420F149DC
:1062B00008701020F04908703920F049087000205B
:1062C000EF49087019E00520EA4908701520EA49ED
:1062D00008703720E94908704020E94908700CE04F
:1062E0000520E44908701420E34908703720E34989
:1062F00008700020E249087000BF00BF0BA804F03E
:10630000C1FB38B10BA804F0BDFB18B101200DB0E2
:10631000BDE8F08F002405E00BA8005DD9490855C1
:10632000601CC4B2042CF7DB1021002004F0B0FA8A
:1063300008B10120EBE703A9012004F03BFB08B101
:106340000120E4E79DF80D00CE498860084680688A
:1063500000028860084680689DF80C100844C9490E
:1063600088609DF811004860084640680002486057
:10637000084640689DF810100844C2494860084625
:10638000406800024860084640689DF80F100844C5
:10639000BC494860084640680002486008464068BA
:1063A0009DF80E100844B74948600846008900F47B
:1063B0000040B0F5004F12D108460089C0F30E002E
:1063C00088600846806846F629214840AD498860C3
:1063D000084640684BF2A6214840AA494860A948AF
:1063E0004068A9490860A5480178A248007804F0EF
:1063F0004FFA08B10A208AE79D480078012835D174
:1064000003A9122004F0D6FA08B114207FE79DF802
:106410001000AB2812D19DF81100CD280ED19DF8A7
:106420000F502D029DF80E0005442D029DF80D0021
:1064300005442D029DF80C00054400E000259DF860
:106440000C00FF280CD19DF80D00FF2808D19DF805
:106450000E00FF2804D19DF80F00FF2800D1002571
:106460008A48854200D10025C9F8005003A9824816
:10647000007804F09FFA08B1142048E7002406E0F1
:1064800003A8015D7F4824300155601CC4B2102C64
:10649000F6DB0120029000240BE003A8015D03AAB3
:1064A00004F10800105C814201D000200290601CC1
:1064B000C4B2042CF1DB00240BE003A9201D085C0E
:1064C000095D81F0FF01884201D000200290601C2C
:1064D000C4B2042CF1DB9DF8180050B99DF81900E6
:1064E000FF2806D19DF81A0018B99DF81B00FF2857
:1064F00001D000200290029890B39DF80F006149EE
:10650000C8610846C0690002C8610846C0699DF8B4
:106510000E1008445B49C8610846C0690002C861A2
:106520000846C0699DF80D1008445649C8610846E0
:10653000C0690002C8610846C0699DF80C10084493
:106540005049C8611421062004F0A2F908B10C20BA
:10655000DDE601A9182004F039FA10B10D20D6E6C5
:1065600007E04849019808730846C0693860002070
:10657000CDE64FF04B0A002406E042482430005D8F
:1065800080EA0A0A601CC4B20F2CF6DB3D4890F882
:106590003300504501D00320B9E63A4890F827006F
:1065A0003849C8610846C0690002C8610846C16927
:1065B00090F8260008443349C8610846C0690002C3
:1065C000C8610846C16990F8250008442D49C86192
:1065D0000846C0690002C8610846C06991F82410E5
:1065E00008442849C861084690F82D804FEA0828D9
:1065F00090F82C008044084690F82B60360290F802
:106600002A0006443602084690F82900064436025D
:10661000084690F828000644084690F82EB0BBF1D2
:10662000010F03D0BBF1020F12D108E006EB080501
:106630001448C069A84201D0052068E60AE0A6EB2C
:1066400008051048C069A84201D006205FE601E0B5
:1066500007205CE600BF0B4890F82F0000F01F00F9
:10666000084908730846C069386000204FE60000FA
:106670008502002081020020820200208302002087
:1066800084020020581F00208802002017FCFF0011
:1066900001460E2924D2DFE801F007090B0D0F1186
:1066A000131517191B1D1F21192070471A20FCE70D
:1066B0001C20FAE71D20F8E71E20F6E72020F4E76B
:1066C0002120F2E72220F0E72420EEE72520ECE766
:1066D0002620EAE72820E8E72920E6E72A20E4E761
:1066E0000020E2E701460E2924D2DFE801F0070985
:1066F0000B0D0F11131517191B1D1F2119207047A2
:106700001A20FCE71C20FAE71D20F8E71E20F6E718
:106710002020F4E72120F2E72220F0E72420EEE712
:106720002520ECE72620EAE72820E8E72920E6E70D
:106730002A20E4E70020E2E72DE9F04105460026A3
:1067400000F086FB0746052000F0F4F828480078A2
:10675000022812D12648407854280ED12448807847
:1067600048280AD12248C078452806D100211E2099
:1067700008F0A0FF6420BDE8F0811E4800880828CA
:106780000CD01B480078022806D11A480088401E09
:106790001749085C032801D00320ECE700260124F8
:1067A00003E01348005D4640641C12480088801EC8
:1067B000A042F6D80F480088801E0D49085CB04200
:1067C00001D00420D7E70A48C178007901EB002006
:1067D000A84201D00620CEE706480088072805D148
:1067E00000211E2008F066FF6420C4E70020C2E7F5
:1067F000200600200C00002070B50A480468001D27
:106800000568001D0668344454B108220649204634
:1068100004F0DBFD042204491031284604F0D5FDC4
:1068200070BD0000E8F7FF1F0A01002001460022AA
:1068300091F82100022808D00420886300BF0020BE
:1068400081F8200000BF012070470868006820F030
:106850000E000B6818600868006820F001000B68E3
:10686000186091F8403001209840CB6B58600120AF
:1068700081F8210000BF002081F8200000BF1046F1
:10688000E2E7000070B50446002594F821000228D4
:1068900003D00420A063012548E02068006820F0B0
:1068A0000E00216808602068006820F0010021685F
:1068B00008601F492068884201D1012026E01C4958
:1068C00014312068884201D110201FE01849283176
:1068D0002068884201D1801518E015493C312068B4
:1068E000884201D1801411E011495031206888425A
:1068F00002D14FF4803009E00D49643120688842AC
:1069000002D14FF4801001E04FF08070084908393F
:106910004860012084F8210000BF002084F8200096
:1069200000BF606B10B12046616B8847284670BD80
:106930000800024070B5044600F08AFA0646254673
:10694000681C10B104480078054400BF00F080FACC
:10695000801BA842FAD370BD440100202DE9F0410C
:1069600004460E460127002500BF2648007E012868
:1069700002D10220BDE8F08101202249087600BF43
:106980002068022813D14CF25030FFF735FA90BB43
:106990000120FFF7ADF94CF25030FFF72DFA074612
:1069A0001948006920F004001749086123E04CF2FF
:1069B0005030FFF721FAF0B94FF0FF303060A56892
:1069C00012E02846FFF7A8F94CF25030FFF714FA0E
:1069D00007460D48006920F002000B4908610FB11D
:1069E000356007E005F58065D4E9021001EB8020F1
:1069F000A842E6D800BF00BF00200249087600BFC9
:106A00003846B7E7B81E002000200240034800695E
:106A100040F08000014908610020704700200240DA
:106A20002DE9FE4F05468B46174698460126002461
:106A30000020029000BF2448007E012802D10220DD
:106A4000BDE8FE8F01202049087600BF4CF250308F
:106A5000FFF7D2F9064686BB012D02D10120029034
:106A600006E0022D02D10220029001E004200290F3
:106A700000241EE02201B946C24648465146FEF7B0
:106A800051FF80B20190022000FB04B000900199F8
:106A9000FFF756F94CF25030FFF7AEF906460B48B7
:106AA000006920F001000949086106B104E0601C9A
:106AB000C4B202988442DDDB00BF00BF002002495F
:106AC000087600BF3046BBE7B81E00200020024019
:106AD00000200849096901F0800151B10649054AC1
:106AE0005160064951601146096901F0800101B108
:106AF000012070470020024023016745AB89EFCD9C
:106B00002DE9F8470346002294466EE14FF0010854
:106B100008FA02F4D1F8008008EA0400A0427DD10E
:106B2000DFF8DCA2D1F80480A8EB0A09D0453AD0FE
:106B300014DCB8F1030F50D009DCB8F1000F31D0EC
:106B4000B8F1010F1CD0B8F1020F49D120E0B8F123
:106B5000110F18D0B8F1120F42D11EE0B9F5881FFD
:106B600025D006DCB9F5803F20D0B9F5801F37D19C
:106B70001AE0B9F5001F18D0B9F5041F30D117E09D
:106B8000D1F80CC02DE0D1F80C8008F1040C28E0FD
:106B9000D1F80C8008F1080C23E0D1F80C8008F142
:106BA0000C0C1EE000BF00BF00BF00BF00BF00BF55
:106BB000D1F80880B8F1000F02D14FF0040C0BE0BF
:106BC000D1F80880B8F1010F03D14FF0080C1C6117
:106BD00002E04FF0080C5C6103E04FF0000C00E0B5
:106BE00000BF00BFFF2801D8984601E003F1040868
:106BF0004646FF2802D84FEA820803E0A2F10808BF
:106C00004FEA88084746D6F800804FF00F0909FA86
:106C100007F928EA09080CFA07F900E088E048EAD1
:106C20000908C6F80080D1F8048008F08058B8F14F
:106C3000805F7DD100BFDFF8CC81D8F8188048F0A4
:106C40000108DFF8C091C9F81880C846D8F8188044
:106C500008F00108CDF8008000BF00BF4FEAB93846
:106C60004FEA920958F829504FEA82784FEA18798A
:106C70004FF00F0808FA09F825EA0805DFF88881BF
:106C8000434502D14FF0000816E0DFF8808143450C
:106C900002D14FF001080FE0DFF87481434502D1C3
:106CA0004FF0020808E0DFF86C81434502D14FF055
:106CB000030801E04FF004084FEA82794FEA19799E
:106CC00008FA09F848EA0505DFF84C814FEA92090D
:106CD00048F82950D1F8048008F48038B8F5803F8E
:106CE0000AD1DFF83881D8F8008048EA0008DFF8D8
:106CF0002C91C9F8008009E0DFF82081D8F80080E5
:106D000028EA0008DFF81491C9F80080D1F804805F
:106D100008F40038B8F5003F10D1DFF8008108F121
:106D20000408D8F8008048EA0008DFF8F09000E096
:106D30005AE009F10409C9F800800DE0DFF8DC80B1
:106D400008F10408D8F8008028EA0008DFF8CC90A1
:106D500009F10409C9F80080D1F8048008F480180A
:106D6000B8F5801F0ED1DFF8B48008F10808D8F814
:106D7000008048EA0008DFF8A49009F10809C9F882
:106D800000800DE0DFF8948008F10808D8F8008052
:106D900028EA0008DFF8849009F10809C9F80080A2
:106DA000D1F8048008F40018B8F5001F0ED1DFF800
:106DB0006C8008F10C08D8F8008048EA0008DFF879
:106DC0005C9009F10C09C9F800800DE0DFF84C80F7
:106DD00008F10C08D8F8008028EA0008DFF83C9099
:106DE00009F10C09C9F80080521CD1F8008028FA7A
:106DF00002F8B8F1000F7FF489AEBDE8F887000013
:106E0000000011100010024000080140000C014079
:106E1000001001400014014008000140000401403E
:106E2000024693680B400BB1012000E00020704740
:106E300010B5C26821EA020302EA010443EA0443EE
:106E4000036110BD0AB1016101E00B0403617047E9
:106E500001480068704700003C01002070B50446FE
:106E60000CB9012070BD94F83D0028B9002084F8C9
:106E70003C00204600F03EFB242084F83D002068C2
:106E8000006820F00100216808602068006840F474
:106E90000040216808602068006820F400402168F4
:106EA000086001F09FFD05465C496068884206D88D
:106EB0005B48854201D2012007E0002005E05948E7
:106EC000854201D2012000E00020012800D1C9E75D
:106ED0005548B5FBF0F62068406820F03F0030438D
:106EE000216848604D496068884201D8701C07E0FD
:106EF0004FF4967070434FF47A71B0FBF1F0401C80
:106F00002168096A21F03F0108432168086243496A
:106F10006068884214D8681E61684900B0FBF1F0CF
:106F2000401CC0F30B00042801D204203DE0681E81
:106F300061684900B0FBF1F0401CC0F30B0034E085
:106F4000A06838B9681E616801EB4101B0FBF1F03F
:106F5000401C0AE0681E616801EBC10202EB0111EE
:106F6000B0FBF1F0401C40F48040C0F30B0008B9C6
:106F700001201AE0A06848B9681E616801EB410170
:106F8000B0FBF1F0401CC0F30B000CE0681E616820
:106F900001EBC10202EB0111B0FBF1F0401CC0F3A8
:106FA0000B0040F4804040F400402168C9694CF671
:106FB000FF72914308432168C861D4E9070108437F
:106FC0002168096821F0C001084321680860D4E9FC
:106FD000031008432168896848F2FF32914308434F
:106FE00021688860D4E9050108432168C96821F057
:106FF000FF0108432168C8602068006840F0010074
:107000002168086000202064202084F83D000020D2
:10701000206384F83E0000BF24E70000A086010042
:1070200080841E0000093D0040420F002DE9FC470E
:1070300004468946174698460A9E00200190FFF7AD
:1070400007FF054694F83D0020286FD1192301223F
:10705000C8492046009503F003FB10B10220BDE8AB
:10706000FC8700BF94F83C00012801D10220F6E71C
:10707000012084F83C0000BF2068006800F0010097
:1070800028B92068006840F0010021680860206885
:10709000006820F4006021680860222084F83D0028
:1070A000102084F83E00002020646762A4F82A8043
:1070B000608D2085B048E0622B4632464946204626
:1070C00003F0A4F908B10120C9E7208D88B900BFF9
:1070D000002000902068406900902068806900903E
:1070E00000BF00BF2068006840F40070216808609D
:1070F0004BE0208D01281AD12068006820F48060C0
:107100002168086072B600BF0020009020684069C6
:10711000009020688069009000BF00BF2068006870
:1071200040F400702168086062B62EE020E1208DF6
:10713000022819D12068006840F4006021680860C6
:1071400072B600BF0020009020684069009020685F
:107150008069009000BF00BF2068006820F4806054
:107160002168086062B610E02068006840F4806022
:107170002168086000BF00200090206840690090EE
:1071800020688069009000BF00BFE2E0208D0328E6
:107190007ED8208D012815D12A463146204603F09D
:1071A00009FB08B101205AE720680069616A08708C
:1071B000606A401C6062208D401E2085608D401EEC
:1071C0006085C6E0208D02282CD1334600226B4911
:1071D0002046009503F044FA08B101203FE772B65B
:1071E0002068006840F40070216808602068006929
:1071F000616A0870606A401C6062208D401E2085B4
:10720000608D401E608562B620680069616A087002
:10721000606A401C6062208D401E2085608D401E8B
:10722000608596E03346002254492046009503F0DD
:1072300017FA08B1012012E72068006820F4806086
:107240002168086072B620680069616A0870606A27
:10725000401C6062208D401E2085608D401E608530
:10726000474800681921B0FBF1F04FF47A71B0FB88
:10727000F1F0C0EBC00000EB8000019000BF01986E
:10728000401E01900198A8B900202063202000E052
:1072900038E084F83D00002084F83E00206C40F087
:1072A0002000206462B600BF002084F83C0000BFCC
:1072B0000120D4E620684069C0F380000028DED0B9
:1072C0002068006840F40070216808602068006948
:1072D000616A0870606A401C6062208D401E2085D3
:1072E000608D401E608562B620680069616A087022
:1072F000606A401C6062208D401E2085608D401EAB
:10730000608526E02A463146204603F053FA08B14C
:107310000120A4E620680069616A0870606A401C68
:107320006062208D401E2085608D401E6085206833
:107330004069C0F3800060B120680069616A08702C
:10734000606A401C6062208D401E2085608D401E5A
:107350006085208D00287FF419AF202084F83D003F
:10736000002084F83E0000BF84F83C0000BF76E6B1
:10737000022074E6020010000000FFFF040001007C
:10738000580100202DE9F8430446894616461F4659
:10739000DDF82080FFF75CFD054694F83D002028CD
:1073A0007ED11923012251492046009503F058F956
:1073B00010B10220BDE8F88300BF94F83C0001281A
:1073C00001D10220F6E7012084F83C0000BF2068CC
:1073D000006800F0010028B92068006840F0010052
:1073E000216808602068006820F400602168086057
:1073F000212084F83D00102084F83E000020206405
:1074000066626785608D20853948E0622B4642467A
:107410004946204603F096F808B10120CAE700BFAC
:1074200000200090206840690090206880690090EA
:1074300000BF00BF44E02A464146204603F0FAF967
:1074400050B1206C042805D12068006840F4007019
:10745000216808600120ADE7606A00782168086152
:10746000606A401C6062608D401E6085208D401EF9
:10747000208520684069C0F3800070B1208D60B124
:10748000606A007821680861606A401C6062608DF3
:10749000401E6085208D401E20852A46414600E022
:1074A00022E0204603F0AEF850B1206C042805D14C
:1074B0002068006840F4007021680860012079E7C6
:1074C000208D0028B7D12068006840F40070216842
:1074D0000860202084F83D00002084F83E0000BFB2
:1074E00084F83C0000BF65E7022063E7020010005B
:1074F0000000FFFF10B586B0044600200290039004
:10750000049005901A49206888422FD100BF19487D
:10751000806940F00800174988610846806900F0DA
:107520000800019000BF00BF4FF44070029012208D
:1075300003900320059002A90F48FFF7E1FA00BF6E
:107540000E49486840F0E06040F00200486000BF2B
:1075500000BF0848C06940F400100649C8610846E9
:10756000C06900F40010019000BF00BF06B010BD5C
:107570000054004000100240000C01400000014097
:1075800070B504460CB9012070BD4CF6CC402168A2
:10759000086045F2555021680860D4E90010486041
:1075A0002168A0688860FFF753FC05460BE0FFF7F1
:1075B0004FFC401B272806D92068C06800F0030054
:1075C00008B10320E0E72068C06800F0030000284D
:1075D000EDD14AF6AA20216808600020D4E7000017
:1075E0000348006803490978084401490860704766
:1075F0003C0100204401002010B50848006840F01C
:10760000100006490860032000F0A8F8002000F0F0
:1076100007F800F02BF8002010BD00000020024009
:1076200070B504460E4800784FF47A71B1FBF0F063
:107630000C490968B1FBF0F5284602F099F908B148
:10764000012070BD102C07D200222146501E00F0F0
:1076500047F80548046001E00120F2E70020F0E768
:1076600044010020580100204001002008B500BF5F
:107670001148806940F001000F498861084680691F
:1076800000F00100009000BF00BF00BF0846C069C5
:1076900040F08050C8610846C06900F080500090FA
:1076A00000BF00BF00BF0549486820F0E06040F01F
:1076B0000070486000BF08BD00100240000001409B
:1076C00001460846002809DB00F01F0301229A400A
:1076D00043099B0003F1E023C3F8002100BF70477A
:1076E0002DE9F05F80460D46164600270BF006FB9D
:1076F000074639462A46334601F00700C0F1070A1B
:10770000BAF1040F02D94FF0040A01E0C0F1070AF0
:10771000D14600F1040ABAF1070F02D24FF0000A75
:1077200001E0A0F1030AD4464FF0010A0AFA09FA6F
:10773000AAF1010A0AEA020A0AFA0CFA4FF0010B4E
:107740000BFA0CFBABF1010B0BEA030B4AEA0B043F
:10775000214640460BF0DAFABDE8F09F00BF00F08A
:107760000702064B19684FF6FF031940044B0B4301
:1077700043EA0221014B196000BF70470CED00E0A5
:107780000000FA0500BF00BF00BF00BF00BFBFF38D
:107790004F8F00BF00BF00BF0948006800F4E060E1
:1077A00008490843001D0649086000BF00BF00BF2C
:1077B000BFF34F8F00BF00BF00BF00BF00BFFDE79A
:1077C0000CED00E00000FA0570B505460C4604F02B
:1077D0008000802808D104F0070000EB800605F146
:1077E000280000EBC60105E004EB840605F5B47043
:1077F00000EBC6011AB900200873CB8004E0012019
:1078000008730B81180C4881002070BD704770B55B
:1078100004460D4605EB850304F1280101EBC30185
:107820004A692946D4F8E80208F0E8FF70BD70B54F
:1078300004460D4605EB850304F5B47101EBC30165
:107840004A692946D4F8E80209F058F870BD70B5C5
:1078500004460E4606F0800080280AD106F0070094
:1078600000EB800104F1280000EBC10501206870E5
:1078700009E006F0070000EB800104F5B47000EBAE
:10788000C1050020687006F00700287000BF94F85A
:10789000A802012801D1022070BD012084F8A802AD
:1078A00000BF2946206809F0B1FE00BF002084F81F
:1078B000A80200BF00BFEFE770B504460E4606F011
:1078C0000F006168884201D9012070BD06F0800078
:1078D00080280AD106F0070000EB800104F128009F
:1078E00000EBC1050120687009E006F0070000EB1D
:1078F000800104F5B47000EBC10500206870002021
:10790000A87006F00700287000BF94F8A8020128AC
:1079100001D10220D9E7012084F8A80200BF29463E
:10792000206809F0CFFF00BF002084F8A80200BF44
:1079300000BFCAE72DE9F04105460C46174607F49B
:107940008040002850D02868B0F85010207801EB13
:10795000C000801C296801F5806131F81000C0F377
:107960000906A069B04203D3A069801BA06101E0B1
:107970000020A061A069A8B900BF22785200296840
:1079800031F812104BF68F7201EA020080F40050B9
:1079900040F4004141F0800123785B002A6822F81E
:1079A000131000BF07F04000A8B100BF00BF22784D
:1079B0005200296831F8121048F68F7201EA02006D
:1079C00040F4004141F0C00123785B002A6822F8AE
:1079D000131000BF00BF002E55D0228961693346C5
:1079E00028680AF0E5FD4EE02868B0F850102078CD
:1079F00001EBC000801D296801F5806131F810009D
:107A0000C0F30906A069B04203D3A069801BA0613E
:107A100001E00020A061A069A8B900BF227852004F
:107A2000296831F812104BF68F7201EA020080F4D7
:107A3000005040F4004141F0800123785B002A6847
:107A400022F8131000BF07F04000A8B900BF00BF24
:107A500022785200296831F8121048F68F7201EA34
:107A6000020040F4004141F0C00123785B002A6825
:107A700022F8131000BF00BF2EB16289616933463E
:107A800028680AF095FD3046BDE8F0812DE9F04701
:107A900005460C46904608F04000002871D0286842
:107AA000B0F85010207801EBC000801C296801F567
:107AB000806131F81000C0F30907A069B84203D90A
:107AC000A069C01BA06101E00020A061A06900289E
:107AD0007ED100BF6078C8B900BF29682A68B2F8B3
:107AE000502011442278022303EBC20201F5806387
:107AF00003EB420000BF028848F2FF331A400280C5
:107B0000028842F40042028000BF13E0607801283E
:107B100010D100BF28682A68B2F85020104422789B
:107B2000022303EBC20200F5806303EB4201002253
:107B30000A8000BF00BF00BF2968607810BB00BF8B
:107B40002B68D5F800C0BCF850C0634494F800C05E
:107B50004FF0060909EBCC0C03F5806909EB4C00EA
:107B600000BFB0F800C048F2FF390CEA090CA0F8D9
:107B700000C0B0F800C04CF4004CA0F800C000BF3A
:107B800011E0C0E0607801280DD12868B0F85000FD
:107B900001442078062303EBC00001F5806303EB6A
:107BA00040020020108000BF21782846FFF72FFEFA
:107BB00008F48040002816D000BF00BF2278520091
:107BC000296831F8121048F68F7201EA020000E0CD
:107BD0000AE040F4004141F4814123785B002A68C7
:107BE00022F8131000BFCAE108F48040A8B100BF1A
:107BF00000BF22785200296831F8121048F68F72BF
:107C000001EA020040F4004141F4814223785B0024
:107C1000296821F8132000BF00BF94F82400012830
:107C2000E1D1606938446061E0693844E06121690C
:107C3000206A884204D32669206A801B20620BE0F8
:107C4000206A20B93E46002084F8240004E0002089
:107C500084F82400266A206200BF6078B8BB00BFA9
:107C60002A682968B1F850100A442178022303EBEE
:107C7000C10102F5806303EB4101084600BF56B91C
:107C8000038848F2FF3C03EA0C030380038843F4B3
:107C90000043038019E03E2E0BD800BF710806F0A8
:107CA000010303B1491C4FF6FF7303EA81230380EC
:107CB0000BE000BF710906F01F0303B9491E4FF422
:107CC000004343EA8123038000BF00BF13E0FFE7C6
:107CD000607801280FD100BF28682A68B2F85020C8
:107CE00010442278022303EBC20200F5806303EB09
:107CF00042010E8000BF00BFB3B2228961692868CB
:107D00000AF085FC3BE12868B0F85010207801EBC0
:107D1000C000801D296801F5806131F81000C0F3B2
:107D20000907A069B84203D3A069C01BA06101E0A4
:107D30000020A061A06900287DD100BF6078C8B98B
:107D400000BF29682A68B2F8502011442278022323
:107D500003EBC20201F5806303EB420000BF02881F
:107D600048F2FF331A400280028842F40042028047
:107D700000BF13E06078012810D100BF28682A688E
:107D8000B2F8502010442278022303EBC20200F51F
:107D9000806303EB420100220A8000BF00BF00BFE6
:107DA0002968607808BB00BF2B68D5F800C0BCF814
:107DB00050C0634494F800C04FF0060909EBCC0CA6
:107DC00003F5806909EB4C0000BFB0F800C048F231
:107DD000FF390CEA090CA0F800C0B0F800C04CF460
:107DE000004CA0F800C000BF10E0607801280DD161
:107DF0002868B0F8500001442078062303EBC00047
:107E000001F5806303EB40020020108000BF217861
:107E10002846FFF7FCFC08F48040002816D100BF7C
:107E200000BF22785200296831F8121048F68F728C
:107E300001EA020000E00AE040F4004141F481411F
:107E400023785B002A6822F8131000BF97E008F43B
:107E50008040A8B900BF00BF22785200296831F8DD
:107E6000121048F68F7201EA020040F4004141F41A
:107E7000814123785B002A6822F8131000BF00BFFD
:107E800094F8240001287AD1606938446061E0697F
:107E90003844E0612169206A884204D32669206A57
:107EA000801B20620BE0206A20B93E46002084F847
:107EB000240004E0266A0020206284F8240000BF29
:107EC0002A68607890BB00BFD5F800C02968B1F877
:107ED00050108C4421784FF0060909EBC1010CF5D4
:107EE000806909EB4101084600BF76B9B0F80090FF
:107EF00048F2FF3A09EA0A09A0F80090B0F80090A9
:107F000049F40049A0F8009020E03E2E0FD800BFB1
:107F1000710806F00109B9F1000F00D0491C4FF6B5
:107F2000FF7909EA8129A0F800900FE010E000BF76
:107F3000710906F01F09B9F1000F00D1491E4FF475
:107F4000004949EA8129A0F8009000BF00BF0FE076
:107F5000607801280CD12868B0F8500002442078DD
:107F6000062101EBC00002F5806101EB40031E8099
:107F700000BFB3B26289616928680AF048FB00BF9C
:107F800022785200296831F8121048F6BF7201EACF
:107F9000020080F0100080F0200040F4004141F029
:107FA000800123785B002A6822F8131000BF0020AC
:107FB000BDE8F087024601F0070000EB800302F500
:107FC000B47000EBC300C06970472DE9F047054667
:107FD0000E4690461F464FF0000906F080008028AC
:107FE0000AD106F0070000EB800105F1280000EB44
:107FF000C1040120607009E006F0070000EB800179
:1080000005F5B47000EBC1040020607006F00700B5
:108010002070C4F81080E770607808B12078E081A3
:10802000022F01D10020207100BF95F8A80201287D
:1080300002D10220BDE8F087012085F8A80200BF28
:108040002146286809F0B8F800BF002085F8A8028A
:1080500000BF4846EEE72DE9F04105460E461746BB
:10806000984606F0070000EB800105F5B47000EBC0
:10807000C1046761C4F818800020E061607006F0F8
:108080000700207006F0070020B92146286809F093
:10809000B4FC03E02146286809F0AFFC0020BDE8ED
:1080A000F08170B504460D4605F00700616888420E
:1080B00001D9012070BD05F0800080280AD105F0AB
:1080C000070000EB800104F1280000EBC10601204D
:1080D000707007E005EB850104F5B47000EBC10694
:1080E000002070700120B07005F00700307000BFF4
:1080F00094F8A802012801D10220DBE7012084F8CE
:10810000A80200BF3146206809F049FC05F00700CD
:1081100020B904F52C71206809F0D1FB00BF0020C4
:1081200084F8A80200BF00BFC4E72DE9F04105466E
:108130000E4690461F4606F0070000EB800105F151
:10814000280000EBC104C4F81480A761012084F862
:10815000240027620020E0610120607006F0070023
:10816000207006F0070020B92146286809F045FC78
:1081700003E02146286809F040FC0020BDE8F081BA
:108180007FB5044620680AF00FFA00F40040B0F50D
:10819000004F02D1204604F019FA20680AF004FAD0
:1081A00000F48060B0F5806F0FD12068B0F8440013
:1081B0004FF6FF3108402168A1F84400204600F046
:1081C0009FF90021204600F0BBF920680AF0ECF985
:1081D00000F48040B0F5804F08D12068B0F844002A
:1081E0004BF6FF7108402168A1F8440020680AF0AE
:1081F000DBF900F40050B0F5005F08D12068B0F85A
:1082000044004DF6FF7108402168A1F84400206841
:108210000AF0CAF900F48050B0F5805F1DD12068E3
:10822000B0F840004FF6FB7108402168A1F840000B
:108230002068B0F840004FF6F77108402168A1F8B7
:108240004000204600F06EF92068B0F844004EF679
:10825000FF7108402168A1F8440020680AF0A4F9E1
:1082600000F40060B0F5006F55D1002507E069000B
:10827000206830F811002DF81500681CC5B2082DD3
:10828000F5D32068B0F8400040F001002168A1F863
:1082900040002068B0F840004FF6FE7108402168A9
:1082A000A1F8400000BF2068B0F8440000F48060EE
:1082B0000028F8D02068B0F844004FF6FF3108409D
:1082C0002168A1F84400002507E03DF815006A0088
:1082D000216821F81200681CC5B2082DF5D320686A
:1082E000B0F8400040F008002168A1F84000206884
:1082F000B0F844004FF2FF7108402168A1F8440033
:108300002068B0F8400040F004002168A1F8400067
:10831000204600F057F920680AF046F900F4007092
:10832000B0F5007F0BD12068B0F844004FF6FF5144
:1083300008402168A1F84400204600F0FAF82068BF
:108340000AF032F900F48070B0F5807F08D120681F
:10835000B0F844004FF6FF6108402168A1F84400DE
:108360007FBD30B585B0044614B9012005B030BDDD
:1083700094F8A90228B9002084F8A802204600F049
:108380009DF8032084F8A902206809F08EFA1422CF
:1083900004F110016846FDF7D5FA94E80F0009F0E2
:1083A00031F920B1022084F8A9020120DEE7002182
:1083B00020680AF022F9002531E0012105EB850251
:1083C00004F1280000EBC200417005EB850104F1C7
:1083D000280000F8315005EB850100EBC100C58194
:1083E000002105EB850204F1280000EBC200C170FA
:1083F00005EB850204F1280000EBC200016105EBEA
:10840000850204F1280000EBC200416105EB850202
:1084100004F1280000EBC2008161681CC5B26068ED
:10842000A842CAD800252AE0002105EB850204F500
:10843000B47000EBC200417005EB850104F5B47027
:1084400000F83150002105EB850200EBC200C1703D
:1084500005EB850204F5B47000EBC200016105EB89
:10846000850204F5B47000EBC200416105EB8502A2
:1084700004F5B47000EBC2008161681CC5B260688D
:10848000A842D1D8142204F110016846FDF75AFA27
:1084900094E80F0009F0FEF920B1022084F8A90247
:1084A000012063E7002084F82400012084F8A90259
:1084B000206809F0ECF9002058E7000038B50446C0
:1084C0000D492068884215D100BF0C48C06940F4AE
:1084D00000000A49C8610846C06900F40000009025
:1084E00000BF00BF002211461420FFF7F9F8142046
:1084F000FFF7E6F838BD0000005C004000100240C5
:1085000070B504460125A068022801D0FDF7EAFBFA
:108510002946D4F8E80208F025FBD4F8E80208F070
:10852000D7FA70BD10B50446D4F8E80208F0FEFA98
:1085300010BD10B50446D4F8E80208F002FB10BDE7
:1085400070B504460D4600BF94F8A802012801D179
:10855000022070BD012084F8A80200BF84F82450D6
:10856000294620680AF04CF800BF002084F8A802D1
:1085700000BF00BFEDE710B5044604F52C71D4F838
:10858000E80208F006FB10BD10B5044600BF94F8E1
:10859000A802012801D1022010BD012084F8A80200
:1085A00000BF206809F0EEFF01212046FFF72EF9F9
:1085B000206809F069F900BF002084F8A80200BF14
:1085C00000BFE9E710B50446D4F8E80208F03AFB2A
:1085D000A06928B10348006840F00600014908601E
:1085E00010BD000010ED00E0012001490862704755
:1085F00000000E422DE9F04385B006463BA30FCBA9
:1086000001AC0FC43DA0006800904FF000080025A9
:1086100000270024A146012E30D0022E55D0102E66
:108620005ED137484468006800F0807000B301A84C
:10863000C4F38341475C04F4803070B13048406833
:10864000C0F340401DF8008004F4803040B12D4854
:10865000B0FBF8F000FB07F502E02B4807FB00F544
:108660002748406800F48000B0F5800F01D1A9468A
:1086700003E068000321B0FBF1F932E02048046A0E
:1086800004F44070B0F5807F05D104F0020010B111
:108690004FF4004918E004F44070B0F5007F07D1B2
:1086A0001748406A00F0020010B149F640490BE05B
:1086B00004F44070B0F5407F06D11148006800F422
:1086C000003008B14FF224490BE000F09BF90C494F
:1086D0004968C1F38131491C4900B0FBF1F900E060
:1086E00000BF00BF484605B0BDE8F08302030405A3
:1086F000060708090A0B0C0D0E0F101001020000EE
:108700000010024000127A0000093D00F8B504464E
:1087100000260025207800F0010000286BD00027FB
:108720004348C06900F0805070B900BF4048C0693C
:1087300040F080503E49C8610846C06900F0805052
:10874000009000BF00BF01273A48006800F4807025
:10875000B0B93848006840F4807036490860FEF7C8
:1087600077FB064606E0FEF773FB801B642801D901
:108770000320F8BD2F48006800F480700028F2D074
:108780002B48006A00F440752DB3A08800F44070B7
:10879000A84220D02648006A20F4407501202649CE
:1087A0000860002008602248056205F0010090B1D1
:1087B000FEF74EFB064608E0FEF74AFB801B41F23F
:1087C0008831884201D90320D3E71948006A00F0B4
:1087D00002000028F0D01648006A20F4407061685A
:1087E000084313490862012F04D10846C06920F0EC
:1087F0008050C86100BF207800F00200022807D135
:108800000B48406820F44040A1680843084948608C
:10881000207800F01000102807D10548406820F4A7
:108820008000E1680843024948600020A1E7000099
:1088300000100240007000404004424270470000B7
:1088400070B504460D460CB9012070BD5A48006849
:1088500000F00700A8420ED25748006820F0070039
:108860002843554908600846006800F00700A84200
:1088700001D00120E9E7207800F0020002281DD194
:10888000207800F00400042805D14C48406840F4EA
:10889000E0604A494860207800F00800082805D1C7
:1088A0004648406840F46050444948604348406846
:1088B00020F0F000A168084340494860207800F0AB
:1088C000010078B36068012806D13C48006800F4D4
:1088D000003090B90120B8E76068022806D1374817
:1088E000006800F0007040B90120AEE7334800682E
:1088F00000F0020008B90120A7E73048406820F0E6
:108900000300616808432D494860FEF7A1FA064656
:1089100009E0FEF79DFA801B41F28831884202D9B6
:10892000032092E707E02548406800F00C006168EA
:10893000B0EB810FEDD12048006800F00700A8429D
:108940000ED91D48006820F0070028431A49086026
:108950000846006800F00700A84201D0012074E733
:10896000207800F00400042807D11448406820F45F
:10897000E060E168084311494860207800F0080091
:10898000082808D10D48406820F46050216940EA69
:10899000C1000A49486000F045F808494968C1F338
:1089A0000311074A515CC840064908600648006840
:1089B000FEF736FE002048E700200240001002408B
:1089C000295B0108580100204001002001200149D5
:1089D000C8647047000042420148006870470000C8
:1089E0005801002000B5FFF7F7FF04494968C1F3BB
:1089F0000221034A515CC84000BD00000010024043
:108A0000395B010800B5FFF7E7FF04494968C1F386
:108A1000C221034A515CC84000BD00000010024062
:108A2000395B0108F0B585B00FF26C0C9CE8E010E2
:108A300001A8A0E8E0101CA52D68009500210022E7
:108A4000002300240020194D696801F00C05F5B1E0
:108A5000042D02D0082D19D101E0154819E001AD0F
:108A6000C1F38346AC5D01F4803555B10F4D6D689F
:108A7000C5F340451DF805200D4D6543B5FBF2F3E8
:108A800002E00C4D04FB05F3184602E000BF084865
:108A900000BF00BF05B0F0BD0203040506070809CA
:108AA0000A0B0C0D0E0F1010010200000010024006
:108AB00000127A0000093D0010B50648806800F0F9
:108AC0008000802804D1FFF7B9FE80200149887218
:108AD00010BD000000100240F8B504460CB901209A
:108AE000F8BD207800F00100002878D0F8484068F0
:108AF00000F00C0004280CD0F548406800F00C0091
:108B0000082811D1F248406800F48030B0F5803F69
:108B10000AD1EF48006800F4003000285FD0606898
:108B200000285CD10120DBE700BF6068B0F5803F22
:108B300006D1E748006840F48030E549086028E045
:108B4000606858B9E248006820F48030E049086065
:108B50000846006820F4802008601AE06068B0F5DC
:108B6000A02F0BD1DA48006840F48020D849086073
:108B70000846006840F4803008600AE0D448006885
:108B800020F48030D24908600846006820F4802034
:108B9000086000BF606888B1FEF75AF9054606E034
:108BA000FEF756F9401B642801D9032098E7C8480E
:108BB000006800F400300028F2D010E0FEF748F919
:108BC000054606E0FEF744F9401B642801D903205E
:108BD00086E7BF48006800F400300028F2D1207812
:108BE00000F00200022857D1B948406800F00C009C
:108BF00050B1B748406800F00C00082818D1B448BC
:108C0000406800F4803098B9B148006800F0020074
:108C100020B12069012801D0012061E7AC4800683B
:108C200020F0F800616940EAC100A949086033E01A
:108C30002069E8B10120A7490860FEF709F9054657
:108C400006E0FEF705F9401B022801D9032047E79B
:108C50009F48006800F002000028F2D09C4800689D
:108C600020F0F800616940EAC1009949086013E00A
:108C7000002098490860FEF7EBF8054606E0FEF78D
:108C8000E7F8401B022801D9032029E79048006833
:108C900000F002000028F2D1207800F00800082837
:108CA0002DD1A069B8B101208B490860FEF7D0F83A
:108CB000054606E0FEF7CCF8401B022801D9032048
:108CC0000EE78348406A00F002000028F2D001203D
:108CD00005F072FB13E000207F490860FEF7B8F84A
:108CE000054606E0FEF7B4F8401B022801D9032030
:108CF000F6E67748406A00F002000028F2D12078BA
:108D000000F00400042873D100277148C06900F006
:108D1000805070B900BF6E48C06940F080506C4907
:108D2000C8610846C06900F08050009000BF00BFD5
:108D300001276A48006800F48070B0B9674800688D
:108D400040F4807065490860FEF782F8054606E049
:108D5000FEF77EF8401B642801D90320C0E65F4877
:108D6000006800F480700028F2D000BFE06801289D
:108D700006D15748006A40F001005549086227E0D3
:108D8000E06858B95248006A20F001005049086272
:108D90000846006A20F00400086219E0E06805282F
:108DA0000BD14B48006A40F004004949086208466C
:108DB000006A40F0010008620AE04548006A20F0BD
:108DC0000100434908620846006A20F00400086276
:108DD00000BFE068A0B1FEF73BF8054609E0FEF7EA
:108DE00037F8401B41F28831884202D9032077E6E8
:108DF00022E03748006A00F002000028EFD012E0BD
:108E0000FEF726F8054608E0FEF722F8401B41F27F
:108E10008831884201D9032062E62D48006A00F0BB
:108E200002000028F0D1012F05D12948C06920F0A7
:108E300080502749C86100BFE069C8B32448406832
:108E400000F00C00082860D0E069022848D100201A
:108E500020490866FDF7FCFF054606E0FDF7F8FF30
:108E6000401B022801D903203AE61948006800F0A7
:108E700000700028F2D1206AB0F5803F07D1144875
:108E8000406820F40030A168084311494860D4E9E3
:108E9000080108430E49496821F4741108430C493C
:108EA000486001200B490866FDF7D2FF054607E040
:108EB0003DE0FDF7CDFF401B022801D903200FE65E
:108EC0000348006800F000700028F2D02FE0000096
:108ED0000010024000004242800442420070004004
:108EE000002014490866FDF7B3FF054606E0FDF7CC
:108EF000AFFF401B022801D90320F1E50E480068AE
:108F000000F000700028F2D111E0E069012800D1E2
:108F1000E6E50948466806F48031206A814204D1BA
:108F200006F47011606A814201D00120D8E500206A
:108F3000D6E5000000004242001002402DE9F04753
:108F400080460E469246002500270024A146404652
:108F500005F08BFA81462548B9FBF0F424480068F7
:108F6000A04240D02248046040F2B2750EE028468C
:108F70000AF06AF9012806D1B4F5B77F02D3A4F547
:108F8000B77402E005E0A4F26D146D1CB4F5B67F71
:108F9000EDD800BF2F46A5F5FA60F070002515E06A
:108FA000012D09D138460AF04FF9012804D11D2CB2
:108FB00001D31D3C09E00BE00E48405DA04203D800
:108FC0000C48405D241A00E002E06D1C1C2CE7D226
:108FD00000BF681C7070601CB070B2787178F07857
:108FE00005F05DFA30700020BDE8F0878051010087
:108FF000540100201D5B01082DE9F04707460C468F
:1090000091460026B046002538684068C0F38000CD
:1090100010B10120BDE8F087384605F026FA064673
:109020004FF46160B6FBF0F5B6FBF0F100FB1160A8
:109030003C21B0FBF1F060704FF46160B6FBF0F1E1
:1090400000FB11603C21B0FBF1F201FB1200A070AB
:109050001820B5FBF0F100FB11502070182D08D33B
:109060001820B5FBF0F8B5FBF0F100FB11502070B3
:1090700000E025700020CDE770B5044600250CB94E
:10908000012070BD607C20B900202074204600F0D3
:109090005BF802206074204600F085F918B10420C6
:1090A00060740120EDE7204605F0A5F918B1042011
:1090B00060740120E5E72068406820F0070021681F
:1090C0004860A06828B11F48006820F001001D49D1
:1090D00008601C48001F006820F46070A168084305
:1090E0001849091F08606068401C08B1656809E0FC
:1090F0000120FFF77FFA05461DB9042060740120A6
:10910000BFE76D1E2068806820F00F0040EA154020
:10911000216888602068C06865F30F002168C86016
:10912000204605F085F918B1042060740120A8E7F5
:109130000021E17301216173A1730120607400209B
:109140009FE70000306C004038B504460B492068AA
:10915000884212D1FFF748FA00BF0948C06940F0C1
:1091600000600749C8610846C06900F000600090CF
:1091700000BF00BF01200349086038BD002800403F
:10918000001002403C0442422DE9F04F87B00646F1
:109190000F464FF0000900200690804600240590FD
:1091A00004900390824600BF48A207CA8DE80700DA
:1091B000304605F05AF981464FF46160B9FBF0F092
:1091C00006904FF46160B9FBF0F100FB11903C2177
:1091D000B0FBF1F0C0B204904FF46160B9FBF0F164
:1091E00000FB11903C21B0FBF1F201FB1200039057
:1091F00018210698B0FBF1F201FB12000590F878F7
:1092000000F5FA6840F63300804500D9804640F208
:10921000B270804500D2804640F2B2750AE028461E
:109220000AF012F8012802D12B48044401E02B482F
:1092300004446D1C4545F2D397F801A040460AF05E
:1092400003F8012804D1BAF1020F01D924480444DB
:10925000AAF1010A002507E01DF8050040F2A3214C
:10926000484304EBC0146D1C5545F5D397F802B084
:10927000ABF1010040F2A321484304EBC014059870
:10928000C0EB4011C1EB002004EB00140498C0EBCC
:10929000001004EB80040398044400BF307C0128D4
:1092A00003D1022007B0BDE8F08F0120307400BF69
:1092B000022070742146304605F033F901207074A5
:1092C00000BF0020307400BF00BFEBE71F1C1F1E53
:1092D0001F1E1F1F1E1F1E1F0085E2018033E1019C
:1092E000805101002DE9F05F04460D4690460026AE
:1092F0000027B146B246204605F0B7F807464FF4BE
:109300006160B7FBF0F9B9F1180F0AD31820B9FB67
:10931000F0FA0AEB4A00C0004FF4616100FB01F76C
:1093200000E0002700BF207C012802D10220BDE818
:10933000F09F0120207400BF02206074B8F1000F7C
:109340000BD128784FF4616148436978C1EB011172
:1093500000EB8100A978461812E0287805F040F863
:109360004FF4616100FB01FB687805F039F8C0EB50
:1093700000100BEB800BA87805F032F80BEB000621
:109380003E443146204605F0CCF82068406820F085
:109390000500216848600120607400BF002020742F
:1093A00000BF00BFC3E770B5044600250CB901201B
:1093B00070BD2068406820F0080021684860FDF713
:1093C00047FD054607E0FDF743FD401BB0F57A7FFA
:1093D00001D90320ECE72068406800F0080000286D
:1093E000F1D00020E4E710B504460CB9012010BD0F
:1093F000606A38B96068B0F5827F00D105E000216D
:10940000E16102E00021216161610021A16294F823
:10941000510028B9002084F85000204600F042F89E
:10942000022084F851002068006820F04000216884
:109430000860A08800F48270218901F40441084387
:10944000A18901F400610843217C01F00201084375
:10945000217D01F001010843218B01F400710843D3
:10946000217F01F0380108432021095D01F08001CE
:109470000843218D01F4005108432168086004214C
:10948000A06901EA1040216848602068C06920F4A2
:1094900000602168C86100206065012084F85100E7
:1094A0000020A4E710B586B0044600200290039087
:1094B000049005903349206888422DD100BF32487E
:1094C000806940F48050304988610846806900F422
:1094D0008050019000BF00BF00BF0846806940F087
:1094E000040088610846806900F00400019000BF14
:1094F00000BFA0200290022003900320059002A943
:109500002248FDF7FDFA40200290002003900490CD
:1095100002A91E48FDF7F4FA1D49206888422FD1A0
:1095200000BF1948C06940F480401749C861084627
:10953000C06900F48040019000BF00BF00BF084632
:10954000806940F0080088610846806900F00800E2
:10955000019000BF00BF4FF4204002900220039012
:109560000320059002A90B48FDF7CAFA4FF480408A
:10957000029000200390049002A90648FDF7C0FA6B
:1095800006B010BD0030014000100240000801404C
:1095900000380040000C01402DE9F84F0446884691
:1095A00016461D464FF0000A00BF94F850000128EF
:1095B00002D10220BDE8F88F012084F8500000BFDE
:1095C000FDF746FC0746B14694F85100012802D049
:1095D0004FF0020AADE0B8F1000F00D016B94FF01D
:1095E000010AA6E0032084F8510000206065C4F859
:1095F0003080A686E686A063A087E087606420644A
:10960000A068B0F5004F0BD12068006820F0400042
:10961000216808602068006840F480402168086084
:109620002068006800F04000402805D020680068ED
:1096300040F0400021680860E068B0F5006F2FD16D
:10964000606810B1B9F1010F09D1206B0088216861
:10965000C860206B801C2063E08E401EE0861BE00B
:109660002068806800F0020002280AD1206B008880
:109670002168C860206B801C2063E08E401EE0865D
:109680000AE0FDF7E5FBC01BA84201D3681C00B946
:1096900015B94FF0030A4CE0E08E0028E0D12EE02F
:1096A000606810B1B9F1010F09D1206B0078216811
:1096B0000873206B401C2063E08E401EE0861BE098
:1096C0002068806800F0020002280AD1206B007830
:1096D00021680873206B401C2063E08E401EE086EA
:1096E0000AE0FDF7B5FBC01BA84201D3681C00B916
:1096F00015B94FF0030A1CE0E08E0028E0D13A468D
:109700002946204605F0F8FB08B120206065A068D6
:1097100050B900BF002000902068C0680090206809
:109720008068009000BF00BF606D08B14FF0010A73
:1097300000BF012084F8510000BF002084F85000D1
:1097400000BF504636E72DE9FF5F04468846914644
:109750001D460E9E012002900020019000BF94F84B
:109760005000012803D1022004B0BDE8F09F012081
:1097700084F8500000BFFDF76BFB074694F851B02A
:1097800060680390AA46BBF1010F0BD00398B0F5B7
:10979000827F04D1A06810B9BBF1040F02D002206F
:1097A0000190DBE0B8F1000F03D0B9F1000F00D059
:1097B00015B901200190D1E094F85100042802D09D
:1097C000052084F8510000206065C4F83890E587D2
:1097D000A587C4F83080E586A5862064606420688B
:1097E000006800F04000402805D02068006840F084
:1097F000400021680860E068B0F5006F4AD16068F9
:1098000010B1BAF1010F09D1206B00882168C8603E
:10981000206B801C2063E08E401EE08633E02068D1
:10982000806800F00200022810D1E08E70B102982A
:1098300001280BD1206B00882168C860206B801C38
:109840002063E08E401EE086002002902068806841
:1098500000F0010068B1E08F58B12068C068A16BCA
:109860000880A06B801CA063E08F401EE087012071
:109870000290FDF7EDFAC01BB04204D3701C10B18A
:10988000032001906AE0E08E0028C8D1E08F002814
:10989000C5D14AE0606810B1BAF1010F09D1206B5F
:1098A000007821680873206B401C2063E08E401E06
:1098B000E08634E02068806800F00200022810D1C1
:1098C000E08E70B1029801280BD1206B00782168DE
:1098D0000873206B401C2063E08E401EE086002051
:1098E00002902068806800F0010068B1E08F58B1F4
:1098F0002068C068A16B0870A06B401CA063E08F5B
:10990000401EE08701200290FDF7A2FAC01BB04282
:1099100001D3701C00B916B9032001901EE0E08E3F
:109920000028C7D1E08F0028C4D13A4631462046EE
:1099300005F0E2FA20B101200190202060650DE0E1
:10994000A06850B900BF002000902068C068009057
:1099500020688068009000BF00BF00BF012084F82D
:10996000510000BF002084F8500000BF0198FBE6C2
:1099700070B504462546681EB0F1807F01D30120F2
:109980000FE0681E4FF0E02148610F214FF0FF30DB
:1099900009F0BCF900204FF0E02188610720086140
:1099A000002070BD7047704730B502460B4600BFBF
:1099B00092F83C00012801D1022030BD012082F83C
:1099C0003C0000BF022082F83D0010684468106827
:1099D000816824F070041868044310684460104DD6
:1099E0001068A8420BD01068B0F1804F07D00D4D21
:1099F0001068A84203D00C4D1068A84205D121F090
:109A000080015868014310688160012082F83D00A0
:109A100000BF002082F83C0000BF00BFCDE700007F
:109A2000002C0140000400400008004010B504462E
:109A30000CB9012010BD94F83D0028B9002084F82D
:109A40003C00204600F026F8022084F83D00211D4D
:109A5000206805F0E5FF012084F8460000BF84F887
:109A60003E0001213F200155402001554120015574
:109A700000BF00BF012084F842004320015544206C
:109A800001554520015500BF012084F83D0000200C
:109A9000D0E7000038B5044624492068884216D132
:109AA00000BF2348C06940F002002149C861084650
:109AB000C06900F00200009000BF00BF0022114604
:109AC0001D20FDF70DFE1D20FDF7FAFD2CE020689E
:109AD000B0F1804F16D100BF1548C06940F00100B9
:109AE0001349C8610846C06900F00100009000BF3A
:109AF00000BF022211461C20FDF7F2FD1C20FDF7DD
:109B0000DFFD11E00B49206888420DD100BF0848F5
:109B1000806940F40060064988610846806900F465
:109B20000060009000BF00BF38BD0000000400408E
:109B300000100240002C0140014691F83D00012830
:109B400001D001207047022081F83D00124B0868C7
:109B500098420BD00868B0F1804F07D00F4B0868CF
:109B6000984203D00E4B086898420CD10868806870
:109B700000F00702062A0CD00868006840F00100D7
:109B80000B68186005E00868006840F001000B6889
:109B900018600020D6E70000002C014000040040BF
:109BA000000800402DE9F04104460D4600BF94F83E
:109BB0003C00012802D10220BDE8F081012084F898
:109BC0003C0000BF022084F83D002068866826F033
:109BD000770626F47F46206886602868502833D0B0
:109BE0000CDC202850D004DC00284BD0102851D1A8
:109BF00049E0302849D040284CD139E060282DD0A8
:109C0000702807D0B0F5805F03D0B0F5005F41D178
:109C10000DE040E0D5E902136A68206805F03AFFDC
:109C20002068866846F077062068866033E0D5E9CC
:109C300002136A68206805F02DFF2068806840F4F0
:109C400080402168886026E0EA686968206805F03D
:109C500035FF5021206805F028FF1CE0EA6869689C
:109C6000206805F03EFF6021206805F01EFF12E02D
:109C7000EA686968206805F021FF4021206805F046
:109C800014FF08E000BF00BF00BF2968206805F08E
:109C90000CFF00E000BF00BF012084F83D0000BFC2
:109CA000002084F83C0000BF00BF85E7704710B576
:109CB000044620680069C0F34000D8B12068C0683D
:109CC000C0F34000B0B16FF00200216808610120CC
:109CD00020772068806900F0030018B12046FFF764
:109CE000E5FF05E0204600F0ADF8204600F0ABF8B7
:109CF0000020207720680069C0F38000D8B1206878
:109D0000C068C0F38000B0B16FF004002168086142
:109D1000022020772068806900F4407018B1204646
:109D2000FFF7C4FF05E0204600F08CF8204600F065
:109D30008AF80020207720680069C0F3C000D8B1FD
:109D40002068C068C0F3C000B0B16FF0080021689F
:109D50000861042020772068C06900F0030018B172
:109D60002046FFF7A3FF05E0204600F06BF82046F1
:109D700000F069F80020207720680069C0F3001027
:109D8000D8B12068C068C0F30010B0B16FF0100007
:109D900021680861082020772068C06900F44070BD
:109DA00018B12046FFF782FF05E0204600F04AF890
:109DB000204600F048F8002020772068006900F075
:109DC000010058B12068C06800F0010030B16FF0A8
:109DD000010021680861204600F036F8206800691B
:109DE000C0F3C01058B12068C068C0F3C01030B1D3
:109DF0006FF08000216808612046FFF7D3FD2068DE
:109E00000069C0F3801058B12068C068C0F38010AA
:109E100030B16FF0400021680861204600F020F862
:109E200020680069C0F3401058B12068C068C0F3D2
:109E3000401030B16FF02000216808612046FFF724
:109E4000B2FD10BD7047704710B504460349206845
:109E5000884201D105F074FC10BD000000040040F0
:109E600070477047704700002DE9F84F044620689E
:109E700005682068C668206847694FF00009CA462F
:109E800005F00F09B9F1000F0AD105F0200038B133
:109E900006F0200020B1204605F06CFEBDE8F88FEA
:109EA000B9F1000F71D007F0010018B906F49070F5
:109EB00000286AD005F0010030B106F4807018B1B6
:109EC000206C40F00100206405F0040030B107F080
:109ED000010018B1206C40F00200206405F002007F
:109EE00030B107F0010018B1206C40F0040020648C
:109EF00005F0080048B106F0200010B907F0010095
:109F000018B1206C40F008002064206C68B305F0A4
:109F1000200028B106F0200010B1204605F02AFEEE
:109F200020684069C0F3801A206C00F0080010B966
:109F3000BAF1000F22D0204605F0F1FD20684069FB
:109F400000F04000B0B12068406920F04000216876
:109F50004861A06B50B15648A16B4863A06BFCF7F9
:109F600091FC10B1A06B416B88470CE02046FFF7D5
:109F700079FF08E02046FFF775FF04E02046FFF771
:109F800071FF0020206489E7FFE7206B012878D16A
:109F900005F01000002874D006F01000002870D0E2
:109FA00000BF002000902068006800902068406892
:109FB000009000BF00BF2068406900F04000C0B3BF
:109FC000A06B006840681FFA80F8B8F1000F2FD02E
:109FD000A08D40452CDDA4F82E80A06B8069202840
:109FE0001FD02068C06820F480702168C860206895
:109FF000406920F00100216848612068406920F034
:10A00000400021684861202084F83E000020206341
:10A010002068C06820F010002168C860A06BFCF7C1
:10A0200005FCA08DE28D801A81B22046FFF719FF52
:10A0300034E7FFE7A08DE18D401A1FFA80F8E08D2C
:10A04000E8B1B8F1000F1AD02068C06820F4907011
:10A050002168C8602068406920F0010021684861DB
:10A06000202084F83E00002020632068C06820F093
:10A0700010002168C86041462046FFF7F2FE0DE758
:10A08000FFE705F0800030B106F0800018B12046EF
:10A0900005F060FE02E705F0400030B106F0400038
:10A0A00018B1204605F056FDF8E600BFF6E60000C0
:10A0B0000BFB000810B504460CB9012010BDA069C7
:10A0C00000B100E000BF94F83D0028B9002084F8FA
:10A0D0003C00204600F028F8242084F83D00206849
:10A0E000C06820F400502168C860204605F0B4FD27
:10A0F0002068006920F49040216808612068406968
:10A1000020F02A00216848612068C06840F40050AF
:10A110002168C86000202064202084F83D0084F875
:10A120003E000020CAE7000010B586B004460020BB
:10A1300002900390049005905D49206888423FD1C9
:10A1400000BF5C48806940F480405A4988610846F5
:10A15000806900F48040019000BF00BF00BF084646
:10A16000806940F0080088610846806900F00800B6
:10A17000019000BF00BF4020029002200390032006
:10A18000059002A94C48FCF7BBFC802002900020FF
:10A190000390049002A94848FCF7B2FC00BF47496D
:10A1A000486840F0E06040F00400486000BF0022D2
:10A1B00011462520FDF794FA2520FDF781FA75E078
:10A1C0003F492068884236D100BF3A48C06940F410
:10A1D00000303849C8610846C06900F40030019079
:10A1E00000BF00BF00BF0846806940F004008861DE
:10A1F0000846806900F00400019000BF00BF042001
:10A200000290022003900320059002A92D48FCF73C
:10A2100077FC0820029000200390049002A92948AE
:10A22000FCF76EFC002211462620FDF759FA262085
:10A23000FDF746FA3AE024492068884236D100BF4B
:10A240001C48C06940F480201A49C8610846C069AA
:10A2500000F48020019000BF00BF00BF0846806965
:10A2600040F0080088610846806900F0080001900D
:10A2700000BF00BF08150290022003900320059044
:10A2800002A90D48FCF73CFC4FF40060029000204E
:10A290000390049002A90848FCF732FC0022114602
:10A2A0002720FDF71DFA2720FDF70AFA06B010BD9A
:10A2B0000038014000100240000C01400000014045
:10A2C00000440040000801400048004070472DE96C
:10A2D000F84F04460E46174699464FF0000A94F888
:10A2E0003D0020285AD106B117B90120BDE8F88FEA
:10A2F00000BF94F83C00012801D10220F6E70120BC
:10A3000084F83C0000BF00202064212084F83D0038
:10A31000FCF79EFD8246A784E784A068B0F5805FC5
:10A3200004D1206910B90025B04602E035464FF04F
:10A33000000800BF002084F83C0000BF1BE053462B
:10A34000002280212046CDF8009005F033FD08B1B1
:10A350000320CBE745B9B8F80000C0F30800216836
:10A36000486008F1020803E02878216848606D1C05
:10A37000E08C401EE084E08C0028E0D153460022AF
:10A3800040212046CDF8009005F014FD08B10320CF
:10A39000ACE7202084F83D000020A7E70220A5E7D5
:10A3A0007047000002E002A00AF066FBFBE7000035
:10A3B0007B22526563697665223A7B22537461740D
:10A3C0007573223A37307D7D0A0000000146086827
:10A3D0004069C0F38020B0B16FF480600A685061BA
:10A3E00000200863202081F83D00002081F83E0015
:10A3F000086C40F00400086400BF002081F83C00B5
:10A4000000BF012070470020FCE700002DE9F84361
:10A4100004460D4690461E46E76A2068006840F4F0
:10A42000806021680860082F04D0012F02D017F542
:10A43000803F06D12068006840F480702168086081
:10A4400008E0206B112805D12068006840F4807076
:10A4500021680860434600224FF001112046009613
:10A4600000F0FEF860B12068006800F48070B0F57C
:10A47000807F02D14FF4007020640320BDE8F88390
:10A480002069B0F5804F05D1E8B240F001002168A5
:10A49000086149E005F44070F02141EAE0102168CC
:10A4A0000861334642462649204600F021F908B1AA
:10A4B0000120E3E7E8B221680861334642462049BB
:10A4C000891F204600F014F908B10120D6E700BF2B
:10A4D000002000902068406900902068806900900A
:10A4E00000BF00BF2068006840F4807021680860E9
:10A4F000434600224FF001112046009600F0B0F8CC
:10A5000058B12068006800F48070B0F5807F02D1F7
:10A510004FF4007020640320B0E705F44070F1218F
:10A5200041EAE01021680861334642460449891F28
:10A53000204600F0DDF808B101209FE700209DE7EC
:10A54000080001002DE9F84304460D4617469846D9
:10A55000E66A082E04D0012E02D016F5803F06D1FF
:10A560002068006840F480702168086008E0206B73
:10A57000122805D12068006840F4807021680860C6
:10A580003B4600224FF001112046CDF8008000F03C
:10A5900067F860B12068006800F48070B0F5807FD3
:10A5A00002D14FF4007020640320BDE8F8832069D5
:10A5B000B0F5804F04D105F0FE002168086112E07B
:10A5C00005F44070F02141EAE0102168086143463B
:10A5D0003A460B49204600F08BF808B10120E4E729
:10A5E000E8B22168086143463A460549891F20467A
:10A5F00000F07EF808B10120D7E70020D5E7000081
:10A600000800010070B504460D46164620E02046BD
:10A61000FFF7DCFE08B1012070BD681CC0B1FCF77B
:10A6200017FC801BA84200D895B900202063202089
:10A6300084F83D00002084F83E00206C40F02000AB
:10A64000206400BF002084F83C0000BF0120E3E745
:10A6500020684069C0F380000028D8D00020DBE7E4
:10A660002DE9F04704460D4617461E46DDF82080CA
:10A670004FF000091FE0701CE8B109F10109FCF777
:10A68000E7FBA0EB0800B04200D8A6B90020206389
:10A69000202084F83D00002084F83E00206C40F02B
:10A6A0002000206400BF002084F83C0000BF8146E9
:10A6B0000120BDE8F087C5F3074001280AD12068D2
:10A6C0004069A9B20840A9B2884201D101200BE03B
:10A6D000002009E020688069A9B20840A9B2884238
:10A6E00001D1012000E00020B842C4D00020E0E702
:10A6F0002DE9F04104460D4616461F463DE0206810
:10A700004069C0F38020E8B12068006840F4007020
:10A71000216808606FF48060216848610020206330
:10A72000202084F83D00002084F83E00206C40F09A
:10A730000400206400BF002084F83C0000BF01201A
:10A74000BDE8F081701CC0B1FCF782FBC01BB042B9
:10A7500000D896B900202063202084F83D00002016
:10A7600084F83E00206C40F02000206400BF0020F0
:10A7700084F83C0000BF0120E2E7C5F30740012850
:10A780000AD120684069A9B20840A9B2884201D123
:10A7900001200BE0002009E020688069A9B2084090
:10A7A000A9B2884201D1012000E000200028A6D0F3
:10A7B0000020C5E770B504460D46164632E0206815
:10A7C0004069C0F30010A0B16FF01000216848612B
:10A7D00000202063202084F83D00002084F83E0003
:10A7E000206C206400BF002084F83C0000BF0120E2
:10A7F00070BDFCF72DFB801BA84200D895B9002046
:10A800002063202084F83D00002084F83E00206C66
:10A8100040F02000206400BF002084F83C0000BF0E
:10A820000120E5E720684069C0F380100028C6D009
:10A830000020DDE770B504460D46164620E02046B0
:10A84000FFF7C4FD08B1012070BD681CC0B1FCF762
:10A85000FFFA801BA84200D895B900202063202071
:10A8600084F83D00002084F83E00206C40F0200079
:10A87000206400BF002084F83C0000BF0120E3E713
:10A8800020684069C0F3C0100028D8D00020DBE762
:10A8900030B59FB004460D467022424903A8FBF72D
:10A8A00051F841480068401C10B901201FB030BD6C
:10A8B0003E48007838B93D48407820B93B48807818
:10A8C00008B90120F2E7332D4FD006DC102D0BD054
:10A8D000122D57D0142D62D120E0352D2BD0372DDD
:10A8E0000FD0392D5BD133E003A86021A300CDE95F
:10A8F00000102D4802782D492D4802F0A5F9C0B26C
:10A90000D4E707A86121A300CDE90010264802780A
:10A910002649274802F098F9C0B2C7E70BA8602182
:10A92000A300CDE90010204802782049204802F019
:10A930008BF9C0B2BAE70FA86121A300CDE90010DE
:10A940001948027819491A4802F07EF9C0B2ADE7F9
:10A9500013A86121A300CDE9001013480278134920
:10A96000134802F071F9C0B2A0E717A86121A30053
:10A97000CDE900100C4802780C490D4802F064F94A
:10A98000C0B293E71BA86021A300CDE900100648E0
:10A9900002780649064802F057F9C0B286E701205E
:10A9A00084E70000445B0108900000205823002049
:10A9B000C80A002070B504460D46224629460248C2
:10A9C00002F084F9C0B270BDC80A00207FB5064607
:10A9D0000C46324669462A4802F078F910B1012047
:10A9E00004B070BD00250BE01DF8051005F108004E
:10A9F0001DF80000814201D00120F1E7681CC5B2BA
:10AA0000042DF1DB00250CE0281D1DF800001DF8C9
:10AA1000051081F0FF01884201D00120E0E7681CA9
:10AA2000C5B2042DF0DB9DF80C0050B99DF80D0067
:10AA3000FF2806D19DF80E0018B99DF80F00FF28D9
:10AA400001D00120CCE79DF80300206020680002BF
:10AA500020609DF8021020680844206020680002F1
:10AA600020609DF8011020680844206020680002E2
:10AA700020609DF800102068084420600020AFE7A7
:10AA8000C80A002070B504463223002221460D4832
:10AA900002F0CCF90C49086008460068401C30B947
:10AAA0000020E070A07060702070012070BD002553
:10AAB00004E0605D05494855681CC5B2042DF8DB0B
:10AAC0000020F3E7C80A002090000020582300204F
:10AAD00070B504460D4622462946024802F024F984
:10AAE000C0B270BDC80A002030B585B005460C461E
:10AAF0002DA000680490E0B28DF81000200A8DF8B7
:10AB00001100200C8DF81200200E8DF813009DF816
:10AB100010008DF800009DF811008DF801009DF8DF
:10AB200012008DF802009DF813008DF803009DF8C7
:10AB3000100080F0FF008DF804009DF8110080F0F7
:10AB4000FF008DF805009DF8120080F0FF008DF8E1
:10AB500006009DF8130080F0FF008DF807009DF8B7
:10AB600010008DF808009DF811008DF809009DF87F
:10AB700012008DF80A009DF813008DF80B000020DC
:10AB80008DF80C00FF208DF80D0000208DF80E00D0
:10AB9000FF208DF80F002A466946044802F0C4F8E9
:10ABA000C0B205B030BD000001000000C80A00209E
:10ABB00010B513480068401C114908600846006839
:10ABC00047F2BD11884202D10EA009F055FF0C4892
:10ABD000006847F2C71188420AD900200849086076
:10ABE0000E480068401C0D4908600DA009F044FFA4
:10ABF0000A480068022802D300200849086010BDF6
:10AC0000000000207B224D656D223A7B2253746147
:10AC1000747573223A327D7D0A0000000400002022
:10AC20007B224D656D223A7B2253746174757322C9
:10AC30003A317D7D0A0000002DE9F04FB7B007469C
:10AC40008846C82600202490239000240025FE4832
:10AC5000007801280BD1FD490D70280A4870280C96
:10AC60008870280EC870AB200871CD204871FCF7A1
:10AC7000EFF8259000260020F549086077E34AF6B2
:10AC8000AA20F44909680860F1480068B8B1F248A0
:10AC90000078632803D0F048007843280AD1EFA059
:10ACA00009F0EAFE0020FA490860E949086037B077
:10ACB000BDE8F08F0020F6490860E5490860FCF720
:10ACC000C7F82599401A44F62061884205D9012623
:10ACD000F0A009F0D1FE0120E9E734A8FFF7D2FE89
:10ACE00020B134A8FFF7CEFE00B140E310210020D0
:10ACF000FFF7CEFD00B13AE32CA90120FFF75AFE81
:10AD000000B134E39DF8B00028909DF8B100289977
:10AD100001EB002028909DF8B2A09DF8B3000AEB4B
:10AD2000002A9DF8B4000AEB004A9DF8B5000AEB32
:10AD3000006A289800F40040B0F5004F0CD1289824
:10AD4000C0F30E00289046F6292128984840289004
:10AD50004BF2A6208AEA000A37210520FFF798FD6A
:10AD600070B134A8FFF78EFE20B134A8FFF78AFE39
:10AD700000B1FCE237210520FFF78AFD00B1F6E2C1
:10AD80002CA91620FFF716FEC8B137210520FFF7C2
:10AD90007FFD70B134A8FFF775FE20B134A8FFF72E
:10ADA00071FE00B1E3E237210520FFF771FD00B12C
:10ADB000DDE22CA91620FFF7FDFD00B1D7E29DF8DA
:10ADC000B10027902798000227909DF8B01027988F
:10ADD00008442790279820B1B3A009F04DFE012028
:10ADE00065E739210420FFF753FD70B134A8FFF760
:10ADF00049FE20B134A8FFF745FE00B1B7E2392182
:10AE00000420FFF745FD00B1B1E2AC48007801280D
:10AE100034D14FF000092CA91220FFF7CBFD00B16F
:10AE2000A5E29DF8B400AB2814D19DF8B500CD285B
:10AE300010D19DF8B3904FEA09299DF8B2008144E2
:10AE40004FEA09299DF8B10081444FEA09299DF88C
:10AE5000B00081449DF8B000FF280DD19DF8B100ED
:10AE6000FF2809D19DF8B200FF2805D19DF8B30055
:10AE7000FF2801D14FF0000908EB09052CA911208A
:10AE8000FFF798FDC8B139210420FFF701FD70B12B
:10AE900034A8FFF7F7FD20B134A8FFF7F3FD00B1A8
:10AEA00065E239210420FFF7F3FC00B15FE22CA931
:10AEB0001120FFF77FFD00B159E24FF0000B002099
:10AEC00005E02CA9095C81EA0B0B411CC8B20F28D4
:10AED000F7DB9DF8BF0058450FD19DF8B0002990D1
:10AEE0009DF8B110299800EB0120C0B22990299853
:10AEF000162802D100254FF000087148007860B98B
:10AF000052490D70280A4870280C8870280EC870A5
:10AF1000AB200871CD2048710DE000254B4805702D
:10AF2000280A4A494870280C8870280EC870AB203F
:10AF30000871CD204871002026906248007818B131
:10AF400061480068289001E0289828902AA82BA939
:10AF500022AA23ABCDE90432CDE9061024A85B492F
:10AF600009685B4A12685B4B1B68CDE90032CDE98A
:10AF7000021053490978491CC8B23B4628AA26A9A1
:10AF800000F092FC0646012E01D0092E3DD12AA8E0
:10AF90002BA922AA23ABCDE90432CDE9061024A8BF
:10AFA0004A4909684A4A12684A4B1B68CDE900328F
:10AFB000CDE9021042490978491CC8B23B4628AA8B
:10AFC00026A900F071FC0646012E01D0092E1CD1E5
:10AFD0002AA82BA922AA23ABCDE90432CDE9061079
:10AFE00024AA3A4800683A4909683A4B1B68CDE9F7
:10AFF0000031CDE9020232490978491CC8B23B460A
:10B0000028AA26A900F050FC0646012E03D00D2EDA
:10B0100001D0092E7DD12AA82BA922AA23ABCDE9E4
:10B020000432CDE9061024A828490A68284909688D
:10B03000284B1B68CDE90031CDE902202049097871
:10B04000491CC8B23B4647E05B000020481F002077
:10B0500018000020E00A0020200600207B22526514
:10B060006365697665223A7B225374617475732235
:10B070003A32367D2C2243223A7B22547970652263
:10B080003A2243616E73656C227D7D0A00000000E8
:10B090000C0000207B2243223A7B2253746174759A
:10B0A00073223A317D7D0A007B2243223A7B225370
:10B0B0007461747573223A377D7D0A008502002021
:10B0C000710200205C0000205400002038000020A5
:10B0D000340000203000002028AA26A900F0E4FB5C
:10B0E0000646012E03D00D2E01D0092E1ED12AA80E
:10B0F0002BA922AA23ABCDE90432CDE9061024AA5C
:10B100009D4801689D4800689D4B1B68CDE9003053
:10B1100000E00BE0CDE902129A490978491CC8B257
:10B120003B4628AA26A900F0BFFB064696480078B1
:10B1300000287DD02398CDE90387059502902499B6
:10B140002698CDE90001324690499148289B07F0A6
:10B15000C1FD8F4809F090FC08222046611CCCB24A
:10B1600009A90A542698C2B22046611CCCB209A98A
:10B170000A542698C0F307222046611CCCB209A9C4
:10B180000A542698C0F307422046611CCCB209A994
:10B190000A542698000E2146621CD4B209AA5054C3
:10B1A0002898C2B22046611CCCB209A90A5428983A
:10B1B000C0F307222046611CCCB209A90A54289882
:10B1C000C0F307422046611CCCB209A90A54289852
:10B1D000000E2146621CD4B209AA50542046611CBC
:10B1E000CCB209A90E546B48427B2046611CCCB2FC
:10B1F00009A90A542498C2B22046611CCCB209A9FC
:10B200000A542498C0F307222046611CCCB209A935
:10B210000A542498C0F307422046611CCCB209A905
:10B220000A542498020E2046611CCCB209A900E001
:10B230009CE00A542398C2B22046611CCCB209A9F2
:10B240000A542398C0F307222046611CCCB209A9F6
:10B250000A542398C0F307422046611CCCB209A9C6
:10B260000A542398020E2046611CCCB209A90A5444
:10B270002046611CCCB209A901F80080C8F307225E
:10B280002046611CCCB209A90A54C8F307422046E3
:10B29000611CCCB209A90A544FEA18602146621C0D
:10B2A000D4B209AA50542046611CCCB209A90F544B
:10B2B000C7F307222046611CCCB209A90A54C7F380
:10B2C00007422046611CCCB209A90A543A0E204616
:10B2D000611CCCB209A90A542046611CCCB209A950
