:020000040800F2
:10580000603C0020015900085DCF0008B5BF0008CA
:1058100059CF0008C9680008211A010800000000DB
:1058200000000000000000000000000055E8000833
:10583000076B00080000000057D30008C5EC000803
:105840001B5900081B5900081B5900081B59000868
:105850001B5900081B5900081B5900081B59000858
:105860001B5900081B5900081B5900081B59000848
:105870001B5900081B5900081B5900081B59000838
:105880001B5900081B5900081B5900081B59000828
:10589000691901081B5900081B5900081B59000809
:1058A0001B5900081B5900081B5900081B59000808
:1058B0001B59000881ED00081B5900081B590008FE
:1058C0001B5900081B5900081B5900081B590008E8
:1058D0001B59000895F10008E1F100081B59000868
:1058E0001B5900081B5900081B590008DFF80CD091
:1058F00000F04AFD0048004755300108603C002098
:105900000648804706480047FEE7FEE7FEE7FEE759
:10591000FEE7FEE7FEE7FEE7FEE7FEE771ED0008C3
:10592000ED580008202A04DB203A21FA02F0002179
:10593000704721FA02F3D040C2F12002914008439F
:105940001946704740EA01039B0703D009E008C9E4
:10595000121F08C0042AFAD203E011F8013B00F834
:10596000013B521EF9D27047D2B201E000F8012B80
:10597000491EFBD270470022F6E710B513460A46CF
:1059800004461946FFF7F0FF204610BD421C10F8F0
:10599000011B0029FBD1801A704700000FB400B52D
:1059A0008DB010A909900B9000914FF0FF300A9034
:1059B00000200C9005480690054807906A4609A803
:1059C0000F9900F0ADFA0DB05DF814FB3D5F0008D3
:1059D0005B5F00082DE9FF4F087883B09946FF28E8
:1059E00005D0491C2D2804D00024002008E0002008
:1059F0000BE00124F9E700EB800003EB4000491CB9
:105A00000B78FF2BF7D104B14042002302931478A6
:105A100019461D462D2C01D02B2C04D1521C2D2CA7
:105A200013D000240294AA461478FF2C0FD00A2524
:105A3000A3FB057801FB05814FF0000C03FB0C1163
:105A4000521CE3194AEB0101EEE70124EAE7814425
:105A500053EA010002D019F5C87F06DA0398002145
:105A6000C0E9001107B0BDE8F08F0025AE4E2F460B
:105A7000DFF8B882184600F02FFCCDE90001B9F13B
:105A8000000002DAC9F1000400E004460023A74A3E
:105A90001AEB030B42EB045A12E0E00707D02A4648
:105AA00033463846414600F0A5FB074688462A465D
:105AB00033461046194600F09DFB05460E4664101D
:105AC000002CEAD1DDE90001B9F1000F5A46534636
:105AD00006DA00F03CF93A46434600F038F905E0B2
:105AE00000F088FB3A46434600F084FB029A0AB174
:105AF00081F00041039AC2E90001B3E72DE9FF4FAD
:105B00001F468DB0D7E901464FF0FF382E2045469D
:105B10004FF000090B90B9696D1C0E988847396ADF
:105B2000824688470028F6D1BAF1FF3F0AD024F414
:105B3000D064002E11DDBAF12B0F08D0BAF12D0F71
:105B40000BD102E0404611B08DE744F48064B9699E
:105B50006D1C0E9888478246761E6946600501D501
:105B60002D2000E02B208DF8000001F1010B0DF13C
:105B7000200809E0B9696D1C0E98884782460F9885
:105B800044F40074761E0560002E02DDBAF1300F79
:105B9000F0D00B998A453ED144F0800406E00F997D
:105BA000681CA9F1010944F400740860B9696D1C0E
:105BB000761E0E98884782463028F0D02BE00B994D
:105BC0008A4505D1200603D444F08004761E18E0EF
:105BD00050460CF0D3F908B30DF11301761E44F4CE
:105BE00000748B4508D2AAF130000BF8010B200697
:105BF00007D5A9F1010003E0200602D409F1010054
:105C00008146A00502D50F99681C0860B9696D1C12
:105C10000E9888478246002ED1DC53E0002E51DDDD
:105C2000BAF1650F02D0BAF1450F4BD1A00549D5A5
:105C3000B9696D1C24F44074761E0E98884782461C
:105C4000002E0CDD2B2804D0BAF12D0F07D144F41F
:105C50008074B9696D1C0E9888478246761EE005EF
:105C600001D52D2100E02B2108F8011BCDF82C8057
:105C700021E00DF12901761E44F4007488450CD210
:105C8000AAF1300010F0FF0088F8000002D10B9953
:105C9000884509D908F1010806E0E00501D5244846
:105CA00001E042F20F708146B9696D1C0E98884779
:105CB00082460F980560002E04DD50460CF05EF918
:105CC0000028D6D1F9690E988847FF208BF800008C
:105CD00088F800000020069007904B466A4608A905
:105CE00006A8FFF777FEA00502D46FF001002AE7AF
:105CF00014F0240F0AD0E00714D1DDE90612386849
:105D0000031D3B600068C0E900120BE0DDE90601FD
:105D100000F01EFB0146E00704D13868021D3A601E
:105D20000068016028460EE7000014400000F03FC4
:105D3000F1D8FFFF70B506460CF04AF80468054636
:105D40000A220021304600F019F92C6070BD2DE9BF
:105D5000F04D81EA030404F0004B21F000451446A5
:105D60004FF0000A23F0004150EA050220D054EA27
:105D700001021DD0C5F30A570246C5F31303C1F350
:105D80001300C1F30A5640F4801543F48013A7EBC7
:105D90000608101BD64608F2FD3873EB050002D347
:105DA00008F1010801E092185B41B8F1000F03DA35
:105DB00000200146BDE8F08D00204FF4801106461A
:105DC00084460EE0171B73EB050705D3121B63EB2C
:105DD000050306434CEA010C49084FEA30009218CB
:105DE0005B4150EA0107EDD152EA030012D082EA8A
:105DF000040083EA0501084305D0101BAB4106D21D
:105E00000122002306E000224FF0004302E06FF081
:105E1000010253101AEB06004CEB085110EB0A007C
:105E200041EB0B01BDE8F04D00F0E0B8C1F30A52C0
:105E300010B5C1F3130140F2FF3341F480119A42CF
:105E400001DA002010BD40F233439A42A2F23342FD
:105E500003DC5242FFF766FD10BD904010BD00F01C
:105E6000004230F000400AD0C10D01F56071C0F36E
:105E7000160042EA0151C208400711437047002052
:105E80000146704730B50B46014600202022012410
:105E900009E021FA02F59D4205D303FA02F5491BF8
:105EA00004FA02F52844151EA2F10102F1DC30BD0E
:105EB0002DE9F05F0546002092469B46884606463F
:105EC000814640241BE02846414647462246FFF7CC
:105ED00029FD53465A46C01A914110D3114618461F
:105EE000224600F063FA2D1A67EB01084F4622465E
:105EF0000120002100F05AFA17EB00094E41201E44
:105F0000A4F10104DFDC484631462A464346BDE899
:105F1000F09F000002681144137801601846704732
:105F2000D160044951610449116200211161114697
:105F300000F06CBA155F0008F9630008426842B1CE
:105F4000016811F8013B23B1521EC0E90012184646
:105F500070470121C160881E704742685AB1C3680A
:105F6000016843B983688B4205D0491E521CC0E9C1
:105F70000012002070474FF0FF3070472DE9F047C6
:105F800091460F4680460446002614F8015B2DB169
:105F900000F02EFA0068405DC007F6D12B2D02D02C
:105FA0002D2D18D0641E4A463946204600F0C4FB09
:105FB00027B13968A14201D1C7F8008071054FF0BF
:105FC00002040BD54042002803DD0BF001FF046002
:105FD000A007BDE8F08746F48066E4E70028F8DA19
:105FE0000BF0F6FE04606FF00040F2E710B5141EEF
:105FF00073F1000408DA401C41F1000192185B4182
:106000001A4301D120F0010010BD2DE9F04D924658
:106010009B4611B1B1FA81F202E0B0FA80F220326F
:10602000904600F0C3F904460F4640EA0A0041EAF0
:106030000B0153465A46084313D0114653EA010058
:1060400019D0C8F140025046FFF76CFC05460E46D9
:1060500050465946424600F0A9F9084305D00120B0
:1060600004E020463946BDE8F08D0020054346EAAD
:10607000E0762C4337430A986305E40AA0EB080056
:106080000022FD0A44EA47540A3002D500200146A6
:10609000E9E7010510196941DDE908450019694181
:1060A000BDE8F04DA2E72DE9FE4F804681EA0300EE
:1060B000C00F0C46009021F0004123F00045B8EBE2
:1060C0000200A94105D24046214690461C460B4697
:1060D000024623F00040104347D0270DC7F30A00C3
:1060E000C3F30A510290401A019040286BDAC3F3BF
:1060F000130040F4801B0098924620B10023D2EB9D
:10610000030A63EB0B0B01985946C0F1400250465D
:1061100000F04CF906460D4650465946019A00F0EB
:1061200054F910EB08006141002487EA115284EA17
:10613000E7731A4340D0009A62B3019A012A4FEAEA
:10614000075215DC001B61EB02014FF0004202EA2E
:106150000752CDE90042001C41F5801132462B4622
:10616000FFF753FF03B0BDE8F08F40462146F9E743
:10617000001B61EB0201001C41F5801300185B411C
:106180002018A2F5001747EB030140EAD570B619B5
:106190006D4111E06D084FEA360645EAC0754FEAD9
:1061A0000752001B61EB0201001C41F580114908F8
:1061B0004FEA30000019514132462B4603B0BDE88A
:1061C000F04FFFF713BF0098012240000023D0EBEF
:1061D000020263EBE073009821464FEAE074B8EBEB
:1061E000000061EB0401E9E783F000435BE781F025
:1061F000004158E72DE9FE4F81EA030404F0004412
:1062000021F0004100944FF0000B23F0004350EACE
:1062100001045ED052EA03045BD0C3F30A54C1F315
:106220000A552C44A4F2F3340194A0FB0254C1F3A8
:10623000130141F48011C3F3130343F4801301FBF2
:10624000024400FB034E840A970A44EA815447EA59
:106250008357A4FB076802958D0A05FB07854FEA63
:10626000932C04FB0C542705029D4FEA065847EA7D
:106270001637B5EB08056EEB070C870E920E47EA52
:10628000811742EA8312A7FB0201B6EB0B0164EB14
:1062900000042B0D43EA0C335E1844EB1C50DA4625
:1062A0005146E7FB0201C5F313044FEA0B3343EAFF
:1062B00014534FEA0432019C43EA0603A4F10C0490
:1062C0000294009CCDE900B4FFF79FFE03B0BDE847
:1062D000F08F00200146F9E70EB540F233420292FA
:1062E0000022CDE900221346FFF78FFE03B000BD68
:1062F000C1F30A52C1F3130140F2FF3341F480119C
:106300009A4202DA00200146704740F233439A4233
:10631000A2F2334202DC5242FFF704BB00F046B85F
:1063200030B5041E71F1000404DB4FF0004440421C
:1063300064EB0101141E73F1000405DB1C464FF0F1
:106340000043524263EB0403994208BF904230BDC0
:1063500001F0004330B421F0004150EA010206D0C0
:106360000A0DA2F56072C1F31301002A02DC30BCF1
:1063700000207047440F44EAC104C100E01830BC5B
:1063800000EBC25000F027BA064C074D06E0E0686B
:1063900040F0010394E8070098471034AC42F6D36C
:1063A000FFF7A8FA0453010824530108202A04DB4C
:1063B000203A00FA02F1002070479140C2F1200318
:1063C00020FA03F3194390407047202A06DBCB17CD
:1063D000203A41FA02F043EAE07306E041FA02F3A0
:1063E000D040C2F120029140084319467047000096
:1063F00000487047EC51010810B50446FFF7F8FF5C
:106400000068005D00F0010010BD00002DE9F34FB1
:106410008BB04FF0000801F10C000C464FF0010B5F
:1064200046460DF1080A01906269012101989047E2
:10643000051E2DD0252D2CD0216A8847C0B1626958
:10644000012101989047216A88470028F7D1411E11
:1064500062690198904700E0761CA1690B98884713
:10646000216A88470028F7D1E1690B988847DBE764
:10647000A1690B9888470746A84201D1761CD3E74B
:10648000E1690B9888477F1C02D1B8F1000F6FD0EB
:1064900046E1002762693D463946019890472A281F
:1064A00004D162690121019890470125DFF88492A7
:1064B0006269012101989047A0F130010A290AD2AE
:1064C0004F45E5DC07EB870100EB4107303FDFD4A8
:1064D00045F01005ECE7E90601D46FF000476C28A1
:1064E0000AD04C2814D0682815D06A280DD07428FA
:1064F0001CD07A281AD01DE06269012101989047CA
:106500006C2802D045F0040514E045F002050DE0CA
:1065100045F020050AE0626901210198904768284A
:1065200002D045F0080505E045F4006562690121E7
:1065300001989047C4E9015765283DD019DC5828D7
:106540007AD00CDC452837D004DC252826D0412819
:1065500031D131E046282FD047282CD12CE05B28C0
:1065600077D0612828D063287CD0642823D15AE0D2
:10657000D0E06F2848D008DC66281DD067281BD0E3
:10658000692821D06E2816D127E0702845D07328BD
:1065900068D0752847D078280DD14DE0A1690B98B7
:1065A0008847054625283FF469AFE1690B9888477D
:1065B0006D1C3FF46AAFB3E023466A466FF00100FA
:1065C0000B99FFF79BFA9EE045F040006060A8073A
:1065D00023464FF0000236D43EE0E8077FF447AF91
:1065E0002068011D21600068290501D506701BE7A0
:1065F000290701D5068017E7A90703D5F117C0E9D8
:10660000006111E706600FE745F040006060A807F1
:1066100023464FF0080216D41EE040F60E0125EA8C
:106620000100606016E045F040006060A807234666
:106630004FF00A0207D40FE045F040006060A80761
:1066400008D5234610226FF001000B99AFF30080AC
:1066500059E007E0234610226FF001000B99AFF3D9
:10666000008050E04FF000094F464B46632802D0AF
:106670005B2806D040E0E80601D40120A060012795
:106680003AE062690121019890475E2805D14FF0F8
:1066900001096269494601989047216939B9002189
:1066A0000A46534643F82120491C0829FADBB0B3B7
:1066B000216969B9C11700EBD16253110AEB83015B
:1066C00022F01F02821A01200B68904003430B60E6
:1066D00062690121019890475D28E8D1B9F1000F66
:1066E00009D00020514651F82020D24341F8202003
:1066F000401C0828F7DB02AB224600976FF0010030
:106700000B99AFF3008000280CDA401C08D1BBF1D4
:10671000000F05D04FF0FF300DB0BDE8F08FFFE760
:106720004046F9E7E90701D108F1010806444FF0B6
:10673000000B79E6CCCCCC0C2DE9F05F82460078DA
:10674000002715468B460AF10104B946302801D0CE
:106750009DB113E014F8010B0127782803D05828C5
:1067600001D045B10AE00DB1102D07D10027102549
:1067700014F8010B02E0082500E00A250026B046C7
:106780000EE005FB080005FB06F1012701EB1046B2
:106790001FFA80F8B6F5803F00D3B94614F8010B14
:1067A000294600F04FF80028EBDABBF1000F05D0C6
:1067B0000FB1641E00E05446CBF80040B9F1000F61
:1067C00006D00BF005FB02210160C81EBDE8F09F5A
:1067D00048EA0640FAE70029A8BF7047401C490074
:1067E00008BF20F00100704710B4B0FA80FC00FA36
:1067F0000CF050EA010404BF10BC704749B1CCF161
:10680000200421FA04F411FA0CF118BF01212143EC
:106810000843A3EB0C01CB1D4FEA00614FEA1020A7
:1068200042BF002010BC704700EBC3501044002949
:10683000A4BF10BC7047401C490008BF20F00100F5
:1068400010BC70473A2800D2303820F02002412A8C
:1068500001D3A2F13700884201D34FF0FF307047D7
:1068600070B58C1810F8015B15F0070301D110F812
:10687000013B2A1106D110F8012B03E010F8016B3F
:1068800001F8016B5B1EF9D12B0705D40023521EC2
:106890000DD401F8013BFAE710F8013BCB1A921C2A
:1068A00003E013F8015B01F8015B521EF9D5A14228
:1068B000D8D3002070BD10B5142007F087FA03214B
:1068C000142008F04BF810BD00BFFEE7CA78026044
:1068D0000268120202608B7802681A440260026841
:1068E000120202604B7802681A44026002681202C7
:1068F00002600B7802681A440260704730B50346A4
:10690000042B15D007DC7BB1012B0ED0022B0DD050
:10691000032B30D10BE0202B0BD0212B18D0222BB6
:1069200022D0232B27D125E026E025E024E023E018
:1069300022E0002003E00C5C114D2C54401C072881
:10694000F9DB00200F4C207001200F4C207013E069
:10695000002003E00A4C245C0C54401C0728F9DB9F
:106960000020084C207007E006480078401C054CC9
:10697000207001E000E000BF00BF002030BD00003B
:106980002801002008000020090000200020704796
:10699000002003E00021064A1154401CB0F5167F88
:1069A000F8D300200349088003490880704700009D
:1069B00032060020160000201800002010B500222A
:1069C0000449054808F077FD0449034808F06CFDC8
:1069D000002010BDC81600201C0E0020E012002070
:1069E0002DE9F04105460E461449306808602946F5
:1069F000134808F059FD377812480488002113E045
:106A0000685C114A1055601C80B24FF4167290FBFE
:106A1000F2F302FB130084B20C480088844202D1D6
:106A20000220BDE8F081491CB942E9D30548048041
:106A3000034808F015FD0020F3E7000034000020B3
:106A40001C0E002016000020320600201800002036
:106A50002DE9F04104460D4600260A48D0F8B872E8
:106A6000D7F8140210B10120BDE8F0812A46214672
:106A7000044808F020FD034808F0A1FD0646304612
:106A8000F2E700001C0E00202DE9F0410746884681
:106A900015460421052000F029F880210A2007F07E
:106AA0005DFF002405E0395D09200BF039F9601C19
:106AB000C4B24445F7DB032101200BF031F9FF2478
:106AC00000BF052007F082F90646601EC4B21CB163
:106AD00006F004000028F4D0222007F077F928708F
:106AE000212007F073F96870BDE8F08170B50546A4
:106AF0000C46284607F06AF9064626EA04012846AD
:106B00000BF00EF970BD704710B500F07DFB002052
:106B1000034908704FF416710248FEF72CFF10BDB0
:106B2000270000203206002010B50020044908602C
:106B30000449086007F0A2FE03A00DF0DFFB10BDC2
:106B400000000020040000207B224D656D223A7B6E
:106B500022537461747573223A307D7D0A000000FF
:106B600072B601E002F0DAFBFCE700000021074A00
:106B7000D1610749096941F00401054A11611146D3
:106B8000096941F04001116170470000C01F0020F9
:106B9000002002400021074AD1610749096941F0FC
:106BA0000201054A116111464861096941F040013D
:106BB00011617047C01F0020002002400022054BD9
:106BC000DA61054A126942F00102034B1A61018041
:106BD00070470000C01F00200020024000201E4916
:106BE000C96801F0100139B11C49C96941F00201BD
:106BF0001A4AD16140F010001749C96801F0040138
:106C000039B11649C96941F00101144AD16140F016
:106C100004001149C96901F0010169B10F49C9694D
:106C200041F004010D4AD16100BF0B49C96921F04F
:106C30000101094AD16100BF00BF40F20111884241
:106C400006D10549C96921F00101034AD16101E07A
:106C50000149C86000BF704700200240C01F0020EB
:106C600010B507F0A3FA002007F0BEFA642001F087
:106C70007BFA10BD70B5044601F004FD054609E03D
:106C8000601C38B124B101F0FDFC401BA04201D9C9
:106C9000032070BD1248C06800F001000028EFD149
:106CA0000F48C06800F0200020B100BF20200C4930
:106CB000C86000BF0A48C06800F0100048B9084822
:106CC000C06900F0010020B90548C06800F0040068
:106CD00018B1FFF783FF0120DBE70020D9E70000B0
:106CE0000020024010B58EB0342101A8FEF743FE0B
:106CF0000D48047800200D4908600B49087001AA6E
:106D000000214FF4987000F06BFE642001F02CFA23
:106D10004FF416710648FEF72EFE00200349086066
:106D2000014804700EB010BD270000203C00002078
:106D3000DA0300202DE9F0479AB007464FF0000A29
:106D4000642101A8FEF717FED0460020D74908604D
:106D50000024D74805780026A14647E10020D34902
:106D60000860FFF7BFFF642001F0FEF9F8B28DF86C
:106D70000400380A8DF805000020CC49086001AAFB
:106D8000022140F2031000F02BFE40F203100BF042
:106D90007BFF012806D1C7A00DF0B0FA01201AB080
:106DA000BDE8F087D3480078AA287DD1D148407843
:106DB0005528FAD1CF4880780328F6D1CD48C0783D
:106DC0000128F2D1CB48807900286ED1F9E0C9487A
:106DD000017A407A01EB00244FF6F170844233D1FE
:106DE0004FF0010AC4480078432810D1FFF77AFF1A
:106DF000AF480570012001F0B7F90020BF490880B5
:106E0000BD490870BEA00DF079FA0020C7E7002048
:106E1000A74908702246C7A101A80AF0A9FF01A846
:106E20000DF06CFA642101A8FEF7A5FD4FF4C870BF
:106E300001F09AF9701CC6B24AF6AA20CD49096839
:106E400008600020994908604FF6F270844236D1FC
:106E50004FF0020AA8480078432810D1FFF742FFFC
:106E600093480570012001F07FF90020A3490880B4
:106E7000A1490870A2A00DF041FA00208FE7002080
:106E80008B4908702246ABA101A80AF071FF01A846
:106E90000DF034FA642101A8FEF76DFD4FF4C870BF
:106EA00001F062F9002001E090E09BE07F4908607A
:106EB000701CC6B24AF6AA20AE49096808604FF6AF
:106EC000F370844233D14FF0030A8B480078432893
:106ED00010D1FFF707FF76480570012001F044F953
:106EE0000020864908808449087085A00DF006FAC4
:106EF000002054E700206E49087022468DA101A8A9
:106F00000AF036FF01A80DF0F9F9642101A8FEF797
:106F100032FD4FF4C87001F027F900206349086082
:106F2000701CC6B24AF6AA209249096808604FF65A
:106F3000F470844221D1701CC6B200205C490870F4
:106F400022467CA101A80AF013FF01A80DF0D6F992
:106F5000642101A8FEF70FFD4FF4C87001F004F999
:106F60000020524908606348017A407A01EB00240E
:106F70004AF6AA207F49096808604FF6F3708442F8
:106F80000ED0401E84420BD0401E844208D0C01C4C
:106F9000844205D024B14FF0010800264FF00209C9
:106FA0003C2E0ED10026FFF79DFE4FF4167151487E
:106FB000FEF7E1FC3E4805706FA00DF09FF9002040
:106FC000EDE6B8F1000F3FF402AF0BE0642001F0F2
:106FD000CBF84FF416714748FEF7CDFC002033493B
:106FE000086007E009F1010000F0FF09B9F1020FA4
:106FF000FFF6B4AE00BF3F480078AA283FD13D4815
:10700000407855283BD13B488079002837D0394813
:10701000017A407A01EB0024642101A8FEF7ABFC61
:10702000602C0DD0142C0BD0412C09D0232C07D070
:10703000212C05D0302C03D0192C01D0512C05D196
:10704000224657A101A80AF093FE04E0212254A190
:1070500001A80AF08DFE01A80DF050F90020134997
:10706000086013480570FFF73DFE642001F07CF8CE
:107070004FF416711F48FEF77EFC00208FE6B8F132
:10708000010F02D150A00DF039F9012001F06CF888
:107090004FF416711748FEF76EFC00200349086094
:1070A000012003490870002079E600003C00002020
:1070B000270000207B2252656365697665223A7B52
:1070C00022537461747573223A32367D2C22462223
:1070D0003A7B2254797065223A22456E726F6C6C4D
:1070E000222C22537461747573223A2D317D7D0AEE
:1070F00000000000DA030020320600201600002005
:107100007B2252656365697665223A7B22537461FE
:10711000747573223A32367D2C2246223A7B2254F1
:10712000797065223A2243616E73656C227D7D0A17
:10713000000000007B2252656365697665223A7B18
:1071400022537461747573223A32367D2C224622A2
:107150003A7B2254797065223A22456E726F6C6CCC
:10716000222C22537461747573223A25647D7D0A42
:1071700000000000DC0A00207B2246223A7B2254D9
:10718000797065223A22456E726F6C6C222C225304
:107190007461747573223A31387D7D0A00000000F5
:1071A0007B2246223A7B2254797065223A22456E30
:1071B000726F6C6C222C22537461747573223A25A1
:1071C000647D7D0A000000007B2246223A7B225427
:1071D000797065223A22456E726F6C6C222C2253B4
:1071E0007461747573223A307D7D0A0010B54FF4D6
:1071F00016710348FEF7BFFB00200249086010BD6E
:10720000DA0300203C00002010B5C0B0642127A89C
:10721000FEF7B1FB00241A2120A8FEF7ACFB1822D0
:107220002C491AA8FEF78EFB1A2113A8FEF7A3FB20
:107230001822284918310DA8FEF784FB1A2106A848
:10724000FEF799FB1822234930316846FEF77AFB96
:10725000FFF7CCFF002020490860642318221AA9F8
:107260001E4804F03CFE4FF483700BF00DFD012826
:107270000AD11BA00DF042F84FF416712848FEF712
:107280007AFB012040B010BD2548827925A127A8AE
:107290000AF06EFD27A80DF031F8642318220DA91D
:1072A0000E4804F01CFE4FF4FA7000F05DFF6423FA
:1072B00018226946094804F012FE012000F054FF2C
:1072C0004FF416711648FEF756FB0020254908704A
:1072D00000BFD7E7B05001083C000020940D00200B
:1072E0007B2252656365697665223A7B225374611D
:1072F000747573223A32367D2C2246223A7B225410
:10730000797065223A2244656C657465414C4C2263
:107310002C22537461747573223A2D317D7D0A00DD
:10732000DA0300207B2252656365697665223A7B29
:1073300022537461747573223A32367D2C224622B0
:107340003A7B2254797065223A2244656C657465F3
:10735000414C4C222C22537461747573223A25647B
:107360007D7D0A002700002030B599B0044600203A
:1073700020490860FFF73AFFE0B28DF80000200ACC
:107380008DF801006A46022140F2051000F028FB4A
:1073900040F205100BF078FC012805D116A00CF086
:1073A000ADFF012019B030BD23480078AA281FD1B5
:1073B0002148807930B92048827920A168460AF0B6
:1073C000D7FC09E01C48017A407A01EB00252A46E7
:1073D0001AA168460AF0CCFC68460CF08FFFFFF754
:1073E00005FF4FF416711448FEF7C5FA0020D9E7DF
:1073F0000120D7E73C0000207B2252656365697657
:1074000065223A7B22537461747573223A32367D59
:107410002C2246223A7B2254797065223A22446516
:107420006C657465222C22537461747573223A2D35
:10743000317D7D0A00000000DA0300207B225265C6
:107440006365697665223A7B225374617475732291
:107450003A32367D2C2246223A7B225479706522BC
:107460003A2244656C657465222C225374617475EC
:1074700073223A25647D7D0A0000000010B59AB0A1
:10748000002026490860FFF7B1FE0020234908606C
:107490000A2000F069FE01AA002140F2071000F066
:1074A0009FFA40F207100BF0EFFB012805D11C48B2
:1074B0000CF024FF01201AB010BD1A480078AA2849
:1074C00025D118484078552821D1164880780728BA
:1074D0001DD11448C078012819D11248017A407A88
:1074E00001EB00249CB10F48807928B922460EA1F7
:1074F00001A80AF03DFC04E022461B4901A80AF05D
:1075000037FC01A80CF0FAFE012000F02DFE4FF42C
:1075100016710448FEF72FFA0020CCE73C0000204B
:1075200038520108DA0300207B22526563656976D0
:1075300065223A7B22537461747573223A32367D28
:107540002C2246223A7B2254797065223A224765E2
:1075500074456D7074794944222C224944223A259D
:10756000647D7D0A00000000C05201082DE9F04F43
:10757000ADF53D7D82460020BC90BB9000270026E3
:107580008046A1490870A14908608146FFF72EFE98
:1075900000209E4908604FF416719D48FEF7EBF9F4
:1075A0000AF0FF008DF888024FEA1A208DF8890250
:1075B000A2AA02214FF4857000F012FA322000F0E6
:1075C000D3FD01F05FF8A09052E001F05BF8A099C4
:1075D000401A41F28831884211D98EA00CF08EFEFB
:1075E0004FF416718A48FEF7C6F9012086490870E3
:1075F0000020864908600DF53D7DBDE8F08F4AF614
:10760000AA208F49096808608048006840F25E211E
:10761000884200DB2DE07E480078AA2828D17C48EB
:107620004078552824D17A4880780A2820D1784893
:10763000807901281CD175480068182818D1744831
:10764000017A407A01EB002B5A467EA1A2A80AF0EB
:107650008FFBA2A80CF052FE4FF416716C48FEF797
:107660008AF9012068490870002068490860C2E76B
:10767000ABE700BF002413E06548005DA5280ED1EC
:107680006349601C085C5A2809D1A01C085C0A28C0
:1076900005D1E01C085C012801D1274603E0641CE9
:1076A000B4F5167FE8D300BF5949381D095C584A24
:1076B000781D105C01EB0020051F114607F1080042
:1076C000095C401C105C01EB0020A1900DB1A19859
:1076D00088B90A2000F048FD4EA00CF00FFE4FF4D0
:1076E00016714B48FEF747F9012047490870002002
:1076F000464908607FE74FF40F7111A8FEF73BF988
:107700000A2000F031FD002407E007F10A002044C0
:107710003F49085C11A90855641CAC42F5D301200F
:10772000394908703A488079002858D12B4652468A
:107730004FA1A2A80AF01CFBA2A80CF0DFFD4FF499
:107740007A7000F011FD4AF6AA203D4909680860E8
:107750004FF0010922E0A9F10100C0EB80164FF0C3
:10776000000807E011A8805D01A901F80800761C57
:1077700008F10108C9EB8910B042F3D83F2101A8F4
:10778000FFF766F9642000F0EFFC4AF6AA202C49C6
:107790000968086009F1010000F0FF09C9EB8910D0
:1077A000A842D8D3A9F10100C0EB80164FF0000821
:1077B00007E011A8805D01A901F80800761C08F116
:1077C0000108AE42F5D31FFA88F101A8FFF740F98E
:1077D000052000F0C9FC35A00CF090FD0CE00C4831
:1077E000017A407A01EB002B5A4616A1A2A80AF0B2
:1077F000BFFAA2A80CF082FD4FF416710448FEF700
:10780000BAF800BFF7E60000260000203C00002088
:10781000DA0300207B2246223A7B225479706522CB
:107820003A225265616454656D706C617465222CF6
:1078300022537461747573223A2D317D7D0A0000E4
:10784000DC0A00207B2246223A7B22547970652292
:107850003A225265616454656D706C617465222CC6
:1078600022537461747573223A25647D7D0A000089
:107870007B2246223A7B2254797065223A22526555
:10788000616454656D706C617465222C22494422D8
:107890003A25642C224461746153697A65223A2541
:1078A000642C2244617461223A220000227D7D0A08
:1078B0000000000010B59AB0642101A8FEF75BF843
:1078C00000202E49086001AA00214FF4817000F0C9
:1078D00087F80F2000F048FC2948017A407A01EB34
:1078E000002427480078AA283FD125484078552809
:1078F0003BD123488078022837D12148C07801281D
:1079000033D12048007801282FD100201D4908706C
:107910001B48807970B94FF6F470844225D0002C52
:1079200023D0224618A101A80AF022FA01A80CF0DF
:10793000E5FC1AE0122C0DD0152C14D122461DA105
:1079400001A80AF015FA00202449087001A80CF0DB
:10795000D5FC09E0221D17A101A80AF009FA01A827
:107960000CF0CCFC00E000BF00BF4FF416710448DF
:10797000FEF701F800201AB010BD00003C00002006
:10798000DA030020140000207B2246223A7B225496
:10799000797065223A224964656E74696679222C91
:1079A0002254656D706C617465223A25647D7D0A90
:1079B000000000007B2246223A7B22547970652227
:1079C0003A224964656E74696679222C2253746187
:1079D000747573223A25647D7D0A0000270000201B
:1079E0002DE9F0418EB005460C469046342101A8A1
:1079F000FDF7C1FF002655208DF8040001A800F016
:107A000035FA5536AA208DF805000DF1050000F075
:107A10002DFAAA362846E91705EB11610912A5EBE4
:107A20000121C9B28DF806100DF1060000F01EFA12
:107A30002846E91705EB11610912A5EB0121314434
:107A40008EB2E91705EB1161090A8DF807100DF1E7
:107A5000070000F00BFA2846E91705EB116106EB69
:107A600021218EB22046E11704EB11610912A4EB2B
:107A70000121C9B28DF8081002A800F0F7F92046DC
:107A8000E11704EB11610912A4EB012131448EB21C
:107A9000E11704EB1161090A8DF809100DF10900D5
:107AA00000F0E4F92046E11704EB116106EB212117
:107AB0008EB200270EE018F80710B81D01AA115465
:107AC00008EB070000F0D2F918F80700304486B23E
:107AD000781CC7B2A742EEDB09E00021B81D01AA5D
:107AE0001154B91D881800F0C1F9781CC7B2102FC5
:107AF000F3DB3046F11706EB11610912A6EB012109
:107B0000C9B28DF81A100DF11A0000F0AFF9304625
:107B1000F11706EB1161090A8DF81B100DF11B001E
:107B200000F0A4F900270EB0BDE8F0812DE9F04384
:107B30008DB004460E461746994600255A208DF80A
:107B40000000684600F092F95A35A5208DF8010032
:107B50000DF1010000F08AF9A5352046E11704EB8C
:107B600011610912A4EB0121C9B28DF802100DF1C7
:107B7000020000F07BF92046E11704EB11610912C5
:107B8000A4EB01210D44E11704EB1161090A8DF802
:107B900003100DF1030000F069F92046E11704EB32
:107BA000116105EB2125B01CC0B28DF8040001A8BD
:107BB00000F05CF9B01CC0B20544B01C000A8DF89E
:107BC00005000DF1050000F051F9B01C05EB102582
:107BD000F8B28DF806000DF1060000F047F9F8B292
:107BE0000544380A8DF807000DF1070000F03EF952
:107BF00005EB17254FF0000808E009EB080000F03E
:107C000035F919F80800054408F10108B045F4D326
:107C1000E8B28DF82F000DF12F0000F027F9280AA7
:107C20008DF830000CA800F021F94FF000080DB0DD
:107C3000BDE8F083F0B5ADF5297D06460D46144646
:107C40006427642190A8FDF796FE4FF40F7101A8F8
:107C5000FDF791FE012042490870A178607801EBA0
:107C600000262179E07801EB0025062004E0225C63
:107C7000811F01AB5A54401CA91D8842F7D3FFF75E
:107C8000B5FAE8B28DF84002280A8DF841024AF6AA
:107C9000AA2034490968086090AA022140F20B101A
:107CA000FFF79EFE40F20B100AF0EEFF4FF4167144
:107CB0002D48FDF760FE00202C49086001AB3246DC
:107CC000294640F20B10FFF731FF4AF6AA2025495A
:107CD0000968086040F20B100AF0D6FF22480078CD
:107CE000A5282DD12048807900281AD1A178607864
:107CF00001EB00211C48027A407A02EB002081420D
:107D00000BD132461AA190A80AF032F890A80CF0D4
:107D1000F5FA01202649087015E026A00CF0EEFACD
:107D200011E01148007A602802D12EA00CF0E6FA8A
:107D30000D48007A702806D135A00CF0DFFA02E079
:107D40003FA00CF0DBFA0020084908604FF41671E0
:107D50000548FDF710FE01200DF5297DF0BD00005E
:107D600026000020DC0A0020DA0300203C0000206E
:107D70007B2246223A7B2254797065223A2257723E
:107D800069746554656D706C617465222C2257723C
:107D900069746554656D706C6174654944223A2557
:107DA000642C22537461747573223A307D7D0A000D
:107DB000270000207B2246223A7B225479706522DC
:107DC0003A22577269746554656D706C61746522EE
:107DD0002C22537461747573223A3130307D7D0AE0
:107DE000000000007B2246223A7B225479706522F3
:107DF0003A22577269746554656D706C61746522BE
:107E00002C22537461747573223A39367D7D0A00D1
:107E10007B2246223A7B2254797065223A2257729D
:107E200069746554656D706C617465222C2253749D
:107E300061747573223A3131327D7D0A0000000091
:107E40007B2246223A7B2254797065223A2257726D
:107E500069746554656D706C617465222C2253746D
:107E600061747573223A2D317D7D0A0010B5044688
:107E700001231A462146024804F031F810BD0000E3
:107E8000940D002070B59AB0094804680848103075
:107E900005680748203006682B46224605A101A840
:107EA000009609F065FF01A80CF028FA1AB070BD21
:107EB000E8F7FF1F7B224350554944223A7B225862
:107EC00031223A25382E38582C225832223A253879
:107ED0002E38582C225833223A25382E38587D7D9A
:107EE0000A00000000B59FB0642106A8FDF743FD1D
:107EF000FFF77CF9642000F037F9182212A16846D8
:107F0000FDF720FD322319226946154803F0E7FFEB
:107F1000642000F029F913480078AA280DD11148EF
:107F20004078552809D10F48437A027A0E4906A8AD
:107F300009F01EFF06A80CF0E1F91E210948FDF723
:107F40001AFD1FB000BD000055AA1201000000007C
:107F5000000000000000000000000000000012010E
:107F6000940D0020DA0300207C5201082DE9F04135
:107F70000546002600F086FB0746052000F0F4F8D1
:107F800028480078022812D12648407854280ED17B
:107F90002448807848280AD12248C078452806D14C
:107FA00000211E2006F0A6FC6420BDE8F0811E48DA
:107FB000008808280CD01B480078022806D11A48EF
:107FC0000088401E1749085C032801D00320ECE715
:107FD0000026012403E01348005D4640641C12485B
:107FE0000088801EA042F6D80F480088801E0D49E8
:107FF000085CB04201D00420D7E70A48C178007974
:1080000001EB0020A84201D00620CEE706480088F8
:10801000072805D100211E2006F06CFC6420C4E76F
:108020000020C2E7320600201600002070B50A4882
:108030000468001D0568001D0668344454B1082218
:108040000649204604F076FB0422044910312846F4
:1080500004F070FB70BD0000E8F7FF1F0E01002068
:108060000146002291F82100022808D004208863EC
:1080700000BF002081F8200000BF01207047086881
:10808000006820F00E000B6818600868006820F097
:1080900001000B68186091F8403001209840CB6BCC
:1080A0005860012081F8210000BF002081F82000E5
:1080B00000BF1046E2E7000070B50446002594F8C2
:1080C0002100022803D00420A063012548E0206895
:1080D000006820F00E00216808602068006820F029
:1080E0000100216808601F492068884201D10120F1
:1080F00026E01C4914312068884201D110201FE07D
:10810000184928312068884201D1801518E01549A6
:108110003C312068884201D1801411E0114950316E
:108120002068884202D14FF4803009E00D49643163
:108130002068884202D14FF4801001E04FF0807037
:10814000084908394860012084F8210000BF002058
:1081500084F8200000BF606B10B12046616B884737
:10816000284670BD0800024070B5044600F08AFA47
:1081700006462546681C10B104480078054400BF37
:1081800000F080FA801BA842FAD370BD480100209D
:108190002DE9F04104460E460127002500BF264880
:1081A000007E012802D10220BDE8F0810120224991
:1081B000087600BF2068022813D14CF25030FEF739
:1081C00059FD90BB0120FEF7D1FC4CF25030FEF778
:1081D00051FD07461948006920F00400174908615D
:1081E00023E04CF25030FEF745FDF0B94FF0FF3080
:1081F0003060A56812E02846FEF7CCFC4CF2503007
:10820000FEF738FD07460D48006920F002000B49D3
:1082100008610FB1356007E005F58065D4E902100B
:1082200001EB8020A842E6D800BF00BF0020024931
:10823000087600BF3846B7E7C01F00200020024084
:108240000348006940F08000014908610020704740
:10825000002002402DE9FE4F05468B461746984602
:10826000012600240020029000BF2448007E01283F
:1082700002D10220BDE8FE8F01202049087600BF10
:108280004CF25030FEF7F6FC064686BB012D02D1BB
:108290000120029006E0022D02D10220029001E0AE
:1082A0000420029000241EE02201B946C24648463E
:1082B0005146FDF737FB80B20190022000FB04B06D
:1082C00000900199FEF77AFC4CF25030FEF7D2FC98
:1082D00006460B48006920F001000949086106B113
:1082E00004E0601CC4B202988442DDDB00BF00BF22
:1082F00000200249087600BF3046BBE7C01F0020BF
:108300000020024000200849096901F0800151B1B4
:108310000649054A5160064951601146096901F054
:10832000800101B101207047002002402301674510
:10833000AB89EFCD2DE9F8470346002294466EE164
:108340004FF0010808FA02F4D1F8008008EA0400AE
:10835000A0427DD1DFF8DCA2D1F80480A8EB0A09A5
:10836000D0453AD014DCB8F1030F50D009DCB8F195
:10837000000F31D0B8F1010F1CD0B8F1020F49D174
:1083800020E0B8F1110F18D0B8F1120F42D11EE061
:10839000B9F5881F25D006DCB9F5803F20D0B9F5A6
:1083A000801F37D11AE0B9F5001F18D0B9F5041FA6
:1083B00030D117E0D1F80CC02DE0D1F80C8008F1D5
:1083C000040C28E0D1F80C8008F1080C23E0D1F867
:1083D0000C8008F10C0C1EE000BF00BF00BF00BF06
:1083E00000BF00BFD1F80880B8F1000F02D14FF0F4
:1083F000040C0BE0D1F80880B8F1010F03D14FF065
:10840000080C1C6102E04FF0080C5C6103E04FF0C7
:10841000000C00E000BF00BFFF2801D8984601E033
:1084200003F104084646FF2802D84FEA820803E019
:10843000A2F108084FEA88084746D6F800804FF0B6
:108440000F0909FA07F928EA09080CFA07F900E008
:1084500088E048EA0908C6F80080D1F8048008F0EE
:108460008058B8F1805F7DD100BFDFF8CC81D8F8AB
:10847000188048F00108DFF8C091C9F81880C84694
:10848000D8F8188008F00108CDF8008000BF00BFC0
:108490004FEAB9384FEA920958F829504FEA8278E2
:1084A0004FEA18794FF00F0808FA09F825EA08058D
:1084B000DFF88881434502D14FF0000816E0DFF86D
:1084C0008081434502D14FF001080FE0DFF874814D
:1084D000434502D14FF0020808E0DFF86C814345C4
:1084E00002D14FF0030801E04FF004084FEA82790F
:1084F0004FEA197908FA09F848EA0505DFF84C81CE
:108500004FEA920948F82950D1F8048008F48038DD
:10851000B8F5803F0AD1DFF83881D8F8008048EA02
:108520000008DFF82C91C9F8008009E0DFF820810D
:10853000D8F8008028EA0008DFF81491C9F8008014
:10854000D1F8048008F40038B8F5003F10D1DFF806
:10855000008108F10408D8F8008048EA0008DFF834
:10856000F09000E05AE009F10409C9F800800DE03C
:10857000DFF8DC8008F10408D8F8008028EA000859
:10858000DFF8CC9009F10409C9F80080D1F8048023
:1085900008F48018B8F5801F0ED1DFF8B48008F118
:1085A0000808D8F8008048EA0008DFF8A49009F12C
:1085B0000809C9F800800DE0DFF8948008F1080888
:1085C000D8F8008028EA0008DFF8849009F108094B
:1085D000C9F80080D1F8048008F40018B8F5001F2D
:1085E0000ED1DFF86C8008F10C08D8F8008048EA5A
:1085F0000008DFF85C9009F10C09C9F800800DE073
:10860000DFF84C8008F10C08D8F8008028EA000850
:10861000DFF83C9009F10C09C9F80080521CD1F830
:10862000008028FA02F8B8F1000F7FF489AEBDE8A7
:10863000F8870000000011100010024000080140FF
:10864000000C0140001001400014014008000140EE
:1086500000040140024693680B400BB1012000E08A
:108660000020704710B5C26821EA020302EA010443
:1086700043EA0443036110BD0AB1016101E00B0448
:108680000361704701480068704700004001002006
:1086900070B504460CB9012070BD94F83D0028B9AE
:1086A000002084F83C00204600F0F0FC242084F8F0
:1086B0003D002068006820F0010021680860206803
:1086C000006840F40040216808602068006820F4D9
:1086D00000402168086001F051FF05465C49606870
:1086E000884206D85B48854201D2012007E000207D
:1086F00005E05948854201D2012000E00020012810
:1087000000D1C9E75548B5FBF0F62068406820F075
:108710003F003043216848604D496068884201D875
:10872000701C07E04FF4967070434FF47A71B0FB01
:10873000F1F0401C2168096A21F03F0108432168DB
:10874000086243496068884214D8681E616849001D
:10875000B0FBF1F0401CC0F30B00042801D2042050
:108760003DE0681E61684900B0FBF1F0401CC0F3B9
:108770000B0034E0A06838B9681E616801EB410164
:10878000B0FBF1F0401C0AE0681E616801EBC10219
:1087900002EB0111B0FBF1F0401C40F48040C0F34B
:1087A0000B0008B901201AE0A06848B9681E61688A
:1087B00001EB4101B0FBF1F0401CC0F30B000CE0F9
:1087C000681E616801EBC10202EB0111B0FBF1F020
:1087D000401CC0F30B0040F4804040F4004021688E
:1087E000C9694CF6FF72914308432168C861D4E916
:1087F000070108432168096821F0C0010843216886
:108800000860D4E9031008432168896848F2FF3200
:108810009143084321688860D4E905010843216831
:10882000C96821F0FF0108432168C860206800681A
:1088300040F001002168086000202064202084F8B6
:108840003D000020206384F83E0000BF24E70000C4
:10885000A086010080841E0000093D0040420F00F8
:108860002DE9FC4704468946174698460A9E002093
:108870000190FFF707FF054694F83D0020286FD1CF
:1088800019230122C8492046009503F0A1FD10B12B
:108890000220BDE8FC8700BF94F83C00012801D10C
:1088A0000220F6E7012084F83C0000BF2068006841
:1088B00000F0010028B92068006840F0010021683C
:1088C00008602068006820F40060216808602220A9
:1088D00084F83D00102084F83E0000202064676288
:1088E000A4F82A80608D2085B048E0622B4632468D
:1088F0004946204603F092FB08B10120C9E7208DCC
:1089000088B900BF0020009020684069009020686E
:108910008069009000BF00BF2068006840F40070CC
:10892000216808604BE0208D01281AD1206800687A
:1089300020F480602168086072B600BF00200090BB
:1089400020684069009020688069009000BF00BFE7
:108950002068006840F400702168086062B62EE06C
:1089600020E1208D022819D12068006840F40060C1
:108970002168086072B600BF00200090206840693E
:10898000009020688069009000BF00BF20680068E8
:1089900020F480602168086062B610E020680068FA
:1089A00040F480602168086000BF002000902068CB
:1089B0004069009020688069009000BF00BFE2E03D
:1089C000208D03287ED8208D012815D12A463146D6
:1089D000204603F0A7FD08B101205AE7206800698E
:1089E000616A0870606A401C6062208D401E2085AC
:1089F000608D401E6085C6E0208D02282CD1334654
:108A000000226B492046009503F0E2FC08B10120EA
:108A10003FE772B62068006840F400702168086083
:108A200020680069616A0870606A401C6062208D7D
:108A3000401E2085608D401E608562B620680069FA
:108A4000616A0870606A401C6062208D401E20854B
:108A5000608D401E608596E03346002254492046D2
:108A6000009503F0B5FC08B1012012E7206800680A
:108A700020F480602168086072B620680069616A2D
:108A80000870606A401C6062208D401E2085608DE9
:108A9000401E6085474800681921B0FBF1F04FF493
:108AA0007A71B0FBF1F0C0EBC00000EB80000190E8
:108AB00000BF0198401E01900198A8B900202063D2
:108AC000202000E038E084F83D00002084F83E00DB
:108AD000206C40F02000206462B600BF002084F8C3
:108AE0003C0000BF0120D4E620684069C0F380004C
:108AF0000028DED02068006840F40070216808601B
:108B000020680069616A0870606A401C6062208D9C
:108B1000401E2085608D401E608562B62068006919
:108B2000616A0870606A401C6062208D401E20856A
:108B3000608D401E608526E02A463146204603F0BF
:108B4000F1FC08B10120A4E620680069616A0870A0
:108B5000606A401C6062208D401E2085608D401E32
:108B6000608520684069C0F3800060B120680069BA
:108B7000616A0870606A401C6062208D401E20851A
:108B8000608D401E6085208D00287FF419AF202065
:108B900084F83D00002084F83E0000BF84F83C00CB
:108BA00000BF76E6022074E6020010000000FFFF1E
:108BB000040001005C0100202DE9F84304468946C9
:108BC00016461F46DDF82080FFF75CFD054694F849
:108BD0003D0020287ED119230122514920460095CD
:108BE00003F0F6FB10B10220BDE8F88300BF94F853
:108BF0003C00012801D10220F6E7012084F83C0066
:108C000000BF2068006800F0010028B920680068F3
:108C100040F00100216808602068006820F40060CE
:108C200021680860212084F83D00102084F83E006F
:108C30000020206466626785608D20853948E06287
:108C40002B4642464946204603F084FA08B10120EB
:108C5000CAE700BF002000902068406900902068AB
:108C60008069009000BF00BF44E02A46414620468C
:108C700003F098FC50B1206C042805D120680068EE
:108C800040F40070216808600120ADE7606A007858
:108C900021680861606A401C6062608D401E6085CA
:108CA000208D401E208520684069C0F3800070B18F
:108CB000208D60B1606A007821680861606A401C9C
:108CC0006062608D401E6085208D401E20852A4692
:108CD000414600E022E0204603F04CFB50B1206CFE
:108CE000042805D12068006840F4007021680860FD
:108CF000012079E7208D0028B7D12068006840F472
:108D0000007021680860202084F83D00002084F86D
:108D10003E0000BF84F83C0000BF65E7022063E727
:108D2000020010000000FFFF2DE9FE4F04460F4631
:108D300090469946DDE90CAB0E9E00200290FFF7AD
:108D4000A1FC054694F83D00202872D11923012288
:108D5000CA492046009503F03BFB10B10220BDE854
:108D6000FE8F00BF94F83C00012801D10220F6E7F5
:108D7000012084F83C0000BF2068006800F001007A
:108D800028B92068006840F0010021680860206868
:108D9000006820F4006021680860222084F83D000B
:108DA000402084F83E0000202064C4F824A0A4F8E9
:108DB0002AB0608D2085B248E0624B464246394673
:108DC0002046CDE9006503F025FA08B10120C6E789
:108DD000208D88B900BF0020019020684069019073
:108DE00020688069019000BF00BF2068006840F4DF
:108DF0000070216808604BE0208D01281AD120689E
:108E0000006820F480602168086072B600BF00200E
:108E1000019020684069019020688069019000BF3E
:108E200000BF2068006840F400702168086062B6E6
:108E30002EE020E1208D022819D12068006840F43E
:108E400000602168086072B600BF002001902068B1
:108E50004069019020688069019000BF00BF2068D0
:108E6000006820F480602168086062B610E0206825
:108E7000006840F480602168086000BF0020019015
:108E800020684069019020688069019000BF00BFA0
:108E9000E2E0208D03287DD8208D012815D12A46B7
:108EA0003146204603F03EFB08B1012057E7206819
:108EB0000069616A0870606A401C6062208D401E13
:108EC0002085608D401E6085C6E0208D02282CD153
:108ED000334600226B492046009503F079FA08B129
:108EE00001203CE772B62068006840F400702168F9
:108EF000086020680069616A0870606A401C6062EE
:108F0000208D401E2085608D401E608562B62068E1
:108F10000069616A0870606A401C6062208D401EB2
:108F20002085608D401E608596E0334600225549BD
:108F30002046009503F04CFA08B101200FE72068A5
:108F4000006820F480602168086072B620680069BB
:108F5000616A0870606A401C6062208D401E208536
:108F6000608D401E6085484800681921B0FBF1F013
:108F70004FF47A71B0FBF1F0C0EBC00000EB800061
:108F8000029000BF0298401E02900298A8B90020EB
:108F9000206300E039E0202084F83D00002084F8C0
:108FA0003E00206C40F02000206462B600BF00202C
:108FB00084F83C0000BF0120D1E620684069C0F37E
:108FC00080000028DED02068006840F4007021682E
:108FD000086020680069616A0870606A401C60620D
:108FE000208D401E2085608D401E608562B6206801
:108FF0000069616A0870606A401C6062208D401ED2
:109000002085608D401E608526E02A463146204638
:1090100003F088FA08B10120A1E620680069616ABE
:109020000870606A401C6062208D401E2085608D43
:10903000401E608520684069C0F3800060B12068F0
:109040000069616A0870606A401C6062208D401E81
:109050002085608D401E6085208D00287FF419AF2B
:10906000202084F83D00002084F83E0000BF84F8F2
:109070003C0000BF73E6022071E600000200100011
:109080000000FFFF040001005C01002010B586B065
:109090000446002002900390049005901A4920682D
:1090A00088422FD100BF1948806940F00800174955
:1090B00088610846806900F00800019000BF00BF89
:1090C0004FF440700290122003900320059002A9F3
:1090D0000F48FFF72FF900BF0E49486840F0E060E5
:1090E00040F00200486000BF00BF0848C06940F47B
:1090F00000100649C8610846C06900F400100190DC
:1091000000BF00BF06B010BD005400400010024078
:10911000000C01400000014070B504460CB901206C
:1091200070BD4CF6CC402168086045F2555021686E
:109130000860D4E9001048602168A0688860FFF7E3
:10914000A1FA05460BE0FFF79DFA401B272806D938
:109150002068C06800F0030008B10320E0E7206841
:10916000C06800F003000028EDD14AF6AA2021686B
:1091700008600020D4E7000003480068034909782C
:109180000844014908607047400100204801002060
:1091900010B50848006840F0100006490860032038
:1091A00000F0A8F8002000F007F800F02BF80020ED
:1091B00010BD00000020024070B504460E48007843
:1091C0004FF47A71B1FBF0F00C490968B1FBF0F58E
:1091D000284602F099F908B1012070BD102C07D281
:1091E00000222146501E00F047F80548046001E0C7
:1091F0000120F2E70020F0E7480100205C01002098
:109200004401002008B500BF1148806940F001000A
:109210000F4988610846806900F00100009000BF96
:1092200000BF00BF0846C06940F08050C8610846D2
:10923000C06900F08050009000BF00BF00BF05492A
:10924000486820F0E06040F00070486000BF08BD52
:10925000001002400000014001460846002809DBDA
:1092600000F01F0301229A4043099B0003F1E02311
:10927000C3F8002100BF70472DE9F05F80460D461E
:109280001646002708F088FD074639462A46334629
:1092900001F00700C0F1070ABAF1040F02D94FF03C
:1092A000040A01E0C0F1070AD14600F1040ABAF14C
:1092B000070F02D24FF0000A01E0A0F1030AD446E2
:1092C0004FF0010A0AFA09FAAAF1010A0AEA020AA7
:1092D0000AFA0CFA4FF0010B0BFA0CFBABF1010B85
:1092E0000BEA030B4AEA0B042146404608F05CFDFA
:1092F000BDE8F09F00BF00F00702064B19684FF66B
:10930000FF031940044B0B4343EA0221014B196050
:1093100000BF70470CED00E00000FA0500BF00BF81
:1093200000BF00BF00BFBFF34F8F00BF00BF00BF33
:109330000948006800F4E06008490843001D064938
:10934000086000BF00BF00BFBFF34F8F00BF00BF6A
:1093500000BF00BF00BFFDE70CED00E00000FA0514
:1093600070B505460C4604F08000802808D104F052
:10937000070000EB800605F1280000EBC60105E0C0
:1093800004EB840605F5B47000EBC6011AB90020A1
:109390000873CB8004E0012008730B81180C48810E
:1093A000002070BD704770B504460D4605EB85037F
:1093B00004F1280101EBC3014A692946D4F8E80207
:1093C00006F004FC70BD70B504460D4605EB850340
:1093D00004F5B47101EBC3014A692946D4F8E802E7
:1093E00006F074FC70BD70B504460E4606F08000B1
:1093F00080280AD106F0070000EB800104F1280064
:1094000000EBC1050120687009E006F0070000EBE1
:10941000800104F5B47000EBC1050020687006F00F
:109420000700287000BF94F8A802012801D102208B
:1094300070BD012084F8A80200BF2946206807F00B
:10944000CDFA00BF002084F8A80200BF00BFEFE7FC
:1094500070B504460E4606F00F006168884201D9D7
:10946000012070BD06F0800080280AD106F00700B8
:1094700000EB800104F1280000EBC10501206870B9
:1094800009E006F0070000EB800104F5B47000EB82
:10949000C105002068700020A87006F00700287041
:1094A00000BF94F8A802012801D10220D9E70120C9
:1094B00084F8A80200BF2946206807F0EBFB00BF34
:1094C000002084F8A80200BF00BFCAE72DE9F041E0
:1094D00005460C46174607F48040002850D02868FF
:1094E000B0F85010207801EBC000801C296801F50D
:1094F000806131F81000C0F30906A069B04203D3BF
:10950000A069801BA06101E00020A061A069A8B94A
:1095100000BF22785200296831F812104BF68F7282
:1095200001EA020080F4005040F4004141F0800163
:1095300023785B002A6822F8131000BF07F0400070
:10954000A8B100BF00BF22785200296831F812107C
:1095500048F68F7201EA020040F4004141F0C00178
:1095600023785B002A6822F8131000BF00BF002E8A
:1095700055D0228961693346286808F001FA4EE027
:109580002868B0F85010207801EBC000801D2968D1
:1095900001F5806131F81000C0F30906A069B042FE
:1095A00003D3A069801BA06101E00020A061A06935
:1095B000A8B900BF22785200296831F812104BF682
:1095C0008F7201EA020080F4005040F4004141F043
:1095D000800123785B002A6822F8131000BF07F08F
:1095E0004000A8B900BF00BF22785200296831F8B6
:1095F000121048F68F7201EA020040F4004141F077
:10960000C00123785B002A6822F8131000BF00BF56
:109610002EB1628961693346286808F0B1F9304695
:10962000BDE8F0812DE9F04705460C46904608F06C
:109630004000002871D02868B0F85010207801EB65
:10964000C000801C296801F5806131F81000C0F36A
:109650000907A069B84203D9A069C01BA06101E055
:109660000020A061A06900287ED100BF6078C8B941
:1096700000BF29682A68B2F85020114422780223DA
:1096800003EBC20201F5806303EB420000BF0288D6
:1096900048F2FF331A400280028842F400420280FE
:1096A00000BF13E06078012810D100BF28682A6845
:1096B000B2F8502010442278022303EBC20200F5D6
:1096C000806303EB420100220A8000BF00BF00BF9D
:1096D0002968607810BB00BF2B68D5F800C0BCF8C3
:1096E00050C0634494F800C04FF0060909EBCC0C5D
:1096F00003F5806909EB4C0000BFB0F800C048F2E8
:10970000FF390CEA090CA0F800C0B0F800C04CF416
:10971000004CA0F800C000BF11E0C0E06078012854
:109720000DD12868B0F8500001442078062303EBDF
:10973000C00001F5806303EB40020020108000BFF1
:1097400021782846FFF72FFE08F48040002816D025
:1097500000BF00BF22785200296831F8121048F685
:109760008F7201EA020000E00AE040F4004141F497
:10977000814123785B002A6822F8131000BFCAE1F8
:1097800008F48040A8B100BF00BF227852002968C9
:1097900031F8121048F68F7201EA020040F40041DD
:1097A00041F4814223785B00296821F8132000BF2F
:1097B00000BF94F824000128E1D160693844606159
:1097C000E0693844E0612169206A884204D326694F
:1097D000206A801B20620BE0206A20B93E460020F0
:1097E00084F8240004E0002084F82400266A206223
:1097F00000BF6078B8BB00BF2A682968B1F8501074
:109800000A442178022303EBC10102F5806303EBD4
:109810004101084600BF56B9038848F2FF3C03EAFD
:109820000C030380038843F40043038019E03E2EB9
:109830000BD800BF710806F0010303B1491C4FF6B5
:10984000FF7303EA812303800BE000BF710906F078
:109850001F0303B9491E4FF4004343EA81230380E9
:1098600000BF00BF13E0FFE7607801280FD100BF01
:1098700028682A68B2F8502010442278022303EBAB
:10988000C20200F5806303EB42010E8000BF00BFFF
:10989000B3B222896169286808F0A1F83BE1286821
:1098A000B0F85010207801EBC000801D296801F548
:1098B000806131F81000C0F30907A069B84203D3F2
:1098C000A069C01BA06101E00020A061A069002880
:1098D0007DD100BF6078C8B900BF29682A68B2F896
:1098E000502011442278022303EBC20201F5806369
:1098F00003EB420000BF028848F2FF331A400280A7
:10990000028842F40042028000BF13E06078012820
:1099100010D100BF28682A68B2F85020104422787D
:10992000022303EBC20200F5806303EB4201002235
:109930000A8000BF00BF00BF2968607808BB00BF75
:109940002B68D5F800C0BCF850C0634494F800C040
:109950004FF0060909EBCC0C03F5806909EB4C00CC
:1099600000BFB0F800C048F2FF390CEA090CA0F8BB
:1099700000C0B0F800C04CF4004CA0F800C000BF1C
:1099800010E0607801280DD12868B0F8500001443B
:109990002078062303EBC00001F5806303EB40024F
:1099A0000020108000BF21782846FFF7FCFC08F457
:1099B0008040002816D100BF00BF227852002968DD
:1099C00031F8121048F68F7201EA020000E00AE056
:1099D00040F4004141F4814123785B002A6822F879
:1099E000131000BF97E008F48040A8B900BF00BF83
:1099F00022785200296831F8121048F68F7201EA75
:109A0000020040F4004141F4814123785B002A6860
:109A100022F8131000BF00BF94F8240001287AD167
:109A2000606938446061E0693844E0612169206A16
:109A3000884204D32669206A801B20620BE0206ADA
:109A400020B93E46002084F8240004E0266A002065
:109A5000206284F8240000BF2A68607890BB00BFB1
:109A6000D5F800C02968B1F850108C4421784FF027
:109A7000060909EBC1010CF5806909EB41010846B3
:109A800000BF76B9B0F8009048F2FF3A09EA0A0937
:109A9000A0F80090B0F8009049F40049A0F80090B8
:109AA00020E03E2E0FD800BF710806F00109B9F181
:109AB000000F00D0491C4FF6FF7909EA8129A0F870
:109AC00000900FE010E000BF710906F01F09B9F126
:109AD000000F00D1491E4FF4004949EA8129A0F83E
:109AE000009000BF00BF0FE0607801280CD128680B
:109AF000B0F8500002442078062101EBC00002F5C6
:109B0000806101EB40031E8000BFB3B262896169CE
:109B1000286807F064FF00BF22785200296831F8F6
:109B2000121048F6BF7201EA020080F0100080F0C7
:109B3000200040F4004141F0800123785B002A6856
:109B400022F8131000BF0020BDE8F087024601F0A4
:109B5000070000EB800302F5B47000EBC300C0699E
:109B600070472DE9F04705460E4690461F464FF0D8
:109B7000000906F0800080280AD106F0070000EBFB
:109B8000800105F1280000EBC1040120607009E0AC
:109B900006F0070000EB800105F5B47000EBC1048E
:109BA0000020607006F007002070C4F81080E77095
:109BB000607808B12078E081022F01D10020207167
:109BC00000BF95F8A802012802D10220BDE8F08765
:109BD000012085F8A80200BF2146286806F0D4FCC1
:109BE00000BF002085F8A80200BF4846EEE72DE937
:109BF000F04105460E461746984606F0070000EB72
:109C0000800105F5B47000EBC1046761C4F81880E9
:109C10000020E061607006F00700207006F0070089
:109C200020B92146286807F0D0F803E021462868CB
:109C300007F0CBF80020BDE8F08170B504460D4672
:109C400005F007006168884201D9012070BD05F068
:109C5000800080280AD105F0070000EB800104F1A4
:109C6000280000EBC1060120707007E005EB8501BC
:109C700004F5B47000EBC106002070700120B070D4
:109C800005F00700307000BF94F8A802012801D148
:109C90000220DBE7012084F8A80200BF31462068DB
:109CA00007F065F805F0070020B904F52C7120686D
:109CB00006F0EDFF00BF002084F8A80200BF00BF3F
:109CC000C4E72DE9F04105460E4690461F4606F0D2
:109CD000070000EB800105F1280000EBC104C4F887
:109CE0001480A761012084F8240027620020E0612D
:109CF0000120607006F00700207006F0070020B910
:109D00002146286807F061F803E02146286807F03B
:109D10005CF80020BDE8F0817FB50446206807F0BC
:109D20002BFE00F40040B0F5004F02D1204603F0B6
:109D300019F9206807F020FE00F48060B0F5806F0C
:109D40000FD12068B0F844004FF6FF310840216879
:109D5000A1F84400204600F09FF90021204600F0C1
:109D6000BBF9206807F008FE00F48040B0F5804F92
:109D700008D12068B0F844004BF6FF710840216814
:109D8000A1F84400206807F0F7FD00F40050B0F59A
:109D9000005F08D12068B0F844004DF6FF7108401C
:109DA0002168A1F84400206807F0E6FD00F4805027
:109DB000B0F5805F1DD12068B0F840004FF6FB7110
:109DC00008402168A1F840002068B0F840004FF634
:109DD000F77108402168A1F84000204600F06EF9B4
:109DE0002068B0F844004EF6FF7108402168A1F8E1
:109DF0004400206807F0C0FD00F40060B0F5006F7B
:109E000055D1002507E06900206830F811002DF8D1
:109E10001500681CC5B2082DF5D32068B0F84000C5
:109E200040F001002168A1F840002068B0F840002F
:109E30004FF6FE7108402168A1F8400000BF20687D
:109E4000B0F8440000F480600028F8D02068B0F832
:109E500044004FF6FF3108402168A1F84400002576
:109E600007E03DF815006A00216821F81200681C1F
:109E7000C5B2082DF5D32068B0F8400040F00800C6
:109E80002168A1F840002068B0F844004FF2FF714B
:109E900008402168A1F844002068B0F8400040F074
:109EA00004002168A1F84000204600F057F920681E
:109EB00007F062FD00F40070B0F5007F0BD1206860
:109EC000B0F844004FF6FF5108402168A1F8440063
:109ED000204600F0FAF8206807F04EFD00F480708C
:109EE000B0F5807F08D12068B0F844004FF6FF61DC
:109EF00008402168A1F844007FBD30B585B0044614
:109F000014B9012005B030BD94F8A90228B9002089
:109F100084F8A802204600F09DF8032084F8A902E6
:109F2000206806F0AAFE142204F110016846FBF72F
:109F300009FD94E80F0006F04DFD20B1022084F8E1
:109F4000A9020120DEE70021206807F03EFD002580
:109F500031E0012105EB850204F1280000EBC2008D
:109F6000417005EB850104F1280000F8315005EB44
:109F7000850100EBC100C581002105EB850204F1DC
:109F8000280000EBC200C17005EB850204F1280037
:109F900000EBC200016105EB850204F1280000EB33
:109FA000C200416105EB850204F1280000EBC2000C
:109FB0008161681CC5B26068A842CAD800252AE041
:109FC000002105EB850204F5B47000EBC20041707E
:109FD00005EB850104F5B47000F83150002105EB64
:109FE000850200EBC200C17005EB850204F5B47078
:109FF00000EBC200016105EB850204F5B47000EBD3
:10A00000C200416105EB850204F5B47000EBC200AB
:10A010008161681CC5B26068A842D1D8142204F1DD
:10A0200010016846FBF78EFC94E80F0006F01AFE5C
:10A0300020B1022084F8A902012063E7002084F8FF
:10A040002400012084F8A902206806F008FE002000
:10A0500058E7000038B504460D492068884215D1FC
:10A0600000BF0C48C06940F400000A49C8610846B6
:10A07000C06900F40000009000BF00BF002211463C
:10A080001420FFF7F9F81420FFF7E6F838BD0000B8
:10A09000005C00400010024070B504460125A06835
:10A0A000022801D0FCF75CFD2946D4F8E80205F04F
:10A0B00041FFD4F8E80205F0F3FE70BD10B5044688
:10A0C000D4F8E80205F01AFF10BD10B50446D4F824
:10A0D000E80205F01EFF10BD70B504460D4600BF36
:10A0E00094F8A802012801D1022070BD012084F853
:10A0F000A80200BF84F824502946206807F068FCB5
:10A1000000BF002084F8A80200BF00BFEDE710B533
:10A11000044604F52C71D4F8E80205F022FF10BDC6
:10A1200010B5044600BF94F8A802012801D102200E
:10A1300010BD012084F8A80200BF206807F00AFCC7
:10A1400001212046FFF72EF9206806F085FD00BFAB
:10A15000002084F8A80200BF00BFE9E710B504465C
:10A16000D4F8E80205F056FFA06928B1034800685A
:10A1700040F006000149086010BD000010ED00E04D
:10A18000012001490862704700000E422DE9F043AA
:10A1900085B006463BA30FCB01AC0FC43DA00068C1
:10A1A00000904FF00008002500270024A146012E52
:10A1B00030D0022E55D0102E5ED13748446800684A
:10A1C00000F0807000B301A8C4F38341475C04F43D
:10A1D000803070B130484068C0F340401DF80080C6
:10A1E00004F4803040B12D48B0FBF8F000FB07F5D7
:10A1F00002E02B4807FB00F52748406800F4800088
:10A20000B0F5800F01D1A94603E068000321B0FB3F
:10A21000F1F932E02048046A04F44070B0F5807F20
:10A2200005D104F0020010B14FF4004918E004F425
:10A230004070B0F5007F07D11748406A00F0020077
:10A2400010B149F640490BE004F44070B0F5407F8E
:10A2500006D11148006800F4003008B14FF22449DB
:10A260000BE000F09BF90C494968C1F38131491CAE
:10A270004900B0FBF1F900E000BF00BF484605B05F
:10A28000BDE8F08302030405060708090A0B0C0D5C
:10A290000E0F1010010200000010024000127A00A0
:10A2A00000093D00F8B5044600260025207800F09E
:10A2B000010000286BD000274348C06900F080509F
:10A2C00070B900BF4048C06940F080503E49C86145
:10A2D0000846C06900F08050009000BF00BF012711
:10A2E0003A48006800F48070B0B93848006840F41B
:10A2F000807036490860FEF7C5F9064606E0FEF7AD
:10A30000C1F9801B642801D90320F8BD2F480068DB
:10A3100000F480700028F2D02B48006A00F44075E9
:10A320002DB3A08800F44070A84220D02648006ACF
:10A3300020F440750120264908600020086022486A
:10A34000056205F0010090B1FEF79CF9064608E0B1
:10A35000FEF798F9801B41F28831884201D9032029
:10A36000D3E71948006A00F002000028F0D0164830
:10A37000006A20F440706168084313490862012FA5
:10A3800004D10846C06920F08050C86100BF207821
:10A3900000F00200022807D10B48406820F440403A
:10A3A000A168084308494860207800F01000102890
:10A3B00007D10548406820F48000E168084302495D
:10A3C00048600020A1E7000000100240007000403B
:10A3D000400442427047000070B504460D460CB977
:10A3E000012070BD5A48006800F00700A8420ED254
:10A3F0005748006820F00700284355490860084680
:10A40000006800F00700A84201D00120E9E72078A9
:10A4100000F0020002281DD1207800F0040004287A
:10A4200005D14C48406840F4E0604A4948602078D3
:10A4300000F00800082805D14648406840F4605004
:10A44000444948604348406820F0F000A168084350
:10A4500040494860207800F0010078B36068012826
:10A4600006D13C48006800F4003090B90120B8E7FC
:10A470006068022806D13748006800F0007040B9D3
:10A480000120AEE73348006800F0020008B901205F
:10A49000A7E73048406820F00300616808432D4971
:10A4A0004860FEF7EFF8064609E0FEF7EBF8801B80
:10A4B00041F28831884202D9032092E707E025481B
:10A4C000406800F00C006168B0EB810FEDD12048CE
:10A4D000006800F00700A8420ED91D48006820F06F
:10A4E000070028431A4908600846006800F0070082
:10A4F000A84201D0012074E7207800F0040004286D
:10A5000007D11448406820F4E060E168084311492D
:10A510004860207800F00800082808D10D484068FD
:10A5200020F46050216940EAC1000A49486000F007
:10A5300045F808494968C1F30311074A515CC8400E
:10A540000649086006480068FEF736FE002048E726
:10A550000020024000100240955001085C010020DC
:10A560004401002001200149C864704700004242B4
:10A5700001480068704700005C01002000B5FFF74B
:10A58000F7FF04494968C1F30221034A515CC840FE
:10A5900000BD000000100240A550010800B5FFF703
:10A5A000E7FF04494968C1F3C221034A515CC8402E
:10A5B00000BD000000100240A5500108F0B585B0B4
:10A5C0000FF26C0C9CE8E01001A8A0E8E0101CA5BC
:10A5D0002D68009500210022002300240020194D41
:10A5E000696801F00C05F5B1042D02D0082D19D1D0
:10A5F00001E0154819E001ADC1F38346AC5D01F4FB
:10A60000803555B10F4D6D68C5F340451DF80520E7
:10A610000D4D6543B5FBF2F302E00C4D04FB05F371
:10A62000184602E000BF084800BF00BF05B0F0BDFB
:10A6300002030405060708090A0B0C0D0E0F101083
:10A64000010200000010024000127A0000093D00E3
:10A6500010B50648806800F08000802804D1FFF71C
:10A66000B9FE80200149887210BD00000010024030
:10A67000F8B504460CB90120F8BD207800F00100BF
:10A68000002878D0F848406800F00C0004280CD06E
:10A69000F548406800F00C00082811D1F2484068E5
:10A6A00000F48030B0F5803F0AD1EF48006800F434
:10A6B000003000285FD0606800285CD10120DBE713
:10A6C00000BF6068B0F5803F06D1E748006840F4FD
:10A6D0008030E549086028E0606858B9E2480068C1
:10A6E00020F48030E04908600846006820F48020AB
:10A6F00008601AE06068B0F5A02F0BD1DA48006856
:10A7000040F48020D84908600846006840F4803052
:10A7100008600AE0D448006820F48030D24908601C
:10A720000846006820F48020086000BF606888B197
:10A73000FDF7A8FF054606E0FDF7A4FF401B6428CF
:10A7400001D9032098E7C848006800F400300028C9
:10A75000F2D010E0FDF796FF054606E0FDF792FF08
:10A76000401B642801D9032086E7BF48006800F435
:10A7700000300028F2D1207800F00200022857D1E2
:10A78000B948406800F00C0050B1B748406800F08C
:10A790000C00082818D1B448406800F4803098B9FB
:10A7A000B148006800F0020020B12069012801D002
:10A7B000012061E7AC48006820F0F800616940EAD8
:10A7C000C100A949086033E02069E8B10120A74928
:10A7D0000860FDF757FF054606E0FDF753FF401BF5
:10A7E000022801D9032047E79F48006800F00200D3
:10A7F0000028F2D09C48006820F0F800616940EA27
:10A80000C1009949086013E0002098490860FDF7ED
:10A8100039FF054606E0FDF735FF401B022801D948
:10A82000032029E79048006800F002000028F2D1D8
:10A83000207800F0080008282DD1A069B8B10120C7
:10A840008B490860FDF71EFF054606E0FDF71AFF7D
:10A85000401B022801D903200EE78348406A00F01C
:10A8600002000028F2D0012003F0E4F913E00020F8
:10A870007F490860FDF706FF054606E0FDF702FF89
:10A88000401B022801D90320F6E67748406A00F011
:10A8900002000028F2D1207800F00400042873D1CF
:10A8A00000277148C06900F0805070B900BF6E4841
:10A8B000C06940F080506C49C8610846C06900F02A
:10A8C0008050009000BF00BF01276A48006800F474
:10A8D0008070B0B96748006840F4807065490860CE
:10A8E000FDF7D0FE054606E0FDF7CCFE401B6428D0
:10A8F00001D90320C0E65F48006800F4807000289A
:10A90000F2D000BFE068012806D15748006A40F045
:10A9100001005549086227E0E06858B95248006ACA
:10A9200020F00100504908620846006A20F0040047
:10A93000086219E0E06805280BD14B48006A40F036
:10A940000400494908620846006A40F001000862B4
:10A950000AE04548006A20F00100434908620846C1
:10A96000006A20F00400086200BFE068A0B1FDF7B3
:10A9700089FE054609E0FDF785FE401B41F288315E
:10A98000884202D9032077E622E03748006A00F0C7
:10A9900002000028EFD012E0FDF774FE054608E043
:10A9A000FDF770FE401B41F28831884201D9032037
:10A9B00062E62D48006A00F002000028F0D1012F65
:10A9C00005D12948C06920F080502749C86100BFDF
:10A9D000E069C8B32448406800F00C00082860D043
:10A9E000E069022848D1002020490866FDF74AFEA8
:10A9F000054606E0FDF746FE401B022801D903206C
:10AA00003AE61948006800F000700028F2D1206A88
:10AA1000B0F5803F07D11448406820F40030A168A9
:10AA2000084311494860D4E9080108430E494968C0
:10AA300021F4741108430C49486001200B49086651
:10AA4000FDF720FE054607E03DE0FDF71BFE401B3D
:10AA5000022801D903200FE60348006800F00070C7
:10AA60000028F2D02FE00000001002400000424217
:10AA70008004424200700040002014490866FDF73F
:10AA800001FE054606E0FDF7FDFD401B022801D949
:10AA90000320F1E50E48006800F000700028F2D1B4
:10AAA00011E0E069012800D1E6E50948466806F4AE
:10AAB0008031206A814204D106F47011606A8142BB
:10AAC00001D00120D8E50020D6E500000000424278
:10AAD000001002402DE9F04780460E4692460025C0
:10AAE00000270024A146404603F0FDF88146254892
:10AAF000B9FBF0F424480068A04240D0224804602A
:10AB000040F2B2750EE0284607F008FE012806D193
:10AB1000B4F5B77F02D3A4F5B77402E005E0A4F260
:10AB20006D146D1CB4F5B67FEDD800BF2F46A5F5AA
:10AB3000FA60F070002515E0012D09D1384607F0C4
:10AB4000EDFD012804D11D2C01D31D3C09E00BE0D3
:10AB50000E48405DA04203D80C48405D241A00E036
:10AB600002E06D1C1C2CE7D200BF681C7070601CDA
:10AB7000B070B2787178F07803F0CFF830700020C0
:10AB8000BDE8F0878051010058010020895001087C
:10AB90002DE9F04707460C4691460026B0460025B1
:10ABA00038684068C0F3800010B10120BDE8F0872C
:10ABB000384603F098F806464FF46160B6FBF0F5AE
:10ABC000B6FBF0F100FB11603C21B0FBF1F06070CE
:10ABD0004FF46160B6FBF0F100FB11603C21B0FB6B
:10ABE000F1F201FB1200A0701820B5FBF0F100FBA0
:10ABF00011502070182D08D31820B5FBF0F8B5FBC4
:10AC0000F0F100FB1150207000E025700020CDE72E
:10AC100070B5044600250CB9012070BD607C20B9D8
:10AC200000202074204600F05BF80220607420466B
:10AC300000F085F918B1042060740120EDE720468A
:10AC400003F017F818B1042060740120E5E72068CC
:10AC5000406820F0070021684860A06828B11F48BC
:10AC6000006820F001001D4908601C48001F0068B2
:10AC700020F46070A16808431849091F08606068E3
:10AC8000401C08B1656809E00120FFF77FFA05461E
:10AC90001DB9042060740120BFE76D1E2068806824
:10ACA00020F00F0040EA1540216888602068C068E5
:10ACB00065F30F002168C860204602F0F7FF18B165
:10ACC000042060740120A8E70021E1730121617371
:10ACD000A1730120607400209FE70000306C0040E9
:10ACE00038B504460B492068884212D1FFF748FA6C
:10ACF00000BF0948C06940F000600749C8610846C4
:10AD0000C06900F00060009000BF00BF012003494F
:10AD1000086038BD00280040001002403C04424258
:10AD20002DE9F04F87B006460F464FF0000900208E
:10AD3000069080460024059004900390824600BF50
:10AD400048A207CA8DE80700304602F0CCFF8146D2
:10AD50004FF46160B9FBF0F006904FF46160B9FB0D
:10AD6000F0F100FB11903C21B0FBF1F0C0B2049077
:10AD70004FF46160B9FBF0F100FB11903C21B0FB96
:10AD8000F1F201FB1200039018210698B0FBF1F2DA
:10AD900001FB12000590F87800F5FA6840F63300E0
:10ADA000804500D9804640F2B270804500D280468E
:10ADB00040F2B2750AE0284607F0B0FC012802D143
:10ADC0002B48044401E02B4804446D1C4545F2D354
:10ADD00097F801A0404607F0A1FC012804D1BAF180
:10ADE000020F01D924480444AAF1010A002507E012
:10ADF0001DF8050040F2A321484304EBC0146D1C6C
:10AE00005545F5D397F802B0ABF1010040F2A3210C
:10AE1000484304EBC0140598C0EB4011C1EB00207F
:10AE200004EB00140498C0EB001004EB80040398BA
:10AE3000044400BF307C012803D1022007B0BDE8E4
:10AE4000F08F0120307400BF02207074214630461C
:10AE500002F0A5FF0120707400BF0020307400BF15
:10AE600000BFEBE71F1C1F1E1F1E1F1F1E1F1E1FE4
:10AE70000085E2018033E101805101002DE9F05F9E
:10AE800004460D46904600260027B146B2462046AD
:10AE900002F029FF07464FF46160B7FBF0F9B9F102
:10AEA000180F0AD31820B9FBF0FA0AEB4A00C000C9
:10AEB0004FF4616100FB01F700E0002700BF207C38
:10AEC000012802D10220BDE8F09F0120207400BFBC
:10AED00002206074B8F1000F0BD128784FF4616143
:10AEE00048436978C1EB011100EB8100A97846184D
:10AEF00012E0287802F0B2FE4FF4616100FB01FB22
:10AF0000687802F0ABFEC0EB00100BEB800BA8786A
:10AF100002F0A4FE0BEB00063E443146204602F050
:10AF20003EFF2068406820F005002168486001204D
:10AF3000607400BF0020207400BF00BFC3E770B57D
:10AF4000044600250CB9012070BD2068406820F03F
:10AF5000080021684860FDF795FB054607E0FDF70E
:10AF600091FB401BB0F57A7F01D90320ECE7206804
:10AF7000406800F008000028F1D00020E4E710B598
:10AF800004460CB9012010BD606A38B96068B0F59C
:10AF9000827F00D105E00021E16102E00021216112
:10AFA00061610021A16294F8510028B9002084F861
:10AFB0005000204600F042F8022084F8510020683A
:10AFC000006820F0400021680860A08800F48270CA
:10AFD000218901F404410843A18901F40061084377
:10AFE000217C01F002010843217D01F001010843A9
:10AFF000218B01F400710843217F01F038010843DF
:10B000002021095D01F080010843218D01F40051E8
:10B010000843216808600421A06901EA1040216802
:10B0200048602068C06920F400602168C861002081
:10B030006065012084F851000020A4E710B586B0B7
:10B040000446002002900390049005903349206844
:10B0500088422DD100BF3248806940F48050304989
:10B0600088610846806900F48050019000BF00BFED
:10B0700000BF0846806940F0040088610846806986
:10B0800000F00400019000BF00BFA0200290022049
:10B0900003900320059002A92248FDF74BF94020B8
:10B0A000029000200390049002A91E48FDF742F987
:10B0B0001D49206888422FD100BF1948C06940F45B
:10B0C00080401749C8610846C06900F4804001907B
:10B0D00000BF00BF00BF0846806940F008008861DB
:10B0E0000846806900F00800019000BF00BF4FF4DF
:10B0F00020400290022003900320059002A90B48F3
:10B10000FDF718F94FF4804002900020039004905E
:10B1100002A90648FDF70EF906B010BD0030014047
:10B12000001002400008014000380040000C0140BF
:10B130002DE9F84F0446884616461D464FF0000A92
:10B1400000BF94F85000012802D10220BDE8F88F1A
:10B15000012084F8500000BFFDF794FA0746B1467D
:10B1600094F85100012802D04FF0020AADE0B8F186
:10B17000000F00D016B94FF0010AA6E0032084F8B2
:10B18000510000206065C4F83080A686E686A06382
:10B19000A087E08760642064A068B0F5004F0BD101
:10B1A0002068006820F0400021680860206800687E
:10B1B00040F48040216808602068006800F040008A
:10B1C000402805D02068006840F0400021680860F1
:10B1D000E068B0F5006F2FD1606810B1B9F1010FD0
:10B1E00009D1206B00882168C860206B801C206317
:10B1F000E08E401EE0861BE02068806800F00200C0
:10B2000002280AD1206B00882168C860206B801C4E
:10B210002063E08E401EE0860AE0FDF733FAC01B93
:10B22000A84201D3681C00B915B94FF0030A4CE0DD
:10B23000E08E0028E0D12EE0606810B1B9F1010F76
:10B2400009D1206B007821680873206B401C2063B3
:10B25000E08E401EE0861BE02068806800F002005F
:10B2600002280AD1206B007821680873206B401CEB
:10B270002063E08E401EE0860AE0FDF703FAC01B63
:10B28000A84201D3681C00B915B94FF0030A1CE0AD
:10B29000E08E0028E0D13A462946204602F072FFAF
:10B2A00008B120206065A06850B900BF0020009060
:10B2B0002068C068009020688068009000BF00BFD0
:10B2C000606D08B14FF0010A00BF012084F8510001
:10B2D00000BF002084F8500000BF504636E72DE93B
