:020000040800F2
:10580000E8350020015900083DB10008E5A700086F
:1058100039B10008F75B0008A5EE000800000000A1
:10582000000000000000000000000000F9BD0008BA
:10583000375E00080000000037B5000839C10008D5
:105840001B5900081B5900081B5900081B59000868
:105850001B5900081B5900081B5900081B59000858
:105860001B5900081B5900081B5900081B59000848
:105870001B5900081B5900081B5900081B59000838
:105880001B5900081B5900081B5900081B59000828
:10589000EDED00081B5900081B5900081B590008B2
:1058A0001B5900081B5900081B5900081B59000808
:1058B0001B590008F5C100081B5900081B590008B6
:1058C0001B5900081B5900081B5900081B590008E8
:1058D0001B59000809C6000819C6000871C600084F
:1058E0001B5900081B5900081B590008DFF80CD091
:1058F00000F0CAF80048004765FC0008E8350020C1
:105900000648804706480047FEE7FEE7FEE7FEE759
:10591000FEE7FEE7FEE7FEE7FEE7FEE7E5C100087B
:10592000ED580008202A04DB203A21FA02F0002179
:10593000704721FA02F3D040C2F12002914008439F
:105940001946704740EA01039B0703D009E008C9E4
:10595000121F08C0042AFAD203E011F8013B00F834
:10596000013B521EF9D27047D2B201E000F8012B80
:10597000491EFBD270470022F6E710B513460A46CF
:1059800004461946FFF7F0FF204610BD421C10F8F0
:10599000011B0029FBD1801A704770B5064609F03B
:1059A000DBFA046805460A220021304600F033F88D
:1059B0002C6070BD2DE9F05F0546002092469B46A5
:1059C00088460646814640241BE028464146474615
:1059D0002246FFF7A7FF53465A46C01A914110D3FB
:1059E00011461846224600F061F82D1A67EB0108AF
:1059F0004F4622460120002100F058F817EB00091D
:105A00004E41201EA4F10104DFDC484631462A46FF
:105A10004346BDE8F09F2DE9F04791460F4680468A
:105A20000446002614F8015B2DB100F04FF8006821
:105A3000405DC007F6D12B2D02D02D2D18D0641E4D
:105A40004A463946204600F045F827B13968A14258
:105A500001D1C7F8008071054FF002040BD5404218
:105A6000002803DD09F078FA0460A007BDE8F0879C
:105A700046F48066E4E70028F8DA09F06DFA04607D
:105A80006FF00040F2E70000064C074D06E0E068CA
:105A900040F0010394E8070098471034AC42F6D375
:105AA000FFF728FF98130108B8130108202A04DB28
:105AB000203A00FA02F1002070479140C2F1200321
:105AC00020FA03F3194390407047000000487047E4
:105AD000C81201082DE9F05F8246007800271546BC
:105AE0008B460AF10104B946302801D09DB113E07C
:105AF00014F8010B0127782803D0582801D045B1AC
:105B00000AE00DB1102D07D10027102514F8010B64
:105B100002E0082500E00A250026B0460EE005FB5D
:105B2000080005FB06F1012701EB10461FFA80F87B
:105B3000B6F5803F00D3B94614F8010B294600F0B2
:105B400018F80028EBDABBF1000F05D00FB1641E86
:105B500000E05446CBF80040B9F1000F06D009F040
:105B6000FBF902210160C81EBDE8F09F48EA06402B
:105B7000FAE73A2800D2303820F02002412A01D337
:105B8000A2F13700884201D34FF0FF30704770B563
:105B90008C1810F8015B15F0070301D110F8013BD8
:105BA0002A1106D110F8012B03E010F8016B01F85F
:105BB000016B5B1EF9D12B0705D40023521E0DD4B7
:105BC00001F8013BFAE710F8013BCB1A921C03E005
:105BD00013F8015B01F8015B521EF9D5A142D8D33D
:105BE000002070BD10B5142005F082FD03211420A3
:105BF00006F086F910BD00BFFEE7CA7802600268B1
:105C0000120202608B7802681A4402600268120273
:105C100002604B7802681A44026002681202026055
:105C20000B7802681A4402607047000030B50346E2
:105C3000042B15D007DC7BB1012B0ED0022B0DD02D
:105C4000032B30D10BE0202B0BD0212B18D0222B93
:105C500022D0232B27D125E026E025E024E023E0F5
:105C600022E0002003E00C5C114D2C54401C07285E
:105C7000F9DB00200F4C207001200F4C207013E046
:105C8000002003E00A4C245C0C54401C0728F9DB7C
:105C90000020084C207007E006480078401C054CA6
:105CA000207001E000E000BF00BF002030BD000018
:105CB0001401002008000020090000200020704787
:105CC000002003E00021064A1154401CB0F5167F65
:105CD000F8D300200349088003490880704700007A
:105CE000EC050020160000201800002010B500224E
:105CF0000449054806F021FE0449034806F016FE53
:105D0000002010BD50160020A40D002068120020B5
:105D10002DE9F04105460E461449306808602946D1
:105D2000134806F003FE377812480488002113E078
:105D3000685C114A1055601C80B24FF4167290FBDB
:105D4000F2F302FB130084B20C480088844202D1B3
:105D50000220BDE8F081491CB942E9D3054804801E
:105D6000034806F0BFFD0020F3E7000020000020FC
:105D7000A40D002016000020EC05002018000020D3
:105D80002DE9F04104460D4600260A48D0F8B872C5
:105D9000D7F8140210B10120BDE8F0812A4621464F
:105DA000044806F0CAFD034806F04BFE064630469E
:105DB000F2E70000A40D00202DE9F04107468846D7
:105DC00015460421052000F029F880210A2006F05C
:105DD00097F8002405E0395D092009F065F8601C9A
:105DE000C4B24445F7DB0321012009F05DF8FF242C
:105DF00000BF052005F07CFC0646601EC4B21CB145
:105E000006F004000028F4D0222005F071FC287070
:105E1000212005F06DFC6870BDE8F08170B5054685
:105E20000C46284605F064FC064626EA040128468E
:105E300009F03AF870BD704710B500F07DFB002006
:105E4000034908704FF416710248FFF794FD10BD26
:105E50001B000020EC05002010B50020044908605C
:105E60000449086005F0DCFF03A00AF099FD10BDAD
:105E700000000020040000207B224D656D223A7B4B
:105E800022537461747573223A307D7D0A000000DC
:105E900072B601E001F096FEFCE700000021074A1F
:105EA000D1610749096941F00401054A11611146B0
:105EB000096941F04001116170470000481F00204E
:105EC000002002400021074AD1610749096941F0D9
:105ED0000201054A116111464861096941F040011A
:105EE00011617047481F0020002002400022054B2E
:105EF000DA61054A126942F00102034B1A6101801E
:105F000070470000481F00200020024000201E496A
:105F1000C96801F0100139B11C49C96941F0020199
:105F20001A4AD16140F010001749C96801F0040114
:105F300039B11649C96941F00101144AD16140F0F3
:105F400004001149C96901F0010169B10F49C9692A
:105F500041F004010D4AD16100BF0B49C96921F02C
:105F60000101094AD16100BF00BF40F2011188421E
:105F700006D10549C96921F00101034AD16101E057
:105F80000149C86000BF704700200240481F002040
:105F900010B505F0DDFB002005F0F8FB642001F0F2
:105FA0007BFA10BD70B5044601F004FD054609E01A
:105FB000601C38B124B101F0FDFC401BA04201D9A6
:105FC000032070BD1248C06800F001000028EFD126
:105FD0000F48C06800F0200020B100BF20200C490D
:105FE000C86000BF0A48C06800F0100048B90848FF
:105FF000C06900F0010020B90548C06800F0040045
:1060000018B1FFF783FF0120DBE70020D9E700008C
:106010000020024010B58EB0342101A8FFF7ABFC80
:106020000D48047800200D4908600B49087001AA4A
:1060300000214FF4987000F06BFE642001F02CFA00
:106040004FF416710648FFF796FC002003490860DC
:10605000014804700EB010BD1B0000202800002075
:10606000940300202DE9F0479AB007464FF0000A4C
:10607000642101A8FFF77FFCD0460020D7490860C3
:106080000024D74805780026A14647E10020D349DF
:106090000860FFF7BFFF642001F0FEF9F8B28DF849
:1060A0000400380A8DF805000020CC49086001AAD8
:1060B000022140F2031000F02BFE40F2031009F021
:1060C000EBFB012806D1C7A00AF06AFC01201AB038
:1060D000BDE8F087D3480078AA287DD1D148407820
:1060E0005528FAD1CF4880780328F6D1CD48C0781A
:1060F0000128F2D1CB48807900286ED1F9E0C94857
:10610000017A407A01EB00244FF6F170844233D1DA
:106110004FF0010AC4480078432810D1FFF77AFFF6
:10612000AF480570012001F0B7F90020BF49088091
:10613000BD490870BEA00AF033FC0020C7E700206C
:10614000A74908702246C7A101A808F0D5FE01A8FA
:106150000AF026FC642101A8FFF70DFC4FF4C8707B
:1061600001F09AF9701CC6B24AF6AA20CD49096816
:1061700008600020994908604FF6F270844236D1D9
:106180004FF0020AA8480078432810D1FFF742FFD9
:1061900093480570012001F07FF90020A349088091
:1061A000A1490870A2A00AF0FBFB00208FE70020A5
:1061B0008B4908702246ABA101A808F09DFE01A8FA
:1061C0000AF0EEFB642101A8FFF7D5FB4FF4C8707D
:1061D00001F062F9002001E090E09BE07F49086057
:1061E000701CC6B24AF6AA20AE49096808604FF68C
:1061F000F370844233D14FF0030A8B480078432870
:1062000010D1FFF707FF76480570012001F044F92F
:106210000020864908808449087085A00AF0C0FBE8
:10622000002054E700206E49087022468DA101A885
:1062300008F062FE01A80AF0B3FB642101A8FFF791
:106240009AFB4FF4C87001F027F9002063490860F9
:10625000701CC6B24AF6AA209249096808604FF637
:10626000F470844221D1701CC6B200205C490870D1
:1062700022467CA101A808F03FFE01A80AF090FB8D
:10628000642101A8FFF777FB4FF4C87001F004F90F
:106290000020524908606348017A407A01EB0024EB
:1062A0004AF6AA207F49096808604FF6F3708442D5
:1062B0000ED0401E84420BD0401E844208D0C01C29
:1062C000844205D024B14FF0010800264FF00209A6
:1062D0003C2E0ED10026FFF79DFE4FF4167151485B
:1062E000FFF749FB3E4805706FA00AF059FB0020FC
:1062F000EDE6B8F1000F3FF402AF0BE0642001F0CF
:10630000CBF84FF416714748FFF735FB00203349AF
:10631000086007E009F1010000F0FF09B9F1020F80
:10632000FFF6B4AE00BF3F480078AA283FD13D48F1
:10633000407855283BD13B488079002837D03948F0
:10634000017A407A01EB0024642101A8FFF713FBD6
:10635000602C0DD0142C0BD0412C09D0232C07D04D
:10636000212C05D0302C03D0192C01D0512C05D173
:10637000224657A101A808F0BFFD04E0212254A144
:1063800001A808F0B9FD01A80AF00AFB0020134992
:10639000086013480570FFF73DFE642001F07CF8AB
:1063A0004FF416711F48FFF7E6FA00208FE6B8F1A8
:1063B000010F02D150A00AF0F3FA012001F06CF8AD
:1063C0004FF416711748FFF7D6FA0020034908600A
:1063D000012003490870002079E600002800002011
:1063E0001B0000207B2252656365697665223A7B3B
:1063F00022537461747573223A32367D2C22462200
:106400003A7B2254797065223A22456E726F6C6C29
:10641000222C22537461747573223A2D317D7D0ACA
:106420000000000094030020EC050020160000206E
:106430007B2252656365697665223A7B22537461DB
:10644000747573223A32367D2C2246223A7B2254CE
:10645000797065223A2243616E73656C227D7D0AF4
:10646000000000007B2252656365697665223A7BF5
:1064700022537461747573223A32367D2C2246227F
:106480003A7B2254797065223A22456E726F6C6CA9
:10649000222C22537461747573223A25647D7D0A1F
:1064A00000000000C00B00207B2246223A7B2254D1
:1064B000797065223A22456E726F6C6C222C2253E1
:1064C0007461747573223A31387D7D0A00000000D2
:1064D0007B2246223A7B2254797065223A22456E0D
:1064E000726F6C6C222C22537461747573223A257E
:1064F000647D7D0A000000007B2246223A7B225404
:10650000797065223A22456E726F6C6C222C225390
:106510007461747573223A307D7D0A0010B54FF4B2
:1065200016710348FFF727FA00200249086010BDE2
:10653000940300202800002010B5C0B0642127A8D3
:10654000FFF719FA00241A2120A8FFF714FA1822DD
:106550002C491AA8FFF7F6F91A2113A8FFF70BFA2E
:106560001822284918310DA8FFF7ECF91A2106A8BE
:10657000FFF701FA1822234930316846FFF7E2F9A4
:10658000FFF7CCFF002020490860642318221AA9D5
:106590001E4804F0BCF84FF4837009F07DF901281F
:1065A0000AD11BA00AF0FCF94FF416712848FFF736
:1065B000E2F9012040B010BD2548827925A127A825
:1065C00008F09AFC27A80AF0EBF9642318220DA919
:1065D0000E4804F09CF84FF4FA7000F05DFF64235D
:1065E00018226946094804F092F8012000F054FF8F
:1065F0004FF416711648FFF7BEF9002025490870C0
:1066000000BFD7E78C110108280000201C0D0020D6
:106610007B2252656365697665223A7B22537461F9
:10662000747573223A32367D2C2246223A7B2254EC
:10663000797065223A2244656C657465414C4C2240
:106640002C22537461747573223A2D317D7D0A00BA
:10665000940300207B2252656365697665223A7B4C
:1066600022537461747573223A32367D2C2246228D
:106670003A7B2254797065223A2244656C657465D0
:10668000414C4C222C22537461747573223A256458
:106690007D7D0A001B00002030B599B00446002023
:1066A00020490860FFF73AFFE0B28DF80000200AA9
:1066B0008DF801006A46022140F2051000F028FB27
:1066C00040F2051009F0E8F8012805D116A00AF0FB
:1066D00067F9012019B030BD23480078AA281FD1DE
:1066E0002148807930B92048827920A1684608F095
:1066F00003FC09E01C48017A407A01EB00252A4698
:106700001AA1684608F0F8FB68460AF049F9FFF755
:1067100005FF4FF416711448FFF72DF90020D9E753
:106720000120D7E7280000207B2252656365697647
:1067300065223A7B22537461747573223A32367D36
:106740002C2246223A7B2254797065223A224465F3
:106750006C657465222C22537461747573223A2D12
:10676000317D7D0A00000000940300207B225265E9
:106770006365697665223A7B22537461747573226E
:106780003A32367D2C2246223A7B22547970652299
:106790003A2244656C657465222C225374617475C9
:1067A00073223A25647D7D0A0000000010B59AB07E
:1067B000002026490860FFF7B1FE00202349086049
:1067C0000A2000F069FE01AA002140F2071000F043
:1067D0009FFA40F2071009F05FF8012805D11C4824
:1067E0000AF0DEF801201AB010BD1A480078AA2875
:1067F00025D118484078552821D116488078072897
:106800001DD11448C078012819D11248017A407A64
:1068100001EB00249CB10F48807928B922460EA1D3
:1068200001A808F069FB04E022461B4901A808F012
:1068300063FB01A80AF0B4F8012000F02DFE4FF42C
:1068400016710448FFF797F80020CCE728000020D5
:10685000CC120108940300207B225265636569769F
:1068600065223A7B22537461747573223A32367D05
:106870002C2246223A7B2254797065223A224765BF
:1068800074456D7074794944222C224944223A257A
:10689000647D7D0A00000000541301082DE9F04FCB
:1068A000ADF53D7D82460020BC90BB9000270026C0
:1068B0008046A1490870A14908608146FFF72EFE75
:1068C00000209E4908604FF416719D48FFF753F869
:1068D0000AF0FF008DF888024FEA1A208DF889022D
:1068E000A2AA02214FF4857000F012FA322000F0C3
:1068F000D3FD01F05FF8A09052E001F05BF8A099A1
:10690000401A41F28831884211D98EA00AF048F825
:106910004FF416718A48FFF72EF801208649087057
:106920000020864908600DF53D7DBDE8F08F4AF6F0
:10693000AA208F49096808608048006840F25E21FB
:10694000884200DB2DE07E480078AA2828D17C48C8
:106950004078552824D17A4880780A2820D1784870
:10696000807901281CD175480068182818D174480E
:10697000017A407A01EB002B5A467EA1A2A808F0CA
:10698000BBFAA2A80AF00CF84FF416716C48FEF797
:10699000F2FF012068490870002068490860C2E7DA
:1069A000ABE700BF002413E06548005DA5280ED1C9
:1069B0006349601C085C5A2809D1A01C085C0A289D
:1069C00005D1E01C085C012801D1274603E0641CC6
:1069D000B4F5167FE8D300BF5949381D095C584A01
:1069E000781D105C01EB0020051F114607F108001F
:1069F000095C401C105C01EB0020A1900DB1A19836
:106A000088B90A2000F048FD4EA009F0C9FF4FF4F4
:106A100016714B48FEF7AFFF012047490870002070
:106A2000464908607FE74FF40F7111A8FEF7A3FFF6
:106A30000A2000F031FD002407E007F10A0020449D
:106A40003F49085C11A90855641CAC42F5D30120EC
:106A5000394908703A488079002858D12B46524667
:106A60004FA1A2A808F048FAA2A809F099FF4FF494
:106A70007A7000F011FD4AF6AA203D4909680860C5
:106A80004FF0010922E0A9F10100C0EB80164FF0A0
:106A9000000807E011A8805D01A901F80800761C34
:106AA00008F10108C9EB8910B042F3D83F2101A8D1
:106AB000FFF766F9642000F0EFFC4AF6AA202C49A3
:106AC0000968086009F1010000F0FF09C9EB8910AD
:106AD000A842D8D3A9F10100C0EB80164FF00008FE
:106AE00007E011A8805D01A901F80800761C08F1F3
:106AF0000108AE42F5D31FFA88F101A8FFF740F96B
:106B0000052000F0C9FC35A009F04AFF0CE00C4854
:106B1000017A407A01EB002B5A4616A1A2A808F090
:106B2000EBF9A2A809F03CFF4FF416710448FEF7F8
:106B300022FF00BFF7E600001A0000202800002016
:106B4000940300207B2246223A7B225479706522EE
:106B50003A225265616454656D706C617465222CD3
:106B600022537461747573223A2D317D7D0A0000C1
:106B7000C00B00207B2246223A7B2254797065228A
:106B80003A225265616454656D706C617465222CA3
:106B900022537461747573223A25647D7D0A000066
:106BA0007B2246223A7B2254797065223A22526532
:106BB000616454656D706C617465222C22494422B5
:106BC0003A25642C224461746153697A65223A251E
:106BD000642C2244617461223A220000227D7D0AE5
:106BE0000000000010B59AB0642101A8FEF7C3FEB2
:106BF00000202E49086001AA00214FF4817000F0A6
:106C000087F80F2000F048FC2948017A407A01EB10
:106C1000002427480078AA283FD1254840785528E5
:106C20003BD123488078022837D12148C0780128F9
:106C300033D12048007801282FD100201D49087049
:106C40001B48807970B94FF6F470844225D0002C2F
:106C500023D0224618A101A808F04EF901A809F096
:106C60009FFE1AE0122C0DD0152C14D122461DA126
:106C700001A808F041F900202449087001A809F092
:106C80008FFE09E0221D17A101A808F035F901A81F
:106C900009F086FE00E000BF00BF4FF41671044803
:106CA000FEF769FE00201AB010BD00002800002089
:106CB00094030020140000207B2246223A7B2254B9
:106CC000797065223A224964656E74696679222C6E
:106CD0002254656D706C617465223A25647D7D0A6D
:106CE000000000007B2246223A7B22547970652204
:106CF0003A224964656E74696679222C2253746164
:106D0000747573223A25647D7D0A00001B00002003
:106D10002DE9F0418EB005460C469046342101A87D
:106D2000FEF729FE002655208DF8040001A800F08A
:106D300035FA5536AA208DF805000DF1050000F052
:106D40002DFAAA362846E91705EB11610912A5EBC1
:106D50000121C9B28DF806100DF1060000F01EFAEF
:106D60002846E91705EB11610912A5EB0121314411
:106D70008EB2E91705EB1161090A8DF807100DF1C4
:106D8000070000F00BFA2846E91705EB116106EB46
:106D900021218EB22046E11704EB11610912A4EB08
:106DA0000121C9B28DF8081002A800F0F7F92046B9
:106DB000E11704EB11610912A4EB012131448EB2F9
:106DC000E11704EB1161090A8DF809100DF10900B2
:106DD00000F0E4F92046E11704EB116106EB2121F4
:106DE0008EB200270EE018F80710B81D01AA115442
:106DF00008EB070000F0D2F918F80700304486B21B
:106E0000781CC7B2A742EEDB09E00021B81D01AA39
:106E10001154B91D881800F0C1F9781CC7B2102FA1
:106E2000F3DB3046F11706EB11610912A6EB0121E5
:106E3000C9B28DF81A100DF11A0000F0AFF9304602
:106E4000F11706EB1161090A8DF81B100DF11B00FB
:106E500000F0A4F900270EB0BDE8F0812DE9F04361
:106E60008DB004460E461746994600255A208DF8E7
:106E70000000684600F092F95A35A5208DF801000F
:106E80000DF1010000F08AF9A5352046E11704EB69
:106E900011610912A4EB0121C9B28DF802100DF1A4
:106EA000020000F07BF92046E11704EB11610912A2
:106EB000A4EB01210D44E11704EB1161090A8DF8DF
:106EC00003100DF1030000F069F92046E11704EB0F
:106ED000116105EB2125B01CC0B28DF8040001A89A
:106EE00000F05CF9B01CC0B20544B01C000A8DF87B
:106EF00005000DF1050000F051F9B01C05EB10255F
:106F0000F8B28DF806000DF1060000F047F9F8B26E
:106F10000544380A8DF807000DF1070000F03EF92E
:106F200005EB17254FF0000808E009EB080000F01A
:106F300035F919F80800054408F10108B045F4D303
:106F4000E8B28DF82F000DF12F0000F027F9280A84
:106F50008DF830000CA800F021F94FF000080DB0BA
:106F6000BDE8F083F0B5ADF5297D06460D46144623
:106F70006427642190A8FEF7FEFC4FF40F7101A86E
:106F8000FEF7F9FC012042490870A178607801EB16
:106F900000262179E07801EB0025062004E0225C40
:106FA000811F01AB5A54401CA91D8842F7D3FFF73B
:106FB000B5FAE8B28DF84002280A8DF841024AF687
:106FC000AA2034490968086090AA022140F20B10F7
:106FD000FFF79EFE40F20B1008F05EFC4FF41671B6
:106FE0002D48FEF7C8FC00202C49086001AB324652
:106FF000294640F20B10FFF731FF4AF6AA20254937
:107000000968086040F20B1008F046FC224800783E
:10701000A5282DD12048807900281AD1A178607840
:1070200001EB00211C48027A407A02EB00208142E9
:107030000BD132461AA190A807F05EFF90A809F084
:10704000AFFC01202649087015E026A009F0A8FC35
:1070500011E01148007A602802D12EA009F0A0FCAE
:107060000D48007A702806D135A009F099FC02E09D
:107070003FA009F095FC0020084908604FF4167104
:107080000548FEF778FC01200DF5297DF0BD0000D4
:107090001A000020C00B00209403002028000020CC
:1070A0007B2246223A7B2254797065223A2257721B
:1070B00069746554656D706C617465222C22577219
:1070C00069746554656D706C6174654944223A2534
:1070D000642C22537461747573223A307D7D0A00EA
:1070E0001B0000207B2246223A7B225479706522C5
:1070F0003A22577269746554656D706C61746522CB
:107100002C22537461747573223A3130307D7D0ABC
:10711000000000007B2246223A7B225479706522CF
:107120003A22577269746554656D706C617465229A
:107130002C22537461747573223A39367D7D0A00AE
:107140007B2246223A7B2254797065223A2257727A
:1071500069746554656D706C617465222C2253747A
:1071600061747573223A3131327D7D0A000000006E
:107170007B2246223A7B2254797065223A2257724A
:1071800069746554656D706C617465222C2253744A
:1071900061747573223A2D317D7D0A0010B5044665
:1071A00001231A462146024803F0B1FA10BD00003F
:1071B0001C0D002070B59AB00948046808481030CA
:1071C00005680748203006682B46224605A101A81D
:1071D000009607F091FE01A809F0E2FB1AB070BD1D
:1071E000E8F7FF1F7B224350554944223A7B22583F
:1071F00031223A25382E38582C225832223A253856
:107200002E38582C225833223A25382E38587D7D76
:107210000A00000000B59FB0642106A8FEF7ABFB92
:10722000FFF77CF9642000F037F9182212A16846B4
:10723000FEF788FB322319226946154803F067FAE6
:10724000642000F029F913480078AA280DD11148CC
:107250004078552809D10F48437A027A0E4906A88A
:1072600007F04AFE06A809F09BFB1E210948FEF71D
:1072700082FB1FB000BD000055AA120100000000F3
:1072800000000000000000000000000000001201EB
:107290001C0D002094030020101301082DE9F0417B
:1072A0000546002600F086FB0746052000F0F4F8AE
:1072B00028480078022812D12648407854280ED158
:1072C0002448807848280AD12248C078452806D129
:1072D00000211E2004F0E0FD6420BDE8F0811E487E
:1072E000008808280CD01B480078022806D11A48CC
:1072F0000088401E1749085C032801D00320ECE7F2
:107300000026012403E01348005D4640641C124837
:107310000088801EA042F6D80F480088801E0D49C4
:10732000085CB04201D00420D7E70A48C178007950
:1073300001EB0020A84201D00620CEE706480088D5
:10734000072805D100211E2004F0A6FD6420C4E713
:107350000020C2E7EC0500201600002070B50A48A6
:107360000468001D0568001D0668344454B10822F5
:107370000649204603F0E4FA042204491031284665
:1073800003F0DEFA70BD0000E8F7FF1FFA000020EE
:107390000146002291F82100022808D004208863C9
:1073A00000BF002081F8200000BF0120704708685E
:1073B000006820F00E000B6818600868006820F074
:1073C00001000B68186091F8403001209840CB6BA9
:1073D0005860012081F8210000BF002081F82000C2
:1073E00000BF1046E2E7000070B50446002594F89F
:1073F0002100022803D00420A063012548E0206872
:10740000006820F00E00216808602068006820F005
:107410000100216808601F492068884201D10120CD
:1074200026E01C4914312068884201D110201FE059
:10743000184928312068884201D1801518E0154983
:107440003C312068884201D1801411E0114950314B
:107450002068884202D14FF4803009E00D49643140
:107460002068884202D14FF4801001E04FF0807014
:10747000084908394860012084F8210000BF002035
:1074800084F8200000BF606B10B12046616B884714
:10749000284670BD0800024070B5044600F08AFA24
:1074A00006462546681C10B104480078054400BF14
:1074B00000F080FA801BA842FAD370BD340100208E
:1074C0002DE9F04104460E460127002500BF26485D
:1074D000007E012802D10220BDE8F081012022496E
:1074E000087600BF2068022813D14CF25030FEF716
:1074F00059FD90BB0120FEF7D1FC4CF25030FEF755
:1075000051FD07461948006920F004001749086139
:1075100023E04CF25030FEF745FDF0B94FF0FF305C
:107520003060A56812E02846FEF7CCFC4CF25030E3
:10753000FEF738FD07460D48006920F002000B49B0
:1075400008610FB1356007E005F58065D4E90210E8
:1075500001EB8020A842E6D800BF00BF002002490E
:10756000087600BF3846B7E7481F002000200240D9
:107570000348006940F0800001490861002070471D
:10758000002002402DE9FE4F05468B4617469846DF
:10759000012600240020029000BF2448007E01281C
:1075A00002D10220BDE8FE8F01202049087600BFED
:1075B0004CF25030FEF7F6FC064686BB012D02D198
:1075C0000120029006E0022D02D10220029001E08B
:1075D0000420029000241EE02201B946C24648461B
:1075E0005146FEF79FF980B20190022000FB04B0E3
:1075F00000900199FEF77AFC4CF25030FEF7D2FC75
:1076000006460B48006920F001000949086106B1EF
:1076100004E0601CC4B202988442DDDB00BF00BFFE
:1076200000200249087600BF3046BBE7481F002013
:107630000020024000200849096901F0800151B191
:107640000649054A5160064951601146096901F031
:10765000800101B1012070470020024023016745ED
:10766000AB89EFCD2DE9F8470346002294466EE141
:107670004FF0010808FA02F4D1F8008008EA04008B
:10768000A0427DD1DFF8DCA2D1F80480A8EB0A0982
:10769000D0453AD014DCB8F1030F50D009DCB8F172
:1076A000000F31D0B8F1010F1CD0B8F1020F49D151
:1076B00020E0B8F1110F18D0B8F1120F42D11EE03E
:1076C000B9F5881F25D006DCB9F5803F20D0B9F583
:1076D000801F37D11AE0B9F5001F18D0B9F5041F83
:1076E00030D117E0D1F80CC02DE0D1F80C8008F1B2
:1076F000040C28E0D1F80C8008F1080C23E0D1F844
:107700000C8008F10C0C1EE000BF00BF00BF00BFE2
:1077100000BF00BFD1F80880B8F1000F02D14FF0D0
:10772000040C0BE0D1F80880B8F1010F03D14FF041
:10773000080C1C6102E04FF0080C5C6103E04FF0A4
:10774000000C00E000BF00BFFF2801D8984601E010
:1077500003F104084646FF2802D84FEA820803E0F6
:10776000A2F108084FEA88084746D6F800804FF093
:107770000F0909FA07F928EA09080CFA07F900E0E5
:1077800088E048EA0908C6F80080D1F8048008F0CB
:107790008058B8F1805F7DD100BFDFF8CC81D8F888
:1077A000188048F00108DFF8C091C9F81880C84671
:1077B000D8F8188008F00108CDF8008000BF00BF9D
:1077C0004FEAB9384FEA920958F829504FEA8278BF
:1077D0004FEA18794FF00F0808FA09F825EA08056A
:1077E000DFF88881434502D14FF0000816E0DFF84A
:1077F0008081434502D14FF001080FE0DFF874812A
:10780000434502D14FF0020808E0DFF86C814345A0
:1078100002D14FF0030801E04FF004084FEA8279EB
:107820004FEA197908FA09F848EA0505DFF84C81AA
:107830004FEA920948F82950D1F8048008F48038BA
:10784000B8F5803F0AD1DFF83881D8F8008048EADF
:107850000008DFF82C91C9F8008009E0DFF82081EA
:10786000D8F8008028EA0008DFF81491C9F80080F1
:10787000D1F8048008F40038B8F5003F10D1DFF8E3
:10788000008108F10408D8F8008048EA0008DFF811
:10789000F09000E05AE009F10409C9F800800DE019
:1078A000DFF8DC8008F10408D8F8008028EA000836
:1078B000DFF8CC9009F10409C9F80080D1F8048000
:1078C00008F48018B8F5801F0ED1DFF8B48008F1F5
:1078D0000808D8F8008048EA0008DFF8A49009F109
:1078E0000809C9F800800DE0DFF8948008F1080865
:1078F000D8F8008028EA0008DFF8849009F1080928
:10790000C9F80080D1F8048008F40018B8F5001F09
:107910000ED1DFF86C8008F10C08D8F8008048EA36
:107920000008DFF85C9009F10C09C9F800800DE04F
:10793000DFF84C8008F10C08D8F8008028EA00082D
:10794000DFF83C9009F10C09C9F80080521CD1F80D
:10795000008028FA02F8B8F1000F7FF489AEBDE884
:10796000F8870000000011100010024000080140DC
:10797000000C0140001001400014014008000140CB
:1079800000040140024693680B400BB1012000E067
:107990000020704710B5C26821EA020302EA010420
:1079A00043EA0443036110BD0AB1016101E00B0425
:1079B0000361704701480068704700002C010020F7
:1079C00070B504460CB9012070BD4CF6CC4021685E
:1079D000086045F2555021680860D4E900104860FD
:1079E0002168A0688860FFF7E5FF05460BE0FFF718
:1079F000E1FF401B272806D92068C06800F003007B
:107A000008B10320E0E72068C06800F00300002808
:107A1000EDD14AF6AA20216808600020D4E70000D2
:107A20000348006803490978084401490860704721
:107A30002C0100203401002010B50848006840F0F7
:107A4000100006490860032000F0A8F8002000F0AC
:107A500007F800F02BF8002010BD000000200240C5
:107A600070B504460E4800784FF47A71B1FBF0F01F
:107A70000C490968B1FBF0F5284602F099F908B104
:107A8000012070BD102C07D200222146501E00F0AC
:107A900047F80548046001E00120F2E70020F0E724
:107AA00034010020480100203001002008B500BF4B
:107AB0001148806940F001000F49886108468069DB
:107AC00000F00100009000BF00BF00BF0846C06981
:107AD00040F08050C8610846C06900F080500090B6
:107AE00000BF00BF00BF0549486820F0E06040F0DB
:107AF0000070486000BF08BD001002400000014057
:107B000001460846002809DB00F01F0301229A40C5
:107B100043099B0003F1E023C3F8002100BF704735
:107B20002DE9F05F80460D461646002707F0F8F96C
:107B3000074639462A46334601F00700C0F1070AD6
:107B4000BAF1040F02D94FF0040A01E0C0F1070AAC
:107B5000D14600F1040ABAF1070F02D24FF0000A31
:107B600001E0A0F1030AD4464FF0010A0AFA09FA2B
:107B7000AAF1010A0AEA020A0AFA0CFA4FF0010B0A
:107B80000BFA0CFBABF1010B0BEA030B4AEA0B04FB
:107B90002146404607F0CCF9BDE8F09F00BF00F059
:107BA0000702064B19684FF6FF031940044B0B43BD
:107BB00043EA0221014B196000BF70470CED00E061
:107BC0000000FA0500BF00BF00BF00BF00BFBFF349
:107BD0004F8F00BF00BF00BF0948006800F4E0609D
:107BE00008490843001D0649086000BF00BF00BFE8
:107BF000BFF34F8F00BF00BF00BF00BF00BFFDE756
:107C00000CED00E00000FA0570B505460C4604F0E6
:107C10008000802808D104F0070000EB800605F101
:107C2000280000EBC60105E004EB840605F5B470FE
:107C300000EBC6011AB900200873CB8004E00120D4
:107C400008730B81180C4881002070BD704770B517
:107C500004460D4605EB850304F1280101EBC30141
:107C60004A692946D4F8E80205F0F2F970BD70B50A
:107C700004460D4605EB850304F5B47101EBC30121
:107C80004A692946D4F8E80205F062FA70BD70B579
:107C900004460E4606F0800080280AD106F0070050
:107CA00000EB800104F1280000EBC10501206870A1
:107CB00009E006F0070000EB800104F5B47000EB6A
:107CC000C1050020687006F00700287000BF94F816
:107CD000A802012801D1022070BD012084F8A80269
:107CE00000BF2946206806F0BBF800BF002084F8DA
:107CF000A80200BF00BFEFE770B504460E4606F0CD
:107D00000F006168884201D9012070BD06F0800033
:107D100080280AD106F0070000EB800104F128005A
:107D200000EBC1050120687009E006F0070000EBD8
:107D3000800104F5B47000EBC105002068700020DC
:107D4000A87006F00700287000BF94F8A802012868
:107D500001D10220D9E7012084F8A80200BF2946FA
:107D6000206806F0D9F900BF002084F8A80200BFFF
:107D700000BFCAE72DE9F04105460C46174607F457
:107D80008040002850D02868B0F85010207801EBCF
:107D9000C000801C296801F5806131F81000C0F333
:107DA0000906A069B04203D3A069801BA06101E06D
:107DB0000020A061A069A8B900BF227852002968FC
:107DC00031F812104BF68F7201EA020080F4005075
:107DD00040F4004141F0800123785B002A6822F8DA
:107DE000131000BF07F04000A8B100BF00BF227809
:107DF0005200296831F8121048F68F7201EA020029
:107E000040F4004141F0C00123785B002A6822F869
:107E1000131000BF00BF002E55D022896169334680
:107E2000286806F0EFFF4EE02868B0F85010207880
:107E300001EBC000801D296801F5806131F8100058
:107E4000C0F30906A069B04203D3A069801BA061FA
:107E500001E00020A061A069A8B900BF227852000B
:107E6000296831F812104BF68F7201EA020080F493
:107E7000005040F4004141F0800123785B002A6803
:107E800022F8131000BF07F04000A8B900BF00BFE0
:107E900022785200296831F8121048F68F7201EAF0
:107EA000020040F4004141F0C00123785B002A68E1
:107EB00022F8131000BF00BF2EB1628961693346FA
:107EC000286806F09FFF3046BDE8F0812DE9F047B5
:107ED00005460C46904608F04000002871D02868FE
:107EE000B0F85010207801EBC000801C296801F523
:107EF000806131F81000C0F30907A069B84203D9C6
:107F0000A069C01BA06101E00020A061A069002859
:107F10007ED100BF6078C8B900BF29682A68B2F86E
:107F2000502011442278022303EBC20201F5806342
:107F300003EB420000BF028848F2FF331A40028080
:107F4000028842F40042028000BF13E060780128FA
:107F500010D100BF28682A68B2F850201044227857
:107F6000022303EBC20200F5806303EB420100220F
:107F70000A8000BF00BF00BF2968607810BB00BF47
:107F80002B68D5F800C0BCF850C0634494F800C01A
:107F90004FF0060909EBCC0C03F5806909EB4C00A6
:107FA00000BFB0F800C048F2FF390CEA090CA0F895
:107FB00000C0B0F800C04CF4004CA0F800C000BFF6
:107FC00011E0C0E0607801280DD12868B0F85000B9
:107FD00001442078062303EBC00001F5806303EB26
:107FE00040020020108000BF21782846FFF72FFEB6
:107FF00008F48040002816D000BF00BF227852004D
:10800000296831F8121048F68F7201EA020000E088
:108010000AE040F4004141F4814123785B002A6882
:1080200022F8131000BFCAE108F48040A8B100BFD5
:1080300000BF22785200296831F8121048F68F727A
:1080400001EA020040F4004141F4814223785B00E0
:10805000296821F8132000BF00BF94F824000128EC
:10806000E1D1606938446061E0693844E0612169C8
:10807000206A884204D32669206A801B20620BE0B4
:10808000206A20B93E46002084F8240004E0002045
:1080900084F82400266A206200BF6078B8BB00BF65
:1080A0002A682968B1F850100A442178022303EBAA
:1080B000C10102F5806303EB4101084600BF56B9D8
:1080C000038848F2FF3C03EA0C030380038843F46F
:1080D0000043038019E03E2E0BD800BF710806F064
:1080E000010303B1491C4FF6FF7303EA81230380A8
:1080F0000BE000BF710906F01F0303B9491E4FF4DE
:10810000004343EA8123038000BF00BF13E0FFE781
:10811000607801280FD100BF28682A68B2F8502083
:1081200010442278022303EBC20200F5806303EBC4
:1081300042010E8000BF00BFB3B222896169286886
:1081400006F08FFE3BE12868B0F85010207801EB74
:10815000C000801D296801F5806131F81000C0F36E
:108160000907A069B84203D3A069C01BA06101E060
:108170000020A061A06900287DD100BF6078C8B947
:1081800000BF29682A68B2F85020114422780223DF
:1081900003EBC20201F5806303EB420000BF0288DB
:1081A00048F2FF331A400280028842F40042028003
:1081B00000BF13E06078012810D100BF28682A684A
:1081C000B2F8502010442278022303EBC20200F5DB
:1081D000806303EB420100220A8000BF00BF00BFA2
:1081E0002968607808BB00BF2B68D5F800C0BCF8D0
:1081F00050C0634494F800C04FF0060909EBCC0C62
:1082000003F5806909EB4C0000BFB0F800C048F2EC
:10821000FF390CEA090CA0F800C0B0F800C04CF41B
:10822000004CA0F800C000BF10E0607801280DD11C
:108230002868B0F8500001442078062303EBC00002
:1082400001F5806303EB40020020108000BF21781D
:108250002846FFF7FCFC08F48040002816D100BF38
:1082600000BF22785200296831F8121048F68F7248
:1082700001EA020000E00AE040F4004141F48141DB
:1082800023785B002A6822F8131000BF97E008F4F7
:108290008040A8B900BF00BF22785200296831F899
:1082A000121048F68F7201EA020040F4004141F4D6
:1082B000814123785B002A6822F8131000BF00BFB9
:1082C00094F8240001287AD1606938446061E0693B
:1082D0003844E0612169206A884204D32669206A13
:1082E000801B20620BE0206A20B93E46002084F803
:1082F000240004E0266A0020206284F8240000BFE5
:108300002A68607890BB00BFD5F800C02968B1F832
:1083100050108C4421784FF0060909EBC1010CF58F
:10832000806909EB4101084600BF76B9B0F80090BA
:1083300048F2FF3A09EA0A09A0F80090B0F8009064
:1083400049F40049A0F8009020E03E2E0FD800BF6D
:10835000710806F00109B9F1000F00D0491C4FF671
:10836000FF7909EA8129A0F800900FE010E000BF32
:10837000710906F01F09B9F1000F00D1491E4FF431
:10838000004949EA8129A0F8009000BF00BF0FE032
:10839000607801280CD12868B0F850000244207899
:1083A000062101EBC00002F5806101EB40031E8055
:1083B00000BFB3B262896169286806F052FD00BF50
:1083C00022785200296831F8121048F6BF7201EA8B
:1083D000020080F0100080F0200040F4004141F0E5
:1083E000800123785B002A6822F8131000BF002068
:1083F000BDE8F087024601F0070000EB800302F5BC
:10840000B47000EBC300C06970472DE9F047054622
:108410000E4690461F464FF0000906F08000802867
:108420000AD106F0070000EB800105F1280000EBFF
:10843000C1040120607009E006F0070000EB800134
:1084400005F5B47000EBC1040020607006F0070071
:108450002070C4F81080E770607808B12078E0815F
:10846000022F01D10020207100BF95F8A802012839
:1084700002D10220BDE8F087012085F8A80200BFE4
:108480002146286805F0C2FA00BF002085F8A8023E
:1084900000BF4846EEE72DE9F04105460E46174677
:1084A000984606F0070000EB800105F5B47000EB7C
:1084B000C1046761C4F818800020E061607006F0B4
:1084C0000700207006F0070020B92146286805F053
:1084D000BEFE03E02146286805F0B9FE0020BDE895
:1084E000F08170B504460D4605F0070061688842CA
:1084F00001D9012070BD05F0800080280AD105F067
:10850000070000EB800104F1280000EBC106012008
:10851000707007E005EB850104F5B47000EBC1064F
:10852000002070700120B07005F00700307000BFAF
:1085300094F8A802012801D10220DBE7012084F889
:10854000A80200BF3146206805F053FE05F0070081
:1085500020B904F52C71206805F0DBFD00BF002078
:1085600084F8A80200BF00BFC4E72DE9F04105462A
:108570000E4690461F4606F0070000EB800105F10D
:10858000280000EBC104C4F81480A761012084F81E
:10859000240027620020E0610120607006F00700DF
:1085A000207006F0070020B92146286805F04FFE2C
:1085B00003E02146286805F04AFE0020BDE8F0816E
:1085C0007FB50446206806F019FC00F40040B0F5C1
:1085D000004F02D1204602F0B5FD206806F00EFCE7
:1085E00000F48060B0F5806F0FD12068B0F84400CF
:1085F0004FF6FF3108402168A1F84400204600F002
:108600009FF90021204600F0BBF9206806F0F6FB38
:1086100000F48040B0F5804F08D12068B0F84400E5
:108620004BF6FF7108402168A1F84400206806F06D
:10863000E5FB00F40050B0F5005F08D12068B0F809
:1086400044004DF6FF7108402168A1F844002068FD
:1086500006F0D4FB00F48050B0F5805F1DD1206897
:10866000B0F840004FF6FB7108402168A1F84000C7
:108670002068B0F840004FF6F77108402168A1F873
:108680004000204600F06EF92068B0F844004EF635
:10869000FF7108402168A1F84400206806F0AEFB95
:1086A00000F40060B0F5006F55D1002507E06900C7
:1086B000206830F811002DF81500681CC5B2082D8F
:1086C000F5D32068B0F8400040F001002168A1F81F
:1086D00040002068B0F840004FF6FE710840216865
:1086E000A1F8400000BF2068B0F8440000F48060AA
:1086F0000028F8D02068B0F844004FF6FF31084059
:108700002168A1F84400002507E03DF815006A0043
:10871000216821F81200681CC5B2082DF5D3206825
:10872000B0F8400040F008002168A1F8400020683F
:10873000B0F844004FF2FF7108402168A1F84400EE
:108740002068B0F8400040F004002168A1F8400023
:10875000204600F057F9206806F050FB00F4007046
:10876000B0F5007F0BD12068B0F844004FF6FF5100
:1087700008402168A1F84400204600F0FAF820687B
:1087800006F03CFB00F48070B0F5807F08D12068D3
:10879000B0F844004FF6FF6108402168A1F844009A
:1087A0007FBD30B585B0044614B9012005B030BD99
:1087B00094F8A90228B9002084F8A802204600F005
:1087C0009DF8032084F8A902206805F098FC142283
:1087D00004F110016846FDF7B5F894E80F0005F0C4
:1087E0003BFB20B1022084F8A9020120DEE7002132
:1087F000206806F02CFB002531E0012105EB850205
:1088000004F1280000EBC200417005EB850104F182
:10881000280000F8315005EB850100EBC100C5814F
:10882000002105EB850204F1280000EBC200C170B5
:1088300005EB850204F1280000EBC200016105EBA5
:10884000850204F1280000EBC200416105EB8502BE
:1088500004F1280000EBC2008161681CC5B26068A9
:10886000A842CAD800252AE0002105EB850204F5BC
:10887000B47000EBC200417005EB850104F5B470E3
:1088800000F83150002105EB850200EBC200C170F9
:1088900005EB850204F5B47000EBC200016105EB45
:1088A000850204F5B47000EBC200416105EB85025E
:1088B00004F5B47000EBC2008161681CC5B2606849
:1088C000A842D1D8142204F110016846FDF73AF805
:1088D00094E80F0005F008FC20B1022084F8A902FA
:1088E000012063E7002084F82400012084F8A90215
:1088F000206805F0F6FB002058E7000038B5044674
:108900000D492068884215D100BF0C48C06940F469
:1089100000000A49C8610846C06900F400000090E0
:1089200000BF00BF002211461420FFF7F9F8142001
:10893000FFF7E6F838BD0000005C00400010024080
:1089400070B504460125A068022801D0FDF7A0FA01
:108950002946D4F8E80204F02FFDD4F8E80204F028
:10896000E1FC70BD10B50446D4F8E80204F008FD3F
:1089700010BD10B50446D4F8E80204F00CFD10BD9B
:1089800070B504460D4600BF94F8A802012801D135
:10899000022070BD012084F8A80200BF84F8245092
:1089A0002946206806F056FA00BF002084F8A80285
:1089B00000BF00BFEDE710B5044604F52C71D4F8F4
:1089C000E80204F010FD10BD10B5044600BF94F895
:1089D000A802012801D1022010BD012084F8A802BC
:1089E00000BF206806F0F8F901212046FFF72EF9B4
:1089F000206805F073FB00BF002084F8A80200BFC8
:108A000000BFE9E710B50446D4F8E80204F044FDDD
:108A1000A06928B10348006840F0060001490860D9
:108A200010BD000010ED00E0012001490862704710
:108A300000000E422DE9F04385B006463BA30FCB64
:108A400001AC0FC43DA0006800904FF00008002565
:108A500000270024A146012E30D0022E55D0102E22
:108A60005ED137484468006800F0807000B301A808
:108A7000C4F38341475C04F4803070B130484068EF
:108A8000C0F340401DF8008004F4803040B12D4810
:108A9000B0FBF8F000FB07F502E02B4807FB00F500
:108AA0002748406800F48000B0F5800F01D1A94646
:108AB00003E068000321B0FBF1F932E02048046ACA
:108AC00004F44070B0F5807F05D104F0020010B1CD
:108AD0004FF4004918E004F44070B0F5007F07D16E
:108AE0001748406A00F0020010B149F640490BE017
:108AF00004F44070B0F5407F06D11148006800F4DE
:108B0000003008B14FF224490BE000F09BF90C490A
:108B10004968C1F38131491C4900B0FBF1F900E01B
:108B200000BF00BF484605B0BDE8F083020304055E
:108B3000060708090A0B0C0D0E0F101001020000A9
:108B40000010024000127A0000093D00F8B504460A
:108B500000260025207800F0010000286BD00027B7
:108B60004348C06900F0805070B900BF4048C069F8
:108B700040F080503E49C8610846C06900F080500E
:108B8000009000BF00BF01273A48006800F48070E1
:108B9000B0B93848006840F4807036490860FEF784
:108BA00009FF064606E0FEF705FF801B642801D991
:108BB0000320F8BD2F48006800F480700028F2D030
:108BC0002B48006A00F440752DB3A08800F4407073
:108BD000A84220D02648006A20F44075012026498A
:108BE0000860002008602248056205F0010090B18D
:108BF000FEF7E0FE064608E0FEF7DCFE801B41F2D1
:108C00008831884201D90320D3E71948006A00F06F
:108C100002000028F0D01648006A20F44070616815
:108C2000084313490862012F04D10846C06920F0A7
:108C30008050C86100BF207800F00200022807D1F0
:108C40000B48406820F44040A16808430849486048
:108C5000207800F01000102807D10548406820F463
:108C60008000E1680843024948600020A1E7000055
:108C70000010024000700040400442427047000073
:108C800070B504460D460CB9012070BD5A48006805
:108C900000F00700A8420ED25748006820F00700F5
:108CA0002843554908600846006800F00700A842BC
:108CB00001D00120E9E7207800F0020002281DD150
:108CC000207800F00400042805D14C48406840F4A6
:108CD000E0604A494860207800F00800082805D183
:108CE0004648406840F46050444948604348406802
:108CF00020F0F000A168084340494860207800F067
:108D0000010078B36068012806D13C48006800F48F
:108D1000003090B90120B8E76068022806D13748D2
:108D2000006800F0007040B90120AEE733480068E9
:108D300000F0020008B90120A7E73048406820F0A1
:108D40000300616808432D494860FEF733FE06467C
:108D500009E0FEF72FFE801B41F28831884202D9DC
:108D6000032092E707E02548406800F00C006168A6
:108D7000B0EB810FEDD12048006800F00700A84259
:108D80000ED91D48006820F0070028431A490860E2
:108D90000846006800F00700A84201D0012074E7EF
:108DA000207800F00400042807D11448406820F41B
:108DB000E060E168084311494860207800F008004D
:108DC000082808D10D48406820F46050216940EA25
:108DD000C1000A49486000F045F808494968C1F3F4
:108DE0000311074A515CC8400649086006480068FC
:108DF000FEF736FE002048E7002002400010024047
:108E000074110108480100203001002001200149AF
:108E1000C864704700004242014800687047000083
:108E20004801002000B5FFF7F7FF04494968C1F386
:108E30000221034A515CC84000BD000000100240FE
:108E40008411010800B5FFF7E7FF04494968C1F341
:108E5000C221034A515CC84000BD0000001002401E
:108E600084110108F0B585B00FF26C0C9CE8E0109D
:108E700001A8A0E8E0101CA52D68009500210022A3
:108E8000002300240020194D696801F00C05F5B19C
:108E9000042D02D0082D19D101E0154819E001ADCB
:108EA000C1F38346AC5D01F4803555B10F4D6D685B
:108EB000C5F340451DF805200D4D6543B5FBF2F3A4
:108EC00002E00C4D04FB05F3184602E000BF084821
:108ED00000BF00BF05B0F0BD020304050607080986
:108EE0000A0B0C0D0E0F10100102000000100240C2
:108EF00000127A0000093D0010B50648806800F0B5
:108F00008000802804D1FFF7B9FE802001498872D3
:108F100010BD000000100240F8B504460CB9012055
:108F2000F8BD207800F00100002878D0F8484068AB
:108F300000F00C0004280CD0F548406800F00C004C
:108F4000082811D1F248406800F48030B0F5803F25
:108F50000AD1EF48006800F4003000285FD0606854
:108F600000285CD10120DBE700BF6068B0F5803FDE
:108F700006D1E748006840F48030E549086028E001
:108F8000606858B9E248006820F48030E049086021
:108F90000846006820F4802008601AE06068B0F598
:108FA000A02F0BD1DA48006840F48020D84908602F
:108FB0000846006840F4803008600AE0D448006841
:108FC00020F48030D24908600846006820F48020F0
:108FD000086000BF606888B1FEF7ECFC054606E05B
:108FE000FEF7E8FC401B642801D9032098E7C84835
:108FF000006800F400300028F2D010E0FEF7DAFC40
:10900000054606E0FEF7D6FC401B642801D9032084
:1090100086E7BF48006800F400300028F2D12078CD
:1090200000F00200022857D1B948406800F00C0057
:1090300050B1B748406800F00C00082818D1B44877
:10904000406800F4803098B9B148006800F0020030
:1090500020B12069012801D0012061E7AC480068F7
:1090600020F0F800616940EAC100A949086033E0D6
:109070002069E8B10120A7490860FEF79BFC05467E
:1090800006E0FEF797FC401B022801D9032047E7C2
:109090009F48006800F002000028F2D09C48006859
:1090A00020F0F800616940EAC1009949086013E0C6
:1090B000002098490860FEF77DFC054606E0FEF7B3
:1090C00079FC401B022801D9032029E79048006859
:1090D00000F002000028F2D1207800F008000828F3
:1090E0002DD1A069B8B101208B490860FEF762FC60
:1090F000054606E0FEF75EFC401B022801D903206E
:109100000EE78348406A00F002000028F2D00120F8
:1091100002F022FA13E000207F490860FEF74AFCC3
:10912000054606E0FEF746FC401B022801D9032055
:10913000F6E67748406A00F002000028F2D1207875
:1091400000F00400042873D100277148C06900F0C2
:10915000805070B900BF6E48C06940F080506C49C3
:10916000C8610846C06900F08050009000BF00BF91
:1091700001276A48006800F48070B0B96748006849
:1091800040F4807065490860FEF714FC054606E06F
:10919000FEF710FC401B642801D90320C0E65F489D
:1091A000006800F480700028F2D000BFE068012859
:1091B00006D15748006A40F001005549086227E08F
:1091C000E06858B95248006A20F00100504908622E
:1091D0000846006A20F00400086219E0E0680528EB
:1091E0000BD14B48006A40F0040049490862084628
:1091F000006A40F0010008620AE04548006A20F079
:109200000100434908620846006A20F00400086231
:1092100000BFE068A0B1FEF7CDFB054609E0FEF710
:10922000C9FB401B41F28831884202D9032077E60E
:1092300022E03748006A00F002000028EFD012E078
:10924000FEF7B8FB054608E0FEF7B4FB401B41F211
:109250008831884201D9032062E62D48006A00F077
:1092600002000028F0D1012F05D12948C06920F063
:1092700080502749C86100BFE069C8B324484068EE
:1092800000F00C00082860D0E069022848D10020D6
:1092900020490866FEF78EFB054606E0FEF78AFBCE
:1092A000401B022801D903203AE61948006800F063
:1092B00000700028F2D1206AB0F5803F07D1144831
:1092C000406820F40030A168084311494860D4E99F
:1092D000080108430E49496821F4741108430C49F8
:1092E000486001200B490866FEF764FB054607E06D
:1092F0003DE0FEF75FFB401B022801D903200FE68B
:109300000348006800F000700028F2D02FE0000051
:1093100000100240000042428004424200700040BF
:10932000002014490866FEF745FB054606E0FEF7F7
:1093300041FB401B022801D90320F1E50E480068DB
:1093400000F000700028F2D111E0E069012800D19E
:10935000E6E50948466806F48031206A814204D176
:1093600006F47011606A814201D00120D8E5002026
:10937000D6E5000000004242001002402DE9F0470F
:1093800080460E469246002500270024A14640460E
:1093900002F03BF981462548B9FBF0F42448006807
:1093A000A04240D02248046040F2B2750EE0284648
:1093B00006F048F8012806D1B4F5B77F02D3A4F52A
:1093C000B77402E005E0A4F26D146D1CB4F5B67F2D
:1093D000EDD800BF2F46A5F5FA60F070002515E026
:1093E000012D09D1384606F02DF8012804D11D2C95
:1093F00001D31D3C09E00BE00E48405DA04203D8BC
:109400000C48405D241A00E002E06D1C1C2CE7D2E1
:1094100000BF681C7070601CB070B2787178F07812
:1094200002F00DF930700020BDE8F0878051010096
:1094300044010020681101082DE9F04707460C4659
:1094400091460026B046002538684068C0F3800089
:1094500010B10120BDE8F087384602F0D6F8064684
:109460004FF46160B6FBF0F5B6FBF0F100FB116064
:109470003C21B0FBF1F060704FF46160B6FBF0F19D
:1094800000FB11603C21B0FBF1F201FB1200A07067
:109490001820B5FBF0F100FB11502070182D08D3F7
:1094A0001820B5FBF0F8B5FBF0F100FB115020706F
:1094B00000E025700020CDE770B5044600250CB90A
:1094C000012070BD607C20B900202074204600F08F
:1094D0005BF802206074204600F085F918B1042082
:1094E00060740120EDE7204602F055F818B1042021
:1094F00060740120E5E72068406820F007002168DB
:109500004860A06828B11F48006820F001001D498C
:1095100008601C48001F006820F46070A1680843C0
:109520001849091F08606068401C08B1656809E0B7
:109530000120FFF77FFA05461DB904206074012061
:10954000BFE76D1E2068806820F00F0040EA1540DC
:10955000216888602068C06865F30F002168C860D2
:10956000204602F035F818B1042060740120A8E705
:109570000021E17301216173A17301206074002057
:109580009FE70000306C004038B504460B49206866
:10959000884212D1FFF748FA00BF0948C06940F07D
:1095A00000600749C8610846C06900F0006000908B
:1095B00000BF00BF01200349086038BD00280040FB
:1095C000001002403C0442422DE9F04F87B00646AD
:1095D0000F464FF0000900200690804600240590B9
:1095E00004900390824600BF48A207CA8DE8070096
:1095F000304602F00AF881464FF46160B9FBF0F0A2
:1096000006904FF46160B9FBF0F100FB11903C2132
:10961000B0FBF1F0C0B204904FF46160B9FBF0F11F
:1096200000FB11903C21B0FBF1F201FB1200039012
:1096300018210698B0FBF1F201FB12000590F878B2
:1096400000F5FA6840F63300804500D9804640F2C4
:10965000B270804500D2804640F2B2750AE02846DA
:1096600005F0F0FE012802D12B48044401E02B480C
:1096700004446D1C4545F2D397F801A0404605F01F
:10968000E1FE012804D1BAF1020F01D924480444B3
:10969000AAF1010A002507E01DF8050040F2A32108
:1096A000484304EBC0146D1C5545F5D397F802B040
:1096B000ABF1010040F2A321484304EBC01405982C
:1096C000C0EB4011C1EB002004EB00140498C0EB88
:1096D000001004EB80040398044400BF307C012890
:1096E00003D1022007B0BDE8F08F0120307400BF25
:1096F000022070742146304601F0E3FF01207074AF
:1097000000BF0020307400BF00BFEBE71F1C1F1E0E
:109710001F1E1F1F1E1F1E1F0085E2018033E10157
:10972000805101002DE9F05F04460D469046002669
:109730000027B146B246204601F067FF07464FF4C6
:109740006160B7FBF0F9B9F1180F0AD31820B9FB23
:10975000F0FA0AEB4A00C0004FF4616100FB01F728
:1097600000E0002700BF207C012802D10220BDE8D4
:10977000F09F0120207400BF02206074B8F1000F38
:109780000BD128784FF4616148436978C1EB01112E
:1097900000EB8100A978461812E0287801F0F0FE6D
:1097A0004FF4616100FB01FB687801F0E9FEC0EB5A
:1097B00000100BEB800BA87801F0E2FE0BEB00062B
:1097C0003E443146204601F07CFF2068406820F08E
:1097D0000500216848600120607400BF00202074EB
:1097E00000BF00BFC3E770B5044600250CB90120D7
:1097F00070BD2068406820F0080021684860FEF7CE
:10980000D9F8054607E0FEF7D5F8401BB0F57A7F9A
:1098100001D90320ECE72068406800F00800002828
:10982000F1D00020E4E710B504460CB9012010BDCA
:10983000606A38B96068B0F5827F00D105E0002128
:10984000E16102E00021216161610021A16294F8DF
:10985000510028B9002084F85000204600F042F85A
:10986000022084F851002068006820F04000216840
:109870000860A08800F48270218901F40441084343
:10988000A18901F400610843217C01F00201084331
:10989000217D01F001010843218B01F4007108438F
:1098A000217F01F0380108432021095D01F080018A
:1098B0000843218D01F40051084321680860042108
:1098C000A06901EA1040216848602068C06920F45E
:1098D00000602168C86100206065012084F85100A3
:1098E0000020A4E710B586B0044600200290039043
:1098F000049005903349206888422DD100BF32483A
:10990000806940F48050304988610846806900F4DD
:109910008050019000BF00BF00BF0846806940F042
:10992000040088610846806900F00400019000BFCF
:1099300000BFA0200290022003900320059002A9FE
:109940002248FDF78FFE40200290002003900490F3
:1099500002A91E48FDF786FE1D49206888422FD1C6
:1099600000BF1948C06940F480401749C8610846E3
:10997000C06900F48040019000BF00BF00BF0846EE
:10998000806940F0080088610846806900F008009E
:10999000019000BF00BF4FF42040029002200390CE
:1099A0000320059002A90B48FDF75CFE4FF48040B0
:1099B000029000200390049002A90648FDF752FE91
:1099C00006B010BD00300140001002400008014008
:1099D00000380040000C01402DE9F84F044688464D
:1099E00016461D464FF0000A00BF94F850000128AB
:1099F00002D10220BDE8F88F012084F8500000BF9A
:109A0000FDF7D8FF0746B14694F85100012802D06F
:109A10004FF0020AADE0B8F1000F00D016B94FF0D8
:109A2000010AA6E0032084F8510000206065C4F814
:109A30003080A686E686A063A087E0876064206405
:109A4000A068B0F5004F0BD12068006820F04000FE
:109A5000216808602068006840F480402168086040
:109A60002068006800F04000402805D020680068A9
:109A700040F0400021680860E068B0F5006F2FD129
:109A8000606810B1B9F1010F09D1206B008821681D
:109A9000C860206B801C2063E08E401EE0861BE0C7
:109AA0002068806800F0020002280AD1206B00883C
:109AB0002168C860206B801C2063E08E401EE08619
:109AC0000AE0FDF777FFC01BA84201D3681C00B96C
:109AD00015B94FF0030A4CE0E08E0028E0D12EE0EB
:109AE000606810B1B9F1010F09D1206B00782168CD
:109AF0000873206B401C2063E08E401EE0861BE054
:109B00002068806800F0020002280AD1206B0078EB
:109B100021680873206B401C2063E08E401EE086A5
:109B20000AE0FDF747FFC01BA84201D3681C00B93B
:109B300015B94FF0030A1CE0E08E0028E0D13A4648
:109B40002946204601F0F0FD08B120206065A0689C
:109B500050B900BF002000902068C06800902068C5
:109B60008068009000BF00BF606D08B14FF0010A2F
:109B700000BF012084F8510000BF002084F850008D
:109B800000BF504636E72DE9FF5F04468846914600
:109B90001D460E9E012002900020019000BF94F807
:109BA0005000012803D1022004B0BDE8F09F01203D
:109BB00084F8500000BFFDF7FDFE074694F851B051
:109BC00060680390AA46BBF1010F0BD00398B0F573
:109BD000827F04D1A06810B9BBF1040F02D002202B
:109BE0000190DBE0B8F1000F03D0B9F1000F00D015
:109BF00015B901200190D1E094F85100042802D059
:109C0000052084F8510000206065C4F83890E5878D
:109C1000A587C4F83080E586A58620646064206846
:109C2000006800F04000402805D02068006840F03F
:109C3000400021680860E068B0F5006F4AD16068B4
:109C400010B1BAF1010F09D1206B00882168C860FA
:109C5000206B801C2063E08E401EE08633E020688D
:109C6000806800F00200022810D1E08E70B10298E6
:109C700001280BD1206B00882168C860206B801CF4
:109C80002063E08E401EE0860020029020688068FD
:109C900000F0010068B1E08F58B12068C068A16B86
:109CA0000880A06B801CA063E08F401EE08701202D
:109CB0000290FDF77FFEC01BB04204D3701C10B1B0
:109CC000032001906AE0E08E0028C8D1E08F0028D0
:109CD000C5D14AE0606810B1BAF1010F09D1206B1B
:109CE000007821680873206B401C2063E08E401EC2
:109CF000E08634E02068806800F00200022810D17D
:109D0000E08E70B1029801280BD1206B0078216899
:109D10000873206B401C2063E08E401EE08600200C
:109D200002902068806800F0010068B1E08F58B1AF
:109D30002068C068A16B0870A06B401CA063E08F16
:109D4000401EE08701200290FDF734FEC01BB042A8
:109D500001D3701C00B916B9032001901EE0E08EFB
:109D60000028C7D1E08F0028C4D13A4631462046AA
:109D700001F0DAFC20B101200190202060650DE0A7
:109D8000A06850B900BF002000902068C068009013
:109D900020688068009000BF00BF00BF012084F8E9
:109DA000510000BF002084F8500000BF0198FBE67E
:109DB00070B504462546681EB0F1807F01D30120AE
:109DC0000FE0681E4FF0E02148610F214FF0FF3097
:109DD00005F0AEF800204FF0E0218861072008610F
:109DE000002070BD7047704730B502460B4600BF7B
:109DF00092F83C00012801D1022030BD012082F8F8
:109E00003C0000BF022082F83D00106844681068E2
:109E1000816824F070041868044310684460104D91
:109E20001068A8420BD01068B0F1804F07D00D4DDC
:109E30001068A84203D00C4D1068A84205D121F04B
:109E400080015868014310688160012082F83D005C
:109E500000BF002082F83C0000BF00BFCDE700003B
:109E6000002C0140000400400008004010B50446EA
:109E70000CB9012010BD94F83D0028B9002084F8E9
:109E80003C00204600F026F8022084F83D00211D09
:109E9000206802F0B9F9012084F8460000BF84F878
:109EA0003E0001213F200155402001554120015530
:109EB00000BF00BF012084F8420043200155442028
:109EC00001554520015500BF012084F83D000020C8
:109ED000D0E7000038B5044624492068884216D1EE
:109EE00000BF2348C06940F002002149C86108460C
:109EF000C06900F00200009000BF00BF00221146C0
:109F00001D20FDF70DFE1D20FDF7FAFD2CE0206859
:109F1000B0F1804F16D100BF1548C06940F0010074
:109F20001349C8610846C06900F00100009000BFF5
:109F300000BF022211461C20FDF7F2FD1C20FDF798
:109F4000DFFD11E00B49206888420DD100BF0848B1
:109F5000806940F40060064988610846806900F421
:109F60000060009000BF00BF38BD0000000400404A
:109F700000100240002C0140014691F83D000128EC
:109F800001D001207047022081F83D00124B086883
:109F900098420BD00868B0F1804F07D00F4B08688B
:109FA000984203D00E4B086898420CD1086880682C
:109FB00000F00702062A0CD00868006840F0010093
:109FC0000B68186005E00868006840F001000B6845
:109FD00018600020D6E70000002C0140000400407B
:109FE000000800402DE9F04104460D4600BF94F8FA
:109FF0003C00012802D10220BDE8F081012084F854
:10A000003C0000BF022084F83D002068866826F0EE
:10A01000770626F47F46206886602868502833D06B
:10A020000CDC202850D004DC00284BD0102851D163
:10A0300049E0302849D040284CD139E060282DD063
:10A04000702807D0B0F5805F03D0B0F5005F41D134
:10A050000DE040E0D5E902136A68206802F00EF9CD
:10A060002068866846F077062068866033E0D5E988
:10A0700002136A68206802F001F92068806840F4E1
:10A0800080402168886026E0EA686968206802F0FC
:10A0900009F95021206802F0FCF81CE0EA686968C0
:10A0A000206802F012F96021206802F0F2F812E054
:10A0B000EA686968206802F0F5F84021206802F03B
:10A0C000E8F808E000BF00BF00BF2968206802F080
:10A0D000E0F800E000BF00BF012084F83D0000BFB1
:10A0E000002084F83C0000BF00BF85E7704710B532
:10A0F000044620680069C0F34000D8B12068C068F9
:10A10000C0F34000B0B16FF0020021680861012087
:10A1100020772068806900F0030018B12046FFF71F
:10A12000E5FF05E0204600F0ADF8204600F0ABF872
:10A130000020207720680069C0F38000D8B1206833
:10A14000C068C0F38000B0B16FF0040021680861FE
:10A15000022020772068806900F4407018B1204602
:10A16000FFF7C4FF05E0204600F08CF8204600F021
:10A170008AF80020207720680069C0F3C000D8B1B9
:10A180002068C068C0F3C000B0B16FF0080021685B
:10A190000861042020772068C06900F0030018B12E
:10A1A0002046FFF7A3FF05E0204600F06BF82046AD
:10A1B00000F069F80020207720680069C0F30010E3
:10A1C000D8B12068C068C0F30010B0B16FF01000C3
:10A1D00021680861082020772068C06900F4407079
:10A1E00018B12046FFF782FF05E0204600F04AF84C
:10A1F000204600F048F8002020772068006900F031
:10A20000010058B12068C06800F0010030B16FF063
:10A21000010021680861204600F036F820680069D6
:10A22000C0F3C01058B12068C068C0F3C01030B18E
:10A230006FF08000216808612046FFF7D3FD206899
:10A240000069C0F3801058B12068C068C0F3801066
:10A2500030B16FF0400021680861204600F020F81E
:10A2600020680069C0F3401058B12068C068C0F38E
:10A27000401030B16FF02000216808612046FFF7E0
:10A28000B2FD10BD7047704710B504460349206801
:10A29000884201D101F054FE10BD000000040040CE
:10A2A00070477047704700002DE9F84F044620685A
:10A2B00005682068C668206847694FF00009CA46EB
:10A2C00005F00F09B9F1000F0AD105F0200038B1EF
:10A2D00006F0200020B1204602F040F8BDE8F88FDB
:10A2E000B9F1000F71D007F0010018B906F49070B1
:10A2F00000286AD005F0010030B106F4807018B172
:10A30000206C40F00100206405F0040030B107F03B
:10A31000010018B1206C40F00200206405F002003A
:10A3200030B107F0010018B1206C40F00400206447
:10A3300005F0080048B106F0200010B907F0010050
:10A3400018B1206C40F008002064206C68B305F060
:10A35000200028B106F0200010B1204601F0FEFFD9
:10A3600020684069C0F3801A206C00F0080010B922
:10A37000BAF1000F22D0204601F0C5FF20684069E5
:10A3800000F04000B0B12068406920F04000216832
:10A390004861A06B50B15648A16B4863A06BFDF7B4
:10A3A00023F810B1A06B416B88470CE02046FFF703
:10A3B00079FF08E02046FFF775FF04E02046FFF72D
:10A3C00071FF0020206489E7FFE7206B012878D126
:10A3D00005F01000002874D006F01000002870D09E
:10A3E00000BF00200090206800680090206840684E
:10A3F000009000BF00BF2068406900F04000C0B37B
:10A40000A06B006840681FFA80F8B8F1000F2FD0E9
:10A41000A08D40452CDDA4F82E80A06B80692028FB
:10A420001FD02068C06820F480702168C860206850
:10A43000406920F00100216848612068406920F0EF
:10A44000400021684861202084F83E0000202063FD
:10A450002068C06820F010002168C860A06BFCF77D
:10A4600097FFA08DE28D801A81B22046FFF719FF79
:10A4700034E7FFE7A08DE18D401A1FFA80F8E08DE8
:10A48000E8B1B8F1000F1AD02068C06820F49070CD
:10A490002168C8602068406920F001002168486197
:10A4A000202084F83E00002020632068C06820F04F
:10A4B00010002168C86041462046FFF7F2FE0DE714
:10A4C000FFE705F0800030B106F0800018B12046AB
:10A4D00002F034F802E705F0400030B106F0400029
:10A4E00018B1204601F02AFFF8E600BFF6E60000AA
:10A4F000F3C2000810B504460CB9012010BDA069D4
:10A5000000B100E000BF94F83D0028B9002084F8B5
:10A510003C00204600F028F8242084F83D00206804
:10A52000C06820F400502168C860204601F088FF10
:10A530002068006920F49040216808612068406923
:10A5400020F02A00216848612068C06840F400506B
:10A550002168C86000202064202084F83D0084F831
:10A560003E000020CAE7000010B586B00446002077
:10A5700002900390049005905D49206888423FD185
:10A5800000BF5C48806940F480405A4988610846B1
:10A59000806900F48040019000BF00BF00BF084602
:10A5A000806940F0080088610846806900F0080072
:10A5B000019000BF00BF40200290022003900320C2
:10A5C000059002A94C48FDF74DF88020029000202C
:10A5D0000390049002A94848FDF744F800BF47499A
:10A5E000486840F0E06040F00400486000BF00228E
:10A5F00011462520FDF794FA2520FDF781FA75E034
:10A600003F492068884236D100BF3A48C06940F4CB
:10A6100000303849C8610846C06900F40030019034
:10A6200000BF00BF00BF0846806940F00400886199
:10A630000846806900F00400019000BF00BF0420BC
:10A640000290022003900320059002A92D48FDF7F7
:10A6500009F80820029000200390049002A92948DC
:10A66000FDF700F8002211462620FDF759FA2620B2
:10A67000FDF746FA3AE024492068884236D100BF07
:10A680001C48C06940F480201A49C8610846C06966
:10A6900000F48020019000BF00BF00BF0846806921
:10A6A00040F0080088610846806900F008000190C9
:10A6B00000BF00BF08150290022003900320059000
:10A6C00002A90D48FCF7CEFF4FF400600290002075
:10A6D0000390049002A90848FCF7C4FF0022114629
:10A6E0002720FDF71DFA2720FDF70AFA06B010BD56
:10A6F0000038014000100240000C01400000014001
:10A7000000440040000801400048004070472DE927
:10A71000F84F04460E46174699464FF0000A94F843
:10A720003D0020285AD106B117B90120BDE8F88FA5
:10A7300000BF94F83C00012801D10220F6E7012077
:10A7400084F83C0000BF00202064212084F83D00F4
:10A75000FDF730F98246A784E784A068B0F5805FF2
:10A7600004D1206910B90025B04602E035464FF00B
:10A77000000800BF002084F83C0000BF1BE05346E7
:10A78000002280212046CDF8009001F007FF08B19B
:10A790000320CBE745B9B8F80000C0F308002168F2
:10A7A000486008F1020803E02878216848606D1CC1
:10A7B000E08C401EE084E08C0028E0D1534600226B
:10A7C00040212046CDF8009001F0E8FE08B10320BA
:10A7D000ACE7202084F83D000020A7E70220A5E791
:10A7E0007047000002E002A006F0DAF8FBE7000084
:10A7F0007B22526563697665223A7B2253746174C9
:10A800007573223A37307D7D0A00000030B59DB067
:10A8100004460D467022284901A8FBF793F8332D12
:10A8200037D006DC102D0BD0122D3AD0142D40D18C
:10A8300017E0352D1DD0372D0BD0392D39D120E023
:10A84000A006010E1D4B01AA602000F018F91DB0F2
:10A8500030BDA006010E194B05AA612000F00FF9CA
:10A86000F5E7A006010E154B09AA602000F007F9D4
:10A87000EDE7A006010E114B0DAA612000F0FFF8D4
:10A88000E5E7A006010E0D4B11AA612000F0F7F8D4
:10A89000DDE7A006010E094B15AA612000F0EFF8D4
:10A8A000D5E7A006010E054B19AA602000F0E7F8D5
:10A8B000CDE70120CBE70000D4110108D81F00200C
:10A8C00070B504460D462946204600F059F970BD82
:10A8D00070B504460026002504E0002013494855C1
:10A8E000681CC5B20A2DF8DB104800F0FFF830B143
:10A8F0000020E070A070607020704E2070BD0B488A
:10A9000000F077F930B90020E070A070607020701E
:10A910004E20F3E7002504E00448405D6055681CC4
:10A92000C5B2042DF8DB0020E8E70000D81F0020A6
:10A930000870020A4A70020C8A70020ECA707047D0
:10A9400030B50B46002100BF16E00A24B4EB107F9F
:10A9500005D9302404EB107403F8114005E04124BC
:10A9600004EB10740A3C03F81140000100254C0070
:10A97000641C1D554C1CE1B29142E6DB30BD000069
:10A9800070B504460D4616464AF6AA2004490968E1
:10A990000860AAB22146304600F05CFF70BD00009E
:10A9A000C00B0020FEB5002500266A460B214FF49F
:10A9B0000120FFF7E5FF69461C48FBF71EF901A9D6
:10A9C0001B48FBF71AF900BF002404E01DF804003F
:10A9D000284485B2641C092CF8D39DF809109DF811
:10A9E0000A0001EB0020A84204D000200F490860B3
:10A9F0000F4908609DF80800072804D000200B4983
:10AA000008600B4908600948006847F2C71188428E
:10AA100002D900200549086005480068022802D3D1
:10AA200000200349086001F0FBF9FEBD0000002092
:10AA3000040000202DE9FC410446002700210D20E0
:10AA400004F032FA932020702020607001A8234681
:10AA50000222214600900C2000F0F8F806465EB96C
:10AA6000002503E0605D4740681CC5B2042DF9DB9A
:10AA7000605DB84200D002263046BDE8FC812DE979
:10AA8000F04385B006460F46904699468DF804601F
:10AA90008DF80570002406E018F8041001AAA01C27
:10AAA0001154601CC4B2062CF6DB002407E019F830
:10AAB000041001AA04F108001154601CC4B2042C53
:10AAC000F5DB04A801AB0C2201A900900E2000F0D8
:10AAD000BDF805462DB9082000F00AFE00F0080078
:10AAE00000B90225284605B0BDE8F08370B50446DC
:10AAF00008210846FBF792F92146522000F05BF846
:10AB000005461DB92046FFF795FF0546284670BD4E
:10AB100010B5012210211848FCF746FF0022012140
:10AB20001648FCF741FF0120FCF7B6FC0122114654
:10AB30001248FCF739FF0120FCF7AEFC00F053F897
:10AB40008D212A2004F0B0F93E212B2004F0ACF92D
:10AB50001E212D2004F0A8F900212C2004F0A4F9D6
:10AB60004021152004F0A0F93D21112004F09CF9AA
:10AB7000FBF738F810BD000000080140000C014050
:10AB80007CB505460C46302020706570A21C022161
:10AB90002046FBF711F901A8234604222146009024
:10ABA0000C2000F053F8064616B90198902800D002
:10ABB000022630467CBD7CB506460C4607210D209A
:10ABC00004F072F9267001A8234601222146009064
:10ABD0000C2000F03BF8054615B90198102800D06C
:10ABE000022528467CBD10B50F21012004F05CF938
:10ABF00010BDF0B585B0074693208DF80400702095
:10AC00008DF80500002405E0395D01AAA01C11544F
:10AC1000601CC4B2052CF7DB0DF10B02072101A863
:10AC2000FBF7CAF804A801AB092201A900900C2087
:10AC300000F00CF805462DB90498182802D19DF8AB
:10AC4000046000E00026304605B0F0BD2DE9FE4F5F
:10AC50000646884691469A46DDF830B002200290BA
:10AC60000020019000900C2E06D00E2E09D112204B
:10AC700001901020009005E0772001903020009096
:10AC800000E000BF00BF019840F08001022004F006
:10AC90000BF980210420FBF7C1F880210A2001F084
:10ACA0002FF90021012004F0FFF8002505E018F835
:10ACB0000510092004F0F8F86D1C4D45F7D3314616
:10ACC000012004F0F1F80C2E03D180210D2001F0B9
:10ACD00017F94FF4FA6500BF042000F009FD04469F
:10ACE0006D1E35B104F0010018B90098204000280D
:10ACF000F2D080210D20FBF791F895B3062000F0EB
:10AD0000F7FC00F01B0068BB002002900198204077
:10AD100000F0010008B1012002900C2E24D10A207D
:10AD200000F0E6FC04460C2000F0E2FC00F007070F
:10AD30002FB1601E07EBC000CBF8000002E0E0007E
:10AD4000CBF8000004B90124102C00DD10240025EC
:10AD500005E0092000F0CCFC0AF805006D1CA542B6
:10AD6000F7D301E0022002900298BDE8FE8F0000B8
:10AD700000B585B00020019002900390049000BFC0
:10AD80004B48806940F01000494988610846806955
:10AD900000F01000009000BF00BF00BF08468069AF
:10ADA00040F0200088610846806900F02000009093
:10ADB00000BF00BF00BF0846806940F00400886102
:10ADC0000846806900F00400009000BF00BF00BF8B
:10ADD0000846806940F0080088610846806900F0F4
:10ADE0000800009000BF00BF00224FF4E26131482C
:10ADF000FCF7DAFD002201212F48FCF7D5FD4FF4C6
:10AE0000E260019001200290002003900320049052
:10AE100001A92848FCF726FC01200190029000209F
:10AE200003900220049001A92348FCF71BFC012297
:10AE3000D1032048FCF7B8FD4FF4004001900120F9
:10AE40000290002003900320049001A91948FCF708
:10AE500009FC012210211848FCF7A6FD10200190E2
:10AE60000120029003900320049001A91248FCF7EE
:10AE7000F9FB012210211048FCF796FD0122110375
:10AE80000D48FCF791FD4FF4805001900120029095
:10AE9000002003900320049001A90748FCF7E2FB7F
:10AEA000012211030448FCF77FFD05B000BD00003E
:10AEB0000010024000080140000C014010B5074896
:10AEC000074908600620486040F6FF710448816029
:10AED000FCF776FD08B1FAF7DBFF10BD003000404B
:10AEE000C00B00201CB500200190009007480849C5
:10AEF00008604FF0FF3048604FF480710448816073
:10AF0000FEF7DAFA08B1FAF7C3FF1CBD00280040CB
:10AF1000CC0B002010B50F480F4908604FF4827029
:10AF2000486000210C488160C160016141614FF4BB
:10AF3000007181612821C1610021016241624FF4E9
:10AF4000005181620921C162FEF76DFC08B1FAF778
:10AF50009FFF10BD00300140E00B002010B50F48EE
:10AF60000F4908604FF48270486000210C488160EE
:10AF7000C160022101610121416149028161082111
:10AF8000C16100210162416281620A21C162FEF752
:10AF90004AFC08B1FAF77CFF10BD00000038004001
:10AFA000380C002000B587B0002003900490059075
:10AFB00006900190029014481449086040F2DB505A
:10AFC00048600021114881600121C16000210161B8
:10AFD0008161FEF74BFF08B1FAF75AFF4FF480503A
:10AFE000039003A90948FEF7FDFF08B1FAF750FFE7
:10AFF00000200190029001A90448FEF7F5FE08B177
:10B00000FAF746FF07B000BD00040040900C002096
:10B0100010B5094809490860002108488160C160ED
:10B0200001610C21416100218161C161FFF762FA78
:10B0300008B1FAF72DFF10BD00380140D80C0020F0
:10B0400010B50B480B4908604FF4E130486000210F
:10B0500008488160C16001610C214161002181616A
:10B06000C161FFF747FA08B1FAF712FF10BD0000FF
:10B07000004400401C0D002010B50B480B4908602F
:10B080004FF496404860002108488160C16001612A
:10B090000C21416100218161C161FFF72BFA08B1E8
:10B0A000FAF7F6FE10BD000000480040600D0020D9
:10B0B0001FB5002000900190029003904FF4805043
:10B0C0000090012001900220029003200390694625
:10B0D0001448FCF7C7FA00224FF480511148FCF7DE
:10B0E00063FC6420FCF7D8F900220F490F4801F0F7
:10B0F00070FF08B1FAF7CCFE0D490C4802F002FAD5
:10B1000008B1FAF7C5FE0B49084801F008FC08B180
:10B11000FAF7BEFE054802F0BFFA08B1FAF7B8FE2A
:10B120001FBD000000080140C4000020A40D002045
:10B130005C0100201C01002000BFFEE7FDF7DCFEE3
:10B1400000BFFEE72DE9F0470546EAE12868B0F8C0
:10B1500044A00AF00F06002E7ED10AF01000B0BB0A
:10B1600000BF2968098848F60F7201EA020040F41E
:10B1700000412A68118000BF05F128042868B0F852
:10B180005010207801EBC000801C296801F5806117
:10B1900031F81000C0F30900E061E169606908441A
:10B1A000606100212846FCF752FD95F82400002834
:10B1B000CBD0A0690028C8D195F8240040F08000C9
:10B1C0002968A1F84C00002085F82400A9E1FFE7D8
:10B1D00005F5B4742868B0F8008008F4006030B356
:10B1E0002868B0F85010207801EBC000801D296855
:10B1F00001F5806131F81000C0F30900E061A18B16
:10B200008BB2E28805F52C71286803F0FBFD00BFC6
:10B210002968098840F68F7201EA020040F0800137
:10B220002A68118000BF2846FDF7C5FB79E108F4C4
:10B230000040002889D000BF2968098840F68F7235
:10B2400001EA020040F080012A68118000BF2868EE
:10B25000B0F85010207800E06FE001EBC000801DD6
:10B26000296801F5806131F81000C0F30900E06140
:10B27000E06990B1606980B1B4F81CC01FFA8CF32A
:10B28000E2886169286803F0BDFDE16960690844EE
:10B29000606100212846FCF7EAFC2868008800F479
:10B2A0000060002892D100BF2A682968B1F85010C8
:10B2B0000A4402F20C41084600BF236953B90388CF
:10B2C00048F2FF3C03EA0C030380038843F4004385
:10B2D00003801EE023693E2B0DD800BF2369590867
